:020000040800F2
:10000000F0FF012011E1030865D80008BD0E0308C8
:1000100089E1030889E1030889E103080000000081
:1000200000000000000000000000000061D800088F
:100030005DD800080000000059D8000809D802085F
:1000400089E1030889E1030889E1030889E10308DC
:1000500089E1030889E10308D92C0308052E030868
:10006000C92D03088D2D0308512D030851CB03081A
:1000700041CB030831CB030821CB03080DCB030888
:10008000F9CA0308E5CA030889E103080000000073
:10009000000000000000000000000000152D030813
:1000A00035B6020885B6020825B60208ADB60208C4
:1000B00075B6020865B6020855B602089DD5030854
:1000C000A5D5030891D5030899D5030889E103084C
:1000D00089E1030869D90208ADD8020800000000D0
:1000E0009D2C030889E10308350A0108000000007F
:1000F000000000000000000000000000D1CA03085A
:100100000000000089E1030845B6020889E1030800
:1001100000000000000000000000000000000000DF
:10012000BDCA0308A9CA030895CA030881CA0308FF
:100130006DCA03080000000000000000000000007D
:100140000000000000000000000000003DEF00087B
:1001500059CA030845CA030831CA030889E10308DC
:1001600085D503088DD503080000000000000000BD
:10017000000000000000000000000000000000007F
:100180000000000089E103080000000000000000FA
:0801900089E1030889E103087D
:08019800B0DC030001000000CF
:1001A0001B1001000C000000241E0020545E0020E3
:1001B00000000000551F010821020100F0000000AE
:1001C000401C0020605E002000000000FD9200083E
:1001D000052001000C000000CC460020505F0020EC
:1001E00000000000B80700080E0201000200000035
:1001F000102A00205C5F002000000000C4070008F7
:100200001610010006000000E4290020605F0020B5
:1002100000000000C60700082F10010022000000A7
:10022000D45D0020685F002000000000CC070008BB
:10023000FD0701007A000000461B00208C5F0020B3
:1002400000000000D18B00080B3001001A000000F4
:100250002C1B00200860002000000000EE070008B2
:10026000F591010048000000301E002024600020AD
:100270000000000079910008261001000E00000027
:100280007C6000206C60002000000000C58A00082F
:100290001302010004000000DC1A00208C60002022
:1002A00000000000080800081220010011000000F2
:1002B0009426002090600020000000000C08000838
:1002C0000D10010040000000E8460020A46000205E
:1002D0000000000029B0020809020100010000002E
:1002E00008500020E4600020000000001E08000804
:1002F000F901010004000000BC460020E860002075
:1003000000000000FD970208FD010100240000002C
:1003100098460020EC60002000000000579702087B
:1003200018200100380000005C4600201061002009
:1003300000000000FDAB03080610010024000000CF
:1003400038460020486100200000000081AB03080F
:10035000FB01010001000000404500206C6100200D
:100360000000000055AB0308FC010100090000007B
:100370000C440020706100200000000065AB030801
:10038000F701010006000000004400207C6100200D
:1003900000000000200800080A8001002C00000076
:1003A000DC3B002084610020000000000D160108E5
:1003B000160215003F000000703B0020B0610020D5
:1003C000000000009D9E03083400010010000000A2
:1003D000A03A0020F0610020000000003DA30108C9
:1003E0001102010008000000783A0020006200209D
:1003F000000000002608000812120100040000009E
:10040000703A002008620020000000002E0800085A
:10041000000201000B000000243100200C620020CB
:1004200000000000D99F03080C0201000400000036
:10043000D43000201862002000000000B19F0308A3
:10044000FE01010014000000804700201C62002013
:10045000000000000DA00308F62101000C000000C0
:10046000646E0020006F00200000000034080008C7
:100470001C0202001C0000007C6E0020506F002057
:100480000000000085AC0308140001000500000016
:10049000306E00206C6F0020000000004008000853
:1004A0000E200300BC0100007C620020746F00205D
:1004B00000000000FD980108130001000400000086
:1004C000086C00203071002000000000480800087F
:1004D0002320010010000000766800203471002005
:1004E0000000000065160108000101000400000082
:1004F0004062002044710020000000004C08000809
:1005000002010100030000003C620020487100204D
:1005100000000000B51D02080C400600E4000000C9
:10052000986400204C71002000000000751D020836
:10053000010201000B0000004C620020307200201C
:1005400000000000C99F0308020201000300000030
:10055000546800203C7200200000000000000000F1
:100560001B020100100000004468002040720020BF
:10057000000000009D9F030825201E002C010000A4
:10058000D87B0020787E00200000000000000000E2
:100590001010010002000000AC7B0020A47F0020AE
:1005A00000000000500800081900010005000000CC
:1005B0006C7B0020A87F002000000000520800088B
:1005C000012001000C000000F4740020B07F002026
:1005D00000000000580800081A0001000E0000008A
:1005E000407A0020BC7F0020000000006408000862
:1005F00015001000700000007C780020CC7F0020E7
:1006000000000000000000002A0008006000000058
:10061000EC7A00203C80002000000000D598010802
:100620002C00040010000000AC8000209C80002002
:1006300000000000259201082B0012002400000099
:10064000E0800020BC80002000000000F99101083B
:1006500029201400780000009076002004810020FA
:10066000000000000000000029020100400000001E
:1006700048830020A48900200000000072080008C0
:1006800003000100010000008C890020E4890020A3
:1006900000000000000000001F0208001000000021
:1006A0004C8C0020F48D0020000000007D9F03088A
:1006B0001A0201003C0000005C8B0020048E002028
:1006C0000000000011AD0308381001000100000017
:1006D0000C8A0020408E002000000000B2080008B4
:1006E000020001000C000000248B0020448E00203A
:1006F0000000000000000000F821010006000000DA
:10070000308B0020508E002000000000B40800084C
:100710002700010004000000608E0020648F00208C
:1007200000000000BA080008040008008000000073
:10073000648E0020E48E0020000000000000000015
:100740001002010001000000809500207C9500202F
:1007500000000000BE0800080702010002000000BF
:10076000649500208495002000000000C008000867
:100770001D02020006000000F89400208895002069
:100780000000000000000000060203000C00000052
:100790004495002090A00020000000006DAC0308EC
:1007A000081203000F000000349500209CA00020D8
:0807B00000000000E19F0308B6
:1007B8000203000000000000000000000000C4095F
:1007C8000000190000000000000000000000000008
:1007D8000000000000000000000000000000000011
:1007E800000000000000AE014A015E012C01640116
:1007F8000100000001000A019A01001E0A0000021F
:100808000000013F000000010001054D4B3431009C
:1008180000080002000000002201000000000000A3
:10082800000001010101FFFFFFFF000000000000C0
:100838000100000002020000030000230000000085
:100848004804443090010000000500002801000021
:10085800E8036400040A000114001E007E05EA058E
:10086800B4053200E803D0070000000000000000D3
:100878000000000000000000000000000000000070
:100888000000000000000000000000000000000060
:100898000000000000000000000000000000000050
:1008A800000000000000000000000000020000003E
:0A08B8000000200300000000013CD6
:1008C2000403090412010002EF02014083045632BC
:1008D20000020102030100001201000202020040B4
:1008E2008304405700020102030100000902640070
:1008F200030100C0320904000001030000000921C5
:10090200110100012236000705830309000A080BC2
:1009120001020202010009040100010202010005B4
:100922002400100105240100020424020205240609
:100932000102070582030800FF09040200020A00FF
:100942000000070501024000000705810240000087
:1009520009024300020100C0320904000001020240
:1009620001000524001001052401000104240202F3
:100972000524060001070582030800FF090401009F
:10098200020A00000007050102400000070581027B
:1009920040000000FF000000000001007EFF000098
:1009A200000004010000000000000002100000002E
:1009B20007000000B9820008B5820008B182000871
:1009C200A5820008A1820008AD820008A982000861
:1009D2002D83000821830008F98200080D83000896
:1009E200E5820008D1820008BD82000801010000F2
:1009F20005010905A101A1000501093009310932EA
:100A0200093309350934093609371581257F7508F7
:100A12009508810205091901290815002501950883
:100A220075018102C0C0000009022200010100E03C
:100A32003209040000010301020009211101000131
:100A42002236000705830309000A00000060024005
:100A5200106002400000000000000000000B0000D7
:100A620000000000000000000000000000600240E2
:100A7200286002400100000000000000060C000097
:100A820000000000000000000000000000600240C2
:100A9200406002400200000000000000100D000053
:100AA20000000000000000000000000000600240A2
:100AB200586002400300000000000000160E000013
:100AC2000000000000000000000000000060024082
:100AD200706002400400000000000000200F0000CF
:100AE2000000000000000000000000000060024062
:100AF200886002400500000000000000261000008F
:100B02000000000000000000000000000060024041
:100B1200A06002400600000000000000301100004A
:100B22000000000000000000000000000060024021
:100B3200B86002400700000000000000362F0000ED
:100B420000000000000000000000000000640240FD
:100B520010640240000000000000000000380000A5
:100B620000000000000000000000000000640240DD
:100B72002864024001000000000000000639000065
:100B820000000000000000000000000000640240BD
:100B9200406402400200000000000000103A000021
:100BA200000000000000000000000000006402409D
:100BB200586402400300000000000000163B0000E1
:100BC200000000000000000000000000006402407D
:100BD200706402400400000000000000203C00009D
:100BE200000000000000000000000000006402405D
:100BF2008864024005000000000000002644000056
:100C0200000000000000000000000000006402403C
:100C1200A064024006000000000000003045000011
:100C2200000000000000000000000000006402401C
:100C3200B8640240070000000000000036460000D1
:100C420000000000000000000000000000000000A2
:100C520001020304010203040607080911DA00086D
:100C6200CDE0000845DC0008D5830008B5890008FE
:100C7200E583000801840008AD8300089D83000815
:100C8200000000000000000001FF0100E001000080
:100C92003067002084670020080000000000000088
:100CA2000000000000000000AC0E0408000000007C
:100CB2000000000000000000640F040800000000B3
:100CC2000000000000000000100F040800000000F7
:100CD200000000009123010831690020312D010834
:100CE20000000000000000003C0E0408FFFFFFFFB0
:100CF20001000000FA0000000100000001000000F5
:100D0200D601FF0101000000000101010000000006
:100D1200C21D00200100C40900000000C01D002007
:100D22000100C40900000000BE1D00200100C4092A
:100D320000000000BC1D00200100C40900000000EA
:100D4200B81D00200100C40900000000BA1D0020E7
:100D52000100C40900000000B61D00200100C40902
:100D620000000000B41D00200100C40900000000C2
:100D7200466200200083007D0500000044620020DE
:100D820080C1803E050000003F62002000FF01009C
:100D9200386200206400F401010000003662002085
:100DA2006400F40101000000346200206400F401D8
:100DB200010000003262002004000000C0030408A9
:100DC2003162002002000000D40304086F62002098
:100DD2000D000000E00304086C62002000640100C2
:100DE2006A620020320010270A00000068620020B8
:100DF2000D000000E0030408676200200D000000FF
:100E0200E0030408666200200200000018040408DF
:100E12001B6600204100000024040408196600201B
:100E2200030000002C0504081A66002004000000DC
:100E32003C05040844640020020000005005040838
:100E4200426400200000F401010000004064002020
:100E52000000F401010000003E6400200000F401E3
:100E6200010000003C6400200000F40101000000C9
:100E72003A6400200000A00F010000003864002046
:100E82000000A00F01000000946400200064010033
:100E92000A00000093640020006401000A000000C0
:100EA20081640020196401008064002002000000B7
:100EB2005C0504087E640020E803D0070A000000F5
:100EC2007C640020006401000A00000071640020BC
:100ED2000064010070640020006401007864002056
:100EE200006401000A000000776400200064010031
:100EF2000A00000076640020006401000A0000007D
:100F02007B64002000FF01000A0000007A640020D8
:100F120000FF01000A0000007964002000FF0100C8
:100F22000A0000007564002001FF01000A000000B1
:100F32007464002001FF01000A00000073640020B5
:100F420001FF01000A000000786200200000F401A5
:100F520001000000766200200000A00F01000000E6
:100F6200746200200000A00F0100000072620020E5
:100F72000000A00F01000000706200200000A00F1E
:100F8200010000005F640020FF0801005E64002091
:100F9200016401005A6400201400E803010000000B
:100FA20058640020000030750A00000056640020DA
:100FB20000C801005564002000C8010054640020EC
:100FC20000C8010053640020003201006164002067
:100FD200004B010060640020040000006805040862
:100FE20052640020006401000A0000008A650020AB
:100FF2000000D007010000008465002000C8010045
:101002008365002000C801008265002000C801003D
:10101200886500200000D0070100000081650020E3
:1010220000C801008065002000C801007F65002023
:1010320000C80100866500200000D0070100000002
:101042007E65002000C801007D65002000C8010007
:101052007C65002000C80100C9110108B111010816
:10106200000000007C0504085D620020005A0100B7
:101072005C62002000C801005A620020E803D00729
:10108200010000000000000000000000CD23010864
:101092001806040859620020030000006C060408C8
:1010A2005862002000030100576200200003010083
:1010B200F9100108C7100108000000007C060408AE
:1010C200D91101080D60010800000000180704088A
:1010D20095240108F514010800000000C007040867
:1010E200D512010899120108000000004C080408FA
:1010F20099130108D913010800000000D808040858
:101102008D650020010601005D1201082912010807
:1011120000000000F0090408111301086D2E0108F7
:1011220000000000600A040809140108FD2E0108ED
:1011320000000000240B04088C650020010301005C
:10114200851101085911010800000000F80B04087C
:10115200912F010800000000000000005C0C040850
:101162002D1101082911010800000000F80C0408E3
:101172000000000000000000000000005C0D0408F8
:1011820059140108752F010800000000B00D040871
:10119200010000000000803F00000000000000008D
:1011A200000000000000000000000000000000003D
:1011B2000000000000000000000000000000803F6E
:1011C2000000000000000000000000000000803F5E
:1011D2000000000000000000000000000000803F4E
:1011E20000000000000000000000000001000000FC
:1011F2000000FA430000FA43FFFFFFFFB063040858
:10120200B451040800000000D51F0208A0860100A6
:1012120004000000000000000000000000000000C8
:1012220000000000000000000000000000000000BC
:10123200000000000000000000000000B06304088D
:10124200B863040800000000E9950208E803000002
:101252000400000000000000000000000000000088
:10126200000000000000000000000000000000007C
:10127200000000000000000000000000B85B04084D
:101282000000000000000000F92002087D000000BC
:10129200FF0000000000000000000000000000004D
:1012A200000000000000000000000000000000003C
:1012B20000000000000000000000000084AC0408F0
:1012C20000000000000000003D2702087D00000031
:1012D200FF0000000000000000000000000000000D
:1012E20000000000000000000000000000000000FC
:1012F200000000000000000000000000745A040812
:1013020000000000000000006D5102087D00000096
:10131200FF000000000000000000000000000000CC
:1013220000000000000000000000000000000000BB
:10133200000000000000000000000000C06304087C
:101342000000000000000000B1050308E8030000EF
:101352000300000000000000000000000000000088
:10136200000000000000000000000000000000007B
:10137200000000000000000000000000C463040838
:101382000000000000000000A5DD01081027000099
:101392000300000000000000000000000000000048
:1013A200000000000000000000000000000000003B
:1013B2000000000000000000000000008CA80408EB
:1013C200000000008D8E01087DC602085F760000D5
:1013D2000500000000000000000000000000000006
:1013E20000000000000000000000000000000000FB
:1013F20000000000000000000000000028AC04080B
:101402000000000000000000D518030810270000AB
:1014120001000000000000000000000000000000C9
:1014220000000000000000000000000000000000BA
:10143200000000000000000000000000D06304086B
:101442000000000000000000ED950208E803000023
:101452000500000000000000000000000000000085
:10146200000000000000000000000000000000007A
:10147200000000000000000000000000DC6304081F
:1014820000000000000000000D1F0208204E0000B6
:101492000300000000000000000000000000000047
:1014A200000000000000000000000000000000003A
:1014B200000000000000000000000000EC630408CF
:1014C2000000000000000000251E0208204E00005F
:1014D2000300000000000000000000000000000007
:1014E20000000000000000000000000000000000FA
:1014F200000000000000000000000000FC6304087F
:101502000000000000000000010B0308400D030072
:1015120003000000000000000000000000000000C6
:1015220000000000000000000000000000000000B9
:101532000000000000000000000000000C6404082D
:10154200000000000000000029040308102700002A
:101552000100000000000000000000000000000088
:101562000000000000000000000000000000000079
:10157200000000000000000000000000585A0408AB
:101582000000000000000000F19A020850C30000B1
:101592000100000000000000000000000000000048
:1015A2000000000000000000000000000000000039
:1015B20000000000000000000000000000580408C5
:1015C20000000000000000002D980208A861000041
:1015D2000100000000000000000000000000000008
:1015E20000000000000000000000000000000000F9
:1015F2000000000000000000000000001464040865
:101602000000000000000000D9600108A08601006F
:1016120001000000000000000000000000000000C7
:1016220000000000000000000000000000000000B8
:101632000000000000000000000000002064040818
:101642000000000000000000D9FF00081027000081
:101652000100000000000000000000000000000087
:101662000000000000000000000000000000000078
:1016720000000000000000000000000018610408E3
:101682000000000000000000A9F900081A41000053
:101692000100000000000000000000000000000047
:1016A2000000000000000000000000000000000038
:1016B200000000000000000000000000C851040803
:1016C20000000000000000009936010850C300002D
:1016D2000100000000000000000000000000000007
:1016E20000000000000000000000000000000000F8
:1016F2000000000000000000000000002C6404084C
:101702000000000000000000254E010850C3000048
:1017120003000000000000000000000000000000C4
:1017220000000000000000000000000000000000B7
:1017320000000000000000000000000038640408FF
:101742000000000000000000F1DD020850C30000AC
:101752000000000000000000000000000000000087
:101762000000000000000000000000000000000077
:101772000000000000000000000000002000000047
:101782000000803FFFFFFFFF685E0C0002000000C8
:10179200818900086188000825DC0008000000003B
:1017A20099830008DDD90008D987000851D90008BB
:1017B200000000000000000055830008F1880008C6
:1017C2002188000871DB0008000000006D8300081A
:1017D20055D90008AD870008ADD800080000000008
:1017E2000000000061830008FFFF000080A80408D9
:1017F20000000802050303000000000088A8040896
:10180200010008020504030000000000306D040816
:101812000200FE010110030000000000F458040859
:1018220003001402000300000000000090A8040856
:1018320004001F02020008000000000098A804082B
:1018420005001F020201080000000000FFFFFFFF69
:10185200FF010000F4010000FF0000000000000092
:10186200000000000102030406070809FF0000004F
:101872004C110020000000000000000000000000E9
:101882000000000000000000000000000000000056
:101892000000000000000000000000000000000046
:1018A2000000000000000000000000000000000036
:1018B2000000000000000000000000000000000026
:1018C2000000000000000000000000000000000016
:0418D2000000000012
:082800000000000000000000D0
:108000002DE9F04700230F6801264FF0030C02E032
:108010000133102B41D006FA03F232EA0704F7D1FC
:10802000D0F800E05C000CFA04F52EEA050EC0F86A
:1080300000E091F80490D0F800A009FA04FE09F1DC
:10804000FF394EEA0A0EB9F1010FA846C0F800E068
:108050006FEA050515D8D0F808E005EA0E05856039
:108060004D79D0F808E0A54045EA0E0585604568E1
:1080700025EA020242608A7945689A4092B22A4310
:108080004260C26822EA0802C260CA79C568A2409A
:1080900001332A43102BC260BDD1BDE8F08700BF79
:1080A000037830B403B30246C0F10105531912F846
:1080B000014FDBB2002CF9D101335B00DAB20C4C7A
:1080C0000B80032322706370017859B102230025CD
:1080D0005A1CD2B2E154A55410F8011F0233DBB28E
:1080E0000029F5D130BC704702221346E7E700BFF4
:1080F000B0110020084AD2E9403199421FBFD1187F
:10810000013391F8081101701DBFC3F30A03012068
:10811000C2F8003100207047B0110020064AD2F8A2
:108120000839D2F80C29934294BF4FF40060002024
:10813000013B9B1A18447047B0110020012380F8BE
:108140005130704707B501A8FFF7D4FF0028FAD0D7
:108150009DF8040003B05DF804FB044BD3E9400331
:10816000984288BF03F50063181A7047B0110020C9
:1081700001207047024BC3F81029C3F81419704747
:10818000B0110020024BC3F81829C3F81C1970471E
:10819000B01100207047704730B4134DD5E940232B
:1081A0009A4286BF03F50064A21A9A1A0A44B2F5ED
:1081B000006F13D8A9B101444A1E013810F8014FCD
:1081C000E918824203F1010381F80841C3F30A036D
:1081D000F4D1C5F80431002030BC7047022030BC17
:1081E00070470846F8E700BFB0110020212838B5D5
:1081F0000C4605D022282ED0202813D0002038BDD0
:108200000029FBD0072AF9D11A4BD3F8200993F89B
:10821000241993F8252993F8263920602171627179
:10822000A371EBE70029E9D0072AE7D1114DD5F872
:1082300014391BB10968D5F81009984720682179CD
:108240006279A379C5F8200985F8241985F82529CC
:1082500085F82639D2E70029D0D0022ACED1054AA6
:10826000D2F81C39002BC9D00988D2F818099847D0
:10827000C4E700BFB0110020024B0020C3F828095A
:10828000704700BFB0110020044B00200522C3F846
:108290002829C3F81C09C3F814097047B01100203D
:1082A000704700BF704700BF704700BF704700BFF6
:1082B000704700BF704700BF704700BF08B5024855
:1082C000FFF7EEFE014808BDB0500408B0110020D1
:1082D00008B50248FFF7E4FE014808BDC050040895
:1082E000B011002008B50248FFF7DAFE014808BDCA
:1082F000CC500408B011002008B50248FFF7D0FEAA
:10830000014808BDD8500408B011002008B5024843
:10831000FFF7C6FE014808BDE4500408B011002074
:10832000042301480B8070479801002010B4074ACD
:10833000074B92F82C09122403F114020C80012837
:108340000CBF184610465DF8044B7047B011002072
:108350009C010020642301480B807047C401002069
:10836000432301480B8070472802002010B5084CB9
:10837000D4F8D400FF2809D00649D1F8302901F6F5
:108380003411FFF733FFFF23C4F8D430002010BDB1
:1083900098010020B0110020E8E700BF08B5D0F830
:1083A000E4355B6A9847002008BD00BF08B5D0F8E7
:1083B000E4351B6A9847002008BD00BFD0F8E435BB
:1083C00010B504461B689847D4F8E8359B68984771
:1083D000002010BD08B5D0F8E435DB6903B198473B
:1083E000002008BD08B5042290F81211D0F8E83535
:1083F00080F8131180F81221DB689847002008BD2F
:1084000010B5D0F8E83504461B699847032384F873
:108410001231002010BD00BF0B0617D401EB810301
:1084200000EBC30310B400EB81000124002283F8A9
:10843000764383F8741383F87523426D5DF8044B1B
:10844000136843F4001300201360704701F07F01AC
:1084500001EB810300EBC303012200EB810083F8F1
:108460001C1183F81E2183F81D2182691368002BDB
:1084700001DA43F0804343F4001313600020704797
:1084800082B00023016801930B6901930E4B03E056
:108490000A690192013B13D0019A002AF8DA019A85
:1084A000094B42F001020192019A0A610A690192A4
:1084B00003E00A690192013B02D0019AD207F8D485
:1084C000002002B0704700BF400D0300436D064A14
:1084D0001A61C278012A06D100F2CC5058614FF0DF
:1084E000802219681A6070471800086010B5802152
:1084F0000446FFF791FF20460021FFF78DFF20463D
:10850000BDE81040E2E700BF70B44B78012B26D0E5
:108510000B784A6900EB83035C6D25682369D2B14F
:108520008A684A6102F07F0223F4002323F07F036C
:1085300042F4002213432361C378012B04BF0B696B
:108540006361C5F3076363F07B0363F31F65256015
:10855000002070BC70478A6802F07F02E4E78269FD
:108560004C691568136944B38E68B4428CBF06F039
:108570007F0404F07F0423F4002323F07F0344F4FA
:10858000002443EA040388BF4E611361C378012BC2
:108590001DD0C5F3076464F07B0464F31F651560A8
:1085A000002BD5D14B69002BD2D002690878516BD2
:1085B000012383400B435363CAE723F4002323F0D2
:1085C0007F0343F400231361C378012BE1D10B78BF
:1085D0000C6900EB8300C5F30763816963F07B03DB
:1085E00063F31F654C610020156070BC704700BFCD
:1085F0002DE9F0434B78012B30D00B784C6900EB20
:1086000083035E6D356837691CB38B681C44013C7D
:10861000B4FBF3F4C4F3090203FB02F3C3F3120344
:108620004B61144643EAC44363F31C073761C378C4
:10863000012B04BF0B697361CB78012B44D0C5F3C8
:10864000076363F07B0363F31F6535600020BDE8BB
:10865000F0838A680124C2F31203E3E791F80080F3
:108660004E6900EB880EDEF818C0DCF80050DCF82C
:10867000107076B3D1F80890384A06EB0904013C33
:10868000B4FBF9F402EAC444C6F312022243CC78E4
:1086900007F060473A43012C174649D0CCF8102028
:1086A000C278012A55D00269516B03FA08F30B43D3
:1086B0005363C5F3076363F07B0363F31F65CCF873
:1086C00000500020BDE8F0834B7973B345F00055AE
:1086D000B5E707F0604747F40027CC78CCF8107076
:1086E000C378012B2FD0012CE3D102699268D20507
:1086F00054BF45F0005545F08055C5F3076262F060
:108700007B0262F31F65CCF80050002B9ED1B0B203
:1087100003308010DEF8D04098D0CA6852F8041BAD
:10872000216001339842F9D190E745F0805586E702
:1087300064F35E77CCF81070C378012BD5D10A6949
:10874000CCF81420D1E70A69CCF81420012CB0D160
:10875000CBE70B69CCF81430ABE700BF0000F81F83
:1087600038B501EB810400EBC4040D46002184F808
:108770007453C4F88C1384F87513C4F88833C4F8A0
:108780008023C3782821012B01FB050108BFEDB22E
:1087900001F55D7108BFC4F884231DB9FFF7B4FE6D
:1087A000002038BDFFF724FF002038BD10B501EBD5
:1087B0008101084A00EBC1010446B1F88C13104650
:1087C000FFF7EAFC034A204640230121FFF7C8FFD8
:1087D000002010BDEC1A0020E8E700BF30B44C7850
:1087E0000022012C154612D0097800EB81040123E8
:1087F0008B40646D63F31F4501696FF3CF322260D4
:10880000CB6923EA0503002030BCCB6170470B78AD
:1088100000EB83019C4064F30F058C69ECE700BF1B
:1088200040F2011310B500F5A2710446A0F84431DE
:10883000FFF7D4FF0123A4F89C3304F567712046A9
:10884000FFF7CCFF4FF48173A4F86C3104F5B671D7
:108850002046FFF7C3FFFFF70FFD002010BD00BF4C
:1088600038B540F2031304460D46A0F8943100F5E4
:10887000CA71FFF7B3FF29462046FFF7D1FF00205A
:1088800038BD00BFF0B40A784B7800EB8205012BAD
:108890000EBFAD696D6D01232E684FF000040BBF54
:1088A0009340934063F30F0463F31F44330415D4E0
:1088B0008A6891F803C0CF880C49C2F30A0242F0DB
:1088C000805343F400430CF0030243EA824307F071
:1088D0000F0243EA825331400B432B600369DA698C
:1088E0001443DC610020F0BC704700BF007833EC1B
:1088F0002DE9F04140F20113044602254FF04008F3
:1089000001270026A0F84431C0F84C8180F8475177
:10891000A0F84A7180F8486100F5A271FFF7B2FF34
:1089200004F56771A4F89C73C4F8A48384F89F537A
:1089300084F8A0632046FFF7A5FF082203234FF425
:108940008171C4F87421A4F86C1184F86F3104F5B6
:10895000B671A4F872512046FFF794FF064B9D8331
:10896000FFF792FC054A434620463946FFF7F8FEDA
:108970003046BDE8F08100BF98010020EC1A0020CD
:1089800070B50323092240F2031604460D46C0F8D1
:108990009C2180F89731A0F89A31A0F8946100F5F5
:1089A000CA71FFF76FFF29462046FFF7A1FF00209D
:1089B00070BD00BF70B5002540260446A0F8745372
:1089C00080F87753C0F87C6300F55D71FFF75AFFBC
:1089D0004FF48073A4F81C3104F58E71C4F824613F
:1089E00084F81F51A4F822512046FFF74BFFD4F81A
:1089F000E835A078012284F812215B689847284660
:108A000070BD00BF82B000230193019A094B42F070
:108A100010020192C168019A0A610A69019203E099
:108A20000A690192013B02D0019AD206F8D40020D3
:108A300002B07047400D030082B000230193019AF9
:108A40000B4B42F020020192019A61F38A120192CB
:108A5000C168019A0A610A69019203E00A690192F8
:108A6000013B02D0019A9206F8D4002002B0704770
:108A7000400D03000E4BDA68D20310D4DA68D10639
:108A80000FD4DA68D20510D4DA6812F0E00F0AD1F8
:108A9000DB6813F0020F14BF082009207047012083
:108AA000704706207047072070470220704700BFBC
:108AB000003C0240024A536A23EA000050627047B9
:108AC0000038024030B401234FF4807515244FF470
:108AD000167140F2D93203800023458084710181F0
:108AE00030BC4281838083817047094BB3F87E2973
:108AF000B3F87C39801A9B1AC00090FBF3F006286B
:108B0000A8BF062020EAE070C0F19600C0B270470E
:108B1000B0110020074B03EB4002B2F89629120572
:108B200007D5D3F8102A511CC3F8101A134483F840
:108B3000140A7047B0110020436872221A7043680B
:108B400073225A70436874229A7043680022DA7064
:108B500070470F4B4268B3F9583A0A2193FBF1F37F
:108B60001B0110B503F5B9530A4C4FF4B47114331B
:108B7000B3FBF1F303F00F03E118E35813604B6804
:108B800053600B7A1372436800225A7210BD00BF03
:108B9000B011002048F80308032815D8DFE800F0DA
:108BA0000F02060A094BD3F85C0A7047074BD3F84B
:108BB000600A7047054B93F8882AD20701D423F046
:108BC0000BBDD3F85C0A704700207047B01100203D
:108BD000831E00F17802EA2123F8021F9342FBD1A1
:108BE0004E2240F64913C280CE2243850281CD2316
:108BF00023228380A0F87220A0F87830704700BF4D
:108C0000E8B91D48B0F88A3A03F001034BBB30B411
:108C100090F88C4A8CB1194A02F1F00552F8041B05
:108C2000490441BF90F8781B00EB8101D1F8101B7B
:108C300045F823100133A342F0D130BC70470E48F1
:108C4000B0F88A2A032A4FEA52030BD90A68A0F81F
:108C50008A3A02F5C332A03203F001030A60002B06
:108C6000D5D070470B6803F5C333A03348F2050233
:108C70000B60A0F88A2A7047B0110020401C002029
:108C80002DE9F04100283AD1304A92F88C0A80B39D
:108C90002F4A304B92F8D8E092F9D9C092F9DA8095
:108CA000CEF1FF07AEF17F06FFB2F6B203EB800014
:108CB00003F1F002002403E0834202F1040218D021
:108CC00053F8041B8904F7D5E1B2A1EB0C0181EA4A
:108CD000E175A5EBE175012D0DDC71B1414514BFC6
:108CE000394631468342D17004F1010402F1040295
:108CF000E6D1BDE8F0810821F4E77146F2E7144BB4
:108D000093F8D820F02A0AD802F10F000F4A83F80E
:108D1000D8000B6803F582431A330B60B5E70B4AA2
:108D200093F9D94092F88E0A7F25844283F8D8506F
:108D300093F8DA0007DB4042C0B283F8DA0020443F
:108D400083F8D900E5E7002CF9DAF4E7B011002048
:108D500098010020401C0020F0B4364D78B195F801
:108D6000003C002B46D095F8882A013BDBB2D407A3
:108D700085F8003C41D4304B0A681A440A6095F8E3
:108D80008C4A44B32D4B002603EB840403F1F0011D
:108D900003E09C4201F104011DD053F8042BC2F3FF
:108DA00003200628F5D195F8880AC00715D595F84F
:108DB000000C95F88FCA8719B7FBFCF00CFB1070FC
:108DC0000128CCBF0020012060B99C4206F10106B9
:108DD00001F10401E1D1F0BC7047F04300F0010063
:108DE0000028F2D0C2F3834205EB8202D2F8102BA6
:108DF0000A60EAE795F88F3AB5E7B5F90A2C104B07
:108E00001048A2F57A74642202FB04F283FB023458
:108E1000D317C3EBA41303EB4303C3EB031380FB90
:108E20000302DB17C3EB62130533074A92FBF3F32C
:108E3000A2E700BFB0110020400D0300401C00203D
:108E4000D34D62101F85EB5140420F00F0B4534CDC
:108E5000002868D194F8280C002856D0504BD3ED48
:108E6000007AB3EE097AF4EEC77AF1EE10FA4EDC2E
:108E7000BBEE097AF4EEC77AF1EE10FA4CBF082780
:108E80000027D3ED017AB3EE097AF4EEC77AF1EE5A
:108E900010FA3EDD47F0010794F88C5AADB3414A11
:108EA000DFF80CC102EB850502F1F00014E094F943
:108EB0003D6CB142ACBF0221002194F93E6CB3423B
:108EC0001CDB41F004010F421CBFDCF824300360BE
:108ED000954200F1040018D052F8043BD903F7D5AD
:108EE00094F93C6C03F00F01B142C3F30313DEDCD1
:108EF00094F93E6CB3424FF00101E2DA94F93F6C11
:108F0000B342D8BF41F00801DDE7F0BC7047042749
:108F1000B7E7BBEE097AF4EEC77AF1EE10FA48BF74
:108F200047F00207B8E794F8293C6BB304F62C43EA
:108F3000D3ED007A93ED017A1B4D0A6894F8280C62
:108F4000F0EEE77AB0EEC77AF4EEC77AF1EE10FAF7
:108F5000B8BFF0EE477AFDEEE77A80F0010017EE39
:108F6000903A193B03EB4303C3EB031385FB036503
:108F7000DB17C3EBE51305330C4DB5FBF3F31A44D4
:108F80000A6084F8280C67E70B6894F8280C03F54E
:108F9000433303F5A0730B605EE700BFB011002000
:108FA000DC1D0020401C0020353AFC4440420F00EC
:108FB00048F80308F0B40B4F97F88C6A86B107F5B0
:108FC0002962054607F53867002352F8044B35EA55
:108FD000040004BF086847F823000133B342F4D10A
:108FE000F0BC7047B011002010B41E4A48B91E4CA6
:108FF00092F8400C0B6823440B6098B15DF8044B69
:10900000704792F8413C03B3012B16D092F8400C04
:109010000B68164C80F00100234482F8400C0B6072
:109020000028EBD192F8773B11495DF8044B2033CF
:1090300001EB83014FF44070BCE792F8400C0D4CFB
:1090400080F0010082F8400CD4E70B685DF8044B17
:1090500003F5742303F5107301200B6082F8400CB4
:10906000704700BFB011002040420F0048E80100E7
:10907000401C002020A107003C4BA0B993F8422CD3
:109080006AB193F8431C8B081A41D2070AD501F044
:109090000101032B06D8DFE803F05048403893F86D
:1090A000712C52BB704793F8430C013000F00F0055
:1090B00083F8430C38B193F8422C086800F5C330AC
:1090C000A0300860DCE793F8852983F8420C002A79
:1090D00044D193F8470C18B142F0040283F8422CB3
:1090E00093F8880AC00730D593F8700C0028E4D0B4
:1090F00042F0080283F8422CDFE793F87E3C1C49DB
:1091000001EB83014FF4003054E7194B03F13002B7
:10911000002914BF19461146F4E7164B03F1180253
:1091200000290CBF19461146ECE7114B03F1080268
:10913000002914BF19461146E4E70D4B03F118024C
:10914000002914BF19461146DCE7D3F86C0C00283F
:10915000CAD042F0010283F8422CC5E793F8412CB3
:10916000002AB6D0022283F8422CB2E7B0110020C8
:1091700060F8030870F80308214A00234361D2F81D
:10918000941C41F45C5130B541F02C010124C2F82B
:10919000941C4471D2F88C1C04FA03F50133112B92
:1091A00041EA0501F8D121F4F0314FF42063C2F80F
:1091B0008C1CC38040F601230381124B03601423EF
:1091C00003718023037642F6140303824FF6FF7384
:1091D000438303F58C03C36140F201230A4A0384ED
:1091E000002380F822306FF0FF03C0E90D23074B06
:1091F00040F2FF11C0E90F133C23436430BD00BFB0
:10920000B0110020980864005000C4FF0005180B3E
:1092100000285FD00368374A2DE9F04103F13F444D
:1092200004F57E0402EB9422012492F8502002F00F
:109230001F055209032A04FA05F456D0042A4FD018
:10924000022A48D08588B5FA85F0C0F11F00C0F326
:10925000CC0603EB860600F0070082000F24306A7C
:10926000944020EA04003062306A01FA02F20243BC
:10927000002132624FF0010E0A464FF0030C022724
:109280000EFA02F838EA050002F101021CD1186852
:109290000CFA01F420EA04001860186807FA01F6D5
:1092A00006431E609E6826EA04069E6098689860E1
:1092B000586820EA0800586058685860D86820EA62
:1092C0000400D860D868D860102A01F10201D7D113
:1092D000BDE8F0817047084A556C2C435464B1E7EF
:1092E000054A156B2C431463ACE7034A156C2C43F9
:1092F0001464A7E748F803080038024038B5802214
:1093000000F180040021054636F04DFA0021204688
:10931000382236F048FA0C49002351F8232044F84B
:10932000232001330E2BF8D108491E2205F1C0007D
:1093300036F0D8F906490B2205F1E40036F0D2F9EF
:10934000032385F8EF3038BD60F80308A0F8030860
:10935000C0F80308F8B51A4C94F8C83C002BFBD1B0
:1093600059B301444E1E451ED4F80C29D4F80819EF
:1093700015F8017F531CC3F30A038B422CBF4FF433
:1093800000600020C91A224401440129C4F80C39A4
:1093900082F8CC7C0FD1012024F092F9D4F808395E
:1093A000D4F80C198B4294BF4FF4006200225B1A70
:1093B0001344012BEFD0B542D6D10020F8BD00BF39
:1093C000B01100200A4B0846D3F8281910B569B12E
:1093D000D3F82839052B09D1064C002AD4F8D43308
:1093E00004DD1146FFF7B6FFD4F8D43310BD00BF3B
:1093F000B0110020A822002010B590F850100023D2
:1094000080F8503089B10C4CD4F828297AB1D4F8BE
:109410002829052A0DD1094C3C30D4F8D433FFF764
:1094200099FFD4F8D433012010BD0120FCE7104689
:10943000FAE71846F8E700BFB0110020A822002084
:10944000002280F85120D7E790F85020531C0244A6
:10945000DBB280F8503082F83C1090F851200AB10D
:10946000132B00D9C8E77047034B0449B3F9DC302C
:10947000406801222EF0B4BD980100203652040845
:1094800073B52B4E06EB43030446B3F8865C05F038
:109490000F0049B1022804F101011DD8002814BFB2
:1094A0009C239B2323700C460AB3C5F30315FFF7D7
:1094B00073FB3C21012D1F4BB0FBF3F3B3FBF1F227
:1094C00001FB123315D0022D23D01B49204602B0D8
:1094D000BDE870402EF084BD032801BF96F8883A9D
:1094E00003F00103653BDBB218BF2023DAE7154622
:1094F000DDE7642542F21071B0FBF1F1B1FBF5F04C
:1095000005FB101000900D4920462EF069FD02B0B9
:1095100070BD0A250A49B0FBF1F1B1FBF5F005FB7E
:1095200010100090074920462EF05AFDEFE700BFCB
:10953000B011002040420F003C520408465204087B
:10954000A086010055520408037840680122053BBB
:10955000114695E71E4B1F49D3F8E023B1F8803C34
:109560009FED1D7A406807EE902AF8EEE76A07EE55
:10957000903AF8EEE77A67EE877AF4EEE76AF1EE72
:1095800010FA02D815492EF02BBD934202DA144985
:109590002EF026BD9B1A07EE903A01F65C23B8EE3A
:1095A000E77AD3ED007A0F4AF8EE677A3C2167EE4E
:1095B000277A87EEA67AFDEEC77A17EE903AB3FBCC
:1095C000F2F3B3FBF1F201FB123307492EF008BDB1
:1095D000A8220020B0110020CDCCCC3D645204085C
:1095E0006A52040840420F003C5204080649406891
:1095F000B1F8E423D1F8D8330449534342F210724E
:1096000093FBF2F22EF0ECBCA8220020705204086A
:10961000054A064992F8ED3392F8EC23406801338D
:1096200001322EF0DDBC00BFA822002075520408D4
:109630000B4B4068B3F9583A0A2293FBF2F31A0134
:1096400002F5B9524FF4B4711432B2FBF1F2C2F127
:10965000080202F00F02034960322EF0C1BC00BFC5
:10966000B01100207B52040813B5384BC178D3F8F1
:10967000E023374B0229B3F88839044641D0032947
:1096800045D0012905D19A1A9A42A8BF1A4622EA62
:10969000E272D3B19A1A9A42A8BF1A4622EAE2723B
:1096A00007EE902A0B20B3FBF0F307EE103AF8EE2A
:1096B000E77AB8EEC70A87EE800A35F0EBFAFCEEDF
:1096C000C07ACDED017A9DF8043062688A2111706C
:1096D000012261689342ACBF8B208D2088540132F7
:1096E0000C2AF6D162688F2111735A1E092A9FBF76
:1096F00062689B188E225A70636800225A7302B007
:1097000010BD9A1A9A42A8BF1A4622EAE272ABB179
:1097100007EE902AB8EEE70ADFED0E7A20EE270A70
:1097200007EE903AF8EEE77A80EE270A35F0F8FA7D
:1097300064280346A8BF642323EAE37306496068EC
:10974000072202B0BDE810402EF04ABCA82200203B
:10975000B01100200000C84282520408034A0449A4
:10976000D2F8E023406807232EF03ABCA82200205C
:1097700089520408044B93F8883ADB0703D4034961
:1097800040682EF02DBC7047B01100208F520408A5
:1097900007B5094A0949B2F906340193B2F904340C
:1097A0000093B2F902344068B2F900242EF018FC9C
:1097B00003B05DF804FB00BFA82200209852040803
:1097C0001FB593880293937801935378009313788D
:1097D0000A4603492EF004FC05B05DF804FB00BF07
:1097E000AC520408034B0449D3F8082440681432EF
:1097F000E6E700BFA8220020BF520408034B04493B
:10980000D3F8082440680832DAE700BFA822002015
:10981000C3520408034B0449D3F8082440680E32AD
:10982000CEE700BFA8220020C75204082DE9F04768
:109830002DED028B82B092469DF834809DF8302049
:1098400007460C469946002B52D0022B14BF0A251E
:10985000642507EE905AF8EEE77A27EE808A002A10
:1098600048D0B0EE480A35F05BFA07EE900AF8EE01
:10987000E77AF0EEE77AFDEEE77A17EE906AB6FB4C
:10988000F5F205FB12660CB13C700124B5EEC08AFE
:10989000F1EE10FA05D552EA06031EBF2D233B5503
:1098A00001349AF80010154B3819002914BF51469D
:1098B00019462EF095FB2518B9F1000F0AD0104972
:1098C0004A4668462EF08CFB7819324669462EF0DF
:1098D00087FB0544B8F1000F02D007F80580013579
:1098E000002328467B5502B0BDEC028BBDE8F08713
:1098F0000125AEE7F0EE487ABBE700BFCB52040883
:10990000D052040807B501234722CDE900320549AA
:10991000054A91ED000A40680021FFF787FF03B078
:109920005DF804FBB4260020DC7D040807B50B4B72
:10993000DFED0B7A93EDF60A0A4A00219A23B8EE7E
:10994000C00ACDE9001320EE270A0223B0EEC00AB8
:109950004068FFF76BFF03B05DF804FBA82200200E
:109960000AD7233CD852040813B50378134ADFED15
:10997000147A144C1A2B0CBFB2F9562AB2F9542A95
:1099800000EE102AB8EEC00A1A2B20EE270A4FF07C
:1099900001034FF00002CDE90032B5EEC00A0CBF62
:1099A00015211421F1EE10FA074A406848BF2246FB
:1099B000B0EEC00AFFF73AFF02B010BDB0110020B0
:1099C000CDCCCC3DDC520408E2520408194AD2F84E
:1099D000103413F0040313B544681CD002F214428F
:1099E00092ED000A144AC37892F8852C013BB8EE38
:1099F000C00A18BF0123B2B10C22DFED107A019228
:109A00000122009220EE270A0D4A7F212046FFF70F
:109A10000DFF02B010BD7F22227042682D215170CF
:109A200042689370F5E7DFED077A0F2220EE270AF0
:109A3000E3E700BFA8220020B01100200AD7233C92
:109A4000DC7D040848F95140F0B404780A4E049FC4
:109A5000650906EB850604F01F04012505FA04F4E8
:109A6000D6F8185404972C428068F0BC18BF43F015
:109A7000800329F0F7BA00BFA82200201FB503AC6D
:109A80008DF80C30009400238DF80D30FFF7DCFFCB
:109A900004B010BD70B504466FF00205A27861787D
:109AA00052FA85F207391323D2B2C9B22046FFF722
:109AB000E5FFA2786178EEB2324407311323D2B2C7
:109AC000C9B220460135FFF7D9FF042DE6D16178F0
:109AD000A27806390323C9B22046FFF7CFFF617889
:109AE000A27806310223C9B22046FFF7C7FF002340
:109AF000237370BD2DE9F8432B4A054692F8911C5B
:109B000092F89F0CB2F9544A92F8903C002801EB6D
:109B1000810114BF4FF0FF30012049004443C1F1DF
:109B2000000803EB830344454FEA430303DB8C4205
:109B3000A8BF0C46A046B2F9562A5C424243A24254
:109B400003DB9A42A8BF1A4614461BB1192254439C
:109B500094FBF3F4293C4FEA88066FF003074FF0BB
:109B60000909002E3346B8BF06F13F03C4EBA31327
:109B7000512B0FD893FBF9F101EBC1029B1AAA7884
:109B80000A446978803B3944DBB2D2B2C9B2284674
:109B9000FFF774FF0137052FA6EB0806E1D100237C
:109BA0002B73BDE8F88300BFB01100201D4B2DE9D9
:109BB000F04303EB81038FB0D3F8848006460D4653
:109BC000B8F1000F2BD0184B03EB41031C22B3F864
:109BD00096490023194604F01F07C4F344190DEBFE
:109BE0000200A413069335F0DEFD01228DF80B4030
:109BF00006AC8DF81420CDE903468DF808508DF899
:109C000009708DF80A9002A8C0479DF8142000231F
:109C10002AB100944A46394602A8FFF715FF0FB053
:109C2000BDE8F08348F80308B01100202DE9F04F9B
:109C30001A4D90F801808678DFF864B085B004464C
:109C40002F1DA5F6B9494FF4FA6A15F9013B002B0F
:109C50001ADB09EB43035946B3F9042CA2F57A72D7
:109C60004FF47A730AFB02F292FBF3F202ABA2F515
:109C70007A7218462EF0B4F902AB009332460023F4
:109C800041462046FFF7E0FE0136BD42F6B2DCD188
:109C90000023237305B0BDE8F08F00BF691E0020CC
:109CA000135504082DE9FF47314B477893F8C22C30
:109CB00093F8C38C436885781E2AA8BF1E22022A07
:109CC000B8BF0222B8F1100FA8BF4FF01008B8F1CA
:109CD000020F4FF00B01B8BF4FF002080446197095
:109CE000D6B25FFA88F90121501E4FF0170C884256
:109CF000636826DC13440B2103F8011C6168002310
:109D00008B546268009239462A4620463E44FFF74B
:109D10009BFE013E4FF0010AF6B208F1FF335345B6
:109D200013DC05EB090263680093013A0023D2B209
:109D300039462046FFF788FE0023237304B0BDE8B0
:109D4000F08703F801C00131D1E705EB0A02D2B276
:109D50001623394620460392FFF790FE039A1623F6
:109D600031462046FFF78AFE0AF1010AD5E700BF17
:109D7000B011002073B50F4D009104461646002324
:109D800002460221D5F8200429F06CF90A4B009311
:109D90002246D5F820040023142129F063F9D5F8D0
:109DA0002004009600232246162129F05BF902B018
:109DB00070BD00BFA8220020078104081FB5184B02
:109DC0009FED187AB3F8E433174A9FED180A92F81A
:109DD000412C446807EE903AF8EEE77AF4EEC77A41
:109DE000F1EE10FAACBF01230223022A27EE800A0B
:109DF00014D08DED030A02931AF09EFDFEF775FE56
:109E0000029B9DED030A014601220620CDE90020B8
:109E1000074A2046FFF70AFD04B010BD9721F3E77B
:109E2000A822002000007A44B01100200AD7233C69
:109E3000DC7D040813B504461AF07EFD0E4B646801
:109E400093F8413C022B00EE100A13D0FEF74DFEB2
:109E50000146DFED0A7AB8EEC00A00230622CDE9FA
:109E6000003220EE270A064A02232046FFF7DEFCD6
:109E700002B010BD9721ECE7B01100200AD7233CB7
:109E8000DC7D0408044B93F8C73C0BB11AF054BDB9
:109E9000024BB3F8E4037047B0110020A822002061
:109EA00010B50C46A8B9184B184993F82424236818
:109EB0000B44236002B110BD154991F8773B01EBCB
:109EC0008301BDE8104001F531614FF48060FFF778
:109ED00071B810F091FA32280ADD23680A4A03F5B6
:109EE000742303F510730121236082F8241410BD3C
:109EF000054B93F82424142882F00102CCBF0549B5
:109F0000054983F82424D2E7A822002040420F000C
:109F1000B011002020A1070048E8010010B5044658
:109F200018F0A0FB0349034604226068BDE8104016
:109F30002EF056B83652040810B5044610F098FAC0
:109F4000642202FB00F3C3F38F23632B6068044990
:109F5000BDE8104028BF632301222EF041B800BFA6
:109F6000E85204082DE9F0411C4D0646002413F088
:109F700061FB05F585674FF0880C05F2C44E95F836
:109F800028347168A342214403DC00230B70BDE830
:109F9000F081F8B1D7ED227AFDEEE77A0EEB84037B
:109FA00017EE908AD3ED007AFDEEE77A17EE902A4D
:109FB000D7ED237AFDEEE77AA2EB080217EE903A8E
:109FC000D200A3EB080392FBF3F3C3F188030B70F9
:109FD0000134D4E781F800C0FAE700BFA8220020CE
:109FE00010B50446132014F031FD78B10CF0A6F939
:109FF00003461022606823B9BDE8104004492DF0E3
:10A00000EFBFBDE8104003492DF0EABF10BD00BF0F
:10A01000EE5204084583040838B5224D4468B5F86B
:10A02000E4345A0505D520461F49BDE8384035F0CF
:10A03000DEBB180505D520461C49BDE8384035F083
:10A04000D6BB590605D520461949BDE8384035F03C
:10A05000CEBBDA0705D520461649BDE8384035F0B5
:10A06000C6BB9B0705D520461349BDE8384035F0EF
:10A07000BEBB252014F0EAFC28B120460F49BDE8FC
:10A08000384035F0B4BB95F8E6342BB120460C4986
:10A09000BDE8384035F0ABBB20460A49BDE8384042
:10A0A00035F0A5BBA8220020F2520408F75204089C
:10A0B000FC52040801530408065304080B53040817
:10A0C0001053040815530408074B93ED667AD3ED3B
:10A0D000627AB4EEE77AF1EE10FA03DD03494068E4
:10A0E00035F085BB704700BF902700201A53040845
:10A0F00070B52D4D0A24B5F9542A92FBF4F484EA84
:10A10000E473A3EBE4739BB25A2B064605D90A32DB
:10A11000CCBFB4236FF0B3031C1B95F8703C33B96C
:10A1200095F8883ADB072AD413F07EFB38BB1F4B27
:10A1300093F84037B32B02D813F076FBF8B9B5F992
:10A14000561A0A2391FBF3F304B9C3B1002BB8BF2D
:10A150005B4284EAE4709BB2A0EBE470B3EB400F87
:10A16000726813DAB0EB430F10DA092908DD002C0E
:10A17000CCBF6E2362231370736800225A7070BDC7
:10A18000002CCCBF6A2366231370F5E7834205DDFC
:10A190000929CCBF602368231370EDE7002CCCBFE6
:10A1A0006C2364231370E7E7B0110020A82200207D
:10A1B0002DE9F0433A4B9FED3B7A2DED028B93ED69
:10A1C000088AF0EEC87AF4EEC77AF1EE10FA85B09C
:10A1D00004465DD5D3ED077AF0EEE76AF4EEC76A80
:10A1E000F1EE10FA54D5304B0293304B0393304BC1
:10A1F000DFED308AB3F9563ADFED2F6A002BD8BF76
:10A20000F1EE677A77EEA87ABAEE0C7AA7EEA67A24
:10A21000D6BF00250125B1EE488A17EE100A33F0AB
:10A2200087FC41EC100B34F0E7FC38EE288A9FEDF8
:10A23000237AFAEE007AE8EE077A59EC108B17EEE3
:10A24000900A33F075FC41EC100B34F0D5FC57EC60
:10A25000106BA07833F05AFC32463B4633F00AFBD1
:10A2600033F046FDC6B2607833F050FC42464B46B0
:10A2700033F000FB33F03CFD04AB03EB8505C1B2CA
:10A2800055F8083C0093324600232046FFF7DCFBDC
:10A290000023237305B0BDEC028BBDE8F08300BF43
:10A2A000EC2900206C61D83E1D530408FF520408BD
:10A2B000B0110020DB0F493F539A8E4183F92241B0
:10A2C00030B585B0054601A829F098FD044618B9B7
:10A2D0002870204605B030BD044A0123B2F9682732
:10A2E00001A928462FF05EF8F3E700BFA82200205E
:10A2F0004068E5E700F01F0240090123032803FA44
:10A3000002F304D004280CD0022805D07047074A75
:10A31000116C0B4313647047044A516C0B43536434
:10A320007047024A116B0B431363704700380240B9
:10A3300000487047742A00200E4B30B4DB68427826
:10A3400001780D4CDB43C3F30223C3F10403DBB2FA
:10A3500002FA03F360181B0101F01F0501224909ED
:10A3600003F0F003AA4080F8003344F8212030BC09
:10A37000704700BF00ED00E000E100E0002871D070
:10A38000F0B58388B3FA83F3202B0A4683B00446E2
:10A39000C3F11F0150D0344F344D07EB81036E18C9
:10A3A000C3F8F428002196F8786128F0B9FAA38858
:10A3B00021682F48B3FA83F3C3F11F0202F0FC04B3
:10A3C00004F1804404F59C3402F003024FEA820E4B
:10A3D0004FF00F0C01F13F42A1680CFA0EFC21EA8C
:10A3E0000C01A16002F57E02A168C2F387224FF042
:10A3F000004C02FA0EF22CFA03F30A43A260436106
:10A4000002681C4922EA03020260426822EA03024F
:10A41000426002681A430260826822EA0302826094
:10A42000C26822EA0302C2600A68374413430B6021
:10A4300097F83439F02B01D803B0F0BD3544F02142
:10A4400095F888318DF8043003224FF4807301A809
:10A4500087F834198DF80520ADF80630FFF76CFF4A
:10A4600003B0F0BD704700BFA822002048F80308E1
:10A47000003C0140083C01402DE9F047C94C94F8EC
:10A480003B190546C1F34001D4F8400928F0F4FB1C
:10A4900094F83B19D4F83C09C94301F0010128F0B4
:10A4A000EBFB002D00F0E58005F1FF38BE4EBF4DFF
:10A4B0005FFA88F81027D4F8403933B11A689B88BE
:10A4C00051690B4214BF53831383D4F83C3933B121
:10A4D0001A689B8851690B4214BF53831383B4F8E5
:10A4E0004839002B40F0558194F84A19D4F84C09AA
:10A4F00028F0C2FB4FF0FA0C4FF47A704FF0010EC7
:10A500007368C3F30803002B40F01781EFF3118346
:10A51000002B40F01281D4F8D423A968D4F8D433A6
:10A520009A42F8D1D4F870399942F4D8D4F86C9999
:10A5300000FB09F35B1AB3FBF9F300FB023273680B
:10A54000C3F30803002B40F0B780EFF31183002B17
:10A5500040F0B280D4F8D433D5F808A0D4F8D4139E
:10A560008B42F7D1D4F870198A45F3D8D4F86C9996
:10A5700000FB09F1A1EB0A01B1FBF9F100FB0313A8
:10A580009B1AB3F57A7FDAD3BCF1010CB8D1D4F8B9
:10A59000403933B11A689B8851690B4214BF538309
:10A5A0001383D4F83C3933B11A689B8851690B4244
:10A5B00014BF53831383B4F84839002B40F0DD8077
:10A5C00094F84A19D4F84C0981F0010128F054FBA1
:10A5D0004FF0FA0C4FF47A704FF0010E7368C3F32A
:10A5E0000803002B40F08980EFF31183002B40F02B
:10A5F0008480D4F8D423A968D4F8D4339A42F8D10B
:10A60000D4F870399942F4D8D4F86C9900FB09F366
:10A610005B1AB3FBF9F300FB02327368C3F3080360
:10A620004BBBEFF3118333BBD4F8D433D5F808A078
:10A63000D4F8D4138B42F7D1D4F870198A45F3D8E3
:10A64000D4F86C9900FB09F1A1EB0A01B1FBF9F117
:10A6500000FB03139B1AB3F57A7FDED3BCF1010C28
:10A66000BCD108F1FF385FFA88F8B8F1FF0F7FF42A
:10A6700022AFBDE8F087EFF3118987F31288D5F890
:10A6800008A02B68DB0344BFC4F868E9D5F808A02C
:10A69000D4F8D433D4F868195FFA89F989F31188AA
:10A6A000D4F86C990B4400FB09F1A1EB0A01B1FB52
:10A6B000F9F100FB0313CDE7EFF3118987F312885B
:10A6C000D5F808A02B68D90344BFC4F868E9D5F8C9
:10A6D00008A0D4F8D433D4F868195FFA89F989F35B
:10A6E0001188D4F86C990B4400FB09F1A1EB0A0125
:10A6F000B1FBF9F100FB031342E7EFF3118187F39C
:10A700001288D5F808902B68DA0344BFC4F868E9CA
:10A71000D5F80890D4F8D433D4F86829C9B281F3B5
:10A720001188D4F86C191A4400FB01F3A3EB090358
:10A73000B3FBF1F300FB02326FE7EFF3118187F314
:10A740001288D5F808902B68DB0344BFC4F868E989
:10A75000D5F80890D4F8D433D4F86829C9B281F375
:10A760001188D4F86C191A4400FB01F3A3EB090318
:10A77000B3FBF1F300FB0232E1E6D4F86439002BBD
:10A780003FF426AFD4F850290023136084F86139D0
:10A790001EE7D4F86439002B3FF4ACAE23F054F834
:10A7A000A8E600BFA822002000ED00E010E000E0D5
:10A7B0002DE9F84FC44CC54F94F83B19D4F8400923
:10A7C000C34DC1F3400128F057FA94F83B19D4F86F
:10A7D0003C09C94301F0010128F04EFA4FF0050B86
:10A7E0004FF01008D4F8403933B11A689B8851698A
:10A7F0000B4214BF53831383D4F83C3933B11A6826
:10A800009B8851690B4214BF53831383B4F84839B2
:10A81000002B40F0518194F84A19D4F84C0928F0E3
:10A820002BFA4FF0320C4FF47A7001267B68C3F399
:10A830000803002B40F01481EFF31183002B40F04C
:10A840000F81D4F8D423A968D4F8D4339A42F8D12C
:10A85000D4F870399942F4D8D4F86C9900FB09F314
:10A860005B1AB3FBF9F300FB02327B68C3F3080306
:10A87000002B40F0B480EFF31183002B40F0AF8049
:10A88000D4F8D433D5F808A0D4F8D4138B42F7D138
:10A89000D4F870198A45F3D8D4F86C9900FB09F103
:10A8A000A1EB0A01B1FBF9F100FB03139B1AB3F50D
:10A8B0007A7FDAD3BCF1010CB8D1D4F8403933B186
:10A8C0001A689B8851690B4214BF53831383D4F8D1
:10A8D0003C3933B11A689B8851690B4214BF5383CA
:10A8E0001383B4F84839002B40F0DA8094F84A1901
:10A8F000D4F84C0981F0010128F0BEF94FF0320C78
:10A900004FF47A7001267B68C3F30803002B40F0F4
:10A910008780EFF31183002B40F08280D4F8D4239A
:10A92000A968D4F8D4339A42F8D1D4F8703999424E
:10A93000F4D8D4F86C9900FB09F35B1AB3FBF9F374
:10A9400000FB02327B68C3F308033BBBEFF31183C8
:10A9500023BBD4F8D433D5F808A0D4F8D4138B4251
:10A96000F7D1D4F870198A45F3D8D4F86C9900FB64
:10A9700009F1A1EB0A01B1FBF9F100FB03139B1AEA
:10A98000B3F57A7FDED3BCF1010CBCD10BF1FF36FD
:10A9900016F0FF0B7FF426AFBDE8F88FEFF31189B7
:10A9A00088F31288D5F808A02B68DB0344BFC4F8ED
:10A9B0006869D5F808A0D4F8D433D4F868195FFAD8
:10A9C00089F989F31188D4F86C990B4400FB09F1DB
:10A9D000A1EB0A01B1FBF9F100FB0313CFE7EFF3A1
:10A9E000118988F31288D5F808A02B68D90344BFD1
:10A9F000C4F86869D5F808A0D4F8D433D4F8681935
:10AA00005FFA89F989F31188D4F86C990B4400FB3B
:10AA100009F1A1EB0A01B1FBF9F100FB031345E7D2
:10AA2000EFF3118188F31288D5F808902B68DA03C8
:10AA300044BFC4F86869D5F80890D4F8D433D4F882
:10AA40006829C9B281F31188D4F86C191A4400FB43
:10AA500001F3A3EB0903B3FBF1F300FB023271E74F
:10AA6000EFF3118188F31288D5F808902B68DB0387
:10AA700044BFC4F86869D5F80890D4F8D433D4F842
:10AA80006829C9B281F31188D4F86C191A4400FB03
:10AA900001F3A3EB0903B3FBF1F300FB0232E4E69D
:10AAA000D4F86439002B3FF429AFD4F8502900239F
:10AAB000136084F8613921E7D4F86439002B3FF43E
:10AAC000B0AE22F0C1FEACE6A822002000ED00E00E
:10AAD00010E000E010B4B8B10D4CD4F87439102B6C
:10AAE00005D15DF8044B0521002021F08DBB03EB5F
:10AAF0004302224482F8791901210B4482F8780933
:10AB000082F87A19C4F874395DF8044B704700BFB5
:10AB1000A8220020F8B5274E00EBC00406EB840401
:10AB2000D4F8AC59002D38D094F8BDC90CF0FF070B
:10AB3000BCF1000F31D149004FF0010CC9B284F8CB
:10AB4000BE1984F8BF2984F8C1C984F8C27984F891
:10AB5000C0C984F8BDC984F8BC79AA88C4F8C439CE
:10AB6000C4F8C839940502D501273846F8BD2B88AA
:10AB7000D9050CD44FF4805301E0013B10D02A8852
:10AB80009205FAD42B889BB243F480732B80AB8858
:10AB90009BB243F44073AB80E6E700273846F8BD2C
:10ABA000B6F8143A01339BB2A6F8143A32F084F89E
:10ABB000DBE700BFA822002070B5364D95F8184A93
:10ABC000022C84B01AD0012C02D0002004B070BD39
:10ABD00095F91C4A631CF8D0032CF6DC009113464F
:10ABE00095F81D1A0246204632F0FAF90028ECD0FA
:10ABF000204604B0BDE8704032F0D8BAB5F8243A27
:10AC0000002B39D1D5F8283A13B11C689B8863838F
:10AC1000D5F81C6AB38940F2E9343389013C13F05A
:10AC2000020FA4B219D084B2B48140F2E93433895E
:10AC3000013C13F0010FA4B21BD0B3891346304678
:10AC40000A46002131F08CFFD5F8283AFBB11A688A
:10AC50009B881383012004B070BD002CDDD13046E9
:10AC6000CDE9021228F072FADDE90212D5F81C6A69
:10AC7000E4E7002CDBD1F2E7D5F8204AE6899E42D2
:10AC8000C0D0D5F81C6A3380E38100BFBAE7012049
:10AC90009CE700BFA822002070B50278022A044673
:10ACA0000D4613D0012A01D0002070BD0C4B90F945
:10ACB000040083F8602A421CF6D00328F4DC0A461C
:10ACC00003F526636179BDE8704023E730F02EFE7E
:10ACD000294620460122BDE8704028F0A1BA00BFF5
:10ACE000A82200202DE9F041334C344BD4F8642ADB
:10ACF000B3EB920F05460E4680F0BA82B3EBD20F4B
:10AD000080F0B882B3EB121F80F0B882B3EB521F11
:10AD100080F0B882B3EB921F80F0BA82B3EBD21FFF
:10AD200080F0BA82B3EB122F34BF4FF480708020D2
:10AD300000234FF4F0722021A4F8680A204884F818
:10AD40006A3A84F86B3A34F02EFD1E484FF4F072E4
:10AD5000202134F028FD94F82D0E40B394F82E3EB7
:10AD60002BB30709013F032F00F00F0000F2998178
:10AD7000DFF8588008EB4703B3F8902142FA00F35C
:10AD8000D90740F18E81012303FA00F00138104009
:10AD9000474433F045F897F898210B4B104403EBE8
:10ADA000C000C4F8400E837993B1412B10D06FF0EE
:10ADB0000100BDE8F08100BFA82200208096980025
:10ADC000142D0020F42E0020142A002048F8030837
:10ADD0002323C380092127F0A3FDD4F8401E11B11D
:10ADE0000B688A881A8394F82E3E013B5BB25A1C8A
:10ADF00000F08081022B00F37D81D4F8642ACC4FCF
:10AE000004EB03134FF0020CD3F8440EC4F8340ED5
:10AE1000B7EB920F22FA0CF384F830CE80F0408228
:10AE2000C34AB2EB530F80F02B82B2EB930F80F04A
:10AE30002B82B2EBD30F80F02982B2EB131F80F08C
:10AE40002982B2EB531F80F02982B2EB931F34BFEB
:10AE50004FF4807380235B000288B64F22F04002DB
:10AE60001204120C0280028822F038021204B84246
:10AE70004FEA124200F01381AF4FB84200F00F8149
:10AE8000B3F5807FA8BF4FF48073002B93FAA3F330
:10AE9000B3FA83F308BF4FF0FF33013B42EAC30329
:10AEA0009BB203800388B4F83C2E9BB243F040036E
:10AEB0000380002A40F0D58011B10B688A885A833C
:10AEC000FF218C2030F03EFDD4F8403E002B00F0F6
:10AED000A18119689F880F831B2840F0E7812322F6
:10AEE000DA80B4F83C2E012084F86A0A002A40F087
:10AEF000C4804F8340210A2030F024FDFF218A20A6
:10AF000030F020FDD4F8401EC0F3801284F8742E77
:10AF100000F0400011B10B688F881F8394F82C3E1D
:10AF2000012B00F03681022B00F01081002B00F085
:10AF3000BC80B4F8683A94F8750EDFF80CE2182873
:10AF400008BFA4F80064D4F8340E7C4E0788B6F825
:10AF5000E2C008BFA4F80224B6F8E020C6F8E6E094
:10AF600042EA0C0207F44157B6F8E4C0B6F8ECE048
:10AF700008BFA4F804343A43B6F8EA7042EA0C0277
:10AF80003A43B6F8EEC0B6F8F0706A4E42EA0E02E6
:10AF900042EA0C0292B242F003020280828B22F457
:10AFA00000621204120C82830782028822F03802A7
:10AFB0001204B0424FEA124200F03D8106F580666D
:10AFC000B04200F00881B3F5807FA8BF4FF48073D2
:10AFD000022BB8BF0223002B93FAA3F3B3FA83F337
:10AFE00008BF4FF0FF33013B42EAC30292B2028036
:10AFF000534A0388821A9BB218BF4FF0FF32A4F85D
:10B000003C3E17014F4E3E44C4F8386E5BB104EB32
:10B010000212B2F8526E9E4205D00380A2F8523E50
:10B0200000BFD4F8401E11B10B688A885A830221F0
:10B03000002030F087FCD4F8403E13B11A689B889A
:10B0400013836A78AB78297884F8761EC2F12002DF
:10B05000C3F1100384F8772E84F8783E0020BDE811
:10B06000F081D4F8383EDF8997423FF425AF028063
:10B07000DA8100BFD4F8401E1EE7D4F8381EC88914
:10B08000904209D0D4F8343E1A80CA8100BFD4F867
:10B09000403E002B3FF42EAF19689F8829E75B08DC
:10B0A000EEE60020C4F8400E94E6D4F8640A204B83
:10B0B000B3EB900F80F0F680B3EBD00F80F00181FE
:10B0C000B3EB101F80F0FF80B3EB501F80F0FD80CA
:10B0D000B3EB901F80F0FB80B3EBD01F80F0F980C2
:10B0E000B3EB102F34BF4FF4807380235B00A4F8C0
:10B0F000683A20E7D4F8642A0D4F4FF0020C002084
:10B10000B7EB920F22FA0CF384F830CEC4F8340E69
:10B11000FFF486AE038823F040031B041B0C03805E
:10B12000028822F038021204120C0423A4E600BFA5
:10B130008096980000380040003C004098010020B4
:10B1400000300140EC30002002000100D4F8647AA5
:10B150006248B0EB970FCAD2B0EBD70F80F0A28055
:10B16000B0EB171F80F08880B0EB571F80F09C80F9
:10B17000B0EB971F80F0A180B0EBD71F80F09F80CD
:10B18000B0EB172F34BF4FF480738023A4F8683AD4
:10B19000D1E60EB1002888D0D4F8640A4F4BB3EB47
:10B1A000900F80F09880B3EBD00F7BD2B3EB101FE1
:10B1B00062D2B3EB501F77D2B3EB901F7DD2B3EBCB
:10B1C000D01F7CD2B3EB102F34BF4FF48073802399
:10B1D000A4F8683AAFE65B08B3F5807FA8BF4FF4E8
:10B1E0008073022BB8BF0223002B93FAA3F3B3FAA8
:10B1F00083F308BF4FF0FF33013B42EAC30292B230
:10B20000028003889BB2A4F83C3E4FF0FF326FF0FF
:10B210000F07F7E61B2849D1B4F83C2E012384F828
:10B220006A3A002A3FF466AED4F8381ECB899342BE
:10B230007FF428AF5EE65B08B3F5807FA8BF4FF4CC
:10B240008073022BB8BF0223002B93FAA3F3B3FA47
:10B2500083F308BF4FF0FF33013B42EAC30292B2CF
:10B26000028003889BB2A4F83C3E01221027C9E665
:10B2700002205DE504205BE5082338E7082057E558
:10B280000423E8E5102053E50823E4E51023E2E574
:10B2900020204DE52023DEE5402049E54023DAE586
:10B2A0000423D9E5042322E7102320E718462021B0
:10B2B00027F036FB4FF0FF307BE5202317E74023D4
:10B2C00015E7042312E7082310E710230EE72023D5
:10B2D0000CE740230AE7022309E700BF80969800A5
:10B2E0002DE9F04F2DED108B034697B004331593E5
:10B2F000DFEDCACA149002238A4613928B4612933A
:10B30000149C4FEADB0604EB461202EB06103101F7
:10B31000A6EB86034FEAC60806EB4605CDE9000119
:10B3200000EBC303043108F10400119620442144CA
:10B330002C01C6EBC60C0394EC00119D04944FEA5B
:10B34000CC0405946C0106EB860E0294159D009CBE
:10B3500003EB46174FEACE0E02EBC6064FEACB09C7
:10B360004FF0000C51ED01AAD3ED001A92ED007AD6
:10B3700094ED005A96ED004AD7ED007A15ED012ABA
:10B3800050ED016A32EE07BA76EE840A7AEE855AFB
:10B3900031EEA70A3BEE256A70EE804A76EEC46A6B
:10B3A00036EE244A36EE646A05ED014A82ED006A03
:10B3B000D0ED00BAD6ED012AD3ED019A95ED00AAA1
:10B3C00092ED016A97ED013A91ED00CAD4ED014A80
:10B3D0007BEEE23A36EEE19A32EE472A73EEE98AE4
:10B3E0003AEE464A39EE279A78EE838AB0EE428AE0
:10B3F000A9EE6C8ADC44E24573EEC33AB0EE441A1F
:10B40000A8EEEC1A76EEE77A33EEA97A7CEE643A8F
:10B4100077EEA17A3AEE066A7AEEC51A3CEE24AAD5
:10B4200074EECC4A39EE833A35EE6A5AF0EE639AFE
:10B43000F0EE48AAE7EE2C9AA8EEAC4AE7EE2C4ACA
:10B44000E7EE6CAAF0EE418AB0EE427AB0EE612AE5
:10B450007BEE656A7BEEA22A76EE4A5AA9EE2C7A3A
:10B46000A7EEAC2AA7EEAC5AE7EEEC8A32EE83BA2E
:10B4700076EEC3BA35EEE09A75EEC07A36EE0A6A19
:10B4800076EEE26A36EE0BAA76EE836A77EEA07A63
:10B4900034EE423A77EE290A36EE4B6A7BEEA22A68
:10B4A00039EE000A73EEAA3A78EE244A37EE697A4A
:10B4B00031EE055A71EEA85A32EE044A85ED00AA23
:10B4C00082ED016A4D4441ED012A4A44C4ED006A0F
:10B4D00081ED000AC4ED017A494440ED010A4C4473
:10B4E00087ED007AC6ED003AC3ED004A80ED003AE0
:10B4F00087ED014A484486ED015A4F44C3ED015A95
:10B500004E444B443FF62EAF119B072B40F2C781B0
:10B51000029D149E019B03980499059A083575199C
:10B520000C330E95354608F108080EF10804EB18A7
:10B5300008300831083246442C1928186918AA180E
:10B54000079305F10C030D960C940B900A91099248
:10B5500008934FF001084FF0000E129B9E44139B7E
:10B5600003EBCE0303EBCE02109302EBCE0303EB0F
:10B57000CE01029101EBCE0101EBCE0505EBCE062B
:10B58000D6ED007A0F93AEEB8E03019106EB031319
:10B5900003EBCE07D3ED01AACDED067A019BD5EDE5
:10B5A000007A97ED01BACDED057AD3ED007A029BD2
:10B5B000CDED047AD3ED007A0F9BCDED037A07EB46
:10B5C000CE0CD3ED007ADCED01BACDED027A0CEBB6
:10B5D000CE01D2ED007A109A009101EBCE00014627
:10B5E00091ED01DACDED017A0099D2ED007A91ED7D
:10B5F00001CA00EBCE0000EBCE0494ED01EAD0EDE1
:10B6000001DACDED007ADDE90776DDE90954DDE9FF
:10B610000B01DDE90D23C44602E000BFF304353F12
:10B6200094ED009A90ED00FA91ED006AD5ED007A64
:10B63000D3ED006A57ED014A92ED005A56ED013AFA
:10B6400096ED00AA35EE060A73EEA65A39EE278A61
:10B6500034EE8F7A70EE082A75EE87EA35EE465A98
:10B660003EEEA26A73EEE63A06ED016AD1ED019A6A
:10B67000D2ED01FAD4ED016AD3ED011A95ED013A4C
:10B68000D0ED018A97ED004A3FEEE96A35EE491A9E
:10B6900076EE660A31EE271A3AEE612A75EE677A7F
:10B6A00070EE830A3FEEA95A74EECF9A77EE897A4C
:10B6B0007AEE211AB0EE42AA74EE68FAA0EEECAA75
:10B6C000DC44E24535EEC77AB0EE639A74EE285A50
:10B6D00038EEC44AF0EE698AA1EE6C9AE7EEAC8AC5
:10B6E00036EE436A7FEE644A36EE266AA0EEAC2A56
:10B6F000F0EE4A0AE7EEEC0AE7EEAC4AF0EE687AC2
:10B70000F0EE498A36EE833AE6EE6C8AE1EE2C3AA8
:10B71000B0EE6F1AA6EE2C1A71EEE56AA6EE2C4A70
:10B7200071EEA55A75EE031A7EEEE22A37EE43FA61
:10B7300075EEE1EAB0EE686A76EEC08A39EE044A48
:10B740007FEE86FA76EEC86A33EE816A38EE888A32
:10B7500073EEC13A37EE457A2CEE2E1A3FEE055ABB
:10B7600022EECC9A9DED03FA70EE266A33EE077A4C
:10B77000AFEE221AAFEE2E9A7AEE244A9DED01FA30
:10B7800079EEA09A25EE4BAA72EE670A37EE822A6E
:10B790006BEE087AAFEE08AAEFEE057A2DEEA63A28
:10B7A0009DED05FA67EE6D8AAFEE073AEFEE268A59
:10B7B00066EE6A2A9DED00FA2AEEA00AEFEE202A34
:10B7C0006EEE02EADDED060A23EECE5AE0EEA3EAC3
:10B7D0002BEEA98ADDED023AAFEE060AA3EE848ACB
:10B7E00024EE6B7A6DEE246A9DED044A2FEECD6A4D
:10B7F000A0EE825AA3EEA97AE4EE2F6AA4EE246AA0
:10B8000075EEA15AC6ED005A83ED001A83ED019A38
:10B810004E4447ED017A87ED00AA4B4480ED003A93
:10B82000C0ED018A4F4482ED000A4844C2ED012A6E
:10B83000C5ED00EA85ED015A4A44C1ED006A81ED8B
:10B84000016A4D4484ED008A84ED017A49444C44F8
:10B850003FF6E6AE0E9B08330E930D9B08330D9317
:10B860000C9B08330C930B9B08330B930A9B0833F8
:10B870000A93099B08330993089B08330893079B95
:10B8800008330793119B08F1010843457FF465AE27
:10B89000129BDDF844B0DB009BB2129330E517B089
:10B8A000BDEC108BBDE8F08F036870B55E6A26B101
:10B8B00033460522BDE87040184704460D464E1D2C
:10B8C00000E023689B68204698470028F9D0236849
:10B8D00015F8011B1B6820469847B542F1D170BD91
:10B8E0002DE9F047154B054603F68864002093F9CF
:10B8F000818E84B06F1804F5287A06464FF0B60999
:10B900002368ABB193F83830142B11D018F1020F23
:10B9100001D043450CD1002269462046CDE902669C
:10B92000CDE90057ADF808908DF80E6019F0DEFAF9
:10B93000E034A245E4D104B0BDE8F087A82200209D
:10B94000F0B40D6800240CE0BCF1050F18D8A0F18C
:10B9500037030A2B14D104EB840415F8010B03EB15
:10B960004404A0F13003DEB2092EA0F16107A0F17A
:10B97000410CF0D9052FE7D8A0F157030A2BEAD0E4
:10B980000D601460F0BC704730B583B04D1C00935F
:10B9900003688572C2729C690023A04703B030BD62
:10B9A0002DE9F0410C4F0124A0231825E6B2FF2B0E
:10B9B0000BDCC5F11B0103F10108D7F82004DBB251
:10B9C0003246C9B2FFF7E0FF4346013DEFD10134F3
:10B9D000052CEAD1BDE8F081A822002070B444799A
:10B9E00041BB03684FF400524FF40076202502213A
:10B9F0003CBB1A8C22F001021204120C1A841A8B1E
:10BA0000188C22F0F30280B2120420F00A00120C0B
:10BA1000014342F0010241F001011A8319841A8B9B
:10BA200022F00C021204120C1A831A8B92B270BC10
:10BA30001A83704700220368164615461146002CEB
:10BA4000D7D0042C21D0082C38D0198C21F4805167
:10BA50000904090C19849C8B1D8C45F6FF7040F677
:10BA6000FF4128402140024342F4805241F480715A
:10BA700099831A849A8B22F440621204120C9A83DE
:10BA80009A8B92B270BC9A8370471A8C22F0100283
:10BA90001204120C1A84188B198C89B240F6FF42DA
:10BAA00021F0A00102400D4342F4807245F01005E0
:10BAB0001A831D841A8B22F44062B3E71A8C22F495
:10BAC00080721204120C1A84998B1A8C21F0F301E3
:10BAD00092B2090422F42062090C324342F48072CB
:10BAE00041F0010199831A849A8B22F00C02C4E779
:10BAF000F0B5BD4BBD4EBE4DBE4C0822C3F88820EC
:10BB0000336B83B043F00103336307464FF4C052F5
:10BB1000284640F202336946CDE90023FCF770FA6B
:10BB20006A6AC4F8147622F470426A626A6AB24B96
:10BB3000C4F8183642F420426A626A6AAF48206349
:10BB400022F470226A626A6AAD48606342F420227D
:10BB50006A62726CAB4D256442F480427264726B0F
:10BB6000A948A06442F080027263022284F838205F
:10BB7000A64FA74AA749E7641C334FF0A046C4F874
:10BB80001C36E663A44B226505F5487506F5166676
:10BB9000C4F88850C4F88C3066650123DFF8A4C26D
:10BBA000C4F884C007F51077A5F5E465A2F5A06296
:10BBB000A6F58C66C4F890706564C4F8FC2084F81F
:10BBC0003B3005F5A0754B61C4F8C0601946A0363E
:10BBD00084F84231914BC4F8C85002F59072A7F531
:10BBE000BC67A035C4F8D4608D4EC4F8CC20C4F82E
:10BBF000D07002F52A6207F5D457C4F8D830C4F8DB
:10BC0000DC5003F569534FF050250020ACF5BC6CB7
:10BC1000C4F80021C4F8047102F5A04207F5A0475A
:10BC2000C4F80861C4F80C3106F5A046A3F54853E2
:10BC3000C4F8105104F13005C4E94676C4F8142163
:10BC4000C4F83C31C4F8C4C002462B4684F8440111
:10BC5000402683F81C21A3F822210132042AC3E9DB
:10BC6000496083F81D1183F81F01C3F8300103F107
:10BC70002803EED1002211462B46402083F874237E
:10BC8000A3F87A230132042AC3E9DF0183F875138C
:10BC900083F87713C3F8881303F12803EED14FF02C
:10BCA000A04360489A6822F001029A60DA6842F084
:10BCB0004002DA60FCF7E4FB94F8393000222121DD
:10BCC00061F317420BB142F4801294F83310E36B26
:10BCD00001299A6300F0DA80DA68D4F83C61206CBC
:10BCE000C2F3076121F0600141F0400161F31F627E
:10BCF0000021DA603160026861F3CC22026094F8BE
:10BD00003B20012A00F0AF8010214748FCF794FE49
:10BD10004548FCF777FE206C94F8313000224FF054
:10BD2000FF31026142618161C26153B305F11407C1
:10BD30003E4E114607EB83074FEA830C4FF0FF0E90
:10BD400056F8042F1368002BACBF00234FF090432C
:10BD5000B74213601161C2F808E0F1D105F1500358
:10BD6000334963440027FF2651F8042F1568002D3E
:10BD7000ACBF00254FF09045994215601761966061
:10BD8000F2D1036994F8331043F4807301290361FD
:10BD90005AD0E26B27480023936100294FF0FF330C
:10BDA0006FF0804151615360516114BF0023102333
:10BDB000906143F470139069D4F8181643F46053FB
:10BDC00043F00803034393619368096843F0010358
:10BDD00093608847184B194ADA606846184B0093FD
:10BDE000FEF7AAFA03B0F0BD00E100E0003802401F
:10BDF00000000240A03300208C0200200804010053
:10BE00004000400100080050000900502009005087
:10BE100040090050003C0140400B0050C00500505C
:10BE200000300050DC330020D0330020E433002009
:10BE3000203400200008008000ED00E00005FA0535
:10BE400043020001000B0050E26B154B03636FF0DF
:10BE50008041144D00234FF0FF30936151615060D9
:10BE600051619561A5E701680F4A104E41F0030149
:10BE70000160802159629E62C3F80421E022C3F868
:10BE80000821C0F24002C3F80C213DE79A6822F075
:10BE90003E0141F02A0161F307029A601CE700BFEE
:10BEA0000301810000080080A00040008000200005
:10BEB0002DE9F0479AB0DDE9226ADDF8909004465A
:10BEC0000D461746984602E0206821F06DFF206875
:10BED00021F072FF0028F7D10146642201A833F057
:10BEE00062FC264B8DF80450CDF85CA00293002D27
:10BEF00040D0AB1E012B3FD9042D14BF00220322DA
:10BF00001F4B0396D3F8D4338DF805201E4401232C
:10BF1000CDE9059404968DF85B3037B14246394639
:10BF200007A833F0DFFB8DF85A80164E96F8669618
:10BF300000231893B9F1000F19D196F86506642211
:10BF400002FB006001A900F5CD6033F0CBFB0123BB
:10BF500086F8659686F86636236843B143463A46C6
:10BF6000294620461AB0BDE8F04708F023BF1AB0B2
:10BF7000BDE8F0870522C3E70222C1E7C4390020EB
:10BF8000A8220020A033002070B5084C251D2E46A5
:10BF900014F8010B1DF0F0FA28B1037805F8013B05
:10BFA000B442F5D170BDFF23F8E700BF703A00201E
:10BFB0002DE9F0471D4F012607F10805B2464FF065
:10BFC0003C094FF0000817F8010B25F06FF9044603
:10BFD00090B180F80690C671FB7803F07F02012AC9
:10BFE00018D013F0800F20460DD185F8048026F07C
:10BFF00037FE85F805802C600136052E05F1080511
:10C00000E1D1BDE8F08785F804A026F02FFE85F881
:10C0100005A0F0E71B0605D40121204626F080FC90
:10C02000FB78DEE726F022FEF6E700BF783A002034
:10C030009FED737A07EE901A20EE070AF8EE677A02
:10C0400027EE800AFDEEC07A17EE903A2033402B9F
:10C0500000F2C780DFED6B7AB4EEE70AF1EE10FA7A
:10C06000F0EE407A0CDD9FED686ADFED686AB0EEB5
:10C07000677AB4EEE67AF1EE10FA77EEC67AF6DC7D
:10C080009FED637AF4EEC77AF1EE10FA0CD59FEDCE
:10C090005E6ADFED606AB0EE677AB4EEE67AF1EEE2
:10C0A00010FA77EE867AF6D49FED5B7AF4EEC77AD3
:10C0B000F1EE10FA00F38D809FED587AF4EEC77A16
:10C0C000F1EE10FA44BF9FED527A77EE677A27EED1
:10C0D000A76ADFED535A9FED537ADFED536AA6EE60
:10C0E000257A67EE865AE6EE076AB6EE007AE5EE46
:10C0F000A67A27EE877ADFED486A70EE267ABDEEE3
:10C10000E76A16EE103A2033402B67D8B4EEE60A01
:10C11000F1EE10FA0CDDDFED3C5A9FED3C6AF0EEDB
:10C12000676AF4EEC66AF1EE10FA77EEE57AF6DCAD
:10C13000DFED376AF4EEE67AF1EE10FA0CD5DFEDBA
:10C14000325A9FED346AF0EE676AF4EEC66AF1EE99
:10C1500010FA77EEA57AF6D4DFED2F6AF4EEE67AE0
:10C16000F1EE10FA40DDDFED276A76EEE77A67EE52
:10C17000A75A9FED2B5A9FED2B6ADFED2B6AA5EE98
:10C18000856A27EEA55AE5EE866AB8EE006AE5EE06
:10C19000267A67EE867AC7EE206A002383614361C0
:10C1A0000362C361B7EE006A76EE865A76EE666A7F
:10C1B00086EE257A67EE277A66EE876AC0ED017A09
:10C1C000C0ED037A80ED007A80ED027AC0ED046A5A
:10C1D00070479FED0C7A77EE677A78E7DFED137A98
:10C1E000D9E79FED127A86E7DFED0C6AF4EEE67A86
