:020000040800F2
:10000000F0FF00100142040871D5000889F40208CD
:10001000A1420408A1420408A14204080000000013
:100020000000000000000000000000006DD5000886
:1000300069D500080000000065D50008814103086B
:10004000A1420408A1420408A1420408A1420408F4
:10005000A1420408A14204081956030845570308A1
:1000600009570308CD56030891560308C92A040806
:10007000B92A0408A92A0408992A0408852A040828
:10008000712A04085D2A0408A1420408A142040858
:10009000A1420408A1420408A142040855560308DD
:1000A00059230308E123030849230308092403080B
:1000B000D1230308C1230308B1230308BD36040874
:1000C000C5360408B1360408B9360408A14204084C
:1000D000A142040855430308A14204089D420308B5
:1000E000DD550308A1420408DD0601083923030891
:1000F000692303082923030891230308492A0408D4
:10010000A1420408A1420408A1230308A142040853
:10011000A1420408A1420408A1420408A142040823
:10012000352A0408212A04080D2A0408F92904089C
:10013000E5290408A1420408A1420408A1420408D8
:10014000A1420408A1420408A142040881F5000864
:10015000D1290408BD290408A9290408E541030898
:10016000A5360408AD360408A1420408A1420408DB
:10017000A1420408A1420408A1420408A1420408C3
:08018000A1420408A142040899
:08018800B03D0400010000007D
:100190000E020100020000008C2500203C520020CD
:1001A00000000000500800081610010006000000C2
:1001B0006025002040520020000000005208000886
:1001C0002F10010022000000BC51002048520020E6
:1001D0000000000058080008052001000C00000085
:1001E000482500206C520020000000007C08000818
:1001F000FD0701007A000000125100207852002013
:1002000000000000B50B01080B3001001A000000CF
:10021000341C0020F4520020000000008808000870
:10022000F5910100480000008C24002010530020AC
:1002300000000000AD1A0108261001000E000000A9
:10024000685300205853002000000000FD8A000879
:100250001302010004000000941B002078530020CA
:1002600000000000A2080008122001001100000098
:10027000E82400207C53002000000000A6080008AD
:100280000D1001004C000000E845002090530020B4
:10029000000000002DB10208090201000100000069
:1002A00040500020DC53002000000000B808000887
:1002B000FD010100240000009C450020E0530020C7
:1002C000000000001731030818200100380000006A
:1002D00060450020045400200000000021C80308ED
:1002E00006100100240000003C4500203C54002082
:1002F00000000000A5C70308FB0101000100000089
:1003000038450020605400200000000079C7030831
:10031000FC01010009000000044400206454002096
:100320000000000089C70308F70101000600000073
:10033000F84300207054002000000000BA080008B4
:10034000F901010004000000F4430020785400206B
:1003500000000000BD3103080A8001002C000000ED
:100360008C4300207C5400200000000049710108EB
:10037000160215003F00000020430020A854002072
:1003800000000000CDBA0308340001001000000096
:1003900050420020E854002000000000B1990108FC
:1003A000110201000800000028420020F85400203B
:1003B00000000000C0080008121201000400000044
:1003C000204200200055002000000000C80800085E
:1003D000000201000B000000C83E00200455002070
:1003E0000000000035BC0308FA0101000300000012
:1003F000FC370020105500200000000019BC030845
:100400000C02010004000000843700201455002075
:100410000000000001BC0308110001000C000000F6
:100420000B2800201855002000000000A528030814
:10043000FE01010014000000B847002024550020F0
:100440000000000069BC0308140001000500000062
:10045000FC7C0020047D002000000000CC08000887
:100460000E200300BC010000EC7300200C7D002076
:1004700000000000D18C01081300010004000000FE
:10048000287A0020C87E002000000000D408000860
:1004900023200100100000007A770020CC7E00208D
:1004A00000000000A171010800010100040000002B
:1004B000B0730020DC7E002000000000D808000897
:1004C0000201010003000000AC730020E07E002068
:1004D00000000000A91202080C400600E400000021
:1004E00008760020E47E0020000000006912020867
:1004F000010201000B000000BC730020C87F002037
:100500000000000025BC03080202010003000000F7
:10051000BC770020D47F0020000000000000000015
:100520001B02010010000000A8770020D87F0020E7
:1005300000000000EDBB03081B1001000C000000D0
:10054000CC660020E87F002000000000191F010891
:1005500021020100F000000040650020F47F00202F
:1005600000000000451E0108012001000C000000F1
:10057000AC8D0020808E002000000000DC08000808
:100580001A0001000E000000448D00208C8E002017
:1005900000000000E80800081500100070000000CE
:1005A000908B00209C8E00200000000000000000C6
:1005B0002A00080060000000008E00200C8F002040
:1005C00000000000A98C01082C00040010000000AD
:1005D0007C8F00206C8F002000000000E585010862
:1005E0002B00120024000000B08F00208C8F002010
:1005F00000000000B98501082920140078000000DF
:1006000048890020D48F0020000000000000000076
:100610001902010010000000708800204C9000209A
:1006200000000000D1BB0308F62101000C0000000F
:10063000E88D00205C90002000000000F808000811
:100640001C0202001C00000030870020AC9000203B
:100650000000000091C503082830010016000000CA
:100660004C870020C890002000000000E19601089F
:10067000041201000200000060880020E0900020C9
:1006800000000000040900080F0201000100000042
:100690005C880020E49000200000000006090008AB
:1006A0000300010001000000949300209C9B0020A7
:1006B000000000000000000025201E002C010000AA
:1006C000F0980020A09B0020000000000000000027
:1006D0001010010002000000A8930020CC9C002014
:1006E00000000000080900081900010005000000D2
:1006F000A0930020D09C0020000000000A09000800
:100700001A0201003C00000004A0002054A10020B7
:10071000000000008DC8030838100100010000002F
:10072000609D002090A1002000000000100900083A
:10073000020001000C000000A89E002094A10020EF
:100740000000000000000000F82101000600000089
:10075000B49E0020A0A100200000000012090008A3
:100760002902010040000000009D0020A8A10020F7
:1007700000000000180900080400080080000000C4
:1007800000A2002080A20020000000000000000065
:100790001F02080010000000ECA1002000A30020B0
:1007A00000000000ADBB03081E02010006000000AF
:1007B00090A4002048AE0020000000005809000866
:1007C0000702010002000000D4AB002050AE002060
:1007D000000000005E0900081D0202000600000083
:1007E00064AB002054AE00200000000000000000B8
:1007F000060203000C000000B4AB0020DCBE0020A9
:10080000000000005DC60308081203000F0000008E
:10081000A4AB0020E8BE0020000000003DBC03089F
:100820002700010004000000A8A40020F8BE00205A
:100830000000000060090008100201000100000033
:1008400048DE002044DE00200000000064090008AB
:100850000000C409000019000000000000000000B2
:100860000000000000000000000000000000000088
:100870000000000000000000000000000201000075
:100880000000000000000000AE014A015E012C01E2
:1008900064010100000001000A019A01001E0A0023
:1008A000000200000135000000010000054F424633
:1008B00034000008000200002E00240100000000A7
:1008C0000000000001010101FFFFFFFF0300002302
:1008D000000000000000443290010000E8036400C2
:1008E000040A000114001E007E05EA05B40532006A
:1008F000E803D00700000000000000000100000035
:10090000020200001118000000050000280100008C
:1009100000000100000000000000000000000000D6
:1009200000000000000000000000000000000000C7
:1009300000000000000000000000000000000000B7
:1009400000000000000000000000000000000000A7
:100950000000000000000000000000000000023C59
:0509600020030000006F
:100965000403090412010002EF0201408304563218
:100975000002010203010000120100020202004010
:100985008304405700020102030100000902200010
:10099500010104C0320904000002080650050705DC
:1009A50081024000000705010240000009026400C1
:1009B500030100C032090400000103000000092101
:1009C500110100012236000705830309000A080BFF
:1009D50001020202010009040100010202010005F1
:1009E5002400100105240100020424020205240646
:1009F5000102070582030800FF09040200020A003C
:100A050000000705010240000007058102400000C3
:100A150009024300020100C032090400000102027C
:100A2500010005240010010524010001042402022F
:100A35000524060001070582030800FF09040100DB
:100A4500020A0000000705010240000007058102B7
:100A550040000000FF0000007EFF0000FFFFFFFFD9
:100A65005D82000859820008558200084982000805
:100A750045820008518200084D82000801000000EF
:100A850005010905A101A100050109300931093256
:100A9500093309350934093609371581257F750864
:100AA50095088102050919012908150025019508F0
:100AB50075018102C0C0000009022200010100E0A9
:100AC500320904000001030102000921110100019E
:100AD5002236000705830309000A0000000004010F
:100AE50000000000000000021000000007000000E8
:100AF50000000000010203040102030406070809BF
:100B050059DF000831E70008A9E200085983000809
:100B1500A5850008698300088583000831830008DE
:100B25002183000800000000000000000100000013
:100B350000000100E0010000FFFFFFFF01FF0000D2
:100B4500000000000000000000000000087204081A
:100B5500000000000000000000000000C072040852
:100B65000000000000000000000000006C72040896
:100B7500080000004257020000000106425702002B
:100B8500000001060000000000000000391D0108FA
:100B950010780020052C010800000000000000006E
:100BA50098710408FFFFFFFF01000000FA00000034
:100BB50001000000010000001E2500200100C409FD
:100BC500000000001C2500200100C40900000000F1
:100BD5001A2500200100C409000000001825002086
:100BE5000100C40900000000142500200100C4090B
:100BF50000000000162500200100C40900000000C7
:100C0500122500200100C409000000001025002065
:100C15000100C40900000000B67300200083007DB8
:100C250005000000B473002080C1803E050000006F
:100C3500AF73002000FF0100A87300206400F401D9
:100C450001000000A67300206400F401010000000B
:100C5500A47300206400F40101000000A2730020C9
:100C650004000000D4660408A173002002000000FF
:100C7500E8660408DF7300200D000000F466040830
:100C8500DC73002000640100DA73002032001027B5
:100C95000A000000D87300200D000000F466040867
:100CA500D77300200D000000F4660408D6730020F9
:100CB500020000002C67040800000000000000008E
:100CC5000000000038670408037700204100000099
:100CD50070670408017700200300000078680408A5
:100CE500027700200400000088680408B47500201D
:100CF500020000009C680408B27500200000F401A1
:100D050001000000B07500200000F40101000000A2
:100D1500AE7500200000F40101000000AC75002054
:100D25000000F40101000000AA7500200000A00FDA
:100D350001000000A87500200000A00F01000000C0
:100D450004760020006401000A00000003760020FC
:100D5500006401000A000000F1750020196401001B
:100D6500F075002002000000A8680408EE75002058
:100D7500E803D0070A000000EC75002000640100BC
:100D85000A000000E175002000640100E075002004
:100D950000640100E8750020006401000A000000FD
:100DA500E7750020006401000A000000E6750020D8
:100DB500006401000A000000EB75002000FF01003F
:100DC5000A000000EA75002000FF01000A0000008B
:100DD500E975002000FF01000A000000E57500200C
:100DE50001FF01000A000000E475002001FF010079
:100DF5000A000000E375002001FF01000A00000061
:100E0500E87300200000F40101000000E6730020F3
:100E15000000A00F01000000E47300200000A00FF7
:100E250001000000E27300200000A00F0100000097
:100E3500E07300200000A00F01000000CF75002026
:100E4500FF080100CE75002001640100CA7500206D
:100E55001400E80301000000C8750020000030758B
:100E65000A000000C675002000C80100C5750020F5
:100E750000C80100C475002000C80100C37500202A
:100E850000320100D1750020004B0100D075002013
:100E950004000000B4680408C27500200064010065
:100EA5000A000000FA7600200000D00701000000CB
:100EB500F476002000C80100F376002000C8010088
:100EC500F276002000C80100F87600200000D00767
:100ED50001000000F176002000C80100F076002036
:100EE50000C80100EF76002000C80100F67600205A
:100EF5000000D00701000000EE76002000C80100C8
:100F0500ED76002000C80100EC76002000C8010045
:100F1500D9160108C116010800000000C8680408B8
:100F2500CD730020005A0100CC73002000C80100D9
:100F3500CA730020E803D00701000000000000008C
:100F450000000000791D010864690408C9730020C8
:100F550003000000B8690408C873002000030100FD
:100F6500C773002000030100E51501089D15010860
:100F750000000000C8690408E9160108015B0108C2
:100F850000000000646A0408492F01081D1A0108C1
:100F9500000000000C6B0408F1170108B5170108E3
:100FA50000000000A86B0408BD180108F918010825
:100FB50000000000346C0408FD76002001060100E5
:100FC5007917010845170108000000004C6D040859
:100FD5002D180108412D010800000000BC6D040812
:100FE50025190108D52D010800000000806E0408B0
:100FF500FC76002001030100911601086116010825
:1010050000000000546F0408792E0108000000005C
:1010150000000000B86F0408311601082D160108FC
:1010250000000000547004080000000000000000EB
:1010350000000000B870040879190108552E010850
:10104500000000000C710408FF0000004082002031
:101055009482002001D60101000101010000000079
:10106500A0E00408E8D0040800000000B1AC0208C4
:10107500A086010004000000000000000000000040
:10108500000000000000000000000000000000005B
:10109500000000000000000000000000000000004B
:1010A500A0E00408A8E0040800000000DDAD020887
:1010B500E80300000400000000000000000000003C
:1010C500000000000000000000000000000000001B
:1010D500000000000000000000000000000000000B
:1010E5009CD804080000000000000000E157020839
:1010F5007D000000FF00000000000000000000006F
:1011050000000000000000000000000000000000DA
:1011150000000000000000000000000000000000CA
:10112500382D050800000000000000008D6A020847
:101135007D000000FF00000000000000000000002E
:10114500000000000000000000000000000000009A
:10115500000000000000000000000000000000008A
:1011650058D704080000000000000000251C0208F4
:101175007D000000FF0000000000000000000000EE
:10118500000000000000000000000000000000005A
:10119500000000000000000000000000000000004A
:1011A500B0E00408000000000000000005D90208B6
:1011B500E80300000300000000000000000000003C
:1011C500000000000000000000000000000000001A
:1011D500000000000000000000000000000000000A
:1011E500B4E0040800000000000000003DEF010825
:1011F50010270000030000000000000000000000B0
:1012050000000000000000000000000000000000D9
:1012150000000000000000000000000000000000C9
:101225004C290508000000005182010881E20208EE
:101235005F760000050000000000000000000000CF
:101245000000000000000000000000000000000099
:101255000000000000000000000000000000000089
:10126500DC2C05080000000000000000792C0308B4
:101275001027000001000000000000000000000031
:101285000000000000000000000000000000000059
:101295000000000000000000000000000000000049
:1012A500C0E004080000000000000000E1AD0208F5
:1012B500E803000005000000000000000000000039
:1012C5000000000000000000000000000000000019
:1012D5000000000000000000000000000000000009
:1012E500CCE0040800000000000000000114020822
:1012F500204E000003000000000000000000000078
:1013050000000000000000000000000000000000D8
:1013150000000000000000000000000000000000C8
:10132500DCE00408000000000000000019130208BA
:10133500204E000003000000000000000000000037
:101345000000000000000000000000000000000098
:101355000000000000000000000000000000000088
:10136500ECE00408000000000000000055DE020863
:10137500400D030003000000000000000000000015
:101385000000000000000000000000000000000058
:101395000000000000000000000000000000000048
:1013A500FCE004080000000000000000DDD7020892
:1013B50010270000010000000000000000000000F0
:1013C5000000000000000000000000000000000018
:1013D5000000000000000000000000000000000008
:1013E50004E104080000000000000000F99D010868
:1013F500A0860100010000000000000000000000C0
:1014050000000000000000000000000000000000D7
:1014150000000000000000000000000000000000C7
:101425003CD704080000000000000000CDB702080A
:1014350050C3000001000000000000000000000093
:101445000000000000000000000000000000000097
:101455000000000000000000000000000000000087
:101465008CD50408000000000000000089B50208C2
:10147500A086010000000000000000000000000040
:101485000000000000000000000000000000000057
:101495000000000000000000000000000000000047
:1014A500E4D404080000000000000000C1B20208F6
:1014B500A86100000100000000000000000000001D
:1014C5000000000000000000000000000000000017
:1014D5000000000000000000000000000000000007
:1014E5000CE104080000000000000000DD5B0108BD
:1014F500A0860100010000000000000000000000BF
:1015050000000000000000000000000000000000D6
:1015150000000000000000000000000000000000C6
:1015250018E1040800000000000000004956010809
:10153500102700000100000000000000000000006E
:101545000000000000000000000000000000000096
:101555000000000000000000000000000000000086
:1015650024E104080000000000000000E9AC0208C6
:10157500A00F0000010000000000000000000000B6
:101585000000000000000000000000000000000056
:101595000000000000000000000000000000000046
:1015A50008DE04080000000000000000210001081A
:1015B5001A410000010000000000000000000000CA
:1015C5000000000000000000000000000000000016
:1015D5000000000000000000000000000000000006
:1015E500FCD00408000000000000000013370108CB
:1015F50050C30000010000000000000000000000D2
:1016050000000000000000000000000000000000D5
:1016150000000000000000000000000000000000C5
:1016250030E104080000000000000000B94701088F
:1016350050C300000300000000000000000000008F
:101645000000000000000000000000000000000095
:101655000000000000000000000000000000000085
:101665003CE10408000000000000000099B20208F7
:1016750050C3000000000000000000000000000052
:101685000000000000000000000000000000000055
:101695000000000000000000000000000000000045
:1016A500010000000000803F000000000000000075
:1016B5000000000000000000000000000000000025
:1016C5000000000000000000000000000000803F56
:1016D5000000000000000000000000000000803F46
:1016E5000000000000000000000000000000803F36
:1016F50000000000000000000000000001000000E4
:101705000000FA430000FA430000803FFFFFFFFF9F
:10171500FFFFFFFF685E0C00FFFFFFFF02000000F8
:10172500C5890008B584000889E2000800000000AA
:101735001D83000825DF00087989000899DE000867
:101745000000000000000000D98200086D8200083A
:101755006182000815D6000831D60008F9D50008C1
:10176500DDD50008C1D500087D89000891840008F1
:10177500D5E1000800000000F18200089DDE0008A8
:101785004D890008F5DD000800000000000000009C
:10179500E5820008FFFF0000006002401060024083
:1017A5000000000000000000000B00000000000029
:1017B50000000000000000000060024028600240B8
:1017C5000100000000000000060C00000000000001
:1017D5000000000000000000006002404060024080
:1017E5000200000000000000100D000000000000D5
:1017F5000000000000000000006002405860024048
:101805000300000000000000160E000000000000AC
:10181500000000000000000000600240706002400F
:101825000400000000000000200F00000000000080
:1018350000000000000000000060024088600240D7
:101845000500000000000000261000000000000058
:10185500000000000000000000600240A06002409F
:10186500060000000000000030110000000000002C
:10187500000000000000000000600240B860024067
:101885000700000000000000362F000000000000E7
:1018950000000000000000000064024010640240E7
:1018A50000000000000000000038000000000000FB
:1018B50000000000000000000064024028640240AF
:1018C50001000000000000000639000000000000D3
:1018D5000000000000000000006402404064024077
:1018E5000200000000000000103A000000000000A7
:1018F500000000000000000000640240586402403F
:101905000300000000000000163B0000000000007E
:101915000000000000000000006402407064024006
:101925000400000000000000203C00000000000052
:1019350000000000000000000064024088640240CE
:101945000500000000000000264400000000000023
:10195500000000000000000000640240A064024096
:1019650006000000000000003045000000000000F7
:10197500000000000000000000640240B86402405E
:1019850007000000000000003646000000000000CF
:1019950000000000000000004029050800000802C2
:1019A500050303000000000048290508010008029E
:1019B50005040300000000006CE804080200FE01B5
:1019C5000110030000000000D8D50408030014022C
:1019D50000030000000000005029050804001F0254
:1019E50002000800000000005829050805001F0234
:1019F5000201080000000000FFFFFFFF1A030000BE
:101A050000000000000000000000000000000000D1
:101A15000000000000000000040309041201000298
:101A2500000000408304205700020102030100006A
:101A350029C90308C9BC0308C5BC0308C1BC030800
:101A450075C90308BDBC0308B9BC030880C30408F5
:101A5500518A000871840008F1DF000800000000C9
:101A650000000000CDDD0008E9DC000800000000F2
:101A75000000000000000000CD82000861BD0308E1
:101A850055BD030895CE0308B1CE03080DBD030867
:101A950079CE03085DCE03081F0000001C0000007E
:101AA5001F0000001E0000001F0000001E000000B7
:101AB5001F0000001F0000001E0000001F000000A6
:101AC5001E0000001F0000000068214CFF010000FF
:101AD500F401000001FFFF000413002000000000D6
:101AE50000000000000000000000000000000000F1
:101AF50000000000000000000000000000000000E1
:101B050000000000000000000000000000000000D0
:101B150000000000000000000000000000000000C0
:101B250000000000000000000000000000000000B0
:0C1B3500000000000000000000000000A4
:082800000000000000000000D0
:108000002DE9F04700230F6801264FF0030C02E032
:108010000133102B41D006FA03F232EA0704F7D1FC
:10802000D0F800E05C000CFA04F52EEA050EC0F86A
:1080300000E091F80490D0F800A009FA04FE09F1DC
:10804000FF394EEA0A0EB9F1010FA846C0F800E068
:108050006FEA050515D8D0F808E005EA0E05856039
:108060004D79D0F808E0A54045EA0E0585604568E1
:1080700025EA020242608A7945689A4092B22A4310
:108080004260C26822EA0802C260CA79C568A2409A
:1080900001332A43102BC260BDD1BDE8F08700BF79
:1080A000074AD2E90031994208D0D1180133097A40
:1080B0000170C3F30A03136001207047002070476A
:1080C00068130020064AD2F80838D2F80C289342E8
:1080D00094BF4FF400600020013B9B1A1844704786
:1080E00068130020012380F85130704707B501A8BC
:1080F000FFF7D6FF0028FAD09DF8040003B05DF822
:1081000004FB044BD3E90003984288BF03F50063E6
:10811000181A70476813002001207047024BC3F8FB
:108120001028C3F81418704768130020024BC3F8D6
:108130001828C3F81C187047681300207047704750
:1081400030B4124DD5E900239A4286BF03F500648E
:10815000A21A9A1A0A44B2F5006F11D899B10144D3
:108160004A1E013810F8014FE918824203F1010359
:108170000C72C3F30A03F5D16B60002030BC70476A
:10818000022030BC70470846F8E700BF68130020A3
:10819000212838B50C4605D022282ED0202813D00F
:1081A000002038BD0029FBD0072AF9D11A4BD3F89B
:1081B000200893F8241893F8252893F8263820608F
:1081C00021716271A371EBE70029E9D0072AE7D199
:1081D000114DD5F814381BB10968D5F81008984727
:1081E000206821796279A379C5F8200885F82418D8
:1081F00085F8252885F82638D2E70029D0D0022A2C
:10820000CED1054AD2F81C38002BC9D00988D2F843
:1082100018089847C4E700BF68130020024B0020ED
:10822000C3F82808704700BF68130020044B0020E3
:108230000522C3F82828C3F81C08C3F8140870479F
:1082400068130020704700BF704700BF704700BF31
:10825000704700BF704700BF704700BF704700BF46
:10826000042301480B8070478801002010B4074A9E
:10827000074B92F82C08122403F114020C800128F9
:108280000CBF184610465DF8044B70476813002079
:108290008C01002010B40C4A92F8303802EBC30174
:1082A0000133DBB2042B4FF0050408BF00234FF469
:1082B000045081F8344882F83038C1F838085DF845
:1082C000044B4FF0FF307047681300202023014813
:1082D0000B807047B4010020642301480B80704775
:1082E000D4010020432301480B807047380200204E
:1082F00010B5084CD4F8F400FF2809D00649D1F88D
:10830000542801F65801FFF743FFFF23C4F8F43067
:10831000002010BD8801002068130020E8E700BF9E
:1083200008B5D0F8E4355B6A9847002008BD00BF67
:1083300008B5D0F8E4351B6A9847002008BD00BF97
:10834000D0F8E43510B504461B689847D4F8E835F2
:108350009B689847002010BD08B5D0F8E435DB696C
:1083600003B19847002008BD08B5042290F8121107
:10837000D0F8E83580F8131180F81221DB689847AF
:10838000002008BD10B5D0F8E83504461B699847B1
:10839000032384F81231002010BD00BF0B0617D450
:1083A00001EB810300EBC30310B400EB8100012457
:1083B000002283F8764383F8741383F87523426DA3
:1083C0005DF8044B136843F40013002013607047FA
:1083D00001F07F0101EB810300EBC303012200EBFD
:1083E000810083F81C1183F81E2183F81D21826906
:1083F0001368002B01DA43F0804343F40013136049
:10840000002070470B0630B41CD401EB810200EB56
:10841000C202002300EB810582F8741382F87533E1
:1084200001241A4604FA01F16D6D61F31F420169DE
:108430006FF3CF332B60CB6923EA0203002030BCFB
:10844000CB61704701F07F0101EB810400EBC404B4
:10845000012200EB8105002384F81C1184F81D2102
:1084600002FA01F11A46AD6961F30F02DFE700BFBE
:1084700010B581210446FFF7C5FF20460121FFF713
:10848000C1FF024B002083F8600810BD6813002074
:1084900010B581210446FFF7B5FF20460121FFF703
:1084A000B1FF82212046FFF7ADFFFFF7B7FE0020A6
:1084B00010BD00BF38B50D4604468321FFF7A2FF6B
:1084C00029462046FFF7E4FF002038BDF0B41646E9
:1084D0000A063AD401EB810500EBC50528240022E9
:1084E00004FB0104022B85F87413C5F87C6385F83E
:1084F000773385F8752304F55D7448D0154600EB95
:108500008107012202FA01F17F6D61F31F45D7F85F
:1085100000C01CF4004F11D1E488204946F080527D
:1085200042F4004242EA834204F00F041C4B42EA48
:10853000845211400CEA0303194339600269D3697C
:108540002B430020F0BCD361704701F07F0101EBA9
:10855000810500EBC5052824012204FB0104022B40
:1085600085F81C11C5F8246185F81F31A5F8221182
:1085700085F81D2104F58E740CD0002500EB8107D1
:10858000012202FA01F1BF6961F30F05BFE7227111
:108590001546B4E700252571F0E700BFFF87CC132F
:1085A000007833EC002310B5194604464022FFF74B
:1085B0008DFF8021204600234022FFF787FFD4F85B
:1085C000E835A078012284F812215B6898470020E2
:1085D00010BD00BF82B00023016801930B690193B5
:1085E0000E4B03E00A690192013B13D0019A002A65
:1085F000F8DA019A094B42F001020192019A0A61EC
:108600000A69019203E00A690192013B02D0019AD2
:10861000D207F8D4002002B0704700BF400D03001D
:10862000436D064A1A61C278012A06D100F2CC5085
:1086300058614FF0802219681A607047180008606E
:1086400010B580210446FFF7A9FE20460021FFF760
:10865000A5FE2046BDE81040E2E700BF70B44B78AD
:10866000012B26D00B784A6900EB83035C6D2568EB
:108670002369D2B18A684A6102F07F0223F40023A1
:1086800023F07F0342F4002213432361C378012BBC
:1086900004BF0B696361C5F3076363F07B0363F396
:1086A0001F652560002070BC70478A6802F07F0259
:1086B000E4E782694C691568136944B38E68B44273
:1086C0008CBF06F07F0404F07F0423F4002323F022
:1086D0007F0344F4002443EA040388BF4E6113611E
:1086E000C378012B1DD0C5F3076464F07B0464F3E9
:1086F0001F651560002BD5D14B69002BD2D00269C4
:108700000878516B012383400B435363CAE723F47A
:10871000002323F07F0343F400231361C378012B6C
:10872000E1D10B780C6900EB8300C5F30763816925
:1087300063F07B0363F31F654C610020156070BC20
:10874000704700BF2DE9F0434B78012B30D00B78F8
:108750004C6900EB83035E6D356837691CB38B6829
:108760001C44013CB4FBF3F4C4F3090203FB02F321
:10877000C3F312034B61144643EAC44363F31C077B
:108780003761C378012B04BF0B697361CB78012B70
:1087900044D0C5F3076363F07B0363F31F65356063
:1087A0000020BDE8F0838A680124C2F31203E3E7E6
:1087B00091F800804E6900EB880EDEF818C0DCF8F6
:1087C0000050DCF8107076B3D1F80890384A06EB08
:1087D0000904013CB4FBF9F402EAC444C6F31202F2
:1087E0002243CC7807F060473A43012C174649D022
:1087F000CCF81020C278012A55D00269516B03FAD7
:1088000008F30B435363C5F3076363F07B0363F320
:108810001F65CCF800500020BDE8F0834B7973B39E
:1088200045F00055B5E707F0604747F40027CC78DE
:10883000CCF81070C378012B2FD0012CE3D1026942
:108840009268D20554BF45F0005545F08055C5F3F8
:10885000076262F07B0262F31F65CCF80050002BC8
:108860009ED1B0B203308010DEF8D04098D0CA68F4
:1088700052F8041B216001339842F9D190E745F08A
:10888000805586E764F35E77CCF81070C378012BCF
:10889000D5D10A69CCF81420D1E70A69CCF81420A4
:1088A000012CB0D1CBE70B69CCF81430ABE700BF9B
:1088B0000000F81F38B501EB810400EBC4040D463D
:1088C000002184F87453C4F88C1384F87513C4F829
:1088D0008833C4F88023C3782821012B01FB0501CC
:1088E00008BFEDB201F55D7108BFC4F884231DB95E
:1088F000FFF7B4FE002038BDFFF724FF002038BD8D
:1089000070B5104BD3F86C2893F8845804461AB10C
:1089100093F870382B430DD081212046FFF73EFDA0
:10892000022D00D070BD2046074ABDE870401F23CD
:108930000121BFE70121FFF731FD20468121BDE87C
:1089400070402BE568130020CC1B002010B501EB14
:108950008101084A00EBC1010446B1F88C131046AE
:10896000FFF7EEFB034A204640230121FFF7A2FF59
:10897000002010BDF01B0020E8E700BF10B5022367
:10898000044640228121FFF7A1FD20460223402218
:108990000121FFF79BFD8221204603230822FFF7D8
:1089A00095FD064B02229A83FFF740FC044A2046BD
:1089B00040230121FFF77EFF002010BD8801002029
:1089C000F01B002038B509220D46044603238321FD
:1089D000FFF77CFD29462046FFF7D0FF002038BD79
:1089E00082B000230193019A094B42F010020192D8
:1089F000C168019A0A610A69019203E00A69019259
:108A0000013B02D0019AD206F8D4002002B0704790
:108A1000400D030082B000230193019A0B4B42F0FA
:108A200020020192019A61F38A120192C168019AAF
:108A30000A610A69019203E00A690192013B02D0CE
:108A4000019A9206F8D4002002B07047400D03004E
:108A500070B50446144EFFF70BFD2046022340225A
:108A60008121FFF733FD4022012120460223FFF739
:108A70002DFDD6F8C83800251B6886F860582846B2
:108A800086F8845898472046FFF7AAFF2046012120
:108A9000FFF7C0FF204606F664021F230121FFF7FF
:108AA00009FF284670BD00BF681300200E4BDA682E
:108AB000D20310D4DA68D1060FD4DA68D20510D404
:108AC000DA6812F0E00F0AD1DB6813F0020F14BF6E
:108AD00008200920704701207047062070470720B2
:108AE00070470220704700BF003C0240024A536AB0
:108AF00023EA0000506270470038024030B401237E
:108B00004FF4007515244FF4167140F2D9320380EA
:108B1000002345808471018130BC42818380838140
:108B20007047094BB3F8CE28B3F8CC38801A9B1A9B
:108B3000C00090FBF3F00628A8BF062020EAE070F2
:108B4000C0F19600C0B270476813002043687222DB
:108B50001A70436873225A70436874229A7043688B
:108B60000022DA7070470F4B4268B3F9EC380A21E3
:108B700093FBF1F31B0110B503F5B9530A4C4FF405
:108B8000B4711433B3FBF1F303F00F03E118E358AE
:108B900013604B6853600B7A1372436800225A7259
:108BA00010BD00BF68130020B85C0408032815D866
:108BB000DFE800F00F02060A094BD3F8F00870470F
:108BC000074BD3F8F4087047054B93F81C29D207DC
:108BD00001D42BF0B3B9D3F8F008704700207047E8
:108BE0006813002000285ED00368374A2DE9F04161
:108BF00003F13F4404F57E0402EB94220124127E2B
:108C000002F01F055209032A04FA05F456D0042A7B
:108C10004FD0022A48D08588B5FA85F0C0F11F00F0
:108C2000C0F3CC0603EB860600F0070082000F2499
:108C3000306A944020EA04003062306A01FA02F29D
:108C40000243002132624FF0010E0A464FF0030C3E
:108C500002270EFA02F838EA050002F101021CD1DF
:108C600018680CFA01F420EA04001860186807FA82
:108C700001F606431E609E6826EA04069E60986818
:108C80009860586820EA0800586058685860D868AA
:108C900020EA0400D860D868D860102A01F10201E7
:108CA000D7D1BDE8F0817047084A556C2C43546415
:108CB000B1E7064A156B2C431463ACE7034A156C05
:108CC0002C431464A7E700BFB85C040800380240D6
:108CD000F8B51A4C94F81D39002BFBD159B3014457
:108CE0004E1E451ED4F80C28D4F8081815F8017F3C
:108CF000531CC3F30A038B422CBF4FF400600020C7
:108D0000C91A224401440129C4F80C3882F8207998
:108D10000FD101202BF090F9D4F80838D4F80C18B2
:108D20008B4294BF4FF4006200225B1A1344012B64
:108D3000EFD0B542D6D10020F8BD00BF68130020A7
:108D4000094B0846D3F8281810B559B1D3F828387C
:108D5000052B07D1054C002AA36A03DD1146FFF756
:108D6000B7FFA36A10BD00BF681300206024002075
:108D700010B590F85010002380F8503079B10B4CAA
:108D8000D4F828286AB1D4F82828052A0BD1084C31
:108D90003C30A36AFFF79CFFA36A012010BD0120AD
:108DA000FCE71046FAE71846F8E700BF6813002012
:108DB00060240020002280F85120D9E790F850204C
:108DC000531C0244DBB280F8503082F83C1090F81B
:108DD00051200AB1132B00D9CAE77047034B04494D
:108DE000B3F9F8304068012236F0A8B988010020B4
:108DF00064CD040837B504462A4800EB43035D8E72
:108E000005F00F0049B1022804F101011DD8002826
:108E100014BF9C239B2323700C4612B3C5F3031588
:108E2000FFF7C4FE3C21012D1F4BB0FBF3F3B3FB56
:108E3000F1F201FB123316D0022D24D01B4920463B
:108E400003B0BDE8304036F079B9032807D1184B9C
:108E500093F81C3903F00103653BDBB2DBE7202309
:108E6000D9E71546DCE7642542F21071B0FBF1F159
:108E7000B1FBF5F005FB101000900E49204636F0CE
:108E80005DF903B030BD0A250B49B0FBF1F1B1FB30
:108E9000F5F005FB101000900849204636F04EF919
:108EA000EFE700BF6024002040420F006ACD0408B5
:108EB0006813002074CD0408A086010083CD040847
:108EC000037840680122053B114693E71D4B9FED57
:108ED0001E7ADA6F9B8D406807EE902AF8EEE76AFB
:108EE00007EE903AF8EEE77A67EE877AF4EEE76AF3
:108EF000F1EE10FA02D8154936F020B9934202DAA1
:108F0000134936F01BB99B1A07EE903A114B124ADF
:108F100003F50F63B8EEE77AD3ED007AF8EE677ADF
:108F20003C2167EE277A87EEA67AFDEEC77A17EE28
:108F3000903AB3FBF2F3B3FBF1F201FB12330749B2
:108F400036F0FCB860240020CDCCCC3D92CD040896
:108F500098CD04086813002040420F006ACD040831
:108F600006494068B1F880204B6F0549534342F2EF
:108F7000107293FBF2F236F0E1B800BF60240020DB
:108F80009ECD0408054A064992F8893092F8882057
:108F900040680133013236F0D1B800BF60240020B0
:108FA000A3CD04080B4B4068B3F9EC380A2293FBBD
:108FB000F2F31A0102F5B9524FF4B4711432B2FB54
:108FC000F1F2C2F1080202F00F020349603236F0FA
:108FD000B5B800BF68130020A9CD040813B5384BFD
:108FE000C178DA6F374B0229B3F8D838044641D03C
:108FF000032945D0012905D19A1A9A42A8BF1A46D9
:1090000022EAE272D3B19A1A9A42A8BF1A4622EA19
:10901000E27207EE902A0B20B3FBF0F307EE103A52
:10902000F8EEE77AB8EEC70A87EE800A3CF06AF8F5
:10903000FCEEC07ACDED017A9DF8043062688A2199
:109040001170012261689342ACBF8B208D2088543F
:1090500001320C2AF6D162688F2111735A1E092A37
:1090600003D8626813448E225A70636800225A73D0
:1090700002B010BD9A1A9A42A8BF1A4622EAE272BA
:10908000ABB107EE902AB8EEE70ADFED0F7A20EEDB
:10909000270A07EE903AF8EEE77A80EE270A3CF0CE
:1090A00077F864280346A8BF642323EAE3730749DB
:1090B0006068072202B0BDE8104036F03FB800BF3C
:1090C00060240020681300200000C842B0CD0408CE
:1090D000034A0449D26F4068072336F02FB800BF17
:1090E00060240020B7CD0408044B93F81C39DB073B
:1090F00003D40349406836F021B870476813002054
:10910000BDCD040807B5094A0949B2F9A230019357
:10911000B2F9A0300093B2F99E304068B2F99C20B9
:1091200036F00CF803B05DF804FB00BF60240020AB
:10913000C6CD04081FB593880293937801935378A2
:10914000009313780A46034935F0F8FF05B05DF83F
:1091500004FB00BFDACD0408034B0449D3F8A42074
:1091600040681432E6E700BF60240020EDCD04081B
:10917000034B0449D3F8A42040680832DAE700BF63
:1091800060240020F1CD0408034B0449D3F8A42047
:1091900040680E32CEE700BF60240020F5CD040801
:1091A000F0B404780A4E049F650906EB850604F0C6
:1091B0001F04012505FA04F4D6F8A85004972C42A0
:1091C0008068F0BC18BF43F080032CF0EBBB00BFFD
:1091D000602400201FB503AC8DF80C3000940023F0
:1091E0008DF80D30FFF7DCFF04B010BD70B50446FC
:1091F0006FF00205A278617852FA85F207391323DD
:10920000D2B2C9B22046FFF7E5FFA2786178EEB28C
:10921000324407311323D2B2C9B220460135FFF7D9
:10922000D9FF042DE6D16178A27806390323C9B2AB
:109230002046FFF7CFFF6178A27806310223C9B23A
:109240002046FFF7C7FF0023237370BD2DE9F843C5
:109250002B49054691F83C3091F83D20294891F87A
:109260004B10B0F9E848002902EB820214BF4FF01E
:10927000FF31012152004C43C2F1000803EB83038C
:1092800044454FEA430303DB9442A8BF1446A0467B
:10929000B0F9EA285C424A43A24203DB9A42A8BFE3
:1092A0001A4614461BB11922544394FBF3F4293C8B
:1092B0004FEA88066FF003074FF00909002E334686
:1092C000B8BF06F13F03C4EBA313512B0FD893FB98
:1092D000F9F101EBC1029B1AAA780A446978803B34
:1092E0003944DBB2D2B2C9B22846FFF773FF013767
:1092F000052FA6EB0806E1D100232B73BDE8F88308
:1093000060240020681300202DE9F04F1A4D90F8DA
:1093100001808678DFF864B085B004462F1DA5F182
:1093200065094FF4FA6A15F9013B002B1ADB09EBCA
:1093300043035946B3F9B020A2F57A724FF47A7319
:109340000AFB02F292FBF3F202ABA2F57A72184624
:1093500035F0F4FE02AB009332460023414620462E
:10936000FFF71EFF0136BD42F6B2DCD100232373A6
:1093700005B0BDE8F08F00BFC5240020A2D10408CD
:109380002DE9FF47314B477893F86E2093F86F80B3
:10939000436885781E2AA8BF1E22022AB8BF02226F
:1093A000B8F1100FA8BF4FF01008B8F1020F4FF03E
:1093B0000B01B8BF4FF0020804461970D6B25FFA2D
:1093C00088F90121501E4FF0170C8842636826DC93
:1093D00013440B2103F8011C616800238B5462685D
:1093E000009239462A4620463E44FFF7D9FE013E08
:1093F0004FF0010AF6B208F1FF33534513DC05EBD9
:10940000090263680093013A0023D2B2394620462C
:10941000FFF7C6FE0023237304B0BDE8F08703F80E
:1094200001C00131D1E705EB0A02D2B21623394659
:1094300020460392FFF7CEFE039A162331462046BC
:10944000FFF7C8FE0AF1010AD5E700BF602400203B
:1094500073B50F4D009104461646002302460221C3
:10946000D5F8D4002CF09EFA0A4B00932246D5F88A
:10947000D400002314212CF095FAD5F8D4000096DE
:109480000023224616212CF08DFA02B070BD00BFD9
:10949000602400204F010508044B93F873200AB1A3
:1094A00021F0DEBAB3F88000704700BF60240020CE
:1094B00010B504461DF07EFA034903460422606895
:1094C000BDE8104035F03ABE64CD040810B504463E
:1094D00011F014FD642202FB00F3C3F38F23632B0E
:1094E00060680449BDE8104028BF6323012235F0BD
:1094F00025BE00BFF9CD0408F8B5194D0646002475
:1095000015F05EF9882705F19C0C2B787168A34251
:10951000214402DC00230B70F8BDF8B1D5ED227AAE
:10952000FDEEE77A0CEB840317EE90EAD3ED007AB8
:10953000FDEEE77A17EE902AD5ED237AFDEEE77A75
:10954000A2EB0E0217EE903AD200A3EB0E0392FBB1
:10955000F3F3C3F188030B700134D6E70F70FBE718
:109560000C0000101FB5184A9FED187AB2F8803031
:1095700092F8D8209FED160A446807EE903AF8EE6C
:10958000E77AF4EEC77AF1EE10FAACBF01230223BA
:10959000022A27EE800A14D08DED030A029321F0EF
:1095A0005FFAFFF7BEFA029B9DED030A0146012216
:1095B0000620CDE90020074A20460AF00BFE04B041
:1095C00010BD9721F3E700BF6024002000007A441B
:1095D0000AD7233C36FF040807B501234722CDE90B
:1095E00000320549054A91ED370A406800210AF02A
:1095F000F1FD03B05DF804FB6024002036FF040891
:1096000007B50B4BDFED0B7A93ED1D0A0A4A0021DB
:109610009A23B8EEC00ACDE9001320EE270A0223F0
:10962000B0EEC00A40680AF0D5FD03B05DF804FB57
:10963000602400200AD7233CFFCD040813B504465C
:1096400021F00EFA0E4B646893F8D830022B00EE2E
:10965000100A13D0FFF765FA0146DFED0A7AB8EE7B
:10966000C00A00230622CDE9003220EE270A064A6E
:10967000022320460AF0AEFD02B010BD9721ECE7B0
:10968000602400200AD7233C36FF040813B5037872
:10969000134ADFED147A144C1A2B0CBFB2F9EA28E6
:1096A000B2F9E82800EE102AB8EEC00A1A2B20EE14
:1096B000270A4FF001034FF00002CDE90032B5EE6A
:1096C000C00A0CBF15211421F1EE10FA074A4068B8
:1096D00048BF2246B0EEC00A0AF07CFD02B010BDC1
:1096E00068130020CDCCCC3D03CE040809CE04087D
:1096F000174AD2F8E03013F0040313B5446819D0C8
:10970000C378D2ED397A92F83120013BF8EEE77A4E
:1097100018BF0123B2B10C229FED0E0A0192012263
:10972000009227EE800A0C4A7F2120460AF052FD63
:1097300002B010BD7F22227042682D215170426814
:109740009370F5E79FED057A0F2267EE877AE3E7DE
:10975000602400200AD7233C36FF040848F9514012
:1097600010B50446132016F03DFBF8B10CF080FB59
:1097700030B960680E49BDE81040102235F0DEBCFB
:109780000C4B606893F8E920012A09D1D3E93D2305
:109790009A4205D3BDE810400749102235F0CEBCEF
:1097A000BDE810400549102235F0C8BC10BD00BF0F
:1097B0000FCE04086024002013CE04083BF80408F0
:1097C00038B5224D4468B5F8FC305A0505D5204619
:1097D0001F49BDE838403CF042BA180505D520467F
:1097E0001C49BDE838403CF03ABA590605D5204638
:1097F0001949BDE838403CF032BADA0705D52046B1
:109800001649BDE838403CF02ABA9B0705D52046EA
:109810001349BDE838403CF022BA252016F0E2FAA0
:1098200028B120460F49BDE838403CF018BA95F8F9
:10983000FE302BB120460C49BDE838403CF00FBA51
:1098400020460A49BDE838403CF009BA60240020AF
:1098500017CE04081CCE040821CE040826CE040826
:109860002BCE040830CE040835CE04083ACE0408C6
:10987000074B93ED957AD3ED917AB4EEE77AF1EE5A
:1098800010FA03DD034940683CF0E9B9704700BFB6
:109890000C000010F6D10408F8B52D4D0A24B5F9D6
:1098A000E82892FBF4F484EAE473A3EBE4739BB23C
:1098B0005A2B064605D90A32CCBFB4236FF0B30346
:1098C0001C1B244F97F8FF2032B995F81C39DB0791
:1098D00029D415F06FF830BB97F80431B32B02D8B8
:1098E00015F068F8F8B9B5F9EA180A2391FBF3F313
:1098F00004B9C3B1002BB8BF5B4284EAE4709BB2E9
:10990000A0EBE470B3EB400F726813DAB0EB430FD7
:1099100010DA092908DD002CCCBF6E2362231370F6
:10992000736800225A70F8BD002CCCBF6A236623EE
:109930001370F5E7834205DD0929CCBF6023682356
:109940001370EDE7002CCCBF6C2364231370E7E7A2
:1099500068130020602400202DE9F0433A4B9FED6E
:109960003B7A2DED028B93ED4A8AF0EEC87AF4EE45
:10997000C77AF1EE10FA85B004465DD5D3ED497A89
:10998000F0EEE76AF4EEC76AF1EE10FA54D5304B08
:109990000293304B0393304BDFED308AB3F9EA3852
:1099A000DFED2F6A002BD8BFF1EE677A77EEA87A49
:1099B000BAEE0C7AA7EEA67AD6BF00250125B1EE45
:1099C000488A17EE100A3AF02BF941EC100B3BF0E5
:1099D0004BFB38EE288A9FED237AFAEE007AE8EE08
:1099E000077A59EC108B17EE900A3AF019F941EC0E
:1099F000100B3BF039FB57EC106BA0783AF0FEF8F7
:109A000032463B4639F0AEFF3AF0EAF9C6B260782A
:109A10003AF0F4F842464B4639F0A4FF3AF0E0F948
:109A200004AB03EB8505C1B255F8083C0093324600
:109A300000232046FFF7B4FB0023237305B0BDECE1
:109A4000028BBDE8F08300BF602400206C61D83E2B
:109A50003FCE040824CE040868130020DB0F493FE2
:109A6000539A8E4183F9224130B585B0054601A84D
:109A700035F08AF8044618B92870204605B030BD84
:109A8000044A0123B2F92C2101A9284635F06CFBC8
:109A9000F3E700BF602400204068E5E700F01F0204
:109AA00040090123032803FA02F304D004280CD050
:109AB000022805D07047074A116C0B4313647047A6
:109AC000044A516C0B4353647047024A116B0B43B9
:109AD000136370470038024000487047F0250020AB
:109AE00058B183884FF00042B3FA83F332FA03F39C
:109AF00003D002490A6813430B607047003C0140E1
:109B00000E4B30B4DB68427801780D4CDB43C3F375
:109B10000223C3F10403DBB202FA03F360181B0152
:109B200001F01F050122490903F0F003AA4080F863
:109B3000003344F8212030BC704700BF00ED00E046
:109B400000E100E0134B0268196821EA0201196084
:109B5000596821EA0201596019680A431A60996834
:109B6000026821EA02019960D96821EA0201D960FC
:109B70004179102907D001F1804303F59E3319681C
:109B80000A431A607047996811439960D9680A437B
:109B9000DA607047003C0140002864D0F0B583884B
:109BA000B3FA83F3202B0A4685B00446C3F11F01A4
:109BB00043D02D4D2D4E05EB81037718C3F8882235
:109BC000002197F820702BF0EFFAB4F804C0226857
:109BD000274CBCFA8CFCCCF11F0303F0FC0101F113
:109BE000804101F59C3103F0030398004FF00F0E04
:109BF00002F13F438A680EFA00FE22EA0E0203F5E4
:109C00007E038A60C3F38723834088684FF0004255
:109C100022FA0CF203433D448B6002A862610123E7
:109C20004FF400618DF80E300292ADF80C10FFF782
:109C300089FF95F8C832F02B01D805B0F0BD3E443D
:109C4000F02196F830308DF8043003224FF4807301
:109C500001A885F8C8128DF80520ADF80630FFF789
:109C60004FFF05B0F0BD704760240020B85C0408C9
:109C7000003C01400269F8B5054612B113689088AE
:109C800058836C688F1CA3894FF6FF764FF47A7364
:109C90000DE083B2A3814FF47A73B4F808C01CF0CE
:109CA000010F03F1FF3017D0B942A0890ED011F88F
:109CB000010BB4F808C0013B1CF0020F9BB2E8D1C5
:109CC000B342F6D120462BF02FFF2A6912B1136858
:109CD00092881A830120F8BD83B2B342DDD12046B9
:109CE0002BF022FF2A69F1E72DE9F84FB34C94F8E5
:109CF000CF120546C1F34001D4F8D4022BF010FC7A
:109D000094F8CF12D4F8D002C94301F001012BF02E
:109D100007FC002D00F0C3806E1EA94FA94D5FFA0D
:109D200086FB4FF01008D4F8D4022BF0DDFBD4F8FA
:109D3000D0022BF0D9FBB4F8DC32002B40F0358197
:109D400094F8DE12D4F8E0022BF0EAFB4FF0FA09A7
:109D50004FF47A704FF0010C7B68C3F30803002BBB
:109D600040F0FB80EFF31183002B40F0F680A26AF5
:109D7000A968A36A9A42FAD1D4F804339942F6D872
:109D8000D4F8006300FB06F35B1AB3FBF6F300FBA9
:109D900002327B68C3F30803002B40F09F80EFF38F
:109DA0001183002B40F09A80A36AD5F808A0A16A1D
:109DB0008B42F9D1D4F804138A45F5D8D4F800635E
:109DC00000FB06F1A1EB0A01B1FBF6F100FB031366
:109DD0009B1AB3F57A7FDCD3B9F10109BCD1D4F871
:109DE000D4022BF081FBD4F8D0022BF07DFBB4F829
:109DF000DC32002B40F0CD8094F8DE12D4F8E00283
:109E000081F001012BF08CFB4FF0FA0C4FF47A70CB
:109E10004FF0010E7B68C3F30803002B7ED1EFF3F4
:109E20001183002B7AD1A26AA968A36A9A42FAD157
:109E3000D4F804339942F6D8D4F8009300FB09F320
:109E40005B1AB3FBF9F300FB02327B68C3F3080330
:109E50003BBBEFF3118323BBA36AD5F808A0A16A2B
:109E60008B42F9D1D4F804138A45F5D8D4F800937D
:109E700000FB09F1A1EB0A01B1FBF9F100FB0313AF
:109E80009B1AB3F57A7FE0D3BCF1010CC2D10BF180
:109E9000FF365FFA86FBBBF1FF0F7FF444AFBDE8EE
:109EA000F88FEFF3118988F31288AE682B68DB0313
:109EB00044BFC4F8FCE2AE68A36AD4F8FC125FFAAF
:109EC00089F989F31188D4F800930B4400FB09F158
:109ED000891BB1FBF9F100FB0313D1E7EFF3118EFE
:109EE00088F31288D5F808A02B68D90344BFC4F8BA
:109EF000FCC2D5F808A0A36AD4F8FC125FFA8EFE63
:109F00008EF31188D4F800630B4400FB06F1A1EB3B
:109F10000A01B1FBF6F100FB031359E7EFF31181DE
:109F200088F31288D5F808902B68DA0344BFC4F888
:109F3000FCE2D5F80890A36AD4F8FC22C9B281F3F8
:109F40001188D4F800131A4400FB01F3A3EB0903B2
:109F5000B3FBF1F300FB023277E7EFF3118188F3F3
:109F60001288AE682B68DB0344BFC4F8FCC2AE683D
:109F7000A36AD4F8FC22C9B281F31188D4F8001383
:109F80001A4400FB01F39B1BB3FBF1F300FB02320D
:109F9000FFE6D4F8F832002B3FF436AFD4F8E432C1
:109FA000C3F8009084F8F5922EE7D4F8F832002B2D
:109FB0003FF4CCAE2AF004F9C8E600BF60240020CC
:109FC00000ED00E010E000E02DE9F84FB04CB14F9B
:109FD00094F8CF12D4F8D402AF4DC1F340012BF066
:109FE0009FFA94F8CF12D4F8D002C94301F00101CE
:109FF0002BF096FA4FF0050B4FF01008D4F8D4026E
:10A000002BF072FAD4F8D0022BF06EFAB4F8DC32EE
:10A01000002B40F0358194F8DE12D4F8E0022BF0EA
:10A020007FFA32264FF47A704FF0010C7B68C3F34D
:10A030000803002B40F0FA80EFF31183002B40F06F
:10A04000F580A26AA968A36A9A42FAD1D4F80433C7
:10A050009942F6D8D4F800E300FB0EF35B1AB3FB89
:10A06000FEF300FB02327B68C3F30803002B40F0D1
:10A070009E80EFF31183002B40F09980A36AD5F8FE
:10A0800008A0A16A8B42F9D1D4F804138A45F5D807
:10A09000D4F800E300FB0EF1A1EB0A01B1FBFEF1E5
:10A0A00000FB03139B1AB3F57A7FDCD3013EBDD1CD
:10A0B000D4F8D4022BF018FAD4F8D0022BF014FA0A
:10A0C000B4F8DC32002B40F0D08094F8DE12D4F8E3
:10A0D000E00281F001012BF023FA4FF0320C4FF433
:10A0E0007A7001267B68C3F30803002B7FD1EFF35E
:10A0F0001183002B7BD1A26AA968A36A9A42FAD184
:10A10000D4F804339942F6D8D4F8009300FB09F34D
:10A110005B1AB3FBF9F300FB02327B68C3F308035D
:10A120002BBBEFF3118313BBA36AD5F808A0A16A78
:10A130008B42F9D1D4F804138A45F5D8D4F80093AA
:10A1400000FB09F1A1EB0A01B1FBF9F100FB0313DC
:10A150009B1AB3F57A7FE0D3BCF1010CC2D10BF1AD
:10A16000FF3616F0FF0B7FF449AFBDE8F88FEFF331
:10A17000118988F31288D5F808A02B68DB0344BF47
:10A18000C4F8FC62D5F808A0A36AD4F8FC125FFA00
:10A1900089F989F31188D4F800930B4400FB09F185
:10A1A000A1EB0A01B1FBF9F100FB0313D0E7EFF3D8
:10A1B000118E88F31288D5F808A02B68D90344BF04
:10A1C000C4F8FCC2D5F808A0A36AD4F8FC125FFA60
:10A1D0008EFE8EF31188D4F800E30B4400FB0EF1E1
:10A1E000A1EB0A01B1FBFEF100FB03135AE7EFF309
:10A1F000118188F31288D5F808902B68DA0344BFE0
:10A20000C4F8FC62D5F80890A36AD4F8FC22C9B25D
:10A2100081F31188D4F800131A4400FB01F3A3EB77
:10A220000903B3FBF1F300FB023276E7EFF3118190
:10A2300088F31288D5F808E02B68DB0344BFC4F824
:10A24000FCC2D5F808E0A36AD4F8FC22C9B281F3B5
:10A250001188D4F800131A4400FB01F3A3EB0E039A
:10A26000B3FBF1F300FB0232FDE6D4F8F832002B29
:10A270003FF433AFD4F8E4321E6084F8F5622CE783
:10A28000D4F8F832002B3FF4CCAE29F099FFC8E6A1
:10A290006024002000ED00E010E000E010B4B8B150
:10A2A0000D4CD4F80833102B05D15DF8044B052173
:10A2B000002029F05BBC03EB4302224482F80D131B
:10A2C00001210B4482F80C0382F80E13C4F8083302
:10A2D0005DF8044B704700BF60240020F8B5264E9F
:10A2E00000EBC00406EB8404D4F84053002D36D0B4
:10A2F00094F851C30CF0FF07BCF1000F2FD14900B7
:10A300004FF0010CC9B284F8521384F8532384F837
:10A3100055C384F8567384F854C384F851C384F841
:10A320005073AA88C4E9D633940502D5012738466C
:10A33000F8BD2B88D9050CD44FF4805301E0013BC4
:10A3400010D02A889205FAD42B889BB243F48073EC
:10A350002B80AB889BB243F44073AB80E6E70027C9
:10A360003846F8BDB6F8A83301339BB2A6F8A83337
:10A3700038F07CFDDBE700BF60240020204A038822
:10A3800090429BB212D002F5806290420ED0B0F1A2
:10A39000804F0BD0A2F58032904207D002F5806248
:10A3A000904203D002F58062904202D123F0700304
:10A3B0009BB2144A904216D002F58062904212D0AD
:10A3C00023F4407302F56C4230B49BB24D680C88A4
:10A3D00003809042C56204850DD18B7A03860123E8
:10A3E00030BC8382704703800B884A68C262038551
:10A3F000012383827047044B9842EED0EFE700BF01
:10A400000000014000100040000401400C2910D859
:10A41000DFE801F0100F0F0F190F0F0F220F0F0FB2
:10A420000700838B23F400631B041B0C43F40063BD
:10A4300083837047038B23F008031B041B0C43F03A
:10A44000080303837047038B23F400631B041B0C76
:10A4500043F4006303837047838B23F008031B04DA
:10A460001B0C43F0080383837047064B93F8AA2321
:10A47000002AFBD1D3F80C3F03491B6801F10B0004
:10A48000184700BF602400200D28002070B52C4E16
:10A4900096F8104F022C82B0134608D00A460146A7
:10A4A00006F5716002B0BDE870402BF0E9BCB6F86B
:10A4B0001C2F002A38D1D6F8202F12B114689288A8
:10A4C0006283D6F8145FAA8940F2E9342A89013CF4
:10A4D00012F0020FA4B224D080B2A88140F2E93475
:10A4E0002A89013C12F0010FA4B20ED0AA890A46B3
:10A4F0002846002138F062FCD6F8203F13B11A68D4
:10A500009B881383012002B070BD002CE8D128463F
:10A51000CDE900132BF008FBDDE90013D6F8145F3A
:10A52000E5E7002CD2D1F2E7D6F8184FE58995423D
:10A53000C1D0D6F8145F2A80E28100BFBBE700BF1C
:10A540006024002070B50278022A04460D4613D01C
:10A55000012A01D0002070BD0C4B90F9040083F853
:10A56000582F421CF6D00328F4DC0A4603F6587331
:10A570006179BDE87040B1E638F0AEFA2946204670
:10A580000122BDE870402BF0AFBB00BF602400206B
:10A590002DE9F843C04FC14BD7F85C2FB3EB920FB6
:10A5A00005460E4680F01D82B3EBD20F80F01B8271
:10A5B000B3EB121F80F02082B3EB521F80F0228297
:10A5C000B3EB921F80F02282B3EBD21F80F0228285
:10A5D000B3EB122F34BF4FF48070802000234FF470
:10A5E000F0722021A7F8600FAD4CAE4887F8623FAB
:10A5F00087F8633F3BF00FFBAB484FF4F07220212C
:10A600003BF009FB94F82D0250B394F82E323BB383
:10A610004FEA101808F1FF38B8F1030F00F00F00EF
:10A6200000F23581DFF88C9209EB48031A8F42FA69
:10A6300000F3D90740F12B81012303FA00F0013820
:10A640001040C84439F064FC98F84020974B1044FF
:10A6500003EBC000C4F8400283792BB1412B03D037
:10A660006FF00100BDE8F8832323C38009212AF09D
:10A670009BFDD4F8400210B1036882881A8394F8D5
:10A680002E32013B5BB25A1C00F01A81022B00F300
:10A690001781D7F85C2FDFF804C204EB03134FF0E7
:10A6A000020ED3F84412C4F83412BCEB920F22FA13
:10A6B0000EF384F830E280F0B181784AB2EB530FA8
:10A6C00080F09C81B2EB930F80F09A81B2EBD30FB4
:10A6D00080F09A81B2EB131F80F09A81B2EB531F86
:10A6E00080F09A81B2EB931F34BF4FF480738023C4
:10A6F0005B000A88DFF8C0C122F040021204120C8D
:10A700000A800A8822F03802120461454FEA124298
:10A7100000F0BB80DFF8A4C1614500F0B680B3F55E
:10A72000807FA8BF4FF48073002B93FAA3F3B3FA92
:10A7300083F308BF4FF0FF33013B42EAC3039BB2F0
:10A740000B800B88B4F83C229BB243F040030B8093
:10A75000002A71D110B1036882885A83FF218C20AE
:10A7600036F04AF8D4F84032002B00F029811968FD
:10A77000B3F804C0A1F818C01B2840F0538123226D
:10A78000DA80B4F83C22012087F8620F002A6AD1EF
:10A79000A1F81AC040210A2036F02EF8FF218A20A5
:10A7A00036F02AF8D4F84032C0F3801184F87412DD
:10A7B00000F0400013B11A689B88138394F82C2290
:10A7C000012A00F0DD80022A00F0BC80002A00F09F
:10A7D0009580B7F8602F94F87532182B05D1A7F83B
:10A7E0009C60A7F89E10A7F8A0203148032138F0FC
:10A7F0007FF9B4F83C325BBBD4F8403213B11A682D
:10A800009B8853830221002035F0F6FFD4F84032B4
:10A8100013B11A689B8813836A78AB78297884F817
:10A820007612C2F12002C3F1100384F8772284F873
:10A8300078320020BDE8F883D4F83832B3F80EC07F
:10A84000944587D00A80DA8100BFD4F8400281E7BE
:10A85000D4F83822D1899942CED0D4F834120B8062
:10A86000D38100BFC8E7D4F83812C889904208D015
:10A87000D4F834321A80CA8100BFD4F84032002B99
:10A8800088D01968B3F804C082E75B0847E7002066
:10A89000C4F84002EAE600BF6024002080969800D9
:10A8A00058350020C4330020A43500209025002016
:10A8B00088370020B85C040800380040003C0040A5
:10A8C000D7F85C2FDFF88CC14FF0020E0021BCEBF3
:10A8D000920F22FA0EF384F830E2C4F83412FFF437
:10A8E000ECAE0B8823F040031B041B0C0B800A8882
:10A8F00022F038021204120C04230BE7D7F85C2F65
:10A90000544BB3EB920F73D2B3EBD20F80F0958020
:10A91000B3EB121F80F09380B3EB521F80F0918055
:10A92000B3EB921F80F08F80B3EBD21F80F08D804D
:10A93000B3EB122F34BF4FF4807280225200A7F87D
:10A94000602F48E7D7F85C0F424BB3EB900FF6D27D
:10A95000B3EBD00F4CD2B3EB101F4BD2B3EB501F65
:10A960005ED2B3EB901F64D2B3EBD01F63D2B3EBD4
:10A97000102F34BF4FF480728022A7F8602F2AE78F
:10A98000D7F85C2F334B06B178B3B3EB920F5ED29E
:10A99000B3EBD20F2CD2B3EB121F2BD2B3EB521F5F
:10A9A0003ED2B3EB921F44D2B3EBD21F43D2B3EBF0
:10A9B000122F34BF4FF480728022A7F8602F0AE76D
:10A9C0001B282FD1B4F83C22012387F8623F002ACC
:10A9D0003FF4E0AED4F83812CB8993427FF448AF0D
:10A9E000D8E60220FAE50420F8E5B3EB920F8BD30A
:10A9F0000422A4E70822A2E70820EFE5042377E673
:10AA0000082375E61020E9E5102371E62020E5E52E
:10AA100020236DE64020E1E5402369E6042368E653
:10AA200010228CE7184620212AF0BEFB4FF0FF30A1
:10AA300000E7202283E7402281E704227EE7082204
:10AA40007CE710227AE7202278E7402276E702228C
:10AA500075E700BF809698002DE9F04F2DED108B23
:10AA6000034697B004331593DFEDCACA149002234E
:10AA70008A4613928B461293149C4FEADB0604EB32
:10AA8000461202EB06103101A6EB86034FEAC60818
:10AA900006EB4605CDE9000100EBC303043108F1E4
:10AAA00004001196204421442C01C6EBC60C0394EB
:10AAB000EC00119D04944FEACC0405946C0106EB64
:10AAC000860E0294159D009C03EB46174FEACE0EAE
:10AAD00002EBC6064FEACB094FF0000C51ED01AA7C
:10AAE000D3ED001A92ED007A94ED005A96ED004AEB
:10AAF000D7ED007A15ED012A50ED016A32EE07BA62
:10AB000076EE840A7AEE855A31EEA70A3BEE256A84
:10AB100070EE804A76EEC46A36EE244A36EE646AF7
:10AB200005ED014A82ED006AD0ED00BAD6ED012AAA
:10AB3000D3ED019A95ED00AA92ED016A97ED013AE5
:10AB400091ED00CAD4ED014A7BEEE23A36EEE19A8D
:10AB500032EE472A73EEE98A3AEE464A39EE279AF0
:10AB600078EE838AB0EE428AA9EE6C8ADC44E24534
:10AB700073EEC33AB0EE441AA8EEEC1A76EEE77A1A
:10AB800033EEA97A7CEE643A77EEA17A3AEE066A61
:10AB90007AEEC51A3CEE24AA74EECC4A39EE833A1A
:10ABA00035EE6A5AF0EE639AF0EE48AAE7EE2C9A78
:10ABB000A8EEAC4AE7EE2C4AE7EE6CAAF0EE418A2A
:10ABC000B0EE427AB0EE612A7BEE656A7BEEA22A95
:10ABD00076EE4A5AA9EE2C7AA7EEAC2AA7EEAC5A2A
:10ABE000E7EEEC8A32EE83BA76EEC3BA35EEE09A3F
:10ABF00075EEC07A36EE0A6A76EEE26A36EE0BAA97
:10AC000076EE836A77EEA07A34EE423A77EE290A3E
:10AC100036EE4B6A7BEEA22A39EE000A73EEAA3AB0
:10AC200078EE244A37EE697A31EE055A71EEA85A69
:10AC300032EE044A85ED00AA82ED016A4D4441EDF1
:10AC4000012A4A44C4ED006A81ED000AC4ED017A8C
:10AC5000494440ED010A4C4487ED007AC6ED003AC4
:10AC6000C3ED004A80ED003A87ED014A484486ED85
:10AC7000015A4F44C3ED015A4E444B443FF62EAFA8
:10AC8000119B072B40F2C781029D149E019B0398E4
:10AC90000499059A083575190C330E95354608F157
:10ACA00008080EF10804EB18083008310832464451
:10ACB0002C1928186918AA18079305F10C030D968A
:10ACC0000C940B900A91099208934FF001084FF0F1
:10ACD000000E129B9E44139B03EBCE0303EBCE02AC
:10ACE000109302EBCE0303EBCE01029101EBCE01F8
:10ACF00001EBCE0505EBCE06D6ED007A0F93AEEB59
:10AD00008E03019106EB031303EBCE07D3ED01AAEB
:10AD1000CDED067A019BD5ED007A97ED01BACDED28
:10AD2000057AD3ED007A029BCDED047AD3ED007A5B
:10AD30000F9BCDED037A07EBCE0CD3ED007ADCED63
:10AD400001BACDED027A0CEBCE01D2ED007A109A69
:10AD5000009101EBCE00014691ED01DACDED017AD3
:10AD60000099D2ED007A91ED01CA00EBCE0000EB24
:10AD7000CE0494ED01EAD0ED01DACDED007ADDE903
:10AD80000776DDE90954DDE90B01DDE90D23C44651
:10AD900002E000BFF304353F94ED009A90ED00FA15
:10ADA00091ED006AD5ED007AD3ED006A57ED014AC6
:10ADB00092ED005A56ED013A96ED00AA35EE060ADC
:10ADC00073EEA65A39EE278A34EE8F7A70EE082A8F
:10ADD00075EE87EA35EE465A3EEEA26A73EEE63A23
:10ADE00006ED016AD1ED019AD2ED01FAD4ED016AC6
:10ADF000D3ED011A95ED013AD0ED018A97ED004AA5
:10AE00003FEEE96A35EE491A76EE660A31EE271A08
:10AE10003AEE612A75EE677A70EE830A3FEEA95A20
:10AE200074EECF9A77EE897A7AEE211AB0EE42AAC2
:10AE300074EE68FAA0EEECAADC44E24535EEC77A7F
:10AE4000B0EE639A74EE285A38EEC44AF0EE698A7E
:10AE5000A1EE6C9AE7EEAC8A36EE436A7FEE644A66
:10AE600036EE266AA0EEAC2AF0EE4A0AE7EEEC0ACD
:10AE7000E7EEAC4AF0EE687AF0EE498A36EE833AB5
:10AE8000E6EE6C8AE1EE2C3AB0EE6F1AA6EE2C1AC2
:10AE900071EEE56AA6EE2C4A71EEA55A75EE031A1C
:10AEA0007EEEE22A37EE43FA75EEE1EAB0EE686A2A
:10AEB00076EEC08A39EE044A7FEE86FA76EEC86AEC
:10AEC00033EE816A38EE888A73EEC13A37EE457AFE
:10AED0002CEE2E1A3FEE055A22EECC9A9DED03FA87
:10AEE00070EE266A33EE077AAFEE221AAFEE2E9A94
:10AEF0007AEE244A9DED01FA79EEA09A25EE4BAA4E
:10AF000072EE670A37EE822A6BEE087AAFEE08AA75
:10AF1000EFEE057A2DEEA63A9DED05FA67EE6D8A05
:10AF2000AFEE073AEFEE268A66EE6A2A9DED00FA4A
:10AF30002AEEA00AEFEE202A6EEE02EADDED060A06
:10AF400023EECE5AE0EEA3EA2BEEA98ADDED023A1B
:10AF5000AFEE060AA3EE848A24EE6B7A6DEE246AC5
:10AF60009DED044A2FEECD6AA0EE825AA3EEA97A97
:10AF7000E4EE2F6AA4EE246A75EEA15AC6ED005ADB
:10AF800083ED001A83ED019A4E4447ED017A87ED77
:10AF900000AA4B4480ED003AC0ED018A4F4482ED97
:10AFA000000A4844C2ED012AC5ED00EA85ED015AC8
:10AFB0004A44C1ED006A81ED016A4D4484ED008A86
:10AFC00084ED017A49444C443FF6E6AE0E9B0833CB
:10AFD0000E930D9B08330D930C9B08330C930B9B26
:10AFE00008330B930A9B08330A93099B0833099390
:10AFF000089B08330893079B08330793119B08F1BC
:10B00000010843457FF465AE129BDDF844B0DB00D8
:10B010009BB2129330E517B0BDEC108BBDE8F08FFA
:10B0200038B5838904463BB18268D089984203D001
:10B0300060680380D38100BF236913B11A689888C0
:10B04000508360680978828940F2E9320589013AC3
:10B0500015F0020F92B216D089B2818140F2E93226
:10B060000189013A11F0010F92B206D0828913B121
:10B070001A689B881383012038BD002AF0D12AF07A
:10B0800053FD2369F3E7002AE0D12AF04DFD23693F
:10B09000EDE700BF0848002302461178022902F1BB
:10B0A000060204D00133062BF7D10020704703EBD2
:10B0B000430300EB43007047D43700202DE9F042F2
:10B0C000874C84B0242204F51F7000213AF0A3FDC0
:10B0D00094F8A5720023C4F8A032002F3CD1D4F814
:10B0E000C0326BB39B6A5BB37E48984783683BB3BF
:10B0F0000388DFF80CC2013B9BB26546664600211F
:10B100003078032806F106061ED001310629F7D152
:10B1100000222978022905F1060500F08D80013210
:10B12000062AF6D1D4F8A012052909D0481C02FB42
:10B1300001C2C4F8A0020220002193801070518047
:10B14000384604B0BDE8F082062303FB0141B1F8A4
:10B150007E32013B9BB2DBE794F8A40204F52B732B
:10B16000C4F8A83208B90027B9E729F08BFD0646D4
:10B17000C4F8BC02002863D083790BB1412BF2D113
:10B18000781E022340B284F8AC322AF0FFFD00287A
:10B19000E9D02023C4F8B002F380092130462AF018
:10B1A00003F8D4F8A83218692AF0B4F94E48D4F854
:10B1B000A8522AF08FFC03210246284637F098FC5B
:10B1C0004A4BD4F8A822C4F8E02293E803000123F4
:10B1D000009032208DF8041084F8E432002528F025
:10B1E0002BFF052302AA6946D4F8A8028DF80A505D
:10B1F0008DF809502AF042FC9DF80A609DF809304C
:10B200009DF80B103748360246EA03460E43314696
:10B2100034F0F8FD074600287FF461AF344B9E42BE
:10B220001AD094F8A402A4F8C472C4E9B277A4F8BE
:10B23000D0722AF001FC52E7062101FB02C27AE734
:10B240007D1E022368B284F8AC322AF09FFD0028EC
:10B2500089D0C4F8B002A0E70223264EDFF8A490FC
:10B26000254DC4F8E832D9F8FC30BB42394607F125
:10B27000010703D0D4F8E00234F07EFC94F8E43205
:10B28000D4F8E02286F8243032623046294634F081
:10B29000B9FDD4F8E8329F4206F12806E3DBD4E991
:10B2A000BD02B4F8F012B4F8FC52C4F83C2311FB10
:10B2B00003F102FB03F30026B4F8F222C4F8CC3207
:10B2C0000E4BA4F8C41284F8D262C4F8C802A4F8E1
:10B2D000D052A4F8C622C4F8C0320127FFE600BF4E
:10B2E0005835002018380020404B4C00FC5C040806
:10B2F0001971EF00443800201940EF00045D040884
:10B30000D4370020880100202DE9F041C54BC64EFE
:10B31000C64DC74C0822C3F88820336B82B043F077
:10B320000103336307464FF4C052284640F202330C
:10B3300088466946CDE90023FCF762FE6B6AC4F8D3
:10B34000248923F470436B626B6AC4F82C7943F44C
:10B3500020436B626B6AB749C4F8281923F4702341
:10B360006B626B6AB448C4F8400343F420236B62F9
:10B37000736CB249C4F8441343F480437364736B31
:10B38000AF48B049C4F8500343F08003022573630B
:10B39000AD4F84F84853AD4EAD4DC4F894134FF003
:10B3A000A043C4F84C33AB4AC4F85C7303F5346370
:10B3B000A1F5D071C4F89853C4F86063C4F89C3305
:10B3C000C4F864130123DFF8BCC2C4F858C307F5FE
:10B3D0001077A5F5E465A6F5A066A1F58C61C4F823
:10B3E000A073C4F85453C4F80C6484F84B3305F5C7
:10B3F000A075536106F5B076C4F8D01384F85234C2
:10B400001946954B954AC4F8D853A7F5BC67A035A3
:10B41000C4F8E463924EC4F8E073C4F8E83307F567
:10B42000D45703F56953C4F8EC534FF0502500206E
:10B43000DFF854E2C4F81024ACF5687C02F5A042B1
:10B44000C4F81474C4F8186407F5A04706F5A046BC
:10B45000C4F81C34C4F82054A3F5485304F55075BF
:10B46000C4F82424C4F82C64C4F84C34C4F8D4E3DD
:10B47000C4F8DCC30246C4F828742B4684F854048C
:10B48000402683F81C21A3F822210132042AC3E9B3
:10B49000496083F81D1183F81F01C3F8300103F1DF
:10B4A0002803EED1002211462B46402083F8742356
:10B4B000A3F87A230132042AC3E9DF0183F8751364
:10B4C00083F87713C3F8881303F12803EED14FF004
:10B4D000A04364489A6822F001029A60DA6842F058
:10B4E0004002DA60FDF776F894F849330022212112
:10B4F00061F317420BB142F4801294F84313D4F86D
:10B500004C3301299A6300F0E480DA68D4F84C6483
:10B51000D4F85003C2F3076121F0600141F040010B
:10B5200061F31F620021DA603160026861F3CC22AE
:10B53000026094F84B23012A00F0B88010214A4899
:10B54000FDF768FA4848FDF74BFAD4F8500394F831
:10B55000413300224FF0FF31026142618161C261DB
:10B5600053B305F11407414E114607EB83074FEA29
:10B57000830C4FF0FF0E56F8042F1368002BACBF5E
:10B5800000234FF09043B74213601161C2F808E006
:10B59000F1D105F15003364963440027FF2651F8E5
:10B5A000042F1568002DACBF00254FF0904599423F
:10B5B000156017619660F2D1036994F8431343F460
:10B5C00080730129036161D0D4F84C2329480023FA
:10B5D000936100294FF0FF336FF080415161536058
:10B5E000516114BF00231023906143F470139069DC
:10B5F000D4F8281943F4605343F0080303439361DC
:10B600009368096843F00103936088471A4B1B4A0B
:10B61000DA6068461A4B0093FEF772FA02B0BDE892
:10B62000F08100BF00E100E000380240000002406D
:10B630005835002088020020080401004000400125
:10B6400000080050000B0050200900504009005035
:10B65000200B0050003C0140C0050050001000507D
:10B6600000300050A438002098380020AC3800206A
:10B67000E83800200008008000ED00E00005FA0531
:10B68000430200010009005020050050D4F84C236B
:10B69000144B03636FF08041134D00234FF0FF30D4
:10B6A000936151615060516195619EE701680F4A55
:10B6B0000F4E41F003010160802159629E62C3F880
:10B6C0000421E022C3F80821C0F24002C3F80C2193
:10B6D00034E79A6822F03E0141F02A0161F3070243
:10B6E0009A6012E70301810000080080A00040007A
:10B6F0008000200099B10A6B824216D9154BD3F80D
:10B700006429914221D34C3991421ED30B6B98424C
:10B71000F9D38B6B9842F6D80B46184670470D4B01
:10B72000D3F864190A6B904212D30B680BB9F4E793
:10B730000A6B90420B4602D38A6B9042EDD951F8C6
:10B740004C3F002BF4D11846704700231846704731
:10B750000A46D8E7583500202DE9F047CC0143D1FF
:10B760000346224A43F8082B4FF0FF32426002247E
:10B7700018467E26DFF87880D8F868992644013E7E
:10B78000051D49466FF070474FF0010A08E0A342DB
:10B790001CD0631C45F8043C321B1C460435CAB15E
:10B7A0000B6BA34202D88B6BA34204D22046FFF757
:10B7B000A1FF014690B10A794B6B002AE7D1A34261
:10B7C00004D0E6D245F8042C631CE5E745F8047C78
:10B7D000631CE1E7C8F86819BDE8F08745F804ACD8
:10B7E000321B631C4946D8E78026C3E7F8FFFF0FEA
:10B7F00058350020F0B40D6800240CE0BCF1050FB2
:10B8000018D8A0F137030A2B14D104EB840415F8DF
:10B81000010B03EB4404A0F13003DEB2092EA0F1CA
:10B820006107A0F1410CF0D9052FE7D8A0F157032B
:10B830000A2BEAD00D601460F0BC7047036870B545
:10B840005E6A26B133460522BDE8704018470446BB
:10B850000D464E1D00E023689B682046984700284F
:10B86000F9D0236815F8011B1B6820469847B5429C
:10B87000F1D170BD036870B55E6A26B13346082207
:10B88000BDE87040184704460D4601F1080600E087
:10B8900023689B68204698470028F9D0236815F84C
:10B8A000011B1B6820469847B542F1D170BD00BF0F
:10B8B0002DE9F047164D0746002095F9759905F6D4
:10B8C0007C1684B007EB010805F61C4504464FF0D2
:10B8D000B60A3368ABB193F83830142B11D019F194
:10B8E000020F01D04B450CD1002269463046CDE90C
:10B8F0000244CDE90078ADF808A08DF80E4020F0A4
:10B90000CBF9E036B542E4D104B0BDE8F08700BF22
:10B910005835002030B583B04D1C00930368857204
:10B92000C2729C690023A04703B030BD2DE9F041ED
:10B930000C4F0124A0231825E6B2FF2B0BDCC5F128
:10B940001B0103F10108D7F8D400DBB23246C9B2BB
:10B95000FFF7E0FF4346013DEFD10134052CEAD16A
:10B96000BDE8F0816024002070B4447941BB0368D5
:10B970004FF400524FF40076202502213CBB1A8C74
:10B9800022F001021204120C1A841A8B188C22F075
:10B99000F30280B2120420F00A00120C014342F0BC
:10B9A000010241F001011A8319841A8B22F00C0262
:10B9B0001204120C1A831A8B92B270BC1A8370474D
:10B9C00000220368164615461146002CD7D0042CD9
:10B9D00021D0082C38D0198C21F480510904090C8D
:10B9E00019849C8B1D8C45F6FF7040F6FF41284062
:10B9F0002140024342F4805241F4807199831A84B9
:10BA00009A8B22F440621204120C9A839A8B92B29F
:10BA100070BC9A8370471A8C22F010021204120C28
:10BA20001A84188B198C89B240F6FF4221F0A001CC
:10BA300002400D4342F4807245F010051A831D84C4
:10BA40001A8B22F44062B3E71A8C22F4807212043B
:10BA5000120C1A84998B1A8C21F0F30192B209040A
:10BA600022F42062090C324342F4807241F0010159
:10BA700099831A849A8B22F00C02C4E72DE9F047CF
:10BA80009AB0DDE9226ADDF8909004460D4617462B
:10BA9000984602E0206828F0E5FE206828F0EAFEDB
:10BAA0000028F7D10146642201A83AF0B4F8264BE9
:10BAB0008DF80450CDF85CA00293002D3FD0AB1E52
:10BAC000012B3ED9042D14BF002203221F4B0396E5
:10BAD0009B6A8DF805201E440123CDE90594049648
:10BAE0008DF85B3037B14246394607A83AF032F854
:10BAF0008DF85A80164E96F85E9C00231893B9F183
:10BB0000000F19D196F85D0C642202FB006001A9B8
:10BB100000F546603AF01EF8012386F85D9C86F831
:10BB20005E3C236843B143463A46294620461AB054
:10BB3000BDE8F04708F008BE1AB0BDE8F08705225E
:10BB4000C4E70222C2E700BF744100206024002045
:10BB50005835002070B5084C251D2E4614F8010BF1
:10BB600020F032FA28B1037805F8013BB442F5D150
:10BB700070BDFF23F8E700BF204200202DE9F04709
:10BB80001D4F012607F10805B2464FF03C094FF062
:10BB9000000817F8010B29F075F8044690B180F8F9
:10BBA0000690C671FB7803F07F02012A18D013F0CB
:10BBB000800F20460DD185F8048029F0A5FC85F87A
:10BBC00005802C600136052E05F10805E1D1BDE8A0
:10BBD000F08785F804A029F09DFC85F805A0F0E722
:10BBE0001B0605D40121204629F0DEFAFB78DEE7AA
:10BBF00029F090FCF6E700BF284200209FED737A01
:10BC000007EE901A20EE070AF8EE677A27EE800A10
:10BC1000FDEEC07A17EE903A2033402B00F2C78039
:10BC2000DFED6B7AB4EEE70AF1EE10FAF0EE407A4F
:10BC30000CDD9FED686ADFED686AB0EE677AB4EEFE
:10BC4000E67AF1EE10FA77EEC67AF6DC9FED637ACB
:10BC5000F4EEC77AF1EE10FA0CD59FED5E6ADFEDD7
:10BC6000606AB0EE677AB4EEE67AF1EE10FA77EE3B
:10BC7000867AF6D49FED5B7AF4EEC77AF1EE10FA8D
:10BC800000F38D809FED587AF4EEC77AF1EE10FA4A
:10BC900044BF9FED527A77EE677A27EEA76ADFED11
:10BCA000535A9FED537ADFED536AA6EE257A67EE7D
:10BCB000865AE6EE076AB6EE007AE5EEA67A27EE39
:10BCC000877ADFED486A70EE267ABDEEE76A16EEF7
:10BCD000103A2033402B67D8B4EEE60AF1EE10FAA2
:10BCE0000CDDDFED3C5A9FED3C6AF0EE676AF4EE46
:10BCF000C66AF1EE10FA77EEE57AF6DCDFED376A28
:10BD0000F4EEE67AF1EE10FA0CD5DFED325A9FED43
:10BD1000346AF0EE676AF4EEC66AF1EE10FA77EE76
:10BD2000A57AF6D4DFED2F6AF4EEE67AF1EE10FA9A
:10BD300040DDDFED276A76EEE77A67EEA75A9FEDE2
:10BD40002B5A9FED2B6ADFED2B6AA5EE856A27EE55
:10BD5000A55AE5EE866AB8EE006AE5EE267A67EE49
:10BD6000867AC7EE206A0023836143610362C36160
:10BD7000B7EE006A76EE865A76EE666A86EE257A29
:10BD800067EE277A66EE876AC0ED017AC0ED037A26
:10BD900080ED007A80ED027AC0ED046A70479FED75
:10BDA0000C7A77EE677A78E7DFED137AD9E79FEDC3
:10BDB000127A86E7DFED0C6AF4EEE67AF1EE10FA1D
:10BDC00044BFDFED066A76EEE77AB6E727D4D236CF
:10BDD000DB0F4940DB0FC940E4CB1641DB0F49C004
:10BDE000E4CB16C1DB0FC93FDB0FC9BF92E741B9F6
:10BDF0009730083C15A82ABE000000002DE9F04F3E
:10BE0000DFF8EC91DFF8ECB185B009F1CC0309F172
:10BE10000C05A9F6FC4A0393012419F8017B002FB5
:10BE200000F0BF804FEA171808F1FF38B8F1030F90
:10BE300007F00F0200F2B8800BEB4803188F40FAAE
:10BE400002F616F0010600F0CA8001239340013B80
:10BE50001840D84438F05CF898F84030624E1844E6
:10BE600006EBC00604236E61F471B371002303E096
:10BE70000133152B00F09580039903EB43024FEA41
:10BE80004308895CB942F3D1524492F8C91D002994
:10BE900000F0A780384626F0C1FC0746006826F06F
:10BEA000A9FC797926F010FD0378002B79D1D044D4
:10BEB000042388F8094E88F8083E002E59D03368CC
:10BEC000387A03F13F4202F57E020BEB9222012108
:10BED000127E02F01F0C5209032A01FA0CF16ED0F7
:10BEE000042A64D0022A72D0B6F804E0BEFA8EF2B8
:10BEF000C2F11F02C2F3CC0103EB810102F0070281
:10BF00000E6A92004FF00F0C0CFA02FC26EA0C06A7
:10BF10000E620E6A904030430022086211460120F2
:10BF200000FA01FC3CEA0E001ED118680326964078
:10BF300020EA06001860D3F800800220904040EA12
:10BF400008001860986820EA060098609868986071
:10BF5000586820EA0C00586058685860D86820EA91
:10BF60000600D860D868D8600131102902F10202B9
:10BF7000D5D1BAF8F81CBAF8FA3C1C4A0091002056
