:020000040800F2
:10000000F0FF00103124040879D30008111F030801
:10001000D1240408D1240408D124040800000000DD
:1000200000000000000000000000000075D3000880
:1000300071D30008000000006DD30008751F03088D
:10004000D1240408D1240408D1240408D1240408AC
:10005000D1240408D1240408A1510308CD52030877
:100060009152030855520308195203083D0704082A
:100070002D0704081D0704080D070408F9060408E5
:10008000E5060408D1060408D1240408D124040894
:10009000D1240408D1240408D1240408DD51030824
:1000A000A1D3020829D4020891D3020851D402082E
:1000B00019D4020809D40208F9D30208AD130408C0
:1000C000B5130408A1130408A9130408D1240408D3
:1000D000D1240408592D0308A12C0308E92B030897
:1000E00065510308D12404085D06010881D3020884
:1000F000B1D3020871D30208D9D30208BD0604089F
:10010000D1240408D1240408E9D30208D124040826
:10011000D1240408D1240408D1240408D1240408DB
:10012000A906040895060408810604086D0604085B
:1001300059060408D1240408D1240408D124040851
:10014000D1240408D1240408D124040801F50008AE
:1001500045060408310604081D060408312B03086F
:10016000951304089D130408D1240408D12404081D
:10017000D1240408D1240408D1240408D12404087B
:08018000D1240408D124040875
:08018800E01F0400010000006B
:100190000E020100020000000C3E00203841002049
:1001A00000000000200800081610010006000000F2
:1001B000442000203C4100200000000022080008EC
:1001C0002F10010022000000143E002044410020B6
:1001D0000000000028080008232201001000000091
:1001E000F81F002068410020000000004C080008B3
:1001F000052001000C0000002C2000207841002088
:10020000000000005C080008FD0701007A00000003
:100210005E3D00208441002000000000690E0108BE
:100220000B3001001A000000D4160020004200200C
:100230000000000068080008F59101006C00000053
:100240006C1F00201C420020000000003122010829
:10025000261001000E000000984200208842002075
:1002600000000000FD8A00081302010004000000E5
:1002700034160020A8420020000000008208000878
:100280001220010011000000E01F0020AC420020FD
:1002900000000000860800080D1001005800000052
:1002A0001C320020C04200200000000051CB020898
:1002B00009020100010000008C3C002018430020CE
:1002C0000000000098080008FD0101002400000063
:1002D000E83100201C43002000000000AB3203087E
:1002E0001820010038000000AC31002040430020FD
:1002F0000000000079D2030806100100240000006D
:10030000883100207843002000000000FDD1030860
:10031000FB01010001000000843100209C4300200B
:1003200000000000D1D10308FC0101000900000019
:1003300050300020A043002000000000E1D103085D
:10034000F70101000600000044300020AC4300200B
:10035000000000009A080008F901010004000000F4
:1003600040300020B4430020000000005133030857
:100370000A8001002C00000014300020B843002047
:1003800000000000E1180108160215003F000000FF
:10039000A82F0020E443002000000000F9C4030857
:1003A0003400010010000000D82E0020244400205A
:1003B0000000000071B201081102010008000000F5
:1003C000B02E00203444002000000000A0080008E7
:1003D0001212010004000000A82E00203C4400205E
:1003E00000000000A8080008FA0101000300000056
:1003F0007C27002040440020000000003DC6030888
:100400000C020100040000003427002044440020B6
:100410000000000025C60308FE01010014000000D2
:10042000F83300204844002000000000B9C603084B
:10043000F62101000C0000001C6A0020206B002047
:1004400000000000AC0800081C0202001C000000B4
:10045000AC690020706B002000000000F9D2030896
:1004600023200100100000008E6A00208C6B002009
:1004700000000000391901082830010016000000B2
:10048000C86900209C6B0020000000001D220108AC
:100490001400010005000000A4690020B46B0020D6
:1004A00000000000B80800080C4001002600000011
:1004B00090650020BC6B002000000000A51602081B
:1004C000010201000B00000058650020E46B0020D1
:1004D0000000000049C603081B02010010000000D4
:1004E00044650020F06B00200000000001C60308F6
:1004F0001B1001000C000000F0550020006C0020D3
:10050000000000004923010821020100F000000062
:10051000645400200C6C002000000000C52101087C
:10052000190001000500000080770020D877002026
:1005300000000000BE080008012001000C000000BF
:10054000C0760020E077002000000000C40800080A
:100550001A0001000E00000058760020EC77002001
:1005600000000000D00800080E20010094000000E8
:1005700090780020FC77002000000000819E010898
:100580001500100070000000A874002024790020DD
:1005900000000000000000002A00080060000000C9
:1005A000FC7600209479002000000000599E01088C
:1005B0002C00040010000000047A0020F4790020D0
:1005C00000000000A99701082B0012002400000081
:1005D000387A0020147A0020000000007D9701087E
:1005E0002920140078000000BC7200205C7A0020F2
:1005F00000000000000000000300010001000000F6
:10060000987D0020BC850020000000000000000054
:100610001300010004000000C47D0020C0850020FC
:1006200000000000E00800080001010004000000D4
:100630000C7D0020C485002000000000E4080008B4
:100640000201010003000000447D0020C885002055
:1006500000000000D516020825201E002C01000015
:10066000DC820020CC85002000000000000000009B
:1006700010100100020000004C7D0020F8860020D0
:1006800000000000E8080008F82101000600000052
:100690007C7D0020FC86002000000000EA080008A5
:1006A0001A0201003C000000308900204C8B002021
:1006B0000000000085D3030838100100010000008D
:1006C00070870020888B002000000000F0080008E0
:1006D000020001000C000000A48800208C8B002088
:1006E0000000000000000000020201000300000002
:1006F00070890020988B002000000000000000009E
:100700002902010040000000108700209C8B00207F
:1007100000000000F2080008000201000B000000C9
:10072000FC8B00200C8D00200000000059C603083F
:100730002700010004000000088C0020188D002014
:1007400000000000320900080400080080000000DA
:100750000C8C00208C8C00200000000000000000A9
:100760002802040004000000F48B00201C8D0020EF
:100770000000000021C60308270204000400000056
:10078000F08B0020208D00200000000015C603081B
:100790001F02080010000000E08B0020248D0020C4
:1007A00000000000D9C5030810020100010000008C
:1007B0001898002014980020000000003609000856
:1007C0000702010002000000FC9700201C98002096
:1007D00000000000380900081D02020006000000A9
:1007E00090970020209800200000000000000000EA
:1007F000060203000C000000DC97002028AE002059
:1008000000000000E9D20308081203000F000000F6
:10081000CC97002034AE00200000000061C6030821
:100820000000C409000019000000000000000000E2
:1008300000000000000000000000000000000000B8
:1008400000000000000000000000000000000000A8
:100850000000000000000000FF0000000201000096
:100860000000000000000000AE014A015E012C0102
:1008700064000000000001000A019A01001E0A0045
:10088000000200000135000000010000054246465C
:1008900034000008000200002800240100000000CD
:1008A0000000000001010101FFFFFFFF0000000048
:1008B000010000000202000003000023000000000D
:1008C00028010000E8036400040A000114001E006F
:1008D0007E05EA05B4053200E803D00700000000F9
:1008E000080444309001000000050101F4011400E7
:1008F00000000000000000000000000000000000F8
:1009000000000000000000000000000000000000E7
:1009100000000000000000000000000000000000D7
:1009200000000000000000000000000000000000C7
:0A0930000000200300000000023C5C
:10093A000403090412010002EF0201408304563243
:10094A00000201020301000012010002020200403B
:10095A00830440570002010203010000090220003B
:10096A00010104C032090400000208065005070507
:10097A0081024000000705010240000009026400EC
:10098A00030100C03209040000010300000009212C
:10099A00110100012236000705830309000A080B2A
:1009AA00010202020100090401000102020100051C
:1009BA002400100105240100020424020205240671
:1009CA000102070582030800FF09040200020A0067
:1009DA0000000705010240000007058102400000EF
:1009EA0009024300020100C03209040000010202A8
:1009FA00010005240010010524010001042402025B
:100A0A000524060001070582030800FF0904010006
:100A1A00020A0000000705010240000007058102E2
:100A2A0040000000FF000000000004010000000078
:100A3A00000000021000000007007EFFFFFFFFFF1A
:100A4A005D82000859820008558200084982000820
:100A5A0045820008518200084D820008010000000A
:100A6A0005010905A101A100050109300931093271
:100A7A00093309350934093609371581257F75087F
:100A8A00950881020509190129081500250195080B
:100A9A0075018102C0C0000009022200010100E0C4
:100AAA0032090400000103010200092111010001B9
:100ABA002236000705830309000A0000006002408D
:100ACA00106002400000000000000000000B00005F
:100ADA00000000000000000000000000006002406A
:100AEA00286002400100000000000000060C00001F
:100AFA00000000000000000000000000006002404A
:100B0A00406002400200000000000000100D0000DA
:100B1A000000000000000000000000000060024029
:100B2A00586002400300000000000000160E00009A
:100B3A000000000000000000000000000060024009
:100B4A00706002400400000000000000200F000056
:100B5A0000000000000000000000000000600240E9
:100B6A008860024005000000000000002610000016
:100B7A0000000000000000000000000000600240C9
:100B8A00A0600240060000000000000030110000D2
:100B9A0000000000000000000000000000600240A9
:100BAA00B86002400700000000000000362F000075
:100BBA000000000000000000000000000064024085
:100BCA00106402400000000000000000003800002D
:100BDA000000000000000000000000000064024065
:100BEA0028640240010000000000000006390000ED
:100BFA000000000000000000000000000064024045
:100C0A00406402400200000000000000103A0000A8
:100C1A000000000000000000000000000064024024
:100C2A00586402400300000000000000163B000068
:100C3A000000000000000000000000000064024004
:100C4A00706402400400000000000000203C000024
:100C5A0000000000000000000000000000640240E4
:100C6A0088640240050000000000000026440000DD
:100C7A0000000000000000000000000000640240C4
:100C8A00A064024006000000000000003045000099
:100C9A0000000000000000000000000000640240A4
:100CAA00B864024007000000000000003646000059
:100CBA00000000000000000000000000000000002A
:100CCA0001020304010203040607080961DD0008A2
:100CDA0039E50008B1E0000859830008A585000835
:100CEA00698300088583000831830008218300088E
:100CFA0000000000000000000101000000000100E7
:100D0A00E0010108FF0100000001010100FF0000ED
:100D1A00FC6C0020506D002001D601000000803FCD
:100D2A0000000000000000000000000000000000B9
:100D3A0000000000000000000000000000000000A9
:100D4A00000000000000803F0000000000000000DA
:100D5A00000000000000803F0000000000000000CA
:100D6A00000000000000803F0000000000000000BA
:100D7A0000000000010000000000FA430000FA43EE
:100D8A000000803F09220308000000000000000064
:100D9A0000000000FFFFFFFFFFFFFFFF04B604088B
:100DAA0004A904080000000065190208A0860100D1
:100DBA000400000000000000000000000000000025
:100DCA000000000000000000000000000000000019
:100DDA0000000000000000000000000004B6040843
:100DEA000CB604080000000075AF0208E803000012
:100DFA0004000000000000000000000000000000E5
:100E0A0000000000000000000000000000000000D8
:100E1A0000000000000000000000000014B60408F2
:100E2A000000000000000000711A02087D000000A6
:100E3A00FF000000000000000000000000000000A9
:100E4A000000000000000000000000000000000098
:100E5A00000000000000000000000000F80405087F
:100E6A000000000000000000652802087D00000064
:100E7A00FF00000000000000000000000000000069
:100E8A000000000000000000000000000000000058
:100E9A0000000000000000000000000004DD04085B
:100EAA000000000000000000413F02087D00000031
:100EBA00FF00000000000000000000000000000029
:100ECA000000000000000000000000000000000018
:100EDA000000000000000000000000001CB604082A
:100EEA000000000000000000A5220308E80300003B
:100EFA0003000000000000000000000000000000E5
:100F0A0000000000000000000000000000000000D7
:100F1A0000000000000000000000000020B60408E5
:100F2A000000000000000000E5E9010810270000A9
:100F3A0003000000000000000000000000000000A4
:100F4A000000000000000000000000000000000097
:100F5A000000000000000000000000000001050879
:100F6A0000000000799301086D0D03085F76000008
:100F7A000500000000000000000000000000000062
:100F8A000000000000000000000000000000000057
:100F9A000000000000000000000000009C0405089A
:100FAA000000000000000000112E030810270000B6
:100FBA000100000000000000000000000000000026
:100FCA000000000000000000000000000000000017
:100FDA000000000000000000000000002CB6040819
:100FEA00000000000000000079AF0208E8030000DA
:100FFA0005000000000000000000000000000000E2
:10100A0000000000000000000000000000000000D6
:10101A0000000000000000000000000038B60408CC
:10102A00000000000000000041180208204E0000E5
:10103A0003000000000000000000000000000000A3
:10104A000000000000000000000000000000000096
:10105A0000000000000000000000000048B604087C
:10106A00000000000000000059170208204E00008E
:10107A000300000000000000000000000000000063
:10108A000000000000000000000000000000000056
:10109A0000000000000000000000000058B604082C
:1010AA000000000000000000F5270308400D0300BF
:1010BA000300000000000000000000000000000023
:1010CA000000000000000000000000000000000016
:1010DA0000000000000000000000000068B60408DC
:1010EA000000000000000000E120030810270000B3
:1010FA0001000000000000000000000000000000E5
:10110A0000000000000000000000000000000000D5
:10111A0000000000000000000000000070B6040893
:10112A000000000000000000C57C0108A086010044
:10113A0001000000000000000000000000000000A4
:10114A000000000000000000000000000000000095
:10115A0000000000000000000000000078B604084B
:10116A000000000000000000B5B3020850C30000F0
:10117A000100000000000000000000000000000064
:10118A000000000000000000000000000000000055
:10119A0000000000000000000000000080B6040803
:1011AA000000000000000000EDB00208A861000085
:1011BA000100000000000000000000000000000024
:1011CA000000000000000000000000000000000015
:1011DA000000000000000000000000008CB60408B7
:1011EA000000000000000000D55A0108A086010096
:1011FA0001000000000000000000000000000000E4
:10120A0000000000000000000000000000000000D4
:10121A0000000000000000000000000098B604086A
:10122A000000000000000000C1550108102700005E
:10123A0001000000000000000000000000000000A3
:10124A000000000000000000000000000000000094
:10125A00000000000000000000000000A4B604081E
:10126A00000000000000000011FF00081A41000001
:10127A000100000000000000000000000000000063
:10128A000000000000000000000000000000000054
:10129A00000000000000000000000000A8B60408DA
:1012AA0000000000000000002D44010850C30000A7
:1012BA000300000000000000000000000000000021
:1012CA000000000000000000000000000000000014
:1012DA00000000000000000000000000B4B604088E
:1012EA000000000000000000EDAA020840420F00C2
:1012FA0000000000000000000000000000000000E4
:10130A0000000000000000000000000000000000D3
:10131A00000000000000000000000000C0B6040841
:10132A000000000000000000C5B0020850C3000021
:10133A0000000000000000000000000000000000A3
:10134A000000000000000000000000000000000093
:10135A000000000000000000000000000000000083
:10136A00AC85002008000000000000009C850020D9
:10137A0008000000685E0C0002000000C589000831
:10138A00B584000891E00008000000001D830008F1
:10139A002DDD000879890008A1DC000800000000A2
:1013AA0000000000D98200086D82000861820008EE
:1013BA001DD4000839D4000801D40008E5D3000878
:1013CA00C9D300087D89000891840008DDDF000880
:1013DA0000000000F1820008A5DC00084D89000821
:1013EA00FDDB00080000000000000000E5820008A4
:1013FA00FFFF0000F40005080000080205030300CF
:10140A0000000000FC0005080100080205040300B2
:10141A0000000000ECB504080200FE010110030000
:10142A00000000008CDB0408030014020003000023
:10143A00000000000401050804001F020200080061
:10144A00000000000C01050805001F020201080047
:10145A0000000000FFFFFFFF1A0300000000000069
:10146A000000000000000000000000000000000072
:10147A0000000000040309041201000200000040F9
:10148A0083042057000201020301000011D403085B
:10149A0015C7030811C703080DC70308C9D50308F0
:1014AA0009C7030805C70308189B0408518A0008DE
:1014BA0071840008F9DD0008000000000000000047
:1014CA00D5DB0008F1DA0008000000000000000087
:1014DA0000000000CD820008ADC70308A1C70308B9
:1014EA00E9DA030805DB030859C70308CDDA03085C
:1014FA00B1DA03081F0000001C0000001F000000F2
:10150A001E0000001F0000001E0000001F00000057
:10151A001F0000001E0000001F0000001E00000047
:10152A001F0000000068214CFF010000F4010000C8
:10153A00FF01000000000000000000000102030497
:10154A0006070809FF000000A40D002000000000A3
:10155A000000000000000000000000000000000081
:10156A000000000000000000000000000000000071
:10157A000000000000000000000000000000000061
:10158A000000000000000000000000000000000051
:10159A000000000000000000000000000000000041
:0C15AA0000000000000000000000000035
:082800000000000000000000D0
:108000002DE9F04700230F6801264FF0030C02E032
:108010000133102B41D006FA03F232EA0704F7D1FC
:10802000D0F800E05C000CFA04F52EEA050EC0F86A
:1080300000E091F80490D0F800A009FA04FE09F1DC
:10804000FF394EEA0A0EB9F1010FA846C0F800E068
:108050006FEA050515D8D0F808E005EA0E05856039
:108060004D79D0F808E0A54045EA0E0585604568E1
:1080700025EA020242608A7945689A4092B22A4310
:108080004260C26822EA0802C260CA79C568A2409A
:1080900001332A43102BC260BDD1BDE8F08700BF79
:1080A000074AD2E90031994208D0D1180133097A40
:1080B0000170C3F30A03136001207047002070476A
:1080C000080E0020064AD2F80838D2F80C2893424D
:1080D00094BF4FF400600020013B9B1A1844704786
:1080E000080E0020012380F85130704707B501A821
:1080F000FFF7D6FF0028FAD09DF8040003B05DF822
:1081000004FB044BD3E90003984288BF03F50063E6
:10811000181A7047080E002001207047024BC3F860
:108120001028C3F814187047080E0020024BC3F83B
:108130001828C3F81C187047080E002070477047B5
:1081400030B4124DD5E900239A4286BF03F500648E
:10815000A21A9A1A0A44B2F5006F11D899B10144D3
:108160004A1E013810F8014FE918824203F1010359
:108170000C72C3F30A03F5D16B60002030BC70476A
:10818000022030BC70470846F8E700BF080E002008
:10819000212838B50C4605D022282ED0202813D00F
:1081A000002038BD0029FBD0072AF9D11A4BD3F89B
:1081B000200893F8241893F8252893F8263820608F
:1081C00021716271A371EBE70029E9D0072AE7D199
:1081D000114DD5F814381BB10968D5F81008984727
:1081E000206821796279A379C5F8200885F82418D8
:1081F00085F8252885F82638D2E70029D0D0022A2C
:10820000CED1054AD2F81C38002BC9D00988D2F843
:1082100018089847C4E700BF080E0020024B002052
:10822000C3F82808704700BF080E0020044B002048
:108230000522C3F82828C3F81C08C3F8140870479F
:10824000080E0020704700BF704700BF704700BF96
:10825000704700BF704700BF704700BF704700BF46
:10826000042301480B8070478801002010B4074A9E
:10827000074B92F82C08122403F114020C800128F9
:108280000CBF184610465DF8044B7047080E0020DE
:108290008C01002010B40C4A92F8303802EBC30174
:1082A0000133DBB2042B4FF0050408BF00234FF469
:1082B000045081F8344882F83038C1F838085DF845
:1082C000044B4FF0FF307047080E00202023014878
:1082D0000B807047B4010020642301480B80704775
:1082E000D4010020432301480B807047380200204E
:1082F00010B5084CD4F8F400FF2809D00649D1F88D
:10830000542801F65801FFF743FFFF23C4F8F43067
:10831000002010BD88010020080E0020E8E700BF03
:1083200008B5D0F8E4355B6A9847002008BD00BF67
:1083300008B5D0F8E4351B6A9847002008BD00BF97
:10834000D0F8E43510B504461B689847D4F8E835F2
:108350009B689847002010BD08B5D0F8E435DB696C
:1083600003B19847002008BD08B5042290F8121107
:10837000D0F8E83580F8131180F81221DB689847AF
:10838000002008BD10B5D0F8E83504461B699847B1
:10839000032384F81231002010BD00BF0B0617D450
:1083A00001EB810300EBC30310B400EB8100012457
:1083B000002283F8764383F8741383F87523426DA3
:1083C0005DF8044B136843F40013002013607047FA
:1083D00001F07F0101EB810300EBC303012200EBFD
:1083E000810083F81C1183F81E2183F81D21826906
:1083F0001368002B01DA43F0804343F40013136049
:10840000002070470B0630B41CD401EB810200EB56
:10841000C202002300EB810582F8741382F87533E1
:1084200001241A4604FA01F16D6D61F31F420169DE
:108430006FF3CF332B60CB6923EA0203002030BCFB
:10844000CB61704701F07F0101EB810400EBC404B4
:10845000012200EB8105002384F81C1184F81D2102
:1084600002FA01F11A46AD6961F30F02DFE700BFBE
:1084700010B581210446FFF7C5FF20460121FFF713
:10848000C1FF024B002083F8600810BD080E0020D9
:1084900010B581210446FFF7B5FF20460121FFF703
:1084A000B1FF82212046FFF7ADFFFFF7B7FE0020A6
:1084B00010BD00BF38B50D4604468321FFF7A2FF6B
:1084C00029462046FFF7E4FF002038BDF0B41646E9
:1084D0000A063AD401EB810500EBC50528240022E9
:1084E00004FB0104022B85F87413C5F87C6385F83E
:1084F000773385F8752304F55D7448D0154600EB95
:108500008107012202FA01F17F6D61F31F45D7F85F
:1085100000C01CF4004F11D1E488204946F080527D
:1085200042F4004242EA834204F00F041C4B42EA48
:10853000845211400CEA0303194339600269D3697C
:108540002B430020F0BCD361704701F07F0101EBA9
:10855000810500EBC5052824012204FB0104022B40
:1085600085F81C11C5F8246185F81F31A5F8221182
:1085700085F81D2104F58E740CD0002500EB8107D1
:10858000012202FA01F1BF6961F30F05BFE7227111
:108590001546B4E700252571F0E700BFFF87CC132F
:1085A000007833EC002310B5194604464022FFF74B
:1085B0008DFF8021204600234022FFF787FFD4F85B
:1085C000E835A078012284F812215B6898470020E2
:1085D00010BD00BF82B00023016801930B690193B5
:1085E0000E4B03E00A690192013B13D0019A002A65
:1085F000F8DA019A094B42F001020192019A0A61EC
:108600000A69019203E00A690192013B02D0019AD2
:10861000D207F8D4002002B0704700BF400D03001D
:10862000436D064A1A61C278012A06D100F2CC5085
:1086300058614FF0802219681A607047180008606E
:1086400010B580210446FFF7A9FE20460021FFF760
:10865000A5FE2046BDE81040E2E700BF70B44B78AD
:10866000012B26D00B784A6900EB83035C6D2568EB
:108670002369D2B18A684A6102F07F0223F40023A1
:1086800023F07F0342F4002213432361C378012BBC
:1086900004BF0B696361C5F3076363F07B0363F396
:1086A0001F652560002070BC70478A6802F07F0259
:1086B000E4E782694C691568136944B38E68B44273
:1086C0008CBF06F07F0404F07F0423F4002323F022
:1086D0007F0344F4002443EA040388BF4E6113611E
:1086E000C378012B1DD0C5F3076464F07B0464F3E9
:1086F0001F651560002BD5D14B69002BD2D00269C4
:108700000878516B012383400B435363CAE723F47A
:10871000002323F07F0343F400231361C378012B6C
:10872000E1D10B780C6900EB8300C5F30763816925
:1087300063F07B0363F31F654C610020156070BC20
:10874000704700BF2DE9F0434B78012B30D00B78F8
:108750004C6900EB83035E6D356837691CB38B6829
:108760001C44013CB4FBF3F4C4F3090203FB02F321
:10877000C3F312034B61144643EAC44363F31C077B
:108780003761C378012B04BF0B697361CB78012B70
:1087900044D0C5F3076363F07B0363F31F65356063
:1087A0000020BDE8F0838A680124C2F31203E3E7E6
:1087B00091F800804E6900EB880EDEF818C0DCF8F6
:1087C0000050DCF8107076B3D1F80890384A06EB08
:1087D0000904013CB4FBF9F402EAC444C6F31202F2
:1087E0002243CC7807F060473A43012C174649D022
:1087F000CCF81020C278012A55D00269516B03FAD7
:1088000008F30B435363C5F3076363F07B0363F320
:108810001F65CCF800500020BDE8F0834B7973B39E
:1088200045F00055B5E707F0604747F40027CC78DE
:10883000CCF81070C378012B2FD0012CE3D1026942
:108840009268D20554BF45F0005545F08055C5F3F8
:10885000076262F07B0262F31F65CCF80050002BC8
:108860009ED1B0B203308010DEF8D04098D0CA68F4
:1088700052F8041B216001339842F9D190E745F08A
:10888000805586E764F35E77CCF81070C378012BCF
:10889000D5D10A69CCF81420D1E70A69CCF81420A4
:1088A000012CB0D1CBE70B69CCF81430ABE700BF9B
:1088B0000000F81F38B501EB810400EBC4040D463D
:1088C000002184F87453C4F88C1384F87513C4F829
:1088D0008833C4F88023C3782821012B01FB0501CC
:1088E00008BFEDB201F55D7108BFC4F884231DB95E
:1088F000FFF7B4FE002038BDFFF724FF002038BD8D
:1089000070B5104BD3F86C2893F8845804461AB10C
:1089100093F870382B430DD081212046FFF73EFDA0
:10892000022D00D070BD2046074ABDE870401F23CD
:108930000121BFE70121FFF731FD20468121BDE87C
:1089400070402BE5080E00206C16002010B501EBDE
:108950008101084A00EBC1010446B1F88C131046AE
:10896000FFF7EEFB034A204640230121FFF7A2FF59
:10897000002010BD90160020E8E700BF10B50223CC
:10898000044640228121FFF7A1FD20460223402218
:108990000121FFF79BFD8221204603230822FFF7D8
:1089A00095FD064B02229A83FFF740FC044A2046BD
:1089B00040230121FFF77EFF002010BD8801002029
:1089C0009016002038B509220D4604460323832162
:1089D000FFF77CFD29462046FFF7D0FF002038BD79
:1089E00082B000230193019A094B42F010020192D8
:1089F000C168019A0A610A69019203E00A69019259
:108A0000013B02D0019AD206F8D4002002B0704790
:108A1000400D030082B000230193019A0B4B42F0FA
:108A200020020192019A61F38A120192C168019AAF
:108A30000A610A69019203E00A690192013B02D0CE
:108A4000019A9206F8D4002002B07047400D03004E
:108A500070B50446144EFFF70BFD2046022340225A
:108A60008121FFF733FD4022012120460223FFF739
:108A70002DFDD6F8C83800251B6886F860582846B2
:108A800086F8845898472046FFF7AAFF2046012120
:108A9000FFF7C0FF204606F664021F230121FFF7FF
:108AA00009FF284670BD00BF080E00200E4BDA6893
:108AB000D20310D4DA68D1060FD4DA68D20510D404
:108AC000DA6812F0E00F0AD1DB6813F0020F14BF6E
:108AD00008200920704701207047062070470720B2
:108AE00070470220704700BF003C0240024A536AB0
:108AF00023EA0000506270470038024030B401237E
:108B00004FF4007515244FF4167140F2D9320380EA
:108B1000002345808471018130BC42818380838140
:108B20007047094BB3F8CE28B3F8CC38801A9B1A9B
:108B3000C00090FBF3F00628A8BF062020EAE070F2
:108B4000C0F19600C0B27047080E00204368722240
:108B50001A70436873225A70436874229A7043688B
:108B60000022DA7070470F4B4268B3F9EC380A21E3
:108B700093FBF1F31B0110B503F5B9530A4C4FF405
:108B8000B4711433B3FBF1F303F00F03E118E358AE
:108B900013604B6853600B7A1372436800225A7259
:108BA00010BD00BF080E0020DC3D0408032815D8C6
:108BB000DFE800F00F02060A094BD3F8F00870470F
:108BC000074BD3F8F4087047054B93F81C29D207DC
:108BD00001D425F093BBD3F8F0087047002070470C
:108BE000080E002000285ED00368374A2DE9F041C6
:108BF00003F13F4404F57E0402EB94220124127E2B
:108C000002F01F055209032A04FA05F456D0042A7B
:108C10004FD0022A48D08588B5FA85F0C0F11F00F0
:108C2000C0F3CC0603EB860600F0070082000F2499
:108C3000306A944020EA04003062306A01FA02F29D
:108C40000243002132624FF0010E0A464FF0030C3E
:108C500002270EFA02F838EA050002F101021CD1DF
:108C600018680CFA01F420EA04001860186807FA82
:108C700001F606431E609E6826EA04069E60986818
:108C80009860586820EA0800586058685860D868AA
:108C900020EA0400D860D868D860102A01F10201E7
:108CA000D7D1BDE8F0817047084A556C2C43546415
:108CB000B1E7064A156B2C431463ACE7034A156C05
:108CC0002C431464A7E700BFDC3D040800380240D1
:108CD000F0B44368434C1D88B4F8FA70B4F8F82037
:108CE000B4F8FC6005F441553A432A43B4F8025104
:108CF000B4F8047132432A43B4F80661B4F8085159
:108D00003A43324392B242F0030202270126A4F80A
:108D1000FE70A4F800611A809A8B334C22F4006232
:108D20001204120C9A831D821A8822F0380212044F
:108D3000A3424FEA124244D004F58064A3421DD0FE
:108D4000B1F5807FA8BF4FF480710229B8BF02211E
:108D5000002991FAA1F1B1FA81F108BF4FF0FF317A
:108D6000013942EAC10189B2204A198019888181FA
:108D7000934234D11E4B8360F0BC7047F140B1F593
:108D8000807FA8BF4FF48071B942B8BF394600292F
:108D900091FAA1F1B1FA81F108BF4FF0FF31013929
:108DA00042EAC10189B219801A8882810E4A93422F
:108DB00011D002F58062934211D10E4B8360F0BC5A
:108DC00070474908B1F5807FA8BF4FF48071022930
:108DD000B8BF0221DBE7084B8360F0BC7047074B4C
:108DE000C9E700BF88010020003800400030014082
:108DF00028170020481700203817002018170020D7
:108E0000F8B51A4C94F85039002BFBD159B30144F2
:108E10004E1E451ED4F80C28D4F8081815F8017F0A
:108E2000531CC3F30A038B422CBF4FF40060002095
:108E3000C91A224401440129C4F80C3882F8547933
:108E40000FD1012028F0B4FFD4F80838D4F80C185A
:108E50008B4294BF4FF4006200225B1A1344012B33
:108E6000EFD0B542D6D10020F8BD00BF080E0020DB
:108E7000094B0846D3F8281810B559B1D3F828384B
:108E8000052B07D1054C002AE36D03DD1146FFF7E2
:108E9000B7FFE36D10BD00BF080E0020001F0020CB
:108EA00010B590F85010002380F8503079B10B4C79
:108EB000D4F828286AB1D4F82828052A0BD1084C00
:108EC0003C30E36DFFF79CFFE36D012010BD0120F6
:108ED000FCE71046FAE71846F8E700BF080E002046
:108EE000001F0020002280F85120D9E790F8502080
:108EF000531C0244DBB280F8503082F83C1090F8EA
:108F000051200AB1132B00D9CAE77047034B04491B
:108F1000B3F90A314068012231F076BC88010020A3
:108F2000B7A404081E4B9FED1F7A9A6EB3F86C30FD
:108F3000406807EE902AF8EEE76A07EE903AF8EEFE
:108F4000E77A67EE877AF4EEE76AF1EE10FA02D874
:108F5000154931F059BC934202DA144931F054BC3E
:108F60009B1A07EE903A124B124A03F50F63B8EEC4
:108F7000E77AD3ED007AF8EE677A3C2167EE277A3C
:108F800087EEA67AFDEEC77A17EE903AB3FBF2F3BE
:108F9000B3FBF1F201FB1233074931F035BC00BFDE
:108FA000001F0020CDCCCC3DBDA40408C3A4040800
:108FB000080E002040420F00C9A40408064940687A
:108FC000B1F8D8200B6E0549534342F2107293FB5F
:108FD000F2F231F019BC00BF001F0020D3A4040836
:108FE000054A064992F8E13092F8E02040680133E2
:108FF000013231F009BC00BF001F0020D8A40408D2
:109000000B4B4068B3F9EC380A2293FBF2F31A01D8
:1090100002F5B9524FF4B4711432B2FBF1F2C2F15D
:10902000080202F00F020349603231F0EDBB00BFCD
:10903000080E0020DEA4040813B5384BC1789A6EE0
:10904000374B0229B3F8D838044641D0032945D01C
:10905000012905D19A1A9A42A8BF1A4622EAE27259
:10906000D3B19A1A9A42A8BF1A4622EAE27207EED0
:10907000902A0B20B3FBF0F307EE103AF8EEE77AF4
:10908000B8EEC70A87EE800A39F0D0FFFCEEC07A4E
:10909000CDED017A9DF8043062688A2111700122B9
:1090A00061689342ACBF8B208D20885401320C2A1A
:1090B000F6D162688F2111735A1E092A03D862689B
:1090C00013448E225A70636800225A7302B010BD96
:1090D0009A1A9A42A8BF1A4622EAE272ABB107EE88
:1090E000902AB8EEE70ADFED0F7A20EE270A07EEA6
:1090F000903AF8EEE77A80EE270A39F0DDFF64282F
:109100000346A8BF642323EAE37307496068072284
:1091100002B0BDE8104031F077BB00BF001F002057
:10912000080E00200000C842E5A40408034A0449D0
:10913000926E4068072331F067BB00BF001F00201C
:10914000ECA4040807B5144A406892F8F110B2F88C
:10915000F230012909D1009392F8F4300F497B22B3
:1091600031F052FB03B05DF804FB022906D10C4933
:109170007B2203B05DF804EB31F046BB0A22534377
:1091800040F2FF32B3FBF2F39BB2092B054928BF33
:1091900009237B22EDE700BF001F0020F2A4040892
:1091A000FCA4040802A50408034B0449D3F8F820E2
:1091B000406831F029BB00BF001F002008A504084B
:1091C000044B93F81C39DB0703D40349406831F0A2
:1091D0001BBB7047080E00200CA5040807B5094A00
:1091E0000949B2F90E310193B2F90C310093B2F989
:1091F0000A314068B2F9082131F006FB03B05DF88E
:1092000004FB00BF001F002015A5040813B50F4B79
:109210004468B3F9100193F871304BB10E230093F9
:109220000B4903467A22204631F0EEFA02B010BD17
:1092300007EE900A9FED077A9FED070AF8EEE77AAE
:10924000A7EE870A39F038FF0D23E8E7001F00205A
:1092500029A504086766E63F00000042084BD3F8E2
:109260001421002A0BDD074B03EB8203DA6932B1CC
:10927000054B0649D3F80C31406831F0C5BA704748
:10928000001F0020DC3D04088801002032A50408EE
:109290001FB59388029393780193537800931378C2
:1092A0000A46034931F0B0FA05B05DF804FB00BF8F
:1092B0003AA50408034B0449D3F818214068143236
:1092C000E6E700BF001F00204DA50408034B04493A
:1092D000D3F8182140680832DAE700BF001F0020E9
:1092E00051A50408034B0449D3F8182140680E32F5
:1092F000CEE700BF001F002055A5040810B50446A6
:1093000019F044FA0349034604226068BDE810409E
:1093100031F07ABAB7A4040810B5044612F012F876
:10932000642202FB00F3C3F38F23632B60680449BC
:10933000BDE8104028BF6323012231F065BA00BFA9
:10934000FCA40408F8B5194D0646002415F02CF8C5
:10935000882705F1A80C2B787168A342214402DC10
:1093600000230B70F8BDF8B1D5ED227AFDEEE77A57
:109370000CEB840317EE90EAD3ED007AFDEEE77A6A
:1093800017EE902AD5ED237AFDEEE77AA2EB0E02D6
:1093900017EE903AD200A3EB0E0392FBF3F3C3F166
:1093A00088030B700134D6E70F70FBE70C00001048
:1093B0001FB5184A9FED187AB2F8D83092F81C21E0
:1093C0009FED160A446807EE903AF8EEE77AF4EE5D
:1093D000C77AF1EE10FAACBF01230223022A27EE6E
:1093E000800A14D08DED030A029321F0DBF9FFF718
:1093F00098FB029B9DED030A014601220620CDE960
:109400000020074A20460AF01BFD04B010BD97213A
:10941000F3E700BF001F002000007A440AD7233C76
:1094200078CC040807B501234722CDE9003205496D
:10943000054A91ED480A406800210AF001FD03B099
:109440005DF804FB001F002078CC040807B50B4B27
:10945000DFED0B7A93ED180A0A4A00219A23B8EE41
:10946000C00ACDE9001320EE270A0223B0EEC00A9D
:1094700040680AF0E5FC03B05DF804FB001F002023
:109480000AD7233C59A5040813B5044621F08AF9EC
:109490000E4B646893F81C31022B00EE100A13D0B7
:1094A000FFF73FFB0146DFED0A7AB8EEC00A002362
:1094B0000622CDE9003220EE270A064A0223204682
:1094C0000AF0BEFC02B010BD9721ECE7001F00209F
:1094D0000AD7233C78CC040813B50378134ADFED90
:1094E000147A144C1A2B0CBFB2F9EA28B2F9E82806
:1094F00000EE102AB8EEC00A1A2B20EE270A4FF011
:1095000001034FF00002CDE90032B5EEC00A0CBFF6
:1095100015211421F1EE10FA074A406848BF22468F
:10952000B0EEC00A0AF08CFC02B010BD080E00209C
:10953000CDCCCC3D5DA5040863A50408174AD2F83C
:10954000243113F0040313B5446819D0C378D2ED65
:109550004A7A92F87120013BF8EEE77A18BF0123AE
:10956000B2B10C229FED0E0A01920122009227EE69
:10957000800A0C4A7F2120460AF062FC02B010BD2E
:109580007F22227042682D21517042689370F5E766
:109590009FED057A0F2267EE877AE3E7001F002030
:1095A0000AD7233C78CC040848F9514010B504464A
:1095B000132016F06BF9F8B10CF0B8FB30B9606805
:1095C0000E49BDE81040102231F01EB90C4B606806
:1095D00093F82D21012A09D1D3E94E239A4205D3CC
:1095E000BDE810400749102231F00EB9BDE8104027
:1095F0000549102231F008B910BD00BF69A5040863
:10960000001F00206DA50408F0D1040838B5224DD4
:109610004468B5F840315A0505D520461F49BDE8D4
:1096200038403AF0AEBB180505D520461C49BDE8C8
:1096300038403AF0A6BB590605D520461949BDE881
:1096400038403AF09EBBDA0705D520461649BDE8FA
:1096500038403AF096BB9B0705D520461349BDE834
:1096600038403AF08EBB252016F010F928B120467C
:109670000F49BDE838403AF084BB95F842312BB130
:1096800020460C49BDE838403AF07BBB20460A49E9
:10969000BDE838403AF075BB001F002071A50408F2
:1096A00076A504087BA5040880A5040885A5040800
:1096B0008AA504088FA5040894A50408074B93ED18
:1096C000987AD3ED947AB4EEE77AF1EE10FA03DDEE
:1096D000034940683AF055BB704700BF0C000010CA
:1096E000E3A90408F8B52D4D0A24B5F9E82892FB42
:1096F000F4F484EAE473A3EBE4739BB25A2B0646BA
:1097000005D90A32CCBFB4236FF0B3031C1B244F1E
:1097100097F8432132B995F81C39DB0729D414F0A6
:10972000A3FE30BB97F84831B32B02D814F09CFE4F
:10973000F8B9B5F9EA180A2391FBF3F304B9C3B1F8
:10974000002BB8BF5B4284EAE4709BB2A0EBE470EC
:10975000B3EB400F726813DAB0EB430F10DA09294C
:1097600008DD002CCCBF6E236223137073680022C7
:109770005A70F8BD002CCCBF6A2366231370F5E73E
:10978000834205DD0929CCBF602368231370EDE710
:10979000002CCCBF6C2364231370E7E7080E002075
:1097A000001F0020F0B404780A4E049F650906EB00
:1097B000850604F01F04012505FA04F4D6F84C517F
:1097C00004972C428068F0BC18BF43F080032BF054
:1097D00011BE00BF001F00201FB503AC8DF80C3078
:1097E000009400238DF80D30FFF7DCFF04B010BDAE
:1097F000F8B50446417882782848237890F88D504F
:10980000302B05F1FF35264B4FEA85052B444FF4ED
:109810007A770BBF93F8A45093F8A65093F8A560FD
:1098200093F8A76000EB450500EB4600B5F954310D
:10983000B0F9540140F2CF75AB42A8BF2B46B3F547
:109840007A7FB8BF4FF47A73A842A8BF2846A3F521
:109850007A73B842C3EB0313B3FBF7F3C3F10E0300
:10986000B8BF3846DBB24FF0030CB3FBFCFC0CEB8B
:109870004C0EA3EB0E03A0F57A706244C0EBC0005F
:109880000833B0FBF7F73944DBB2D2B2C9B2204695
:10989000FFF7A2FF00232373F8BD00BF001F0020C5
:1098A000DC3D04082DE9F04790F8029090F8018023
:1098B00009F1020704460026FFB2002508EB060A5C
:1098C000032E1BD108F10301022DC9B20ED10B23C7
:1098D0003A462046FFF780FF0135052DF0D10136CD
:1098E000072EEAD100232373BDE8F08709EB0502B8
:1098F0001623D2B22046FFF76FFFEDE7022DEBD122
:1099000017233A465FFA8AF12046FFF765FFE3E73F
:1099100070B504466FF00205A278617852FA85F2BC
:1099200007391323D2B2C9B22046FFF755FFA278F8
:109930006178EEB2324407311323D2B2C9B2204665
:109940000135FFF749FF042DE6D16178A278063989
:109950000323C9B22046FFF73FFF6178A2780631A2
:109960000223C9B22046FFF737FF0023237370BDDF
:109970002DE9F8432B49054691F87C3091F87D207C
:10998000294891F88B10B0F9E848002902EB8202CF
:1099900014BF4FF0FF31012152004C43C2F10008C7
:1099A00003EB830344454FEA430303DB9442A8BF20
:1099B0001446A046B0F9EA285C424A43A24203DBBF
:1099C0009A42A8BF1A4614461BB11922544394FB6D
:1099D000F3F4293C4FEA88066FF003074FF00909BA
:1099E000002E3346B8BF06F13F03C4EBA313512B3F
:1099F0000FD893FBF9F101EBC1029B1AAA780A4434
:109A00006978803B3944DBB2D2B2C9B22846FFF74D
:109A1000E3FE0137052FA6EB0806E1D100232B73E7
:109A2000BDE8F883001F0020080E00202DE9F04F4C
:109A30001A4D90F801808678DFF864B085B004464E
:109A40002F1DA5F1C7094FF4FA6A15F9013B002B48
:109A50001ADB09EB43035946B3F95421A2F57A7294
:109A60004FF47A730AFB02F292FBF3F202ABA2F517
:109A70007A72184630F0C8FE02AB009332460023DB
:109A800041462046FFF78EFE0136BD42F6B2DCD1DC
:109A90000023237305B0BDE8F08F00BFC71F00206F
:109AA0008BA904082DE9FF47314B477893F8D02064
:109AB00093F8D180436885781E2AA8BF1E22022A07
:109AC000B8BF0222B8F1100FA8BF4FF01008B8F1CC
:109AD000020F4FF00B01B8BF4FF002080446197097
:109AE000D6B25FFA88F90121501E4FF0170C884258
:109AF000636826DC13440B2103F8011C6168002312
:109B00008B546268009239462A4620463E44FFF74D
:109B100049FE013E4FF0010AF6B208F1FF3353450A
:109B200013DC05EB090263680093013A0023D2B20B
:109B300039462046FFF736FE0023237304B0BDE804
:109B4000F08703F801C00131D1E705EB0A02D2B278
:109B50001623394620460392FFF73EFE039A16234A
:109B600031462046FFF738FE0AF1010AD5E700BF6B
:109B7000001F00202DE9F0433A4B9FED3B7A2DED7D
:109B8000028B93ED668AF0EEC87AF4EEC77AF1EEB6
:109B900010FA85B004465DD5D3ED657AF0EEE76A3C
:109BA000F4EEC76AF1EE10FA54D5304B0293304B05
:109BB0000393304BDFED308AB3F9EA38DFED2F6ADB
:109BC000002BD8BFF1EE677A77EEA87ABAEE0C7A5E
:109BD000A7EEA67AD6BF00250125B1EE488A17EE7A
:109BE000100A37F0BDFE41EC100B39F0D1F938EE18
:109BF000288A9FED237AFAEE007AE8EE077A59EC8C
:109C0000108B17EE900A37F0ABFE41EC100B39F0D9
:109C1000BFF957EC106BA07837F090FE32463B4608
:109C200037F040FD38F0A4F9C6B2607837F086FE10
:109C300042464B4637F036FD38F09AF904AB03EB59
:109C40008505C1B255F8083C0093324600232046F2
:109C5000FFF7A8FD0023237305B0BDEC028BBDE820
:109C6000F08300BF001F00206C61D83E99A5040856
:109C70007EA50408080E0020DB0F493F539A8E4151
:109C800083F9224100F01F0240090123032803FA4F
:109C900002F304D004280CD0022805D07047074AEC
:109CA000116C0B4313647047044A516C0B435364AB
:109CB0007047024A116B0B43136370470038024030
:109CC00000487047FC2000200E4B30B4DB6842781F
:109CD00001780D4CDB43C3F30223C3F10403DBB271
:109CE00002FA03F360181B0101F01F050122490964
:109CF00003F0F003AA4080F8003344F8212030BC80
:109D0000704700BF00ED00E000E100E0002871D0E6
:109D1000F0B58388B3FA83F3202B0A4683B0044658
:109D2000C3F11F0150D0344F344D07EB81036E183F
:109D3000C3F8FC22002196F8B4602BF003F8A38846
:109D400021682F48B3FA83F3C3F11F0202F0FC0429
:109D500004F1804404F59C3402F003024FEA820EC1
:109D60004FF00F0C01F13F42A1680CFA0EFC21EA02
:109D70000C01A16002F57E02A168C2F387224FF0B8
:109D8000004C02FA0EF22CFA03F30A43A26043617C
:109D900002681C4922EA03020260426822EA0302C6
:109DA000426002681A430260826822EA030282600B
:109DB000C26822EA0302C2600A68374413430B6098
:109DC00097F83C33F02B01D803B0F0BD3544F021B7
:109DD00095F8C4308DF8043003224FF4807301A845
:109DE00087F83C138DF80520ADF80630FFF76CFFBF
:109DF00003B0F0BD704700BF001F0020DC3D040829
:109E0000003C0140083C01402DE9F047C24C94F869
:109E100043130546C1F34001D4F848032BF064F91D
:109E200094F84313D4F84403C94301F001012BF023
:109E30005BF9002D00F0DC8005F1FF38B74EB84D1E
:109E40005FFA88F81027D4F8483333B11A689B8832
:109E500051690B4214BF53831383D4F8443333B195
:109E60001A689B8851690B4214BF53831383B4F85B
:109E70005033002B40F0488194F85213D4F8540327
:109E80002BF032F94FF0FA0C4FF47A704FF0010ECC
:109E90007368C3F30803002B40F00B81EFF31183C9
:109EA000002B40F00681E26DA968E36D9A42FAD179
:109EB000D4F878339942F6D8D4F8749300FB09F3B8
:109EC0005B1AB3FBF9F300FB02327368C3F30803B8
:109ED000002B40F0AF80EFF31183002B40F0AA80FD
:109EE000E36DD5F808A0E16D8B42F9D1D4F8781371
:109EF0008A45F5D8D4F8749300FB09F1A1EB0A0167
:109F0000B1FBF9F100FB03139B1AB3F57A7FDCD3A5
:109F1000BCF1010CBCD1D4F8483333B11A689B882A
:109F200051690B4214BF53831383D4F8443333B1C4
:109F30001A689B8851690B4214BF53831383B4F88A
:109F40005033002B40F0D48094F85213D4F85403CB
:109F500081F001012BF0C8F84FF0FA0C4FF47A7041
:109F60004FF0010E7368C3F30803002B40F08280AA
:109F7000EFF31183002B7DD1E26DA968E36D9A4266
:109F8000FAD1D4F878339942F6D8D4F8749300FB18
:109F900009F35B1AB3FBF9F300FB02327368C3F3F6
:109FA00008033BBBEFF3118323BBE36DD5F808A097
:109FB000E16D8B42F9D1D4F878138A45F5D8D4F8FD
:109FC000749300FB09F1A1EB0A01B1FBF9F100FB6D
:109FD00003139B1AB3F57A7FE0D3BCF1010CC1D116
:109FE00008F1FF385FFA88F8B8F1FF0F7FF42BAF64
:109FF000BDE8F087EFF3118987F31288D5F808A040
:10A000002B68DB0344BFC4F870E3D5F808A0E36D08
:10A01000D4F870135FFA89F989F31188D4F874932E
:10A020000B4400FB09F1A1EB0A01B1FBF9F100FBC4
:10A030000313CEE7EFF3118987F31288D5F808A050
:10A040002B68D90344BFC4F870E3D5F808A0E36DCA
:10A05000D4F870135FFA89F989F31188D4F87493EE
:10A060000B4400FB09F1A1EB0A01B1FBF9F100FB84
:10A07000031349E7EFF3118187F31288D5F80890AD
:10A080002B68DA0344BFC4F870E3D5F80890E36D99
:10A09000D4F87023C9B281F31188D4F874131A4428
:10A0A00000FB01F3A3EB0903B3FBF1F300FB023266
:10A0B00074E7EFF3118187F31288D5F808902B68C5
:10A0C000DB0344BFC4F870E3D5F80890E36DD4F81F
:10A0D0007023C9B281F31188D4F874131A4400FBB9
:10A0E00001F3A3EB0903B3FBF1F300FB0232ECE64F
:10A0F000D4F86C33002B3FF42FAFD4F8582300234F
:10A10000136084F8693327E7D4F86C33002B3FF4ED
:10A11000B9AE27F04FFFB5E6001F002000ED00E0CC
:10A1200010E000E02DE9F84FBD4CBE4F94F843130A
:10A13000D4F84803BC4DC1F340012AF0D5FF94F890
:10A140004313D4F84403C94301F001012AF0CCFFC2
:10A150004FF0050B4FF01008D4F8483333B11A68AC
:10A160009B8851690B4214BF53831383D4F8443343
:10A1700033B11A689B8851690B4214BF5383138310
:10A18000B4F85033002B40F0438194F85213D4F8C4
:10A1900054032AF0A9FF4FF0320C4FF47A700126D5
:10A1A0007B68C3F30803002B40F00781EFF31183B2
:10A1B000002B40F00281E26DA968E36D9A42FAD16A
:10A1C000D4F878339942F6D8D4F8749300FB09F3A5
:10A1D0005B1AB3FBF9F300FB02327B68C3F308039D
:10A1E000002B40F0AB80EFF31183002B40F0A680F2
:10A1F000E36DD5F808A0E16D8B42F9D1D4F878135E
:10A200008A45F5D8D4F8749300FB09F1A1EB0A0153
:10A21000B1FBF9F100FB03139B1AB3F57A7FDCD392
:10A22000BCF1010CBCD1D4F8483333B11A689B8817
:10A2300051690B4214BF53831383D4F8443333B1B1
:10A240001A689B8851690B4214BF53831383B4F877
:10A250005033002B40F0D08094F85213D4F85403BC
:10A2600081F001012AF040FF4FF0320C4FF47A7078
:10A2700001267B68C3F30803002B7FD1EFF3118322
:10A28000002B7BD1E26DA968E36D9A42FAD1D4F834
:10A2900078339942F6D8D4F8749300FB09F35B1A2B
:10A2A000B3FBF9F300FB02327B68C3F308032BBB5B
:10A2B000EFF3118313BBE36DD5F808A0E16D8B427A
:10A2C000F9D1D4F878138A45F5D8D4F8749300FB03
:10A2D00009F1A1EB0A01B1FBF9F100FB03139B1A91
:10A2E000B3F57A7FE0D3BCF1010CC2D10BF1FF369C
:10A2F00016F0FF0B7FF430AFBDE8F88FEFF3118954
:10A3000088F31288D5F808A02B68DB0344BFC4F893
:10A310007063D5F808A0E36DD4F870135FFA89F97B
:10A3200089F31188D4F874930B4400FB09F1A1EB75
:10A330000A01B1FBF9F100FB0313D0E7EFF3118938
:10A3400088F31288D5F808A02B68D90344BFC4F855
:10A350007063D5F808A0E36DD4F870135FFA89F93B
:10A3600089F31188D4F874930B4400FB09F1A1EB35
:10A370000A01B1FBF9F100FB03134DE7EFF3118183
:10A3800088F31288D5F808902B68DA0344BFC4F824
:10A390007063D5F80890E36DD4F87023C9B281F3E7
:10A3A0001188D4F874131A4400FB01F3A3EB0903DA
:10A3B000B3FBF1F300FB023276E7EFF3118188F390
:10A3C0001288D5F808902B68DB0344BFC4F870638B
:10A3D000D5F80890E36DD4F87023C9B281F31188E1
:10A3E000D4F874131A4400FB01F3A3EB0903B3FB85
:10A3F000F1F300FB0232F0E6D4F86C33002B3FF4AB
:10A4000033AFD4F858230023136084F869332BE763
:10A41000D4F86C33002B3FF4BEAE27F0CBFDBAE688
:10A42000001F002000ED00E010E000E010B4B8B123
:10A430000D4CD4F87C33102B05D15DF8044B05216D
:10A44000002023F073BD03EB4302224482F8811302
:10A4500001210B4482F8800382F88213C4F87C3314
:10A460005DF8044B704700BF001F0020F8B5264E72
:10A4700000EBC00406EB8404D4F8B453002D36D0AE
:10A4800094F8C5C30CF0FF07BCF1000F2FD14900B1
:10A490004FF0010CC9B284F8C61384F8C72384F8BE
:10A4A000C9C384F8CA7384F8C8C384F8C5C384F8E0
:10A4B000C473AA88C4E9F333940502D5012738464A
:10A4C000F8BD2B88D9050CD44FF4805301E0013B33
:10A4D00010D02A889205FAD42B889BB243F480735B
:10A4E0002B80AB889BB243F44073AB80E6E7002738
:10A4F0003846F8BDB6F81C3401339BB2A6F81C34BC
:10A5000036F0E0FBDBE700BF001F002070B52C4EEB
:10A5100096F82044022C82B0134608D00A46014621
:10A5200006F5846002B0BDE870402BF0EDB8B6F8D7
:10A530002C24002A38D1D6F8302412B1146892881D
:10A540006283D6F82454AA8940F2E9342A89013C6E
:10A5500012F0020FA4B224D080B2A88140F2E934F4
:10A560002A89013C12F0010FA4B20ED0AA890A4632
:10A570002846002136F048FAD6F8303413B11A686C
:10A580009B881383012002B070BD002CE8D12846BF
:10A59000CDE900132AF0E2FFDDE90013D6F82454D8
:10A5A000E5E7002CD2D1F2E7D6F82844E5899542B8
:10A5B000C1D0D6F824542A80E28100BFBBE700BF97
:10A5C000001F002070B50278022A04460D4613D001
:10A5D000012A01D0002070BD0C4B90F9040083F8D3
:10A5E0006824421CF6D00328F4DC0A4603F58D6388
:10A5F0006179BDE8704039E734F054FF29462046C0
:10A600000122BDE870402BF019B800BF001F0020E8
:10A610002DE9F041BB4CBC4BD4F86C24B3EB920F4A
:10A6200005460E4680F01282B3EBD20F80F0108206
:10A63000B3EB121F80F01582B3EB521F80F017822C
:10A64000B3EB921F80F01782B3EBD21F80F017821A
:10A65000B3EB122F34BF4FF48070802000234FF4EF
:10A66000F0722021A4F87004A84884F8723484F8A9
:10A67000733439F062FBA6484FF4F072202139F0B0
:10A680005CFB94F8350840B394F836382BB30709CF
:10A69000013F032F00F00F0000F22F81DFF88882C6
:10A6A00008EB4703B3F8CC2042FA00F3D90740F196
:10A6B0002481012303FA00F001381040474437F0A9
:10A6C0003FFD97F8D420934B104403EBC000C4F82F
:10A6D000480883792BB1412B03D06FF00100BDE80E
:10A6E000F0812323C38009212AF02CFBD4F84818D9
:10A6F00011B10B688A881A8394F83638013B5BB233
:10A700005A1C00F01381022B00F31081824AD4F806
:10A710006C74DFF8F4C102EB0313BCEB970FD3F8B2
:10A720002009C4F83C084FF0020227FA02F384F82B
:10A73000382880F0A881744AB2EB530F80F09381DF
:10A74000B2EB930F80F09181B2EBD30F80F0918147
:10A75000B2EB131F80F09181B2EB531F80F0918117
:10A76000B2EB931F34BF4FF4807380235B000288E9
:10A770006A4F22F040021204120C0280028822F07A
:10A7800038021204B8424FEA124200F0B480644F1B
:10A79000B84200F0B080B3F5807FA8BF4FF480735B
:10A7A000002B93FAA3F3B3FA83F308BF4FF0FF3300
:10A7B000013B42EAC3039BB203800388B4F84428F8
:10A7C0009BB243F040030380002A6DD111B10B68A6
:10A7D0008A885A83FF218C2034F070FED4F84838E0
:10A7E000002B00F0228119689F880F831B2840F0FE
:10A7F0004E812322DA80B4F84428012084F87204C0
:10A80000002A67D14F8340210A2034F057FEFF21F0
:10A810008A2034F053FED4F84838C0F3801284F80C
:10A820004C2800F0400013B119689B880B8394F802
:10A830003418012900F0D980022900F0B8800029DD
:10A8400000F09180B4F8701494F84D38182B05D1AD
:10A85000A4F80861A4F80A21A4F80C113148FEF705
:10A8600037FAB4F8443853BBD4F8483813B11A68EF
:10A870009B8853830221002034F020FED4F848380E
:10A8800013B11A689B8813836A78AB78297884F8A7
:10A890004E18C2F12002C3F1100384F84F2884F847
:10A8A00050380020BDE8F081D4F84038DF89974265
:10A8B0008CD00280DA8100BFD4F8481886E7D4F83B
:10A8C0004028D1899942CFD0D4F83C180B80D3814D
:10A8D00000BFC9E7D4F84018C889904208D0D4F81E
:10A8E0003C381A80CA8100BFD4F84838002B8AD07F
:10A8F00019689F8886E75B084DE70020C4F8480880
:10A90000F1E600BF001F002080969800742300200D
:10A91000542500209C200020080E00200038004014
:10A92000003C004038270020DC3D0408D4F86C24AB
:10A93000624F4FF0020C0020B7EB920F22FA0CF39B
:10A9400084F838C8C4F83C08FFF4F5AE038823F057
:10A9500040031B041B0C0380028822F038021204FF
:10A96000120C042313E7D4F86C14544BB3EB910F7F
:10A9700073D2B3EBD10F80F09580B3EB111F80F051
:10A980009380B3EB511F80F09180B3EB911F80F067
:10A990008F80B3EBD11F80F08D80B3EB112F34BFCC
:10A9A0004FF4807180214900A4F870144CE7D4F86A
:10A9B0006C04424BB3EB900FF6D2B3EBD00F4CD2FA
:10A9C000B3EB101F4BD2B3EB501F5ED2B3EB901F13
:10A9D00064D2B3EBD01F63D2B3EB102F34BF4FF46C
:10A9E00080718021A4F870142EE7D4F86C14334BD6
:10A9F00006B178B3B3EB910F5ED2B3EBD10F2CD28B
:10AA0000B3EB111F2BD2B3EB511F3ED2B3EB911F0F
:10AA100044D2B3EBD11F43D2B3EB112F34BF4FF469
:10AA200080718021A4F870140EE71B282FD1B4F890
:10AA30004428012384F87234002A3FF4E4AED4F8A9
:10AA40004018CB8993427FF44AAFDCE6022005E64A
:10AA5000042003E6B3EB910F8BD30421A4E7082174
:10AA6000A2E70820FAE5042380E608237EE610200A
:10AA7000F4E510237AE62020F0E5202376E6402056
:10AA8000ECE5402372E6042371E610218CE71846BA
:10AA900020212AF057F94FF0FF3003E7202183E708
:10AAA000402181E704217EE708217CE710217AE735
:10AAB000202178E7402176E7022175E7809698000B
:10AAC0002DE9F04F2DED108B034697B0043315930D
:10AAD000DFEDCACA149002238A4613928B46129362
:10AAE000149C4FEADB0604EB461202EB0610310120
:10AAF000A6EB86034FEAC60806EB4605CDE9000142
:10AB000000EBC303043108F10400119620442144F2
:10AB10002C01C6EBC60C0394EC00119D04944FEA83
:10AB2000CC0405946C0106EB860E0294159D009CE6
:10AB300003EB46174FEACE0E02EBC6064FEACB09EF
:10AB40004FF0000C51ED01AAD3ED001A92ED007AFE
:10AB500094ED005A96ED004AD7ED007A15ED012AE2
:10AB600050ED016A32EE07BA76EE840A7AEE855A23
:10AB700031EEA70A3BEE256A70EE804A76EEC46A93
:10AB800036EE244A36EE646A05ED014A82ED006A2B
:10AB9000D0ED00BAD6ED012AD3ED019A95ED00AAC9
:10ABA00092ED016A97ED013A91ED00CAD4ED014AA8
:10ABB0007BEEE23A36EEE19A32EE472A73EEE98A0C
:10ABC0003AEE464A39EE279A78EE838AB0EE428A08
:10ABD000A9EE6C8ADC44E24573EEC33AB0EE441A47
:10ABE000A8EEEC1A76EEE77A33EEA97A7CEE643AB8
:10ABF00077EEA17A3AEE066A7AEEC51A3CEE24AAFE
:10AC000074EECC4A39EE833A35EE6A5AF0EE639A26
:10AC1000F0EE48AAE7EE2C9AA8EEAC4AE7EE2C4AF2
:10AC2000E7EE6CAAF0EE418AB0EE427AB0EE612A0D
:10AC30007BEE656A7BEEA22A76EE4A5AA9EE2C7A62
:10AC4000A7EEAC2AA7EEAC5AE7EEEC8A32EE83BA56
:10AC500076EEC3BA35EEE09A75EEC07A36EE0A6A41
:10AC600076EEE26A36EE0BAA76EE836A77EEA07A8B
:10AC700034EE423A77EE290A36EE4B6A7BEEA22A90
:10AC800039EE000A73EEAA3A78EE244A37EE697A72
:10AC900031EE055A71EEA85A32EE044A85ED00AA4B
:10ACA00082ED016A4D4441ED012A4A44C4ED006A37
:10ACB00081ED000AC4ED017A494440ED010A4C449B
:10ACC00087ED007AC6ED003AC3ED004A80ED003A08
:10ACD00087ED014A484486ED015A4F44C3ED015ABD
:10ACE0004E444B443FF62EAF119B072B40F2C781D9
:10ACF000029D149E019B03980499059A08357519C5
:10AD00000C330E95354608F108080EF10804EB18CF
:10AD100008300831083246442C1928186918AA1836
:10AD2000079305F10C030D960C940B900A91099270
:10AD300008934FF001084FF0000E129B9E44139BA6
:10AD400003EBCE0303EBCE02109302EBCE0303EB37
:10AD5000CE01029101EBCE0101EBCE0505EBCE0653
:10AD6000D6ED007A0F93AEEB8E03019106EB031341
:10AD700003EBCE07D3ED01AACDED067A019BD5ED0D
:10AD8000007A97ED01BACDED057AD3ED007A029BFA
:10AD9000CDED047AD3ED007A0F9BCDED037A07EB6E
:10ADA000CE0CD3ED007ADCED01BACDED027A0CEBDE
:10ADB000CE01D2ED007A109A009101EBCE0001464F
:10ADC00091ED01DACDED017A0099D2ED007A91EDA5
:10ADD00001CA00EBCE0000EBCE0494ED01EAD0ED09
:10ADE00001DACDED007ADDE90776DDE90954DDE928
:10ADF0000B01DDE90D23C44602E000BFF304353F3B
:10AE000094ED009A90ED00FA91ED006AD5ED007A8C
:10AE1000D3ED006A57ED014A92ED005A56ED013A22
:10AE200096ED00AA35EE060A73EEA65A39EE278A89
:10AE300034EE8F7A70EE082A75EE87EA35EE465AC0
:10AE40003EEEA26A73EEE63A06ED016AD1ED019A92
:10AE5000D2ED01FAD4ED016AD3ED011A95ED013A74
:10AE6000D0ED018A97ED004A3FEEE96A35EE491AC6
:10AE700076EE660A31EE271A3AEE612A75EE677AA7
:10AE800070EE830A3FEEA95A74EECF9A77EE897A74
:10AE90007AEE211AB0EE42AA74EE68FAA0EEECAA9D
:10AEA000DC44E24535EEC77AB0EE639A74EE285A78
:10AEB00038EEC44AF0EE698AA1EE6C9AE7EEAC8AED
:10AEC00036EE436A7FEE644A36EE266AA0EEAC2A7E
:10AED000F0EE4A0AE7EEEC0AE7EEAC4AF0EE687AEA
:10AEE000F0EE498A36EE833AE6EE6C8AE1EE2C3AD1
:10AEF000B0EE6F1AA6EE2C1A71EEE56AA6EE2C4A99
:10AF000071EEA55A75EE031A7EEEE22A37EE43FA89
:10AF100075EEE1EAB0EE686A76EEC08A39EE044A70
:10AF20007FEE86FA76EEC86A33EE816A38EE888A5A
:10AF300073EEC13A37EE457A2CEE2E1A3FEE055AE3
:10AF400022EECC9A9DED03FA70EE266A33EE077A74
:10AF5000AFEE221AAFEE2E9A7AEE244A9DED01FA58
:10AF600079EEA09A25EE4BAA72EE670A37EE822A96
:10AF70006BEE087AAFEE08AAEFEE057A2DEEA63A50
:10AF80009DED05FA67EE6D8AAFEE073AEFEE268A81
:10AF900066EE6A2A9DED00FA2AEEA00AEFEE202A5C
:10AFA0006EEE02EADDED060A23EECE5AE0EEA3EAEB
:10AFB0002BEEA98ADDED023AAFEE060AA3EE848AF3
:10AFC00024EE6B7A6DEE246A9DED044A2FEECD6A75
:10AFD000A0EE825AA3EEA97AE4EE2F6AA4EE246AC8
:10AFE00075EEA15AC6ED005A83ED001A83ED019A61
:10AFF0004E4447ED017A87ED00AA4B4480ED003ABC
:10B00000C0ED018A4F4482ED000A4844C2ED012A96
:10B01000C5ED00EA85ED015A4A44C1ED006A81EDB3
:10B02000016A4D4484ED008A84ED017A49444C4420
:10B030003FF6E6AE0E9B08330E930D9B08330D933F
:10B040000C9B08330C930B9B08330B930A9B083320
:10B050000A93099B08330993089B08330893079BBD
:10B0600008330793119B08F1010843457FF465AE4F
:10B07000129BDDF844B0DB009BB2129330E517B0B1
:10B08000BDEC108BBDE8F08F38B5838904463BB129
:10B090008268D089984203D060680380D38100BF62
:10B0A000236913B11A689888508360680978828987
:10B0B00040F2E9320589013A15F0020F92B216D03A
:10B0C00089B2818140F2E9320189013A11F0010F20
:10B0D00092B206D0828913B11A689B88138301202B
:10B0E00038BD002AF0D12AF039FA2369F3E7002AA3
:10B0F000E0D12AF033FA2369EDE700BF08480023C6
:10B1000002461178022902F1060204D00133062B0F
:10B11000F7D10020704703EB430300EB4300704777
:10B1200054270020F0B5854C87B0242204F6540043
:10B13000002138F002FE94F87D680023C4F87838C6
:10B14000002E3BD1D4F898386BB39B6A5BB37C4834
:10B15000984783683BB30388DFF8FCC1013B9BB28F
:10B160006046654600212F78032F05F106051DD0A6
:10B1700001310629F7D100220178022900F10600E9
:10B1800000F093800132062AF6D1D4F87818052908
:10B1900009D0481C02FB01C2C4F878080220002133
:10B1A000938010705180304607B0F0BD062303FB3A
:10B1B0000141B1F85638013B9BB2DCE794F87C08BA
:10B1C00004F68403C4F8803808B90026BAE729F0E9
:10B1D00027FBC4F8940818B183790BB1412BF4D143
:10B1E000751E02236DB29D4284F88438EDDC554B08
:10B1F00003EB0515D5F82039002BE6D0C4F88838C4
:10B2000008B12023C380092129F09CFDD4F880389F
:10B210004D4E186929F062FF4C48D4F880582AF046
:10B2200073F901462846FDF753FD96E80300012314
:10B2300002903220C4F8B8588DF80C10002584F81C
:10B24000BC3826F0B5FD052304AA02A9D4F880086D
:10B250008DF812508DF811502AF02AF99DF812102D
:10B260009DF811209DF81330090241EA0241A6F130
:10B27000D8002A4619430C2601E0A94219D0D3B2BE
:10B2800006FB03030132D3F8E050002DF5D194F80A
:10B290007C08A4F89C58A4F8A858C4F8A058C4F88E
:10B2A000A4582E462AF0E2F84CE7062101FB02C220
:10B2B00074E7B3F8EA20B3F8E850B3F8E600B3F85F
:10B2C000E4602349A4F8A828130203FB05F201FB5C
:10B2D00000F0C4F8A03801FB06F14FF48073C4F805
:10B2E000A4280022C4F8C01884F8AA28A4F89E381C
:10B2F000A4F89C58C4F8C4082AF006F9D4F8B83861
:10B300000146586835F022FAD4F8A438B3F1807FAA
:10B3100007D801250F4B84F8B1582E46C4F8983849
:10B3200010E70122B723D4F8B80884F8B0280DF14B
:10B3300007018DF80730FFF7A7FEEAE7001F00209E
:10B3400098270020080E0020B43E0408404B4C0013
:10B3500040420F00703F0408542700202DE9F041BF
:10B36000C54BC64EC64DC74C0822C3F88820336B68
:10B3700082B043F00103336307464FF4C0522846BE
:10B3800040F2023388466946CDE90023FCF738FED7
:10B390006B6AC4F8AC8E23F470436B626B6AC4F8BA
:10B3A000B47E43F420436B626B6AB749C4F8B01EA5
:10B3B00023F470236B626B6AB448C4F8C80843F482
:10B3C00020236B62736CB249C4F8CC1843F48043F9
:10B3D0007364736BAF48B049C4F8D80843F0800376
:10B3E00002257363AD4F84F8D058AD4EAD4DC4F80F
:10B3F0001C194FF0A043C4F8D438AB4AC4F8E47821
:10B4000003F53463A1F5D071C4F82059C4F8E86895
:10B41000C4F82439C4F8EC180123DFF8BCC2C4F81E
:10B42000E0C807F51077A5F5E465A6F5A066A1F5D7
:10B430008C61C4F82879C4F8DC58C4F8946984F89D
:10B44000D33805F5A075536106F5B076C4F85819E0
:10B4500084F8DA391946954B954AC4F86059A7F52E
:10B46000BC67A035C4F86C69924EC4F86879C4F81A
:10B47000703907F5D45703F56953C4F874594FF080
:10B4800050250020DFF854E2C4F89829ACF5687C18
:10B4900002F5A042C4F89C79C4F8A06907F5A0475A
:10B4A00006F5A046C4F8A439C4F8A859A3F5485332
:10B4B00004F6C805C4F8AC29C4F8B469C4F8D43992
:10B4C000C4F85CE9C4F864C90246C4F8B0792B46F4
:10B4D00084F8DC09402683F81C21A3F822210132DC
:10B4E000042AC3E9496083F81D1183F81F01C3F8DA
:10B4F000300103F12803EED1002211462B464020F3
:10B5000083F87423A3F87A230132042AC3E9DF0104
:10B5100083F8751383F87713C3F8881303F12803AE
:10B52000EED14FF0A04364489A6822F001029A607D
:10B53000DA6842F04002DA60FDF74CF894F8D1384E
:10B540000022212161F317420BB142F4801294F8DA
:10B55000CB18D4F8D43801299A6300F0E480DA6873
:10B56000D4F8D469D4F8D808C2F3076121F0600197
:10B5700041F0400161F31F620021DA60316002682E
:10B5800061F3CC22026094F8D328012A00F0B8803D
:10B5900010214A48FDF73EFA4848FDF721FAD4F851
:10B5A000D80894F8C93800224FF0FF310261426197
:10B5B0008161C26153B305F11407414E114607EB97
:10B5C00083074FEA830C4FF0FF0E56F8042F1368E1
:10B5D000002BACBF00234FF09043B74213601161C2
:10B5E000C2F808E0F1D105F1500336496344002761
:10B5F000FF2651F8042F1568002DACBF00254FF031
:10B6000090459942156017619660F2D1036994F8EC
:10B61000CB1843F480730129036161D0D4F8D42896
:10B6200029480023936100294FF0FF336FF08041D8
:10B6300051615360516114BF00231023906143F4A2
:10B6400070139069D4F8B01E43F4605343F00803BC
:10B65000034393619368096843F00103936088474B
:10B660001A4B1B4ADA6068461A4B0093FEF72CFB14
:10B6700002B0BDE8F08100BF00E100E00038024008
:10B6800000000240001F0020980200200804010072
:10B690004000400100080050000B005020090050FD
:10B6A00040090050200B0050003C0140C0050050F4
:10B6B0000010005000300050D4270020C827002080
:10B6C000DC270020182800200008008000ED00E0A2
:10B6D0000005FA0543020001000900502005005052
:10B6E000D4F8D428144B03636FF08041134D00232A
:10B6F0004FF0FF30936151615060516195619EE759
:10B7000001680F4A0F4E41F0030101608021596228
:10B710009E62C3F80421E022C3F80821C0F240026F
:10B72000C3F80C2134E79A6822F03E0141F02A0167
:10B7300061F307029A6012E70301810000080080AC
:10B74000A00040008000200099B10A6B824216D907
:10B75000154BD3F8EC2E914221D34C3991421ED394
:10B760000B6B9842F9D38B6B9842F6D80B46184670
:10B7700070470D4BD3F8EC1E0A6B904212D30B6846
:10B780000BB9F4E70A6B90420B4602D38A6B9042E6
:10B79000EDD951F84C3F002BF4D1184670470023E7
:10B7A000184670470A46D8E7001F00202DE9F047E9
:10B7B000CC0143D10346224A43F8082B4FF0FF3215
:10B7C0004260022418467E26DFF87880D8F8F09E82
:10B7D0002644013E051D49466FF070474FF0010AAF
:10B7E00008E0A3421CD0631C45F8043C321B1C46F5
:10B7F0000435CAB10B6BA34202D88B6BA34204D2AF
:10B800002046FFF7A1FF014690B10A794B6B002A51
:10B81000E7D1A34204D0E6D245F8042C631CE5E747
:10B8200045F8047C631CE1E7C8F8F01EBDE8F0872A
:10B8300045F804AC321B631C4946D8E78026C3E7B1
:10B84000F8FFFF0F001F0020F0B40D6800240CE08B
:10B85000BCF1050F18D8A0F137030A2B14D104EB63
:10B86000840415F8010B03EB4404A0F13003DEB2AD
:10B87000092EA0F16107A0F1410CF0D9052FE7D8FE
:10B88000A0F157030A2BEAD00D601460F0BC70479A
:10B890002DE9F743124E0124A02318255FFA84F8FE
:10B8A000FF2B14DCD6F8F80EE9B2C1F11C0282724B
:10B8B0005F1C026880F80B80DBB20093C1F11B01B2
:10B8C000D2F8189000234246C9B2C8473B46013D12
:10B8D000E6D10134052CE0D103B0BDE8F08300BF10
:10B8E000001F002070B4447941BB03684FF400523C
:10B8F0004FF40076202502213CBB1A8C22F0010275
:10B900001204120C1A841A8B188C22F0F30280B2E3
:10B91000120420F00A00120C014342F0010241F02F
:10B9200001011A8319841A8B22F00C021204120CE2
:10B930001A831A8B92B270BC1A8370470022036874
:10B94000164615461146002CD7D0042C21D0082CC1
:10B9500038D0198C21F480510904090C19849C8B6E
:10B960001D8C45F6FF7040F6FF4128402140024300
:10B9700042F4805241F4807199831A849A8B22F4A4
:10B9800040621204120C9A839A8B92B270BC9A8312
:10B9900070471A8C22F010021204120C1A84188BB1
:10B9A000198C89B240F6FF4221F0A00102400D43FC
:10B9B00042F4807245F010051A831D841A8B22F41C
:10B9C0004062B3E71A8C22F480721204120C1A84BB
:10B9D000998B1A8C21F0F30192B2090422F42062AF
:10B9E000090C324342F4807241F0010199831A84B8
:10B9F0009A8B22F00C02C4E7036870B55E6A26B128
:10BA000033460522BDE87040184704460D464E1DDA
:10BA100000E023689B68204698470028F9D02368F7
:10BA200015F8011B1B6820469847B542F1D170BD3F
:10BA30002DE9F0479AB0DDE9226ADDF890900446DE
:10BA40000D461746984602E0206828F0C3FC20689F
:10BA500028F0C8FC0028F7D10146642201A838F07C
:10BA60006CF9254B8DF80450CDF85CA00293002DA5
:10BA70003ED0AB1E012B3DD9042D14BF0023032360
:10BA8000DFF878A08DF80530DAF85C3003961E44B4
:10BA90000123CDE9059404968DF85B3037B1424619
:10BAA000394607A838F0E8F88DF85A809AF83E6FC2
:10BAB00000231893CEB99AF83D0F642202FB00A030
:10BAC00001A900F5746038F0D7F801238AF83D6FBA
:10BAD0008AF83E3F236843B143463A46294620460A
:10BAE0001AB0BDE8F04708F069BC1AB0BDE8F087AD
:10BAF0000523C5E70223C3E7FC2D0020001F00201B
:10BB000070B5084C251D2E4614F8010B1FF028FEB9
:10BB100028B1037805F8013BB442F5D170BDFF238D
:10BB2000F8E700BFA82E00202DE9F0471D4F0126A1
:10BB300007F10805B2464FF03C094FF0000817F82E
:10BB4000010B28F06DFE044690B180F80690C67196
:10BB5000FB7803F07F02012A18D013F0800F2046F3
:10BB60000DD185F8048029F0B3FA85F805802C60A2
:10BB70000136052E05F10805E1D1BDE8F08785F80D
:10BB800004A029F0ABFA85F805A0F0E71B0605D460
:10BB90000121204629F0D6F8FB78DEE729F09EFA4D
:10BBA000F6E700BFB02E00209FED737A07EE901AE3
:10BBB00020EE070AF8EE677A27EE800AFDEEC07ADB
:10BBC00017EE903A2033402B00F2C780DFED6B7AFE
:10BBD000B4EEE70AF1EE10FAF0EE407A0CDD9FEDDC
:10BBE000686ADFED686AB0EE677AB4EEE67AF1EE85
:10BBF00010FA77EEC67AF6DC9FED637AF4EEC77A38
:10BC0000F1EE10FA0CD59FED5E6ADFED606AB0EEE2
:10BC1000677AB4EEE67AF1EE10FA77EE867AF6D429
:10BC20009FED5B7AF4EEC77AF1EE10FA00F38D80A7
:10BC30009FED587AF4EEC77AF1EE10FA44BF9FED0B
:10BC4000527A77EE677A27EEA76ADFED535A9FEDB7
:10BC5000537ADFED536AA6EE257A67EE865AE6EE52
:10BC6000076AB6EE007AE5EEA67A27EE877ADFED70
:10BC7000486A70EE267ABDEEE76A16EE103A203377
:10BC8000402B67D8B4EEE60AF1EE10FA0CDDDFEDDA
:10BC90003C5A9FED3C6AF0EE676AF4EEC66AF1EE3C
:10BCA00010FA77EEE57AF6DCDFED376AF4EEE67A45
:10BCB000F1EE10FA0CD5DFED325A9FED346AF0EE5A
:10BCC000676AF4EEC66AF1EE10FA77EEA57AF6D45A
:10BCD000DFED2F6AF4EEE67AF1EE10FA40DDDFEDEB
:10BCE000276A76EEE77A67EEA75A9FED2B5A9FED0B
:10BCF0002B6ADFED2B6AA5EE856A27EEA55AE5EEE5
:10BD0000866AB8EE006AE5EE267A67EE867AC7EEB6
:10BD1000206A0023836143610362C361B7EE006A56
:10BD200076EE865A76EE666A86EE257A67EE277A92
:10BD300066EE876AC0ED017AC0ED037A80ED007A85
:10BD400080ED027AC0ED046A70479FED0C7A77EEC1
:10BD5000677A78E7DFED137AD9E79FED127A86E705
:10BD6000DFED0C6AF4EEE67AF1EE10FA44BFDFED97
:10BD7000066A76EEE77AB6E727D4D236DB0F49407B
:10BD8000DB0FC940E4CB1641DB0F49C0E4CB16C141
:10BD9000DB0FC93FDB0FC9BF92E741B99730083CC1
:10BDA00015A82ABE000000002DE9F04FDFF8E09151
:10BDB000DFF8E0A183B009F10C05012419F8018B2B
:10BDC000B8F1000F00F0BF804FEA1817013F032FB2
:10BDD00008F00F0200F2BA800AEB4703B3F8CC0078
:10BDE00040FA02F616F0010600F0C28001239340EB
:10BDF000013B1840574436F0A3F997F8D4305E4E13
:10BE0000184406EBC00604236E61F471B37100237D
:10BE100003E00133152B00F09680584903EB4302F1
:10BE20005F00895C4145F4D1554B1A4412F84F1C10
:10BE3000002900F09F80404621F014FD80460068F4
:10BE400021F0FCFC98F8051021F050FD0378002B40
:10BE500079D14B4B3B44042203F80F4C03F8102CD0
:10BE6000002E57D0336898F8080003F13F4202F5DE
:10BE70007E020AEB92220127127E02F01F01520974
:10BE8000032A07FA01F169D0042A62D0022A6AD093
:10BE9000B6F804C0BCFA8CF2C2F11F02C2F3CC01A6
:10BEA00003EB810102F007020E6A92000F27974010
:10BEB00026EA07060E620E6A9040304300220862AE
:10BEC0004FF0010B11460BFA01FE3EEA0C001CD1AB
:10BED00018680326964020EA060018601F680220B2
:10BEE0009040384318609F6827EA06079F6098686B
:10BEF0009860586820EA0E00586058685860D86802
:10BF000020EA0600D860D868D8600131102902F113
:10BF10000202D8D11B4B1C4AB3F8D81FB3F8DA3F42
:10BF20000091002001340190B2FBF3F328469BB24C
:10BF30004146E4B21BF048FF0123092C6B7405F164
:10BF400018057FF43BAF03B0BDE8F08F00266E61AB
:10BF50005DE70E4F3A6B0A433A6399E70B4A176C59
:10BF60003943116494E7094A576C394351648FE7A8
:10BF70006E614CE70B68FFDE9C200020A82F00209C
:10BF8000F82F0020001F002040420F000038024020
:10BF9000DC2E0020DC3D04082DE9F0418A4B82B004
:10BFA0009A7E0190002A40F0098193F83C20D98FB5
:10BFB000DFED866AB3F84080854D07EE102A07EE64
:10BFC000901AB8EEC76AB7EE007A598FA5F8948335
:10BFD000F0EE475A4FEA4804E6EE665A8C42B8BF84
:10BFE0000C46A6EE267AA6B20121F8EEE77AA5F86D
:10BFF000986367EEA67AC5EDE25A85EDE37AC5ED62
:10C00000E47A9976002A00F0D680DDED017A9FED82
:10C01000710AF8EE677AA4B280EE270A37F04CF87E
:10C020006400B0FBF4F4012CB8BF0124E4B2B0FB0F
:10C03000F4F39BB2074685F89C4300EE103ABBEE42
:10C04000ED0A85EDE80A37F037F8634BDFED636AF8
:10C05000B8FBF0F0A3FB0737FF0807EE907AF8EE85
:10C06000E77A022886EEA77AB8BF02205C4985F8F5
:10C07000A40300239FED5B1A9FED5B6ADFED5B1A63
:10C08000DFED5B5A9FED5B2ADFED5B2A9FED5B3AAC
:10C09000DFED5B3A9FED5B4A85EDEA7A07EE903A79
:10C0A000B8EEE77AF0EE467AE7EE017AFDEEE76A5F
:10C0B00016EE902A2032402A7AD8B4EEE17AF1EED8
:10C0C00010FA0CDDDFED506A9FED507AB0EE675A42
:10C0D000B4EEC75AF1EE10FA77EEE67AF6DCF4EE3B
:10C0E000E57AF1EE10FA0CD5DFED476A9FED487A5C
:10C0F000B0EE675AB4EEC75AF1EE10FA77EEA67AB0
:10C10000F6D4F4EEC67AF1EE10FA49DD74EE677AF1
:10C1100067EEA76AF0EE624AE6EE824AF0EE430A64
:10C12000E6EEA40AB7EE007A27EEE65A77EE677AD3
:10C13000B6EE007AE5EE207A67EE877A0133202B9F
:10C14000E1EC017AAAD107EE904AF8EEE77AF7EE31
:10C15000006A86EEA77A2F4B2F4AC5F8583A03F1AA
:10C160002801A833C5F8541A1020C5F8643A2021D4
:10C17000142385F8B548A5F8500AA5F8601A07EE0B
:10C18000906AF8EE677AA5F85C3A82ED007AC2ED23
:10C19000AC7AC2EDAD7AC2EDAE7A02B0BDE8F08104
:10C1A000F4EEE37AF1EE10FA48BF75EEE77AAFE706
:10C1B000F6EE007AC2E7194B1A7026E7044D95F89F
:10C1C0009C43B5F89863BEE7F82F00200AD7233CBC
:10C1D0000C00001000247449ABAAAAAADB0FC941C5
:10C1E000B80300103C8C4F3EDB0FC93F0100F84004
:10C1F000DB0F49C092E741B99730083C15A82ABE29
:10C20000DB0FC9BFDB0F4940DB0FC940E4CB164150
:10C21000E4CB16C19C3F0408C408001000000010C5
:10C220002DE9F041204E214F96F84B3087F84333EB
:10C23000483607F5517500244FF0050816F8010B34
:10C2400020BB28600134032C05F10405F6D197F8D2
:10C250004313D7F84403C94301F0010128F044FF18
:10C2600097F84313D7F8480381F00201C1F3400166
:10C2700028F03AFF97F84313D7F84C0381F00401F4
:10C28000BDE8F041C1F3800128F02EBF28F0C8FAC4
:10C29000013401212860E3B210B180F80680C37137
:10C2A000286828F04FFDCEE7F82F0020001F00205F
:10C2B0002DE9F0412A4C2B4DB4F85060A5F850639D
:10C2C00082B0EEB994F84C0028F0AAFA94F84D2008
:10C2D000C5F85403003A18BF012285F8522348B12B
:10C2E00094F84E102B22002914BF11210121C28085
:10C2F00028F028FD002002B0BDE8F04125F06CBE1A
:10C3000094F84C80002240462B2121F01DFB07466B
:10C31000404628F085FA00B3FFB12B22C5F86C0324
:10C32000C2803A7A022128F0B5F84FF000080E4A90
:10C33000B2FBF6F3C3F34F0000909BB23946CDF841
:10C34000048005F55670A4F852601BF03DFDD5F849
:10C350005833C3F8008085F8698302B0BDE8F081E6
:10C36000F82F0020001F002040420F002DE9F84F59
:10C37000244C94F8603084F8543004F157070026B8
:10C3800074345FFA86FB0BF101085FFA88F801212B
:10C3900017F8010F42460E448A4621F0D5FA4FF0B5
:10C3A0000009054640B3387804F80E9C04F80D9C4B
:10C3B00004F80FBC04F810AC44F8045C28F030FA20
:10C3C00018B180F806A080F80780297AFCF70AFCEB
:10C3D0000D4A0021284621F0C3F80C4B23600C4B7A
:10C3E000221D21462846C4E9013921F039F869792E
:10C3F00028684A461BF030FC082E04F11C04C0D10A
:10C40000BDE8F88FF82F002040420F00717D020830
:10C410005910020870B5294C294B94F88C01C4F8C6
:10C42000843100220221C4E95122C4F84C21C4F80D
:10C430008021A4F8882121F087FA00283DD0214BE3
:10C440000668054603F1C0015A7C12B15A6896424B
:10C4500027D018339942F7D1002394F88C0125672F
:10C4600084F8643028F0DCF920B10221C1802A7AF6
:10C4700028F010F82846144A002121F071F8134AD8
:10C48000134961670026111F2846124BA367E66710
:10C4900020F0E6FF697928683246BDE870401BF05D
:10C4A000DBBB304633F014FE328D0B4992B2531C85
:10C4B000B0FBF3F081F82C01CEE770BDF82F00201F
:10C4C00000FFFF00900B001040420F007030002072
:10C4D0008110020821120208880100202DE9F04F86
:10C4E000D04DD14CDFF8849307460E4693460FCDCE
:10C4F0002DED068B0FC40FCD0FC495E807008BB050
:10C5000099F89231CDF80CB084E80700CDE90676B1
