:020000040800F2
:10000000F0FF01200182050869E40008C9420408E4
:1000100079820508798205087982050800000000C8
:1000200000000000000000000000000065E400087F
:1000300061E40008000000005DE400082D430408AE
:100040007982050879820508798205087982050890
:1000500079820508798205085971040899720408A3
:100060005972040819720408D9710408417205080C
:10007000317205082172050811720508FD71050825
:10008000E9710508D57105087982050800000000AE
:10009000000000000000000000000000997104084A
:1000A000FDF803084DF90308EDF8030875F9030896
:1000B0003DF903082DF903081DF9030879820508A5
:1000C0007982050879820508798205087982050810
:1000D00079820508115704085556040800000000ED
:1000E0001971040879820508590E01080000000002
:1000F000000000000000000000000000C1710508C1
:1001000000000000798205080DF9030879820508CE
:1001100000000000000000000000000000000000DF
:10012000AD7105089971050885710508717105089B
:100130005D710508000000000000000000000000E4
:10014000000000000000000000000000C1FE0008E8
:10015000497105083571050821710508798205087E
:10016000798205087982050800000000000000007F
:10017000000000000000000000000000000000007F
:100180000000000079820508000000000000000067
:08019000798205087982050857
:08019800A07D0500010000003C
:1001A0000502010004000000FC57002080580020D8
:1001B0000000000078080008030101000A000000A8
:1001C0007C3200208458002000000000C18C000810
:1001D00013020100040000008C220020905800202F
:1001E000000000007C08000812200100110000003F
:1001F0006C5800209458002000000000800800087F
:100200000D1001002800000034510020A8580020E3
:1002100000000000B9EF0308FD0101001E0000000E
:10022000BC500020D0580020000000002FD503084B
:10023000FB01010001000000004C0020F0580020EC
:100240000000000059EC0408FC0101000900000056
:10025000CC4A0020F45800200000000069EC04089B
:10026000F701010006000000C04A002000590020EC
:100270000000000092080008F901010004000000DD
:10028000BC4A00200859002000000000B15E0408AC
:100290000A8001002C000000F04900200C590020C9
:1002A0000000000001050208160215003F000000D2
:1002B000E4330020385900200000000081ED0408DC
:1002C00034000100100000001C4900207859002073
:1002D00000000000B13C020811020100080000000B
:1002E000F448002088590020000000009808000809
:1002F0001212010004000000EC4800209059002078
:1003000000000000A00800081820010038000000CC
:10031000B4480020945900200000000011ED0408AA
:10032000204201000600000040480020CC59002077
:1003300000000000911A02080610010024000000CD
:10034000F4290020D459002000000000D5EB040857
:10035000000201000B000000883D0020F859002039
:1003600000000000B1E20408FA01010003000000EF
:100370000C370020045A002000000000B9E20408F5
:10038000FE010100140000008C570020085A0020D4
:1003900000000000E5E204081B1001000C00000052
:1003A0006C8300205097002000000000E944010801
:1003B00021020100F0000000A88100205C970020CD
:1003C000000000000D2B0108371001003000000074
:1003D000E88900204C98002000000000A4080008D4
:1003E0000E020100020000001C8600207C98002004
:1003F00000000000D40800081610010006000000EC
:10040000148600208098002000000000D608000814
:100410002F100100220000002C9700208898002057
:1004200000000000DC08000823220100100000008A
:1004300098850020AC98002000000000000900080A
:100440001E0001000900000088850020BC980020E3
:100450000000000010090008052001000C00000049
:1004600000860020C8980020000000001C09000839
:10047000FD0701007A0000006A800020D498002067
:100480000000000075150108F59101006C000000E6
:10049000348100205099002000000000D13901086B
:1004A000232001001000000042890020BC99002098
:1004B00000000000590502080B3001001A0000007E
:1004C00050800020FC99002000000000280900084E
:1004D0001F5001002400000084830020189A00208F
:1004E000000000004409000814000100050000009D
:1004F000F4AB002018AC00200000000068090008E0
:10050000012001000C000000D8A1002020AC002038
:10051000000000006E0900080C400600E400000026
:1005200008A000202CAC002000000000516103084E
:100530000E200300BC010000249E002010AD00200E
:1005400000000000A51A02081300010004000000CA
:10055000F8A80020CCAE0020000000007C090008B4
:100560000101010004000000709D0020D0AE0020B9
:100570000000000000000000000101000400000075
:10058000689D0020D4AE0020000000008009000813
:100590000201010003000000649D0020D8AE00208D
:1005A0000000000091610308220201001C0100000C
:1005B000E0A60020DCAE002000000000F1ED040801
:1005C000020201000300000054A20020F8AF002046
:1005D00000000000000000001B02010010000000ED
:1005E00020A20020FCAF00200000000061E204080F
:1005F0001A0001000E000000DCBC002040BD0020FD
:1006000000000000840900081500100070000000C0
:100610004CBB002050BD0020000000000000000086
:100620002A000800600000005CBA0020C0BD002065
:1006300000000000691A02082C00040010000000ED
:1006400030BE002020BE002000000000411802083B
:100650002B0012002400000064BE002040BE0020D9
:10066000000000001518020829201400780000007E
:10067000FCB7002088BE0020000000000000000041
:10068000F62101000C00000064B7002000BF00202C
:1006900000000000940900081C0202001C00000079
:1006A0007CB7002050BF00200000000091E8040843
:1006B00003000100010000009CC00020D4C60020FF
:1006C0000000000000000000031201003D000000D7
:1006D00090C60020D8C6002000000000A009000835
:1006E00025201E002C010000F8C3002018C70020A0
:1006F00000000000000000001010010002000000D7
:1007000088C3002044C8002000000000DE09000863
:10071000F82101000600000088C0002048C8002021
:1007200000000000E00900081900010005000000B9
:100730004CC0002050C8002000000000E60900085E
:10074000020001000C000000C8CB0020D8CB002024
:10075000000000000000000029020100400000002D
:100760005CCA0020E4CB002000000000EC09000877
:100770000A02010014000000DCCA002044CC002062
:1007800000000000696503081F0208001000000057
:10079000D0D40020E4D5002000000000C5E2040809
:1007A0001A0201003C000000E4CC0020F4D5002037
:1007B0000000000085EC0408381001000100000072
:1007C00064CC002030D60020000000002C0A000875
:1007D000040008008000000010D7002090D70020FF
:1007E00000000000000000002802040004000000D7
:1007F000B8D6002010D800200000000081E20408D4
:100800002702040004000000B4D6002014D8002001
:100810000000000075E20408100201000100000061
:1008200018F0002014F00020000000002E0A00083C
:100830001D02020006000000DCDF00201CF000208A
:100840000000000000000000081203000F0000007C
:10085000E4DF002024FB00200000000085E2040803
:10086000270001000400000034DA002034FB0020DF
:0808700000000000300A00083E
:100878000000000000000100000000010001054622
:100888004C4258000008000200002201000000004D
:100898000000000001010101FFFFFFFF20003200FE
:1008A800C800D00796001400320028004C04400607
:1008B8000005500014000F0008006400010000004B
:1008C80005000A000000F40196000F000000C409AA
:1008D80000001900000000000000000000000000F7
:1008E8000000000000000000000000000000000000
:1008F80000000000000000000000000000000000F0
:1009080000000000FF0000000005010000000000DA
:1009180000000000020100000000000000000000CC
:10092800AE014A015E012C016400020000000100D2
:100938000A019A01001E0A000002000000000000DF
:100948000001000100050000010203000000000092
:1009580000000000000000000000000000801700F8
:10096800030000230000E8036400040A00011400E7
:100978001E00000008004030900100007E05EA05D6
:10098800B4053200E803D0070000000000000000B2
:10099800010000000202000000000000000000004A
:1009A800000000000000000000000000000000003F
:1009B800000000000000000000000000000000002F
:1009C800000000000000000000000000000000001F
:1009D80000000000010000050201F40114000000FD
:1009E80028010000000000000000000000000000D6
:1009F80000000000000000000000000000000000EF
:100A080000000000000000000000000000000000DE
:100A180000000000000000000000000000000000CE
:0C0A28000000000000000000200300009F
:100A34000403090412010002EF0201408304563248
:100A44000002010203010000120100020202004040
:100A54008304405700020102030100000902200040
:100A6400010104C03209040000020806500507050C
:100A740081024000000705010240000009026400F1
:100A8400030100C032090400000103000000092131
:100A9400110100012236000705830309000A080B2F
:100AA4000102020201000904010001020201000521
:100AB4002400100105240100020424020205240676
:100AC4000102070582030800FF09040200020A006C
:100AD40000000705010240000007058102400000F4
:100AE40009024300020100C03209040000010202AD
:100AF4000100052400100105240100010424020260
:100B04000524060001070582030800FF090401000B
:100B1400020A0000000705010240000007058102E7
:100B240040000000FF000000140000FF000000006F
:100B340000000000AA550701000001AA55050100A4
:100B4400002D202D2D202D2D2D2D202D2D2D2D0052
:100B54000000000000000000000000000000000091
:100B640008000000D4AE0508FF1FFF1F00000401A9
:100B74000000000000000002100000000700000058
:100B84007D000000BD810008B9810008B58100081E
:100B9400A9810008A5810008B1810008AD81000881
:100BA400010100000000803F05010905A101A10029
:100BB4000501093009310932093309350934093687
:100BC40009371581257F75089508810205091901E2
:100BD400290815002501950875018102C0C000008F
:100BE40009022200010100E03209040000010301AE
:100BF40002000921110100012236000705830309BF
:100C0400000A0000000000000102030401020304C2
:100C1400060708095DEF00085DEE0008ADF2000864
:100C2400B9820008DD890008C9820008E58200084D
:100C3400918200088182000800000000000000008A
:100C4400AA550B010000AA5505010000AA55090286
:100C5400000000AA5503009F01000000C01200001C
:100C640001000000000001007EFF0000FFFFFFFF05
:100C7400FF000000FFFFFFFFF499002000000000C8
:100C8400CC9900200000000028580608A457060844
:100C94000000000019620308A0860100040000009F
:100CA4000000000000000000000000000000000040
:100CB4000000000000000000000000000000000030
:100CC40000000000000000002858060830580608FC
:100CD40000000000C1D30308E80300000400000082
:100CE4000000000000000000000000000000000000
:100CF40000000000000000000000000000000000F0
:100D04000000000000000000385806080000000041
:100D1400000000001D6303087D000000FF000000C8
:100D240000000000000000000000000000000000BF
:100D340000000000000000000000000000000000AF
:100D4400000000000000000024D406080000000099
:100D540000000000D16A03087D000000FF000000CD
:100D6400000000000000000000000000000000007F
:100D7400000000000000000000000000000000006F
:100D84000000000000000000A0640608000000004D
:100D940000000000E9DA02087D000000FF00000006
:100DA400000000000000000000000000000000003F
:100DB400000000000000000000000000000000002F
:100DC4000000000000000000405806080000000079
:100DD4000000000045470408E80300000300000089
:100DE40000000000000000000000000000000000FF
:100DF40000000000000000000000000000000000EF
:100E04000000000000000000445806080000000034
:100E1400000000004DBF020810270000030000007E
:100E240000000000000000000000000000000000BE
:100E340000000000000000000000000000000000AE
:100E440000000000000000002CD006080000000094
:100E540011140208593104085F76000005000000EF
:100E6400000000000000000000000000000000007E
:100E7400000000000000000000000000000000006E
:100E84000000000000000000C8D3060800000000B5
:100E940000000000F55A04081027000001000000BB
:100EA400000000000000000000000000000000003E
:100EB400000000000000000000000000000000002E
:100EC4000000000000000000505806080000000068
:100ED40000000000C5D30308E8030000050000007B
:100EE40000000000000000000000000000000000FE
:100EF40000000000000000000000000000000000EE
:100F040000000000000000005C580608000000001B
:100F140000000000BD670308204E0000030000002D
:100F240000000000000000000000000000000000BD
:100F340000000000000000000000000000000000AD
:100F440000000000000000006C58060800000000CB
:100F540000000000A5650308204E00000300000007
:100F6400000000000000000000000000000000007D
:100F7400000000000000000000000000000000006D
:100F840000000000000000007C580608000000007B
:100F940000000000E14C0408400D030003000000C1
:100FA400000000000000000000000000000000003D
:100FB400000000000000000000000000000000002D
:100FC40000000000000000008C580608000000002B
:100FD40000000000994404081027000001000000EC
:100FE40000000000000000000000000000000000FD
:100FF40000000000000000000000000000000000ED
:101004000000000000000000D057060800000000A7
:1010140000000000BDB90108102700000300000013
:1010240000000000000000000000000000000000BC
:1010340000000000000000000000000000000000AC
:1010440000000000000000009458060800000000A2
:1010540000000000A1D20308A86100000100000004
:10106400000000000000000000000000000000007C
:10107400000000000000000000000000000000006C
:101084000000000000000000A05806080000000056
:1010940000000000F1020408A00F0000010000009D
:1010A400000000000000000000000000000000003C
:1010B400000000000000000000000000000000002C
:1010C4000000000000000000AC580608000000000A
:1010D40000000000817801081027000001000000D2
:1010E40000000000000000000000000000000000FC
:1010F40000000000000000000000000000000000EC
:101104000000000000000000B858060800000000BD
:1011140000000000A17001081A4100000100000055
:1011240000000000000000000000000000000000BB
:1011340000000000000000000000000000000000AB
:101144000000000000000000BC5806080000000079
:1011540000000000F58C00081027000001000000CA
:10116400000000000000000000000000000000007B
:10117400000000000000000000000000000000006B
:101184000000000000000000B8570608000000003E
:1011940000000000BDE5010850C30000010000008C
:1011A400000000000000000000000000000000003B
:1011B400000000000000000000000000000000002B
:1011C4000000000000000000C858060800000000ED
:1011D4000000000025980008400D030000000000F6
:1011E40000000000000000000000000000000000FB
:1011F40000000000000000000000000000000000EB
:101204000000000000000000D058060800000000A4
:10121400000000005DD20308400D03000000000040
:1012240000000000000000000000000000000000BA
:1012340000000000000000000000000000000000AA
:101244000000000000000000D8580608000000005C
:101254000000000041C8010850C300000300000062
:10126400000000000000000000000000000000007A
:10127400000000000000000000000000000000006A
:101284000000000000000000E45806080000000010
:1012940000000000D595030840420F000000000044
:1012A400000000000000000000000000000000003A
:1012B400000000000000000000000000000000002A
:1012C4000000000000000000F058060800000000C4
:1012D4000000000059D5030850C3000000000000BE
:1012E40000000000000000000000000000000000FA
:1012F40000000000000000000000000000000000EA
:10130400000000000000000001FF010001000000D7
:1013140061880108000000000000000074B50508A1
:1013240000000000000000000000000008CE0508D6
:10133400000000000000000000000000C0CE05080E
:101344000000000000000000000000006CCE050852
:101354000000000000000000FDA00108F7A200202A
:1013640001010000C9D301080000000000000000D2
:1013740094CF050829D701080000000000000000F0
:101384004CCF05082D202D2D202D2D2D2D202D2D3C
:101394002D0000000000000000000000000000001C
:1013A40000000000FFFFFFFFF9A801080000000093
:1013B4000000000098CD050801000000FA000000BC
:1013C40001000000010000004CA100200000F40115
:1013D400010000004AA100200000F4010100000007
:1013E40048A100200000F4010100000046A10020F3
:1013F4000000F4010100000044A100200000F401F9
:101404000100000042A100200000F40101000000DE
:1014140040A100200000F401010000005D910108DA
:101424002191010800000000B4B7050830A1002094
:10143400053201003EA100206400F4010100000017
:101444003CA100206400C409010000002EA100207A
:10145400E803D007010000002CA10020E803D00716
:10146400010000002AA10020E803D00701000000C9
:1014740028A100201E00B80B0100000036A10020A6
:1014840005000F000100000038A1002003000A003D
:101494000100000026A100201E00F401010000004C
:1014A4003AA100200200000040B8050824A1002051
:1014B400140064000100000032A100203200E8039F
:1014C4000100000022A100200000C800010000006B
:1014D40005A0002000C8010004A000200050010065
:1014E40003A00020005A010001A000200200000017
:1014F4004CB80508605B0608685B06082A83002070
:101504000100C40900000000288300200100C40970
:1015140000000000268300200100C4090000000030
:10152400248300200100C40900000000208300205F
:101534000100C40900000000228300200100C40946
:10154400000000001E8300200100C4090000000008
:101554001C8300200100C409000000008B9D0020B2
:1015640000C801008A9D002000C80100889D002059
:101574000000FFFF0A000000869D00200100C80053
:1015840001000000849D002032003075320000000C
:10159400829D002005820500809D002005002C010D
:1015A400050000007F9D0020055A05007C9D002059
:1015B40000FF01007E9D0020020000005C0C002062
:1015C4007A9D0020030000004CB005087B9D00209C
:1015D40000FF01007D9D0020020000005C0C002043
:1015E400799D0020030000004CB00508DC9C00201D
:1015F400FF7F0100D89C002000000000FFFFFFFFD8
:1016040001000000D49C002000000000FFFFFFFF49
:1016140001000000D09C002000000000FFFFFFFF3D
:1016240001000000B1900108419001080000000091
:1016340058B80508E8A10020EE02CA08010000001D
:10164400E6A1002000C8010064000000E5A100201C
:1016540000C8010064000000E4A1002002000000B2
:1016640064B90508769D00200000803E0500000056
:10167400749D002080C1803E050000006E9D002006
:101684000083007D050000006C9D002080C1803E29
:1016940005000000679D002000FF0100609D002000
:1016A4006400F401010000005E9D00206400F40168
:1016B400010000005C9D00206400F40101000000B2
:1016C4005A9D00200400000070B90508599D0020AF
:1016D4000200000084B90508159E00200D000000DA
:1016E40090B90508129E002000640100109E00209D
:1016F400320010270A0000000E9E00200D0000009A
:1017040090B905080D9E00200D00000090B9050851
:101714000C9E002002000000C8B90508000000006B
:101724000000000000000000D4B90508EDA100206D
:10173400410000000CBA0508EBA1002003000000E2
:1017440014BB0508ECA100200400000024BB05081C
:10175400179E00200300000038BB0508169E0020D9
:101764000300000038BB0508F29F0020000A0100B6
:10177400F09F00200000E80301000000EE9F00201D
:101784000000E80301000000EC9F0020000A0100B3
:10179400EA9F00200000E80301000000E89F002009
:1017A4000000E80301000000E09F00200000E803BF
:1017B40001000000E69F00200000E8030100000093
:1017C400E49F00200000E80301000000E29F0020E5
:1017D4000014010000A000200200000048BB05081E
:1017E400FE9F00200000F40101000000FC9F002087
:1017F4000000F40101000000FA9F00200000F40141
:1018040001000000F89F00200000F4010100000026
:10181400F69F00200000A00F01000000F49F0020AC
:101824000000A00F0100000012A1002000640100CC
:101834000A00000011A10020006401000A00000059
:10184400FFA0002019640100FEA000200200000097
:1018540054BB0508FCA00020E803D0070A000000E0
:10186400FAA00020006401000A000000EFA000209C
:1018740000640100EEA0002000640100F6A0002036
:10188400006401000A000000F5A0002000640100CB
:101894000A000000F4A00020006401000A00000017
:1018A400F9A0002000FF01000A000000F8A00020B9
:1018B40000FF01000A000000F7A0002000FF010063
:1018C4000A000000F3A0002001FF01000A0000004C
:1018D400F2A0002001FF01000A000000F1A0002096
:1018E40001FF01000A000000209E00200000F40116
:1018F400010000001E9E00200000A00F0100000057
:101904001C9E00200000A00F010000001A9E002071
:101914000000A00F01000000189E00200000A00F8E
:101924000100000046A300200096010040A300200F
:1019340000C801003FA30020006401003EA3002072
:10194400006401003DA30020006401003CA30020CA
:10195400006401003BA30020FF0801003AA300201B
:1019640001640100B98E01087D8E010800000000A9
:1019740060BB050843A300200132010042A30020FC
:1019840001000000D0BB050841A3002004000000B2
:10199400D8BB050839A300200096010038A3002015
:1019A4000064010036A300201400E80301000000D5
:1019B40034A30020000030750A00000033A3002087
:1019C40000C8010032A3002000C8010031A3002098
:1019D40000C8010030A300200032010045A300200C
:1019E400004B010044A3002004000000ECBB0508E8
:1019F4002FA30020006401000A0000001DA10020A4
:101A040032C801000A0000001CA1002001000000EF
:101A140000BC05081FA1002032C801000A00000014
:101A24001EA100200100000000BC05081BA100202D
:101A340032C801000A0000001AA1002032C80100C7
:101A44000A00000019A1002032C801000A000000A9
:101A540018A1002032C801000A00000017A10020CC
:101A640032C801000A00000016A1002032C801009B
:101A74000A00000015A1002032C801000A0000007D
:101A840014A100200200000008BC050854A3002093
:101A94000000D007010000004FA3002000C801008F
:101AA4004EA3002000C801004DA3002000C801007F
:101AB40052A300200000D007010000004CA3002026
:101AC40000C801004BA3002000C801004AA3002065
:101AD40000C8010050A300200000D007010000004E
:101AE40049A3002000C8010048A3002000C8010049
:101AF40047A3002000C80100618C0108498C01083B
:101B04000000000014BC0508099E0020005A0100D2
:101B1400089E002000C80100069E0020E803D007AC
:101B24000100000000000000000000003DA10108C9
:101B3400B0BC0508F6A2002003000000F8BC0508AC
:101B4400858B0108398B01080000000008BD0508D9
:101B5400F98A0108B18A010800000000A4BD050843
:101B6400D18B0108DDA801080000000024BE05088F
:101B7400789D00200103010025880108FD870108E4
:101B84000000000098C105081D920108F1910108A8
:101B94000000000018C20508418A0108E98901080B
:101BA4000000000088C20508718C010875DC01087A
:101BB4000000000040C3050811AD01084992010866
:101BC40000000000E8C30508C18C01080000000003
:101BD4000000000084C40508A58D0108458D010896
:101BE40000000000E8C40508418E0108058E0108C4
:101BF40000000000A0C505086D030208F58E010869
:101C0400000000002CC6050821A1002001060100E7
:101C1400098D0108D58C01080000000044C705089F
:101C2400910202087DAA010800000000B4C705085B
:101C34009D8F0108258F01080000000020C90508B8
:101C4400B103020855AB0108000000001CCA0508D6
:101C540020A1002001030100198C0108E98B01086F
:101C640000000000F0CA05087DA80108000000007B
:101C74000000000054CB0508998A0108C5A8010892
:101C840000000000F0CB0508000000000000000088
:101C94000000000060CC0508199001084DAC010853
:101CA40000000000E0CC0508000000000000000077
:101CB4000000000008CF0508D43200209CFF2C014E
:101CC4000000000090A80020E0150C1700000000A0
:101CD40092A800200200000040CF0508549D002077
:101CE40088136F1701000000569D002088136F179A
:101CF400000000006E320020000000000000000020
:101D04006C32002000000000000000006A32002055
:101D14000000000000000000683200200000000005
:101D240000000000663200200000000000000000F7
:101D3400643200200000000000000000C403002002
:101D44000000000000000000DD9C002003000000F3
:101D540030D005084C9D002088136F170100000047
:101D6400F257002088136F1700000000298901082A
:101D7400000000000000000040D00508C1A20020BF
:101D84000100000094D00508F45700200100000071
:101D9400A0D00508EA57002002000000A8D00508DA
:101DA400000000000000000000000000B4D005089E
:101DB40011890108000000000000000050D105084E
:101DC400000000000000000000000000A4D105088D
:101DD40000000000000000000000000014D205080C
:101DE400589D0020020000004CD20508EE57002048
:101DF400E0150C1700000000C4B1002018B2002048
:101E040001D601FF010100000001010100000000F2
:101E14001C6A00200000FA430000FA430000803FDF
:101E24000000803F000000000000000000000000EF
:101E3400000000000000000000000000000000009E
:101E440000000000000000000000803F00000000CF
:101E540000000000000000000000803F00000000BF
:101E640000000000000000000000803F00000000AF
:101E7400000000000000000001000000FFFFFFFF61
:101E8400FFFFFFFFFF000000A94604080000000058
:101E940000000000000000000000000034CC00201E
:101EA400080000000000000024CC0020080000000E
:101EB40020000000C18900082D8800088DF2000868
:101EC400000000007D82000849EE000879870008C0
:101ED400BDED000800000000000000003982000889
:101EE400CD810008C18100080DE5000829E500083E
:101EF400F1E40008D5E40008B9E400087989000891
:101F040009880008D9F10008000000005182000887
:101F1400C1ED00084D87000819ED0008000000001D
:101F2400000000004582000801000000A00F00002E
:101F3400B80B00000102FFFF010000000060024036
:101F4400106002400000000000000000000B0000D0
:101F540000000000000000000000000000600240DB
:101F6400286002400100000000000000060C000090
:101F740000000000000000000000000000600240BB
:101F8400406002400200000000000000100D00004C
:101F9400000000000000000000000000006002409B
:101FA400586002400300000000000000160E00000C
:101FB400000000000000000000000000006002407B
:101FC400706002400400000000000000200F0000C8
:101FD400000000000000000000000000006002405B
:101FE4008860024005000000000000002610000088
:101FF400000000000000000000000000006002403B
:10200400A060024006000000000000003011000043
:10201400000000000000000000000000006002401A
:10202400B86002400700000000000000362F0000E6
:1020340000000000000000000000000000640240F6
:10204400106402400000000000000000003800009E
:1020540000000000000000000000000000640240D6
:10206400286402400100000000000000063900005E
:1020740000000000000000000000000000640240B6
:10208400406402400200000000000000103A00001A
:102094000000000000000000000000000064024096
:1020A400586402400300000000000000163B0000DA
:1020B4000000000000000000000000000064024076
:1020C400706402400400000000000000203C000096
:1020D4000000000000000000000000000064024056
:1020E400886402400500000000000000264400004F
:1020F4000000000000000000000000000064024036
:10210400A06402400600000000000000304500000A
:102114000000000000000000000000000064024015
:10212400B8640240070000000000000036460000CA
:10213400000000000000000000000000FFFF00009D
:1021440020D0060800000802050303000000000078
:1021540028D006080100080205040300000000005E
:10216400287C06080200FE010110030000000000A4
:10217400E45E0608030014020003000000000000EF
:1021840030D0060804001F0202000800000000000E
:1021940038D0060805001F020201080000000000F4
:1021A400FFFFFFFF1A030000000000000000000012
:1021B400000000000000000000000000000000001B
:1021C40004030904120100020000004083042057A4
:1021D400000201020301000039EE040839E3040897
:1021E40035E3040831E30408F9EE04082DE3040898
:1021F40029E30408CC2606081D890008E98700089D
:10220400F5EF00080000000000000000F1EC0008F9
:102214000DEC0008000000000000000000000000B9
:10222400F5810008D1E30408C5E3040819F404089F
:1022340035F404087DE30408FDF30408E1F304081D
:102244001F0000001C0000001F0000001E00000012
:102254001F0000001E0000001F0000001F000000FF
:102264001E0000001F0000001E0000001F000000F0
:102274000068214C010000006C30060800000000DA
:10228400000000000102030406070809FF00000023
:10229400FC19002000000000000000000000000005
:1022A400000000000000000000000000000000002A
:1022B400000000000000000000000000000000001A
:1022C400000000000000000000000000000000000A
:1022D40000000000000000000000000000000000FA
:1022E40000000000000000000000000000000000EA
:0422F40000000000E6
:082800000000000000000000D0
:10800000074AD2E9003199421FBFD1180133097ADA
:1080100001701DBFC3F30A030120136000207047E5
:10802000601A0020064AD2F80838D2F80C28934289
:1080300094BF4FF400600020013B9B1A1844704726
:10804000601A0020012380F85130704707B501A85D
:10805000FFF7D6FF0028FAD09DF8040003B05DF8C2
:1080600004FB044BD3E90003984288BF03F5006387
:10807000181A7047601A002001207047024BC3F89D
:108080001028C3F814187047601A0020024BC3F878
:108090001828C3F81C187047601A002070477047F2
:1080A00030B4124DD5E900239A4286BF03F500642F
:1080B000A21A9A1A0A44B2F5006F11D899B1014474
:1080C0004A1E013810F8014FE918824203F10103FA
:1080D0000C72C3F30A03F5D16B60002030BC70470B
:1080E000022030BC70470846F8E700BF601A002045
:1080F000212838B50C4605D022282ED0202813D0B0
:10810000002038BD0029FBD0072AF9D11A4BD3F83B
:10811000200893F8241893F8252893F8263820602F
:1081200021716271A371EBE70029E9D0072AE7D139
:10813000114DD5F814381BB10968D5F810089847C7
:10814000206821796279A379C5F8200885F8241878
:1081500085F8252885F82638D2E70029D0D0022ACC
:10816000CED1054AD2F81C38002BC9D00988D2F8E4
:1081700018089847C4E700BF601A0020024B00208F
:10818000C3F82808704700BF601A0020044B002085
:108190000522C3F82828C3F81C08C3F81408704740
:1081A000601A0020704700BF704700BF704700BFD3
:1081B000704700BF704700BF704700BF704700BFE7
:1081C000042301480B8070479801002010B4074A2F
:1081D000074B92F82C08122403F114020C8001289A
:1081E0000CBF184610465DF8044B7047601A00201B
:1081F0009C010020202301480B807047C40100200F
:1082000010B40C4A92F8303802EBC3010133DBB2F0
:10821000042B4FF0050408BF00234FF4045081F8ED
:10822000344882F83038C1F838085DF8044B4FF014
:10823000FF307047601A0020642301480B807047AC
:10824000E4010020432301480B80704748020020CE
:1082500010B5084CD4F8F400FF2809D00649D1F82D
:10826000542801F65801FFF743FFFF23C4F8F43008
:10827000002010BD98010020601A0020E8E700BF30
:1082800008B5D0F8E4355B6A9847002008BD00BF08
:1082900008B5D0F8E4351B6A9847002008BD00BF38
:1082A000D0F8E43510B504461B689847D4F8E83593
:1082B0009B689847002010BD08B5D0F8E435DB690D
:1082C00003B19847002008BD08B5042290F81211A8
:1082D000D0F8E83580F8131180F81221DB68984750
:1082E000002008BD10B5D0F8E83504461B69984752
:1082F000032384F81231002010BD00BF82B0002398
:10830000016801930B6901930E4B03E00A69019226
:10831000013B13D0019A002AF8DA019A094B42F086
:1083200001020192019A0A610A69019203E00A6955
:108330000192013B02D0019AD207F8D4002002B08A
:10834000704700BF400D0300436D064A1A61C278B2
:10835000012A06D100F2CC5058614FF080221968F2
:108360001A6070471800086070B44B78012B26D053
:108370000B784A6900EB83035C6D25682369D2B1F1
:108380008A684A6102F07F0223F4002323F07F030E
:1083900042F4002213432361C378012B04BF0B690D
:1083A0006361C5F3076363F07B0363F31F652560B7
:1083B000002070BC70478A6802F07F02E4E782699F
:1083C0004C691568136944B38E68B4428CBF06F0DB
:1083D0007F0404F07F0423F4002323F07F0344F49C
:1083E000002443EA040388BF4E611361C378012B64
:1083F0001DD0C5F3076464F07B0464F31F6515604A
:10840000002BD5D14B69002BD2D002690878516B73
:10841000012383400B435363CAE723F4002323F073
:108420007F0343F400231361C378012BE1D10B7860
:108430000C6900EB8300C5F30763816963F07B037C
:1084400063F31F654C610020156070BC704700BF6E
:108450002DE9F0434B78012B30D00B784C6900EBC1
:1084600083035E6D356837691CB38B681C44013C1F
:10847000B4FBF3F4C4F3090203FB02F3C3F31203E6
:108480004B61144643EAC44363F31C073761C37866
:10849000012B04BF0B697361CB78012B44D0C5F36A
:1084A000076363F07B0363F31F6535600020BDE85D
:1084B000F0838A680124C2F31203E3E791F8008095
:1084C0004E6900EB880EDEF818C0DCF80050DCF8CE
:1084D000107076B3D1F80890384A06EB0904013CD5
:1084E000B4FBF9F402EAC444C6F312022243CC7886
:1084F00007F060473A43012C174649D0CCF81020CA
:10850000C278012A55D00269516B03FA08F30B4374
:108510005363C5F3076363F07B0363F31F65CCF814
:1085200000500020BDE8F0834B7973B345F000554F
:10853000B5E707F0604747F40027CC78CCF8107017
:10854000C378012B2FD0012CE3D102699268D205A8
:1085500054BF45F0005545F08055C5F3076262F001
:108560007B0262F31F65CCF80050002B9ED1B0B2A5
:1085700003308010DEF8D04098D0CA6852F8041B4F
:10858000216001339842F9D190E745F0805586E7A4
:1085900064F35E77CCF81070C378012BD5D10A69EB
:1085A000CCF81420D1E70A69CCF81420012CB0D102
:1085B000CBE70B69CCF81430ABE700BF0000F81F25
:1085C00082B000230193019A094B42F010020192FC
:1085D000C168019A0A610A69019203E00A6901927D
:1085E000013B02D0019AD206F8D4002002B07047B5
:1085F000400D030082B000230193019A0B4B42F01F
:1086000020020192019A61F38A120192C168019AD3
:108610000A610A69019203E00A690192013B02D0F2
:10862000019A9206F8D4002002B07047400D030072
:108630000B0617D401EB810300EBC30310B400EB6E
:1086400081000124002283F8764383F8741383F8B1
:108650007523426D5DF8044B136843F4001300204A
:108660001360704701F07F0101EB810300EBC3034E
:10867000012200EB810083F81C1183F81E2183F88E
:108680001D2182691368002B01DA43F0804343F413
:10869000001313600020704710B580210446FFF7D7
:1086A000C7FF20460021FFF7C3FF2046BDE810406A
:1086B0004AE600BF38B501EB810400EBC4040D4667
:1086C000002184F87453C4F88C1384F87513C4F82B
:1086D0008833C4F88023C3782821012B01FB0501CE
:1086E00008BFEDB201F55D7108BFC4F884231DB960
:1086F000FFF73AFE002038BDFFF7AAFE002038BD84
:1087000070B5104BD3F8682893F8805804461AB116
:1087100093F86C382B430DD081212046FFF788FF5A
:10872000022D00D070BD2046074ABDE870401F23CF
:108730000121BFE70121FFF77BFF20468121BDE832
:10874000704075E7601A0020C022002010B501EBD0
:108750008101084A00EBC1010446B1F88C131046B0
:10876000FFF79EFC034A204640230121FFF7A2FFAA
:10877000002010BDE4220020E8E700BF0B0630B463
:108780001CD401EB810200EBC202002300EB810547
:1087900082F8741382F8753301241A4604FA01F141
:1087A0006D6D61F31F4201696FF3CF332B60CB69AD
:1087B00023EA0203002030BCCB61704701F07F0147
:1087C00001EB810400EBC404012200EB81050023CE
:1087D00084F81C1184F81D2102FA01F11A46AD69D2
:1087E00061F30F02DFE700BF10B581210446FFF7F8
:1087F000C5FF20460121FFF7C1FF024B002083F88F
:10880000C40810BD601A002010B581210446FFF78E
:10881000B5FF20460121FFF7B1FF82212046FFF777
:10882000ADFFFFF7ABFC002010BD00BF38B50D4613
:1088300004468321FFF7A2FF29462046FFF7E4FF05
:10884000002038BDF0B416460A063AD401EB810583
:1088500000EBC5052824002204FB0104022B85F847
:108860007413C5F87C6385F8773385F8752304F5B0
:108870005D7448D0154600EB8107012202FA01F130
:108880007F6D61F31F45D7F800C01CF4004F11D174
:10889000E488204946F0805242F4004242EA834292
:1088A00004F00F041C4B42EA845211400CEA03030B
:1088B000194339600269D3692B430020F0BCD361AE
:1088C000704701F07F0101EB810500EBC50528240D
:1088D000012204FB0104022B85F81C11C5F8246158
:1088E00085F81F31A5F8221185F81D2104F58E7435
:1088F0000CD0002500EB8107012202FA01F1BF69CB
:1089000061F30F05BFE722711546B4E70025257115
:10891000F0E700BFFF87CC13007833EC70B5044656
:10892000144EFFF761FF2046022340228121FFF70A
:1089300089FF4022012120460223FFF783FFD6F85A
:10894000C83800251B6886F8C458284686F8805821
:1089500098472046FFF734FE20460121FFF74AFEE4
:10896000204606F506621F230121FFF7A3FE2846D5
:1089700070BD00BF601A002010B5022304464022DB
:108980008121FFF75FFF2046022340220121FFF7EC
:1089900059FF8221204603230822FFF753FF064B8D
:1089A00002229A83FFF7F2FB044A2046402301216A
:1089B000FFF780FE002010BD98010020E422002077
:1089C00038B509220D46044603238321FFF73AFFF9
:1089D00029462046FFF7D0FF002038BD002310B500
:1089E000194604464022FFF72DFF80212046002330
:1089F0004022FFF727FFD4F8E835A078012284F859
:108A000012215B689847002010BD00BF0E4BDA684A
:108A1000D20310D4DA68D1060FD4DA68D20510D4A4
:108A2000DA6812F0E00F0AD1DB6813F0020F14BF0E
:108A30000820092070470120704706207047072052
:108A400070470220704700BF003C02400020704782
:108A5000134AD2F8CC08C8B1D2F8D038B3B18842A2
:108A600012D88B4234BF00230123DBB25BB1D2F8B2
:108A7000D838C2F8D41899421FBF0A4BC2F8D81888
:108A8000142083F8F80070470023EEE7A1F59C530B
:108A9000083BB3F57A7F2CBF00230123E6E700BF34
:108AA000601A002098010020064B93F8DD2883F817
:108AB000DC188A421FBF044A83F8DD18142082F8AC
:108AC000F8007047601A002098010020704730B10C
:108AD000034B93F8DE08012894BF00200120704763
:108AE000601A002008B5FFF7F2FF60B1064A92F85D
:108AF000DF3892F8DC285B0003F00203002A18BF7D
:108B000043F001030B6008BD601A002008B5FFF7B1
:108B1000DEFF18B1024BD3F8E0380B8008BD00BF70
:108B2000601A002070B5FFF7D2FF60B10B4AB2F8AF
:108B3000E4583DB1D2F8E8680023B3421C4603DB99
:108B4000002000E00D7070BD02EB44040133B4F866
:108B5000EC48AC42DBB2F0D10B70F4E7601A0020B5
:108B600008B5FFF7B4FF10B100230B70137008BDF8
:108B70000420704728B1034B93F9FA00003818BF5E
:108B8000012070479801002008B5FFF7F3FF50B1AE
:108B9000054B93F9FA20012AC3BF93F8FD30C3F3C4
:108BA00040030B60002008BD9801002008B5FFF7C6
:108BB000E1FF18B1024B93F8FC300B7008BD00BF09
:108BC0009801002070B5FFF7D5FF38B10E4C94F82E
:108BD000FD30DB0703D500230B70137070BD0B4D08
:108BE00094F9FB3095F8FC6893FBF6F301330B70B6
:108BF00094F9FB4095F8FC1894FBF1F301FB134347
:108C000001331370EAE700BF98010020601A0020CA
:108C10000320704770B50B4A92F8003906255E1C98
:108C2000B6FBF5F405FB146492F80159AC421FBF82
:108C300002EBC30382F80049C3F80409C3F808191A
:108C400070BD00BF601A0020002230B504461046F7
:108C5000914200DC30BDA35C0825584010F0800F25
:108C60004FEA400318BF83F0D503013DD8B2F5D1D8
:108C70000132EDE710B5E9B10F4BD3F83409814269
:108C800018DCBAB1D3F8FC389A4213DC0B4C013A29
:108C9000013903FB012184F8081104F582700521D4
:108CA000FFF7D2FF062184F8090104F58270BDE8C0
:108CB0001040AFE710BD00BF601A002098010020EF
:108CC0000023038083708380C3800372704700BFDA
:108CD000074A92F8383992F83C190133DBB29942CD
:108CE00082F8383904BF002382F83839704700BF52
:108CF000601A0020F8B5794CD4F8883A83B1D4F8DA
:108D00008C3A93F82E305BB1754B94F8902AA3FB04
:108D10000013012A4FEA931330D0022A08D002B17F
:108D2000F8BD704B9842FBD9012384F8903AF8BD06
:108D3000D4F8942A64329A423ED894F8383904EB35
:108D4000031393F8142FFF2A06D06749013201203C
:108D500083F8142F81F80A01FFF7BAFF94F8083F4F
:108D60000122092B84F8902ADAD1B4F8BA3F1344CF
:108D70009BB2A4F8BA3FA4F80E3FF8BD94F8381996
:108D8000C4F8943A8C2303FB014394F8080F83F84A
:108D9000AA2A002604F69C250A220223092884F820
:108DA000A66AC4F8985A84F8A72A84F8903AB7D1EA
:108DB0000131A4F80C1FF8BD94F8A62A94F8A73A3C
:108DC0009A42ADD104F69B2004F6A425002310F8A6
:108DD000012F082153405A0013F0800F08BF5B0099
:108DE00082F0070214BFD3B2DBB20139F3D185425E
:108DF000EDD194F8A52A9A4239D194F83869B4F89B
:108E00009F5A94F8A37AB4F8A10A94F8A43A94F873
:108E10009DCA04EB06126DBA40BA43EA0723ADB20D
:108E200094F89E7A82F8141FC2F8185F81B22E4D12
:108E300094F99C0AC2F81C1F47EA0C271BB20121B7
:108E4000032EA2F8167FA2F8203F82F8150F85F8AE
:108E50000A1109D894F8082F0C2A2AD00D2A03D118
:108E600004EB4606A6F80C0FFFF732FF5CE794F818
:108E7000383904EB031393F8142FFF2A06D01A494C
:108E80000132012083F8142F81F80A01FFF720FF37
:108E900094F8083F0122092B84F8902A7FF440AF10
:108EA000B4F8B83F13449BB2A4F8B83FA4F8103FFD
:108EB000F8BD94F8B61F0D4A03EB830303EB83035D
:108EC00049089B0004EB460693FBF1F382FB031277
:108ED000DB17C3EBA203A6F80C3FC5E7601A00201E
:108EE000D34D62103F4B4C009801002067666666C8
:108EF0000B4B93F8A61A93F8A72A91420ED010B400
:108F000093F8A62AD3F8984A511CD2B2C0B2C9B27B
:108F100083F8A61AA0545DF8044B7047704700BF51
:108F2000601A0020144B30B4D3F8BC4F14B30022A5
:108F30000F2583F8C21F090A83F8C10F83F8C31FE6
:108F4000C3F8C42FC3F8C82FC3F8CC2F83F8C05F71
:108F500003F57C60012110F8015F01312A440E29DC
:108F6000D2B2F8D183F8CE2F2046044930BC10226B
:108F70003DF086BB30BC7047601A0020202A0020DC
:108F8000034B002183F8D01FC3F8D41FCAE700BFEA
:108F9000601A0020F8B51A4C94F8D83F002BFBD18A
:108FA00059B301444E1E451ED4F80C28D4F80818B5
:108FB00015F8017F531CC3F30A038B422CBF4FF4F7
:108FC00000600020C91A224401440129C4F80C3869
:108FD00082F8DC7F0FD101203BF0C6F8D4F80838C6
:108FE000D4F80C188B4294BF4FF4006200225B1A35
:108FF0001344012BEFD0B542D6D10020F8BD00BFFD
:10900000601A00200A4B0846D3F8281810B569B139
:10901000D3F82838052B09D1064C002AD4F8E436B9
:1090200004DD1146FFF7B6FFD4F8E43610BD00BFEB
:10903000601A0020582B002010B590F85010002323
:1090400080F8503089B10C4CD4F828287AB1D4F883
:109050002828052A0DD1094C3C30D4F8E436FFF716
:1090600099FFD4F8E436012010BD0120FCE710463A
:10907000FAE71846F8E700BF601A0020582B0020D6
:10908000002280F85120D7E790F85020531C02446A
:10909000DBB280F8503082F83C1090F851200AB1D1
:1090A000132B00D9C8E77047F8B50546262024F0F1
:1090B00081FC134C0146F0B9D4F8E80690F838303A
:1090C0001E3B012B01D93DF00FFB0E4F0026AE4297
:1090D00009DBB4F80C370133A4F80C37D4F8E436C4
:1090E000C4F81C37F8BD17F8011BD4F8E8063DF0AA
:1090F000FBFA0136EBE7002384F81A37EEE700BFEE
:10910000582B00204432002038B5154C94F8013912
:1091100094F800299A421CD004EBC303114AD3F8F7
:109120000419D3F808090023984213DC8B780E4AFF
:109130005B0882F81A37C2F82007FFF7B5FF94F8EA
:10914000013906210133B3FBF1F201FB123384F83C
:10915000013938BDCD5C02F8015B0133E4E700BFA3
:10916000601A002044320020582B002013B504461A
:109170002620019124F01EFC019920B9204602B05E
:10918000BDE81040CEE602B010BD2DE9F84F1B4CF3
:1091900005461E2094F824A794F825B794F826676E
:1091A000B4F82897B4F82A8794F82C7724F002FCB6
:1091B00030B1B8F1000F1EBFC14601264FF0000AC2
:1091C00094F82E37DA070AD494F833273AB9012FE6
:1091D00012D0022F03D113F0020F08BF012685F829
:1091E00000A085F801B0AE70A5F80490A5F806803F
:1091F0002F722846BDE8F88F3E46F0E7582B002036
:1092000007B50DF1060213F0FBFF78B1094ABDF86E
:109210000630A2F8E438084AB2F8581799421FBF3E
:109220000649A2F85837142081F8F80003B05DF819
:1092300004FB00BF601A0020582B0020980100207A
:1092400013B50446FFF796FC08B300230DF10602A0
:109250002046ADF8063013F0D3FFC0B10D4C9DF899
:10926000062094F9FA1084F80F21032908BF62F050
:109270007F024FF00501084808BF84F80F21FFF76F
:10928000E3FC062184F810010348FFF7C3FC02B099
:1092900010BD00BF98010020A30200202DE9F3417A
:1092A000BE4CD4F8BC3F0E463BB1BD4D4FF002085A
:1092B000D4F8BC0F3DF014FA60B9002794F8DE38FA
:1092C000042B00F28D81DFE813F09800F9000F0104
:1092D0005E017901D4F8BC0F3DF0FAF9D4F8D43F1F
:1092E0005A1C2B44C4F8D42F83F85A0794F8D03F63
:1092F000012B09D0022B10D0002B78D10F2879D167
:10930000012384F8D03FD3E7A0F17203012B01D9E8
:1093100076286CD184F8D08FCAE7102AC8D1A14929
:109320000023012211F8010F013203440E2ADBB29F
:10933000F8D1002284F8D02FC4F8D42F95F86827EC
:109340009A42B5D195F86937002BB1D195F85B7782
:10935000732F3FD0762F0FD0722FA9D195F85D27AC
:1093600095F85C3753EA0223A2D0C4F8CC38B5F89C
:109370005E37C4F8D038A1E795F85D2795F85C37DB
:1093800053EA022394D095F85F1795F85E2795F875
:109390006307C4F8E03842EA012295F8601784F8C0
:1093A000DF1895F8611785F86C1795F86217A5F81E
:1093B0006A2741EA0021A5F86E17D4F8D41809B934
:1093C000C4F8D438B4F8E438002B7FF477AFA4F8AD
:1093D000E42873E795F8612795F8603743EA02239C
:1093E0001AB2002B3FF464AFA5F8702766E700239C
:1093F00084F8D03FC4F8D43F5AE7722F4FD10123ED
:1094000084F8DE38002294F8083F402B37D194F8D6
:10941000DE38A4F80C3F624BB4F8E40893F86C67AC
:10942000B3F86AC794F8DC18A4F80E7F050233037A
:1094300005F4706503F440532B434FEA0C1543EADF
:109440008133EDB22B43D4F8E078D4F8D4581BB272
:10945000BD4214BF082500251343604514BF0420F6
:1094600000202B430343B14214BF022100211943C2
:109470004D4BA4F8101F93F8F830A4F8123FD4F81D
:10948000343923B1D4F8E838002B40F0AE80474996
:1094900047481F2202B0BDE8F04151F03ABB404DB1
:1094A000444AD5F87437F31A934201DC0022AAE744
:1094B0007220FFF765FDC5F87467F7E7762F04D1D2
:1094C000022384F8DE3800229DE7354B394AD3F871
:1094D0007437F31A9342E9DD7620FFF751FD304BE4
:1094E0000022C3F874678EE72F4B2D4D93F8F810C8
:1094F000D5F874279846B21AB1B32E4B9A4236DD8E
:1095000094F8DF38DB071FD4D4F8D418D4F8E03847
:1095100099420FD089B24620FFF728FE98F8F8301C
:10952000C5F87467013B88F8F830042384F8DE3806
:10953000012268E7B4F8E418B5F86A378B4203D023
:109540005020FFF713FEE9E794F8DC1895F86C3724
:109550008B4206D0B1FA81F149094920FFF706FE96
:10956000DCE7142388F8F830134B9A42B4DC762FEA
:109570009CD17320FFF704FD032384F8DE38C5F87F
:10958000746700223FE7732F90D0054BD3F8741710
:10959000084B761A9E4293DC88E700BF601A0020D1
:1095A000582B0020B232002098010020A05006085D
:1095B000A90200203F0D03003F420F003F4D404AEB
:1095C000D5F87437F31A93427FF770AF7620FFF720
:1095D000D7FC022384F8DE38C5F87467002212E74E
:1095E000002384F8DE381A460DE7344D354CD5F8A3
:1095F00078672A2384F811310DF1020220230DF13E
:109600000101304684F8123113F091FE30B19DF81B
:1096100001109DF8027051EA070339D1552384F8EF
:109620001331462384F81431202301A9304684F8ED
:10963000153113F076FE0346234813B1BDF804201C
:109640009ABB22494AF014F9B5F86E77204C87B3DB
:109650000DF10301304613F067FE50B39DF803107F
:109660000DF10602304613F0CBFD10B3BDF8062015
:1096700018493B46BA420CBF20222A2220464AF013
:10968000F7F8B5F87037A5F87C3702B0BDE8F0817F
:10969000304613F031FE394684F81301304613F09A
:1096A00017FE037884F81431BEE70B494AF0E0F85E
:1096B000CAE70A4920464AF0DBF8E2E7582B0020C7
:1096C0003F0D030098010020AE020020C2500608A2
:1096D000B2020020BA500608778A0608C150060870
:1096E00038B50B680E4D5A1C0A6005221A700B68BB
:1096F00095F8FA200C46591C21601A70236895F8D9
:10970000FD20591C21601A70B5F8001120464BF05D
:1097100095F8236895F80221591C21601A7038BD0C
:10972000980100202DE9F84F2DED028BFFF722FA6A
:10973000002844D0264B93F9FA0001283FDD93F826
:109740003041DFF894809FED238A0FF27C0BDBE938
:1097500000AB15468E1E02EB44094D4504D1BDEC0D
:10976000028B2046BDE8F88F38F8027B26F8027F8E
:1097700007EE907AF8EEE77A67EE887A17EE900AAD
:109780004DF0D6FF52465B464EF02AF841EC100BE6
:1097900050F0E2FE51EC100B4EF0FAFA0E2F80B2B0
:1097A0000AD919303223B0FBF3F080B200EB80000D
:1097B00000EB8000400080B225F8020BCDE70024CA
:1097C000CDE700BFAFF300801655B5BBB16B0240CB
:1097D00098010020CDCCCC3DD632002038B50D46C6
:1097E000FFF7C8F9044638B10C4890F8FD30DB07A4
:1097F00004D5B0F8FE002880204638BD084A90F90C
:10980000FB3092F8FC2893FBF2F102FB113201329B
:10981000013100F59A7013F007FDECE79801002084
:10982000601A00202DE9F04FA74D95F88E378BB0C8
:109830008146002B40F0B180D5F87867002E00F00B
:10984000AC80A24AD2F8384104F0F021B1F1E02F07
:109850006CD1C2F83831D5F89027944266D0049381
:109860000593ADF81830B5F8283795F824E7ADF82A
:10987000143095F825C795F82C3795F826A78DF85C
:1098800018300DF110088DF810E08DF811C08DF82A
:1098900012A098E8070007AB03C38D4F1A80C4F3EA
:1098A0004253C4F30342F95CC5F890478E4502F178
:1098B000010201D1944508D030468DF81C108DF876
:1098C0001D2013F0B1FCADF82000304613F0FDFE72
:1098D000032804F0070B34D0042835D000239A4520
:1098E00001A9304618BF8DF81E3013F017FD48B19E
:1098F000019BC4F3001103F001038B4202D03046F8
:1099000013F0BAFD0A2207A9404651F09CF868B14D
:109910009DF81E30BDF81C2085F82637BDF8203094
:10992000A5F82427A5F828374AF020F995F894A738
:1099300004AF95F89437032B79D8DFE803F00831AA
:1099400074A15F447B79CAE75F447B7BC7E73946F4
:10995000304613F0E9FC044658B107A8FFF715FCA0
:109960009DF81E109DF810308B4260D0304613F0E9
:109970000FFE95F89437013303F0030385F894370D
:109980000CB99A45D5D195F82E37DB0700D524B10F
:10999000336849461B68304698470BB0BDE8F08FE6
:1099A00001A8FFF7F2FB95F82E879DF8044008F018
:1099B0000108ECB1B8F1000F39D13A460DF10301BD
:1099C000304613F0B4FC044688B307A8FFF7DDFB6C
:1099D0009DF81C109DF803309DF81D208B4203D18B
:1099E0009DF81030934222D0304613F0DBFDC0E7E3
:1099F000B8F1000FBDD13946304613F092FC044651
:109A0000A8B107A8FFF7C1FBBDF82010BDF81030C2
:109A10008B420CD085F8958785F896873368304659
:109A20009B699847A5E795F82E37D80701D50024FC
:109A30009FE707A9304613F071FC04460028F6D0D2
:109A40001E2023F0B7FF95F8973783428046EED06B
:109A500085F8970760B1B5F82A37002BE7D1079B47
:109A6000D907E4D40121304613F006FD444680E7CF
:109A7000079BDA07DBD50146304613F0FDFC78E79B
:109A80003846FFF782FB97E8070007AB03C31A804D
:109A90009DF810309BB10DF11D0207A9304613F05F
:109AA00046FC0DF11E01304613F03EFC0A2207A9C8
:109AB000384650F0C8FF041E18BF012459E708A912
:109AC000304613F02EFCECE7582B002098010020C4
:109AD00038AB050800F01F0240090123032803FAF0
:109AE00002F304D004280CD0022805D07047074A9E
:109AF000116C0B4313647047044A516C0B4353645D
:109B00007047024A116B0B431363704700380240E1
:109B1000002800F0638103689D4A03F13F4101F58D
:109B20007E0102EB912210B4127E02F01F04520952
:109B30000121032A01FA04F100F06381042A00F0F4
:109B40005781022A00F04B818288D40700F13481CA
:109B5000900700F11F81510700F10781140700F100
:109B6000F280D00600F1DD80910600F1C880540635
:109B700000F1B380100600F19E80D10500F18980CC
:109B8000940574D4500561D411054ED4D4043BD44B
:109B9000900428D4510415D4120402D45DF8044B67
:109BA00070471A685DF8044B22F040421A601A6848
:109BB0001A60DA6822F04042DA60DA6842F08042E5
:109BC000DA607047196821F040511960196819600E
:109BD000D96821F04051D960D968120441F0805110
:109BE000D960DBD5DDE7196821F04061196019689B
:109BF0001960D96821F04061D960D96841F080616D
:109C0000D9605104C8D5DDE7196821F040711960A9
:109C100019681960D96821F04071D960D968900439
:109C200041F08071D960B5D5DDE7196821F44001B4
:109C3000196019681960D96821F44001D960D968A0
:109C4000D40441F48001D960A2D5DDE7196821F47C
:109C50004011196019681960D96821F44011D96060
:109C6000D96841F48011D96011058FD5DDE71968F5
:109C700021F44021196019681960D96821F4402144
:109C8000D960D968500541F48021D9607FF57CAF57
:109C9000DCE7196821F44031196019681960D96846
:109CA00021F44031D960D968940541F48031D960FC
:109CB0007FF568AFDBE7196821F440411960196846
:109CC0001960D96821F44041D960D96841F48041D4
:109CD000D960D1057FF554AFDBE7196821F4405115
:109CE000196019681960D96821F44051D960D968A0
:109CF000100641F48051D9607FF53FAFDBE719686A
:109D000021F44061196019681960D96821F4406133
:109D1000D960D968540641F48061D9607FF52AAFD3
:109D2000DBE7196821F44071196019681960D96876
:109D300021F44071D960D96841F48071D9609106ED
:109D40007FF515AFDBE7196821F0C00119601968CC
:109D50001960D96821F0C001D960D968D00641F0F6
:109D60004001D9607FF500AFDBE7196821F03001D1
:109D7000196019681960D96821F03001D960D96873
:109D8000140741F01001D9607FF5EBAEDBE700BFAF
:109D900038AB0508196821F00C01196019681960C1
:109DA000D96821F00C01D960D96841F00401D9606B
:109DB00051077FF5D3AED8E7196821F00301196088
:109DC00019681960D96821F00301D960D968900732
:109DD00041F00101D9607FF5BEAEDBE770470D4A67
:109DE000546C214351648288D4077FF5B1AEE3E718
:109DF000084A146B214311638288D4077FF5A8AE0B
:109E0000DAE7044A146C214311648288D4077FF591
:109E10009FAED1E7003802402DE9F04700230F68DC
:109E200001264FF0030C02E00133102B41D006FA5B
:109E300003F232EA0704F7D1D0F800E05C000CFA34
:109E400004F52EEA050EC0F800E091F80490D0F871
:109E500000A009FA04FE09F1FF394EEA0A0EB9F131
:109E6000010FA846C0F800E06FEA050515D8D0F844
:109E700008E005EA0E0585604D79D0F808E0A540B8
:109E800045EA0E058560456825EA020242608A7946
:109E900045689A4092B22A434260C26822EA0802A8
:109EA000C260CA79C568A24001332A43102BC26040
:109EB000BDD1BDE8F08700BF2DE9F04FCC4DCD4CB2
:109EC000DFF86CA384460F4616460FCD2DED068BAA
:109ED0000FC40FCD0FC495E807008BB09AF8963FDA
:109EE000059684E80700CDE906C7042B00F25181EE
:109EF000DFE813F0AD014F014A010500BF019FEDFE
:109F0000BE8ADFEDBE8ADFF82C83BD49C8F8B417DE
:109F1000BC49BD4BBD4AC8F8B0170599002918BF08
:109F2000134638EE887AF5EE006AC6EE879AB84D89
:109F3000C8F8BC37B74B039305F1C0070026DFED27
:109F4000B67A9FEDB69A28EE278AB0EE67AA079BED
:109F5000B34200F01381039B13F8019B03930AEBB8
:109F6000090309F1010993F89B4F5FFA89F9002C65
:109F700000F08481002203E00132152A00F07E8186
:109F800002EB42015300785CA042F5D141440493B6
:109F900091F88D18002900F07981204635F05AFE9D
:109FA0008346006835F0FAFD9BF8051035F096FE03
:109FB00090F800C0BCF1000F40F06081049B08EBFA
:109FC000030123090322013B934281F8CD9881F8D4
:109FD000CC2804F00F0000F2F980914C04EB43010F
:109FE000B1F84CC04CFA00F111F0010100F02D81E4
:109FF000012101FA00F0013800EA0C0004934DF051
:10A0000087FF049BDFF830C22344032293F85430C7
:10A0100018440CEBC0036B619A7183F807905CF8ED
:10A0200030009BF8082000F13F4C0CF57E0C04EB4F
:10A030009C240121247E04F01F0C6409032C01FAE6
:10A040000CF100F0FB80042C00F0CA80022C00F020
:10A05000C0809B880893B3FA83F3C3F11F03C3F353
:10A06000CC0100EB810103F007030C6A9B004FF069
:10A070000F0C0CFA03FC24EA0C040C620C6A02FAC2
:10A0800003F323430B62022308A90993FFF7C4FEDD
:10A09000059B002B00F08280BAF8943FD8F8801A14
:10A0A00007EE903AF8EEE77AFCEEE77A17EE900AC0
:10A0B000B1FBF0F202F57F42FF32120CB1FBF2F27B
:10A0C000B2FBF0F083B29AF8961F04290BBF07EE9B
:10A0D000900A07EE902AF8EE677AF8EE676A05BFF5
:10A0E00007EE102A67EE8A7A66EE887AF8EE476AFB
:10A0F00029EE677A9AF8970F06990091A8EEA67A4A
:10A10000019059462846C5ED027A85ED037A2EF076
:10A110001DFE002E56DD6B68D8F8D027934253D031
:10A12000012E4FD0D8F8E82793424DD0022E49D0C7
:10A13000D8F80028934247D0032E43D0D8F81828E7
:10A14000934241D0042E3DD0D8F8302893423BD0E2
:10A15000052E37D0D8F84828934235D0062E31D076
:10A16000D8F86028D31A18BF012301360122082E1F
:10A170002B746A7405F118057FF4E9AE1D480BB025
:10A18000BDEC068BBDE8F08F9FED268AF0EE488A85
:10A19000B9E69FED258AF0EE488AB4E6B0EE690A8A
:10A1A0004EF060FEFCEEC07A4FF6FF7317EE902A79
:10A1B000D8F8801AB1FBF2F21A44120C1846B1FB1F
:10A1C000F2F280E70123D0E70023CEE7C5F814C000
:10A1D0005EE7164CD4F844C041EA0C01616438E7EC
:10A1E000124CD4F830C041EA0C01216331E700BFC2
:10A1F00058AB0508F0320020ACC5A737ACC5A73670
:10A20000596203089D5E0408D55E0308915E040848
:10A2100024330020062A00206F12833A00007A447B
:10A2200038AB0508282930386F120339003802404E
:10A23000601A0020582B002050340020144CD4F811
:10A2400040C041EA0C01216403E7696120E7DFF8BF
:10A250005C809FED108A104A104BC8F8B427C8F8EC
:10A26000B03700220123CDE90532F0EE488A0C4BCD
:10A2700057E6DFF838809FED0B8AECE70A4A084B77
:10A28000C8F8B427C8F8BC37002078E70B68FFDEB1
:10A29000003802406F12833A596203089D5E040839
:10A2A000915E04080000000025600308582B002080
:10A2B00000487047B0340020484B5B68C3F3080384
:10A2C0002DE9F041002B65D1EFF31183002B61D113
:10A2D000434A444CD2F8E416A068D2F8E4369942D6
:10A2E000F8D1D2F88C3A9842F4D8D2F8885A4FF480
:10A2F0007A7404FB05F3181AB0FBF5F004FB0101B6
:10A30000364D384810264FF47A7401276B68C3F332
:10A310000803F3B9EFF31183DBB9D2F8E436D0F8D0
:10A3200008E0D2F8E4C66345F7D1D2F88CCAE64516
:10A33000F3D8D2F8888A04FB08FCACEB0E0CBCFB0B
:10A34000F8FC04FB03C35B1AB3F57A7FDED3BDE8E8
:10A35000F081EFF3118E86F31288D0F8088003683D
:10A36000DB0344BFC2F8847AD0F80880D2F8E4C690
:10A37000D2F8843A5FFA8EFE8EF31188D2F888EA1A
:10A38000634404FB0EFCACEB080CBCFBFEFC04FBC2
:10A3900003C3D8E7EFF31180102383F31288114928
:10A3A0000F4A8D680B68DC0342BF0123C2F8843A70
:10A3B0008D68D2F8E436D2F8841AC0B280F31188DE
:10A3C000D2F8884A4FF47A70194400FB04F35B1BFF
:10A3D000B3FBF4F300FB013192E700BF00ED00E0B6
:10A3E000582B002010E000E02DE9F84FC44CC54F79
:10A3F00094F8901AD4F8980AC34DC1F340013CF088
:10A400004DFE94F8901AD4F8940AC94301F0010162
:10A410003CF044FE4FF0050B4FF01008D4F8983A8A
:10A4200033B11A689B8851690B4214BF538313835D
:10A43000D4F8943A33B11A689B8851690B4214BF1F
:10A4400053831383B4F8A03A002B40F0518194F861
:10A45000A21AD4F8A40A3CF021FE4FF0320C4FF4BB
:10A460007A7001267B68C3F30803002B40F0148147
:10A47000EFF31183002B40F00F81D4F8E426A96894
:10A48000D4F8E4369A42F8D1D4F88C3A9942F4D808
:10A49000D4F8889A00FB09F35B1AB3FBF9F300FBCD
:10A4A00002327B68C3F30803002B40F0B480EFF363
:10A4B0001183002B40F0AF80D4F8E436D5F808A023
:10A4C000D4F8E4168B42F7D1D4F88C1A8A45F3D825
:10A4D000D4F8889A00FB09F1A1EB0A01B1FBF9F16C
:10A4E00000FB03139B1AB3F57A7FDAD3BCF1010C9E
:10A4F000B8D1D4F8983A33B11A689B8851690B42A5
:10A5000014BF53831383D4F8943A33B11A689B88E9
:10A5100051690B4214BF53831383B4F8A03A002B44
:10A5200040F0DA8094F8A21AD4F8A40A81F001016C
:10A530003CF0B4FD4FF0320C4FF47A7001267B688A
:10A54000C3F30803002B40F08780EFF31183002B47
:10A5500040F08280D4F8E426A968D4F8E4369A4220
:10A56000F8D1D4F88C3A9942F4D8D4F8889A00FB00
:10A5700009F35B1AB3FBF9F300FB02327B68C3F308
:10A5800008033BBBEFF3118323BBD4F8E436D5F8C3
:10A5900008A0D4F8E4168B42F7D1D4F88C1A8A4577
:10A5A000F3D8D4F8889A00FB09F1A1EB0A01B1FBBA
:10A5B000F9F100FB03139B1AB3F57A7FDED3BCF1EC
:10A5C000010CBCD10BF1FF3616F0FF0B7FF426AF68
:10A5D000BDE8F88FEFF3118988F31288D5F808A049
:10A5E0002B68DB0344BFC4F8846AD5F808A0D4F80C
:10A5F000E436D4F8841A5FFA89F989F31188D4F81B
:10A60000889A0B4400FB09F1A1EB0A01B1FBF9F1B7
:10A6100000FB0313CFE7EFF3118988F31288D5F815
:10A6200008A02B68D90344BFC4F8846AD5F808A0F1
:10A63000D4F8E436D4F8841A5FFA89F989F31188DA
:10A64000D4F8889A0B4400FB09F1A1EB0A01B1FB95
:10A65000F9F100FB031345E7EFF3118188F312884A
:10A66000D5F808902B68DA0344BFC4F8846AD5F89B
:10A670000890D4F8E436D4F8842AC9B281F311885A
:10A68000D4F8881A1A4400FB01F3A3EB0903B3FBC7
:10A69000F1F300FB023271E7EFF3118188F31288C6
:10A6A000D5F808902B68DB0344BFC4F8846AD5F85A
:10A6B0000890D4F8E436D4F8842AC9B281F311881A
:10A6C000D4F8881A1A4400FB01F3A3EB0903B3FB87
:10A6D000F1F300FB0232E4E6D4F8BC3A002B3FF47D
:10A6E00029AFD4F8A82A0023136084F8B93A21E7E7
:10A6F000D4F8BC3A002B3FF4B0AE39F037FEACE6EC
:10A70000582B002000ED00E010E000E02DE9F04FB4
:10A7100083B00A23B94CBA4FBA4D0193FFF764FED8
:10A7200001264FF4FA7C4FF0100E4FF47A707B68DC
:10A73000C3F30803002B40F05282EFF31183002B88
:10A7400040F04D82D4F8E426A968D4F8E4369A4261
:10A75000F8D1D4F88C3A9942F4D8D4F8889A00FB0E
:10A7600009F35B1AB3FBF9F300FB02327B68C3F316
:10A770000803002B40F01282EFF31183002B40F00E
:10A780000D82D4F8E436D5F808A0D4F8E4168B424C
:10A79000F7D1D4F88C1A8A45F3D8D4F8889A00FBFC
:10A7A00009F1A1EB0A01B1FBF9F100FB03139B1ABC
:10A7B000B3F57A7FDAD3BCF1010CB8D194F8901AD2
:10A7C000D4F8980AC1F340013CF068FC94F8901A60
:10A7D000D4F8940AC94301F001013CF05FFC4FF04A
:10A7E00006084FF01009D4F8983A33B11A689B88DC
:10A7F00051690B4214BF53831383D4F8943A33B195
:10A800001A689B8851690B4214BF53831383B4F8B1
:10A81000A03A002B40F0238294F8A21AD4F8A40A9C
:10A820003CF03CFCFA204FF47A7101267B68C3F3BC
:10A830000803002B40F09181EFF31183002B40F0CF
:10A840008C81D4F8E426D5F808A0D4F8E4369A42EE
:10A85000F7D1D4F88C3A9A45F3D8D4F888EA01FBBA
:10A860000EF3A3EB0A03B3FBFEF301FB02327B689A
:10A87000C3F30803002B40F04F81EFF31183002B4B
:10A8800040F04A81D4F8E436D5F808B0D4F8E4E6CC
:10A890007345F7D1D4F88CEAF345F3D8D4F888AAF5
:10A8A00001FB0AFEAEEB0B0EBEFBFAFE01FB03E35F
:10A8B0009B1AB3F57A7FDAD30138B7D1D4F8983A36
:10A8C00033B11A689B8851690B4214BF53831383B9
:10A8D000D4F8943A33B11A689B8851690B4214BF7B
:10A8E00053831383B4F8A03A002B40F0C08194F84E
:10A8F000A21AD4F8A40A81F001013CF0CFFBFA209F
:10A900004FF47A7101267B68C3F30803002B40F0F3
:10A91000E280EFF31183002B40F0DD80D4F8E426D1
:10A92000D5F808A0D4F8E4369A42F7D1D4F88C3A96
:10A930009A45F3D8D4F888EA01FB0EF3A3EB0A0397
:10A94000B3FBFEF301FB02327B68C3F30803002B69
:10A9500040F0A080EFF31183002B40F09B80D4F8EF
:10A96000E436D5F808B0D4F8E4E67345F7D1D4F866
:10A970008CEAF345F3D8D4F888AA01FB0AFEAEEBC3
:10A980000B0EBEFBFAFE01FB03E39B1AB3F57A7FC5
:10A99000DAD30138B7D108F1FF3818F0FF087FF497
:10A9A00022AF4FF47A7C60464FF0100E01267B6890
:10A9B000C3F30803002B40F03281EFF31183002B27
:10A9C00040F02D81D4F8E426A968D4F8E4369A4200
:10A9D000F8D1D4F88C3A9942F4D8D4F8889A00FB8C
:10A9E00009F35B1AB3FBF9F300FB02327B68C3F394
:10A9F000080373BBEFF311835BBB05E0582B00200A
:10AA000000ED00E010E000E0D4F8E436D5F808A04E
:10AA1000D4F8E4168B42F7D1D4F88C1A8A45F3D8CF
:10AA2000D4F8889A00FB09F1A1EB0A01B1FBF9F116
:10AA300000FB03139B1AB3F57A7FD7D3BCF1010C4B
:10AA4000B5D1019B013B01937FF468AE03B0BDE833
:10AA5000F08FEFF311898EF31288D5F808A02B68D8
:10AA6000DB0344BFC4F8846AD5F808A0D4F8E43600
:10AA7000D4F8841A5FFA89F989F31188D4F8889A8E
:10AA80000B4400FB09F1A1EB0A01B1FBF9F100FB5A
:10AA90000313CFE7EFF3118A89F31288D5F808B0D2
:10AAA0002B68DB0344BFC4F8846AD5F808B0D4F837
:10AAB000E436D4F884EA5FFA8AFA8AF31188D4F883
:10AAC00088AA734401FB0AFEAEEB0B0EBEFBFAFE36
:10AAD00001FB03E359E7EFF3118E89F31288D5F8F0
:10AAE00008A02B68DA0344BFC4F8846AD5F808A02C
:10AAF000D4F8E436D4F8842A5FFA8EFE8EF31188F7
:10AB0000D4F888EA1A4401FB0EF3A3EB0A03B3FB63
:10AB1000FEF301FB023217E7EFF3118A89F3128883
:10AB2000D5F808B02B68DB0344BFC4F8846AD5F8B5
:10AB300008B0D4F8E436D4F884EA5FFA8AFA8AF3E3
:10AB40001188D4F888AA734401FB0AFEAEEB0B0E01
:10AB5000BEFBFAFE01FB03E3AAE6EFF3118E89F3D5
:10AB60001288D5F808A02B68DA0344BFC4F8846AB9
:10AB7000D5F808A0D4F8E436D4F8842A5FFA8EFE1B
:10AB80008EF31188D4F888EA1A4401FB0EF3A3EB84
:10AB90000A03B3FBFEF301FB023268E6EFF311890F
:10ABA0008EF31288D5F808A02B68D90344BFC4F8E7
:10ABB000846AD5F808A0D4F8E436D4F8841A5FFA89
:10ABC00089F989F31188D4F8889A0B4400FB09F1BC
:10ABD000A1EB0A01B1FBF9F100FB0313E7E5EFF389
:10ABE00011818EF31288D5F808902B68DB0344BFDF
:10ABF000C4F8846AD5F80890D4F8E436D4F8842AE6
:10AC0000C9B281F31188D4F8881A1A4400FB01F301
:10AC1000A3EB0903B3FBF1F300FB0232A6E5EFF36C
:10AC200011818EF31288D5F808902B68DA0344BF9F
:10AC3000C4F8846AD5F80890D4F8E436D4F8842AA5
:10AC4000C9B281F31188D4F8881A1A4400FB01F3C1
:10AC5000A3EB0903B3FBF1F300FB0232C6E6D4F821
:10AC6000BC3A002B3FF4DEAD39F080FBDAE5D4F8D6
:10AC7000BC3A002B3FF443AED4F8A82A002313605B
:10AC800084F8B93A3BE6B0B10B49D1F8C03A102B81
:10AC900003D1052100203AF001BA03EB43020A4434
:10ACA00082F8C40A202082F8C50A0120034482F8F1
:10ACB000C60AC1F8C03A7047582B002000285ED061
:10ACC0000368374A2DE9F04103F13F4404F57E045F
:10ACD00002EB94220124127E02F01F055209032A7E
:10ACE00004FA05F456D0042A4FD0022A48D08588A9
:10ACF000B5FA85F0C0F11F00C0F3CC0603EB860661
:10AD000000F0070082000F24306A944020EA04001B
:10AD10003062306A01FA02F20243002132624FF0DF
:10AD2000010E0A464FF0030C02270EFA02F838EA29
:10AD3000050002F101021CD118680CFA01F420EAA6
:10AD400004001860186807FA01F606431E609E6842
:10AD500026EA04069E6098689860586820EA080011
:10AD6000586058685860D86820EA0400D860D868ED
:10AD7000D860102A01F10201D7D1BDE8F0817047F7
:10AD8000084A556C2C435464B1E7064A156B2C43B2
:10AD90001463ACE7034A156C2C431464A7E700BFA7
:10ADA00038AB050800380240F8B5744C04EB0016C7
:10ADB000D6F8F43A002B00F08F800546070196F88C
:10ADC000FC0AFEF787FE96F8FC3A03F01F015B09C8
:10ADD0000122032B02FA01F200F09480042B00F010
:10ADE0008180022B79D0E319013593F8F80A3BF002
:10ADF000D7FCEDB2064610B11223C5718371E31979
:10AE000093F8F90A3BF0CCFC10B11323C5718371A0
:10AE1000E31993F8FA0A3BF0C3FC10B11423C5718F
:10AE200083713C440A2194F8FB2A30463BF07EFDB6
:10AE300094F8F90A3BF0B4FC94F8FB2A0A213BF0A1
:10AE400075FD94F8FA0A3BF0ABFC94F8FB2A0A2152
:10AE50003BF06CFDD4F8F42A494B9A4257D0494B49
:10AE60009A4244D0484B9A425CD0484B9A4264D0B4
:10AE7000474B9A426CD0474B9A4274D0464910884F
:10AE8000B1F83E41B1F83C31B1F84051234300F4F0
:10AE900041500343B1F84601B1F848412B43034305
:10AEA000B1F84A01234303439BB243F00303022456
:10AEB0000120A1F84241A1F844011380938BB1F81D
:10AEC0004C1123F400631B041B0C93831182138821
:10AED0009BB243F040031380F8BD304B596A0A43DC
:10AEE0005A6280E72D4B19690A431A617BE703F523
:10AEF0000033196A41F480411962196A21F48041D2
:10AF00001962BBE7254B196A0A431A626BE703F51E
:10AF10008433596A41F480515962596A21F480514D
:10AF20005962ABE703F5FE33196A41F40041196237
:10AF3000196A21F400411962A0E703F58233596AC6
:10AF400041F400515962596A21F40051596295E760
:10AF500003F56843596A41F480115962596A21F432
:10AF6000801159628AE703F56443596A41F400117C
:10AF70005962596A21F4001159627FE7582B002069
:10AF80000030014000380040003C004000340140E7
:10AF90000050014000540140980100200038024058
:10AFA0000E4B30B4DB68427801780D4CDB43C3F3C1
:10AFB0000223C3F10403DBB202FA03F360181B019E
:10AFC00001F01F050122490903F0F003AA4080F8AF
:10AFD000003344F8212030BC704700BF00ED00E092
:10AFE00000E100E05C4B5D4AD3F8803A10B5A2FB6B
:10AFF000033203685A4C910C1A880139A34282B07B
:10B0000089B292B211D0574883420ED0B3F1804F2B
:10B010000BD0A0F58030834207D000F580608342DA
:10B0200003D000F58060834202D122F0700292B218
:10B030004D48834268D000F58060834243D022F4BB
:10B04000407200F56C4092B24FF6FF7483421A8052
:10B05000DC62198564D100221A8601229A821A883C
:10B060003F4992B242F001028B421A8063D0B3F1A1
:10B07000804F62D03D4A934261D002F58062934294
:10B080005FD002F5806293425DD002F58062934208
:10B090005BD002F58062934259D002F5963293421A
:10B0A00057D002F58062934213D002F5806293423A
:10B0B00008BF09220ED04FF0012301A80193FFF72A
:10B0C0006FFF02B010BD4FF6FF701A80D86219856D
:10B0D000C3E70822264B03EBC20301A893F85D40A7
:10B0E0008DF8044001224FF480738DF80520ADF8EF
:10B0F0000630FFF755FF1B2CE3D11E4B019301A82F
:10B10000FFF74EFF02B010BD01204FF6FF741A800A
:10B11000DC62198598821A8892B202431A80A9E7E4
:10B12000104A934297D001229A821A8892B242F032
:10B1300001021A809BE70022CCE70122CAE7022223
:10B14000C8E70322C6E70422C4E70522C2E70622B5
:10B15000C0E70722BEE700BF582B002083DE1B4359
:10B1600000000140000401400010004000040040C5
:10B1700038AB05081901000170B5464E96F8244B0E
:10B1800004EB440306EBC303650093F8283B032B51
:10B190006ED8DFE803F059291E02254406EBC505E9
:10B1A000D5F82C0B002870D196F8883B9C425FD0D4
:10B1B000013404F00302934286F8242B58D002EBAA
:10B1C000420406EBC4040223C4F82C0B84F8283B89
:10B1D00070BD2B1906EBC303D3F82C2B72B1013AC7
:10B1E000C3F82C2B002070BD2B1906EBC303D3F83A
:10B1F0002C2B002AF3D1022283F8282B254406EBBE
:10B20000C50595F8343B013BDBB285F8343B8BBB7D
:10B21000214B96F8886BD3F85011D5F8300B621C8F
:10B2200002F003024B1E0324B242034485F8284B6C
:10B23000B3FBF1F0C5F82C0B1AD0994218D801389D
:10B24000C5F82C0B012070BD3CF04EFB80B1124BB9
:10B250002C44D3F8502106EBC404012102F51C5301
:10B2600084F8281B0F33B3FBF2F3C4F82C3B70BDFA
:10B27000012070BD084BD3F85021012002F2E733C2
:10B28000B3FBF2F3C5F82C3B70BD0138C5F82C0BAD
:10B29000002070BD582B0020980100202DE9F04FB0
:10B2A0002DED108B034697B004331593DFEDCACA1A
:10B2B000149002238A4613928B461293149C4FEAF1
:10B2C000DB0604EB461202EB06103101A6EB860307
:10B2D0004FEAC60806EB4605CDE9000100EBC303C3
:10B2E000043108F104001196204421442C01C6EBDE
:10B2F000C60C0394EC00119D04944FEACC04059411
:10B300006C0106EB860E0294159D009C03EB46171C
:10B310004FEACE0E02EBC6064FEACB094FF0000C07
:10B3200051ED01AAD3ED001A92ED007A94ED005A86
:10B3300096ED004AD7ED007A15ED012A50ED016A2D
:10B3400032EE07BA76EE840A7AEE855A31EEA70A13
:10B350003BEE256A70EE804A76EEC46A36EE244AE9
:10B3600036EE646A05ED014A82ED006AD0ED00BA5E
:10B37000D6ED012AD3ED019A95ED00AA92ED016A6E
:10B3800097ED013A91ED00CAD4ED014A7BEEE23A25
:10B3900036EEE19A32EE472A73EEE98A3AEE464AF1
:10B3A00039EE279A78EE838AB0EE428AA9EE6C8A4B
:10B3B000DC44E24573EEC33AB0EE441AA8EEEC1A50
:10B3C00076EEE77A33EEA97A7CEE643A77EEA17AEC
:10B3D0003AEE066A7AEEC51A3CEE24AA74EECC4A1E
:10B3E00039EE833A35EE6A5AF0EE639AF0EE48AAE7
:10B3F000E7EE2C9AA8EEAC4AE7EE2C4AE7EE6CAAF0
:10B40000F0EE418AB0EE427AB0EE612A7BEE656AD8
:10B410007BEEA22A76EE4A5AA9EE2C7AA7EEAC2A47
:10B42000A7EEAC5AE7EEEC8A32EE83BA76EEC3BAF8
:10B4300035EEE09A75EEC07A36EE0A6A76EEE26A8A
:10B4400036EE0BAA76EE836A77EEA07A34EE423AB5
:10B4500077EE290A36EE4B6A7BEEA22A39EE000A15
:10B4600073EEAA3A78EE244A37EE697A31EE055A3D
:10B4700071EEA85A32EE044A85ED00AA82ED016A07
:10B480004D4441ED012A4A44C4ED006A81ED000AB1
:10B49000C4ED017A494440ED010A4C4487ED007A3D
:10B4A000C6ED003AC3ED004A80ED003A87ED014A4F
:10B4B000484486ED015A4F44C3ED015A4E444B4473
:10B4C0003FF62EAF119B072B40F2C781029D149EC1
:10B4D000019B03980499059A083575190C330E954C
:10B4E000354608F108080EF10804EB180830083159
:10B4F000083246442C1928186918AA18079305F130
:10B500000C030D960C940B900A91099208934FF03E
:10B5100001084FF0000E129B9E44139B03EBCE03D9
:10B5200003EBCE02109302EBCE0303EBCE010291AC
:10B5300001EBCE0101EBCE0505EBCE06D6ED007A90
:10B540000F93AEEB8E03019106EB031303EBCE07D3
:10B55000D3ED01AACDED067A019BD5ED007A97EDEA
:10B5600001BACDED057AD3ED007A029BCDED047AD8
:10B57000D3ED007A0F9BCDED037A07EBCE0CD3ED24
:10B58000007ADCED01BACDED027A0CEBCE01D2ED02
:10B59000007A109A009101EBCE00014691ED01DA9C
:10B5A000CDED017A0099D2ED007A91ED01CA00EB60
:10B5B000CE0000EBCE0494ED01EAD0ED01DACDED42
:10B5C000007ADDE90776DDE90954DDE90B01DDE903
:10B5D0000D23C44602E000BFF304353F94ED009A0A
:10B5E00090ED00FA91ED006AD5ED007AD3ED006A96
:10B5F00057ED014A92ED005A56ED013A96ED00AA38
:10B6000035EE060A73EEA65A39EE278A34EE8F7AA3
:10B6100070EE082A75EE87EA35EE465A3EEEA26ACB
:10B6200073EEE63A06ED016AD1ED019AD2ED01FA28
:10B63000D4ED016AD3ED011A95ED013AD0ED018AFE
:10B6400097ED004A3FEEE96A35EE491A76EE660A52
:10B6500031EE271A3AEE612A75EE677A70EE830AA8
:10B660003FEEA95A74EECF9A77EE897A7AEE211AD4
:10B67000B0EE42AA74EE68FAA0EEECAADC44E24511
:10B6800035EEC77AB0EE639A74EE285A38EEC44AA3
:10B69000F0EE698AA1EE6C9AE7EEAC8A36EE436A68
:10B6A0007FEE644A36EE266AA0EEAC2AF0EE4A0A35
:10B6B000E7EEEC0AE7EEAC4AF0EE687AF0EE498A83
:10B6C00036EE833AE6EE6C8AE1EE2C3AB0EE6F1A73
:10B6D000A6EE2C1A71EEE56AA6EE2C4A71EEA55A7A
:10B6E00075EE031A7EEEE22A37EE43FA75EEE1EAD2
:10B6F000B0EE686A76EEC08A39EE044A7FEE86FACA
:10B7000076EEC86A33EE816A38EE888A73EEC13A03
:10B7100037EE457A2CEE2E1A3FEE055A22EECC9AE1
:10B720009DED03FA70EE266A33EE077AAFEE221A29
:10B73000AFEE2E9A7AEE244A9DED01FA79EEA09AA8
:10B7400025EE4BAA72EE670A37EE822A6BEE087A74
:10B75000AFEE08AAEFEE057A2DEEA63A9DED05FABA
:10B7600067EE6D8AAFEE073AEFEE268A66EE6A2A3A
:10B770009DED00FA2AEEA00AEFEE202A6EEE02EA14
:10B78000DDED060A23EECE5AE0EEA3EA2BEEA98AFF
:10B79000DDED023AAFEE060AA3EE848A24EE6B7A60
:10B7A0006DEE246A9DED044A2FEECD6AA0EE825A1A
:10B7B000A3EEA97AE4EE2F6AA4EE246A75EEA15AEC
:10B7C000C6ED005A83ED001A83ED019A4E4447ED11
