:020000040800F2
:10000000F0FF0010219D050841DD000899830408D8
:10001000C19D0508C19D0508C19D0508000000009F
:100020000000000000000000000000003DDD0008AE
:1000300039DD00080000000035DD0008C94404086F
:10004000C19D0508C19D0508C19D0508C19D050804
:10005000C19D0508C19D05086D9404089995040883
:100060005D95040821950408E59404088D7E050833
:100070007D7E05086D7E05085D7E0508497E0508C4
:10008000357E0508217E0508C19D0508C19D05082E
:10009000C19D0508C19D0508C19D0508A9940408D6
:1000A000752C0408F92C0408652C0408212D04087B
:1000B000E92C0408D92C0408C92C0408858C0508EF
:1000C0008D8C0508798C0508818C0508C19D050873
:1000D000C19D05081D48040861470408A546040899
:1000E00031940408C19D05080D130108552C04081E
:1000F000852C0408452C0408A92C04080D7E05084D
:10010000C19D0508C19D0508B92C0408C19D0508BD
:10011000E9450408C19D0508DD610308C9610308BC
:10012000F97D0508E57D0508D17D0508BD7D05083B
:10013000A97D0508C19D0508C19D0508C19D05084B
:10014000C19D0508C19D0508C19D0508A5020108BE
:10015000957D0508817D05086D7D05082D45040800
:100160006D8C0508758C0508C19D0508C19D0508A5
:10017000C19D0508C19D0508C19D0508C19D0508D3
:08018000C19D0508C19D0508A1
:08018800D09805000100000001
:100190000B3001001A0000009C340020AC4A002003
:1001A00000000000C80800081F50010024000000E3
:1001B00060340020C84A002000000000E408000865
:1001C0000502010004000000004A0020EC4A002063
:1001D0000000000008090008030101000A000000F7
:1001E000CC330020F04A002000000000618D0008A0
:1001F00013020100040000004C230020FC4A0020F0
:10020000000000000C09000812200100110000008D
:10021000984A0020004B0020000000001009000850
:100220000D1001004C00000028400020144B00205D
:100230000000000071BB0308FD0101001E0000006A
:10024000C03F0020604B0020000000000B1304089A
:10025000FB01010001000000B8490020804B002094
:100260000000000071370508FC01010009000000D2
:1002700084480020844B00200000000081370508DE
:10028000F701010006000000783C0020904B0020A0
:100290000000000022090008F9010100040000002C
:1002A000743C0020984B002000000000B1130408AB
:1002B0000A8001002C000000483C00209C4B0020DC
:1002C0000000000001140208160215003F000000A3
:1002D000B0310020C84B0020000000009538050810
:1002E0003400010010000000743B0020084C002086
:1002F00000000000A14B02081102010008000000EC
:100300004C3B0020184C0020000000002809000889
:100310001212010004000000443B0020204C002089
:10032000000000003009000818200100380000001B
:100330000C3B0020244C0020000000002938050858
:100340002042010006000000A43A00205C4C00207E
:10035000000000009129020806100100240000009E
:1003600064290020644C002000000000ED360508E0
:10037000000201000B00000048370020884C0020DC
:100380000000000071290508FA01010003000000C7
:10039000C0360020944C0020000000007929050898
:1003A000FE010100140000001C420020984C0020B7
:1003B00000000000D92905081B1001000C000000F6
:1003C00034610020AC730020000000008546010865
:1003D00021020100F0000000AC5F0020B873002093
:1003E00000000000512C010837100100300000000F
:1003F00034660020A87400200000000034090008C2
:100400000E0201000200000094620020D874002057
:10041000000000006409000816100100060000003A
:100420008C620020DC7400200000000066090008D7
:100430002F1001002200000088730020E4740020C7
:10044000000000006C0900082322010010000000D9
:1004500030620020087500200000000090090008AC
:100460001E00010009000000206200201875002015
:1004700000000000A0090008052001000C00000099
:10048000786200202475002000000000AC090008FC
:10049000FD0701007A000000785E00203075002022
:1004A00000000000411A0108F59101006C000000F5
:1004B000385F0020AC75002000000000513B0108AF
:1004C00023200100100000008E6500201876002017
:1004D0000000000059140208261001000E00000060
:1004E000387600202876002000000000A9180108B6
:1004F0001400010005000000B8870020DC87002000
:1005000000000000B8090008012001000C000000F4
:10051000887D0020E487002000000000BE0900085C
:100520000E200300BC0100005C7A0020F087002050
:1005300000000000A52902081300010004000000CB
:100540009C840020AC89002000000000CC09000839
:100550000101010004000000A8790020B0890020FA
:100560000000000000000000000101000400000085
:10057000A0790020B489002000000000D009000804
:1005800002010100030000009C790020B8890020CE
:1005900000000000312F0308220201001C010000AE
:1005A00084820020BC890020000000000539050875
:1005B0000C400600E4000000407C0020D88A0020A7
:1005C00000000000F12E03080202010003000000F9
:1005D000207E0020BC8B00200000000000000000F6
:1005E0001B02010010000000D07D0020C08B002005
:1005F00000000000F52805081A0001000E000000A8
:10060000EC9800201C99002000000000D40900088C
:1006100015001000700000002C9700202C9900207D
:1006200000000000000000002A0008006000000038
:100630003C9600209C9900200000000069290208D7
:100640002C000400100000000C9A0020FC990020EF
:1006500000000000412702082B00120024000000C7
:10066000409A00201C9A0020000000001527020874
:100670002920140078000000DC930020649A0020F8
:100680000000000000000000F62101000C00000046
:10069000F0920020DC9A002000000000E40900082D
:1006A0001C0202001C000000849200202C9B0020F1
:1006B0000000000065350508283001001600000024
:1006C000A0920020489B002000000000892A020818
:1006D000031201003D000000509F0020949F002065
:1006E00000000000F009000825201E002C01000079
:1006F000B49C0020D49F00200000000000000000F7
:1007000010100100020000009C9C002000A10020AD
:10071000000000002E0A0008F82101000600000079
:100720007C9C002004A1002000000000300A00088A
:100730001900010005000000D09B00200CA1002042
:1007400000000000360A00082902010040000000F5
:10075000BCA3002080A40020000000003C0A000888
:100760000A0201001400000014A40020E0A40020EC
:1007700000000000E1320308030001000100000056
:1007800064A40020F4A40020000000000000000089
:10079000020001000C00000040A50020D4A50020AC
:1007A00000000000000000000400080080000000BD
:1007B000C0AA002040AB00200000000000000000A4
:1007C000280204000400000020AA0020C4AC00207D
:1007D000000000001529050827020400040000009D
:1007E0001CAA0020C8AC0020000000000929050850
:1007F0001F0208001000000040A70020CCAC002021
:1008000000000000852905081A0201003C000000D4
:1008100000A70020DCAC0020000000009D37050888
:100820003810010001000000F8A5002018AD0020DC
:10083000000000007C0A00082700010004000000FE
:1008400044AD0020A4AD0020000000007E0A000896
:100850001002010001000000D0C40020CCC4002020
:1008600000000000820A00080702010002000000E8
:10087000B4C40020D4C4002000000000840A000892
:100880001D020200060000007CC40020D8C4002025
:100890000000000000000000081203000F0000002C
:1008A00084C4002060E00020000000001929050831
:1008B000060203000C00000094C4002070E0002039
:0808C00000000000E535050809
:1008C800AE014A015E012C01640002000000010033
:1008D8000A019A01001E0A00000200000000000040
:1008E80000010001000500000102030000000000F3
:1008F8000000000000000000000000000080170059
:100908000000000000000100000000010000054F89
:1009180042465700000800020000240100000000C1
:100928000000000001010101FFFFFFFF200032006D
:10093800C800D00796001400320028004C04400676
:100948000005500014000F000800640001000100B9
:1009580005000A000000F40196000F000000C40919
:100968000000190000000000000000000000000066
:10097800000000000000000000000000000000006F
:10098800000000000000000000000000000000005F
:1009980000000000FF00000000050100000000004A
:1009A800000000000201000000000000000000003C
:1009B800030000230000E8036400040A0001140097
:1009C8001E00000008004030900100007E05EA0586
:1009D800B4053200E803D007000000000000000062
:1009E80001000000020200000000000000000000FA
:1009F80000000000000000000000000000000000EF
:100A080000000000000000000000000000000000DE
:100A180000000000000000000000000000000000CE
:100A280000000000010000050101F40114000000AD
:100A38002801000000000000000000000000000085
:100A4800000000000000000000000000000000009E
:100A5800000000000000000000000000000000008E
:100A6800000000000000000000000000000000007E
:0E0A7800000000000000200300000000023C0F
:100A86000403090412010002EF02014083045632F6
:100A960000020102030100001201000202020040EE
:100AA60083044057000201020301000009022000EE
:100AB600010104C0320904000002080650050705BA
:100AC600810240000007050102400000090264009F
:100AD600030100C0320904000001030000000921DF
:100AE600110100012236000705830309000A080BDD
:100AF60001020202010009040100010202010005CF
:100B06002400100105240100020424020205240623
:100B16000102070582030800FF09040200020A0019
:100B260000000705010240000007058102400000A1
:100B360009024300020100C032090400000102025A
:100B4600010005240010010524010001042402020D
:100B56000524060001070582030800FF09040100B9
:100B6600020A000000070501024000000705810295
:100B760040000000FF000000140000FF000000001D
:100B860000000000AA550701000001AA5505010052
:100B9600002D202D2D202D2D2D2D202D2D2D2D0000
:100BA600000000000000000000000000000000003F
:100BB60008000000ACD30508FF1FFF1F000004015A
:100BC6000000000000000002100000000700000006
:100BD6007D0000000000803F05010905A101A1007C
:100BE6000501093009310932093309350934093655
:100BF60009371581257F75089508810205091901B0
:100C0600290815002501950875018102C0C000005C
:100C160009022200010100E032090400000103017B
:100C2600020009211101000122360007058303098C
:100C3600000A00005D8200085982000855820008FB
:100C46004982000845820008518200084D8200084A
:100C56000100000000000000010203040102030479
:100C66000607080935E8000835E7000885EB00089F
:100C7600598300087D8A0008698300088583000877
:100C860031830008218300080000000000000000F6
:100C9600AA550B010000AA5505010000AA55090234
:100CA600000000AA5503009F01000000C0120000CA
:100CB60001000000000001007EFF0000FFFFFFFFB3
:100CC600FF000000FFFFFFFF70760020000000001D
:100CD600487600200000000040670608BC6606084B
:100CE60000000000B92F0308A086010004000000E0
:100CF60000000000000000000000000000000000EE
:100D060000000000000000000000000000000000DD
:100D1600000000000000000040670608486706085B
:100D2600000000006D110408E80300000400000044
:100D360000000000000000000000000000000000AD
:100D4600000000000000000000000000000000009D
:100D560000000000000000005067060800000000C8
:100D660000000000D53003087D000000FF000000F1
:100D7600000000000000000000000000000000006D
:100D8600000000000000000000000000000000005D
:100D96000000000000000000449B06080000000060
:100DA60000000000493803087D000000FF00000035
:100DB600000000000000000000000000000000002D
:100DC600000000000000000000000000000000001D
:100DD6000000000000000000747506080000000016
:100DE60000000000DD6C03087D000000FF0000002D
:100DF60000000000000000000000000000000000ED
:100E060000000000000000000000000000000000DC
:100E160000000000000000005867060800000000FF
:100E260000000000A11B0408E80300000300000006
:100E360000000000000000000000000000000000AC
:100E4600000000000000000000000000000000009C
:100E560000000000000000005C67060800000000BB
:100E66000000000019C60208102700000300000059
:100E7600000000000000000000000000000000006C
:100E8600000000000000000000000000000000005C
:100E960000000000000000004C970608000000005B
:100EA60011230208FD8304085F7600000500000098
:100EB600000000000000000000000000000000002C
:100EC600000000000000000000000000000000001C
:100ED6000000000000000000E89A0608000000007C
:100EE60000000000D1A9040810270000010000003E
:100EF60000000000000000000000000000000000EC
:100F060000000000000000000000000000000000DB
:100F160000000000000000006867060800000000EE
:100F26000000000071110408E8030000050000003D
:100F360000000000000000000000000000000000AB
:100F4600000000000000000000000000000000009B
:100F560000000000000000007467060800000000A2
:100F66000000000035350308204E00000300000095
:100F7600000000000000000000000000000000006B
:100F8600000000000000000000000000000000005B
:100F96000000000000000000846706080000000052
:100FA600000000001D330308204E0000030000006F
:100FB600000000000000000000000000000000002B
:100FC600000000000000000000000000000000001B
:100FD6000000000000000000946706080000000002
:100FE60000000000F1200408400D0300030000008B
:100FF60000000000000000000000000000000000EB
:1010060000000000000000000000000000000000DA
:101016000000000000000000A467060800000000B1
:101026000000000095D8030810270000010000000A
:1010360000000000000000000000000000000000AA
:10104600000000000000000000000000000000009A
:101056000000000000000000E8660608000000002E
:101066000000000015C4010810270000030000005E
:10107600000000000000000000000000000000006A
:10108600000000000000000000000000000000005A
:101096000000000000000000AC6706080000000029
:1010A6000000000001560208A086010001000000B1
:1010B600000000000000000000000000000000002A
:1010C600000000000000000000000000000000001A
:1010D6000000000000000000B467060800000000E1
:1010E60000000000291A040850C300000100000097
:1010F60000000000000000000000000000000000EA
:1011060000000000000000000000000000000000D9
:101116000000000000000000BC6706080000000098
:101126000000000015160408A86100000100000078
:1011360000000000000000000000000000000000A9
:101146000000000000000000000000000000000099
:101156000000000000000000C8670608000000004C
:1011660000000000F1E90108A0860100010000006E
:101176000000000000000000000000000000000069
:101186000000000000000000000000000000000059
:101196000000000000000000D46706080000000000
:1011A60000000000654D0408A00F000001000000CB
:1011B6000000000000000000000000000000000029
:1011C6000000000000000000000000000000000019
:1011D6000000000000000000E067060800000000B4
:1011E60000000000AD790108102700000100000092
:1011F60000000000000000000000000000000000E9
:1012060000000000000000000000000000000000D8
:101216000000000000000000EC6706080000000067
:1012260000000000997101081A4100000100000049
:1012360000000000000000000000000000000000A8
:101246000000000000000000000000000000000098
:101256000000000000000000F06706080000000023
:1012660000000000998D0008102700000100000012
:101276000000000000000000000000000000000068
:101286000000000000000000000000000000000058
:101296000000000000000000D06606080000000004
:1012A6000000000061F4010850C3000001000000C6
:1012B6000000000000000000000000000000000028
:1012C6000000000000000000000000000000000018
:1012D6000000000000000000FC6706080000000097
:1012E60000000000659D0008400D0300000000009E
:1012F60000000000000000000000000000000000E8
:1013060000000000000000000000000000000000D7
:10131600000000000000000004680608000000004D
:10132600000000002DBB0308400D03000000000074
:1013360000000000000000000000000000000000A7
:101346000000000000000000000000000000000097
:1013560000000000000000000C6806080000000005
:101366000000000099D2010850C3000003000000ED
:101376000000000000000000000000000000000067
:101386000000000000000000000000000000000057
:1013960000000000000000001868060800000000B9
:1013A600000000004166030840420F0000000000F4
:1013B6000000000000000000000000000000000027
:1013C6000000000000000000000000000000000017
:1013D600000000000000000024680608000000006D
:1013E60000000000B9BB030850C300000000000065
:1013F60000000000000000000000000000000000E7
:1014060000000000000000000000000000000000D6
:10141600000000000000000001FF010001000000C4
:10142600F1890108000000000000000044DA050808
:1014360000000000000000000000000070F6050833
:1014460000000000000000000000000028F705086A
:10145600000000000000000000000000D4F60508AF
:101466000000000000000000A9A201080B7F002078
:1014760001010000D9DF01080000000000000000A3
:10148600FCF7050839E30108000000000000000031
:10149600B4F705082D202D2D202D2D2D2D202D2D99
:1014A6002D00000000000000000000000000000009
:1014B60000000000FFFFFFFF29B301080000000045
:1014C6000000000000F6050801000000FA00000018
:1014D6000100000001000000847D00200000F401EE
:1014E60001000000827D00200000F40101000000E0
:1014F600807D00200000F401010000007E7D0020B8
:101506000000F401010000007C7D00200000F401D1
:10151600010000007A7D00200000F40101000000B7
:10152600787D00200000F40101000000ED92010822
:10153600B19201080000000010E00508687D002057
:1015460005320100767D00206400F40101000000F0
:10155600747D00206400C40901000000667D00203F
:10156600E803D00701000000647D0020E803D007EF
:1015760001000000627D0020E803D00701000000A2
:10158600607D00201E00B80B010000006E7D00206B
:1015960005000F0001000000707D002003000A0016
:1015A600010000005E7D00201E00F4010100000025
:1015B600727D0020020000009CE005085C7D002092
:1015C60014006400010000006A7D00203200E80378
:1015D600010000005A7D00200000C8000100000044
:1015E6003D7C002000C801003C7C0020005001002A
:1015F6003B7C0020005A0100397C002002000000DC
:10160600A8E005083C6C0608446C06089A400020D1
:101616000100C40900000000984000200100C40930
:1016260000000000964000200100C40900000000F0
:10163600944000200100C4090000000090400020F2
:101646000100C40900000000924000200100C40906
:10165600000000008E4000200100C40900000000C8
:101666008C4000200100C40900000000C37900205E
:1016760000C80100C279002000C80100C07900201E
:101686000000FFFF0A000000BE7900200100C8002C
:1016960001000000BC7900203200307532000000E5
:1016A600BA79002005820500B879002005002C01D2
:1016B60005000000B7790020055A0500B47900201E
:1016C60000FF0100B6790020020000000C0D00208A
:1016D600B27900200300000018D50508B379002070
:1016E60000FF0100B5790020020000000C0D00206B
:1016F600B17900200300000018D5050814790020F0
:10170600FF7F01001079002000000000FFFFFFFFAF
:10171600010000000C79002000000000FFFFFFFF21
:10172600010000000879002000000000FFFFFFFF15
:101736000100000041920108D1910108000000005B
:10174600B4E00508987D0020EE02CA0801000000FA
:10175600967D002000C8010064000000957D0020F1
:1017660000C8010064000000947D00200200000013
:10177600C0E10508AE7900200000803E05000000AB
:10178600AC79002080C1803E05000000A6790020CB
:101796000083007D05000000A479002080C1803E02
:1017A600050000009F79002000FF010098790020C5
:1017B6006400F40101000000967900206400F40141
:1017C60001000000947900206400F401010000008B
:1017D6009279002004000000CCE1050891790020F0
:1017E60002000000E0E105084D7A00200D0000002F
:1017F600ECE105084A7A002000640100487A0020DE
:10180600320010270A000000467A00200D00000072
:10181600ECE10508457A00200D000000ECE1050822
:10182600447A00200200000024E2050800000000BF
:10183600000000000000000030E205089D7D002049
:101846004100000068E205089B7D002003000000BF
:1018560070E305089C7D00200400000080E3050875
:101866004F7A00200300000094E305084E7A00201A
:101876000300000094E305082A7C0020000A01000A
:10188600287C00200000E80301000000267C0020E0
:101896000000E80301000000247C0020000A01008B
:1018A600227C00200000E80301000000207C0020CC
:1018B6000000E80301000000187C00200000E80397
:1018C600010000001E7C00200000E803010000006B
:1018D6001C7C00200000E803010000001A7C0020A8
:1018E60000140100387C002002000000A4E3050873
:1018F600367C00200000F40101000000347C00204A
:101906000000F40101000000327C00200000F40118
:1019160001000000307C00200000F40101000000FE
:101926002E7C00200000A00F010000002C7C00206F
:101936000000A00F010000004A7D002000640100A5
:101946000A000000497D0020006401000A00000032
:10195600377D002019640100367D0020020000005A
:10196600B0E30508347D0020E803D0070A00000034
:10197600327D0020006401000A000000277D00205F
:1019860000640100267D0020006401002E7D0020F9
:10199600006401000A0000002D7D002000640100A3
:1019A6000A0000002C7D0020006401000A000000EF
:1019B600317D002000FF01000A000000307D00207C
:1019C60000FF01000A0000002F7D002000FF01003B
:1019D6000A0000002B7D002001FF01000A00000024
:1019E6002A7D002001FF01000A000000297D002059
:1019F60001FF01000A000000587A00200000F401EF
:101A060001000000567A00200000A00F010000002F
:101A1600547A00200000A00F01000000527A002036
:101A26000000A00F01000000507A00200000A00F67
:101A3600010000005A7F002000960100547F00201C
:101A460000C80100537F002000640100527F00207F
:101A560000640100517F002000640100507F0020D7
:101A6600006401004F7F0020FF0801004E7F002028
:101A760001640100499001080D9001080000000072
:101A8600BCE30508577F002001320100567F002085
:101A9600010000002CE40508557F0020040000002A
:101AA60034E405084D7F0020009601004C7F00209D
:101AB600006401004A7F00201400E80301000000D2
:101AC600487F0020000030750A000000477F002094
:101AD60000C80100467F002000C80100457F0020A5
:101AE60000C80100447F002000320100597F002019
:101AF600004B0100587F00200400000048E4050860
:101B0600437F0020006401000A000000557D00208C
:101B160032C801000A000000547D002001000000C8
:101B26005CE40508577D002032C801000A00000069
:101B3600567D0020010000005CE40508537D00206E
:101B460032C801000A000000527D002032C80100A0
:101B56000A000000517D002032C801000A00000082
:101B6600507D002032C801000A0000004F7D002091
:101B760032C801000A0000004E7D002032C8010074
:101B86000A0000004D7D002032C801000A00000056
:101B96004C7D00200200000064E40508687F0020F8
:101BA6000000D00701000000637F002000C801008C
:101BB600627F002000C80100617F002000C801008C
:101BC600667F00200000D00701000000607F002033
:101BD60000C801005F7F002000C801005E7F002072
:101BE60000C80100647F00200000D007010000004B
:101BF6005D7F002000C801005C7F002000C8010056
:101C06005B7F002000C80100F18D0108D98D010815
:101C16000000000070E40508417A0020005A010027
:101C2600407A002000C801003E7A0020E803D00771
:101C3600010000000000000000000000E9A2010809
:101C46000CE505080A7F00200300000060E5050892
:101C5600158D0108C98C01080000000070E5050813
:101C6600898C0108418C0108000000000CE605087B
:101C7600618D01080DB30108000000008CE605081F
:101C8600B079002001030100B58901088B8901089C
:101C96000000000000EA0508C99301089D930108A9
:101CA6000000000080EA0508D18B0108798B010845
:101CB60000000000F0EA0508018E010821E901088C
:101CC60000000000A8EB050841B70108F5930108DC
:101CD6000000000050EC0508518E010800000000CD
:101CE60000000000ECEC0508358F0108D58E0108D0
:101CF6000000000050ED0508D18F0108958F0108FE
:101D06000000000008EE05086D1202088590010823
:101D16000000000094EE0508597D00200106010030
:101D2600998E0108658E010800000000ACEF0508D9
:101D360091110208ADB40108000000001CF005086E
:101D46002D910108B59001080000000088F10508F2
:101D5600B112020885B501080000000084F20508EA
:101D6600587D002001030100A98D0108798D010825
:101D76000000000058F30508FFA701080000000056
:101D860000000000BCF30508298C0108F5B2010823
:101D96000000000058F405080000000000000000E4
:101DA60000000000C8F40508A99101087DB60108E5
:101DB6000000000048F505080000000000000000D3
:101DC6000000000070F70508243400209CFF2C0159
:101DD6000000000034840020E0150C17000000000D
:101DE6003684002002000000A8F705088C79002040
:101DF60088136F17010000008E79002088136F1773
:101E060000000000BE3300200000000000000000BB
:101E1600BC3300200000000000000000BA330020A0
:101E26000000000000000000B833002000000000A1
:101E360000000000B6330020000000000000000093
:101E4600B43300200000000000000000B4030020AE
:101E560000000000000000001579002003000000CB
:101E660098F805088479002088136F170100000090
:101E7600F649002088136F1700000000B98A010890
:101E86000000000000000000A8F80508097F0020F7
:101E960001000000FCF80508F849002001000000D8
:101EA60008F90508EE4900200200000010F90508AF
:101EB6000000000000000000000000001CF90508FA
:101EC600A18A01080000000000000000B8F905081A
:101ED6000000000000000000000000000CFA0508E9
:101EE6000000000000000000000000007CFA050869
:101EF6009079002002000000B4FA0508F24900209B
:101F0600E0150C1700000000888D0020DC8D0020F5
:101F160001D601FF010000000001010100000000E0
:101F26000000803F000000000000000000000000EC
:101F3600000000000000000000000000000000009B
:101F460000000000000000000000803F00000000CC
:101F560000000000000000000000803F00000000BC
:101F660000000000000000000000803F00000000AC
:101F76000000000000000000010000000000FA431D
:101F86000000FA430000803FFFFFFFFFFF00000054
:101F9600A5DA0308000000000000000000000000B1
:101FA60000000000D0A4002008000000000000008F
:101FB600C0A4002008000000FFFFFFFF618A0008A0
:101FC600CD88000865EB0008000000001D830008AE
:101FD60021E700081988000895E6000800000000BF
:101FE60000000000D98200086D82000861820008A6
:101FF600E5DD000801DE0008C9DD0008ADDD0008EA
:1020060091DD0008198A0008A9880008B1EA0008CD
:1020160000000000F182000899E60008ED8700083C
:10202600F1E500080000000000000000E58200085D
:10203600685E0C0002000000006002401060024072
:102046000000000000000000000B0000000000007F
:10205600000000000000000000600240286002400E
:102066000100000000000000060C00000000000057
:1020760000000000000000000060024040600240D6
:102086000200000000000000100D0000000000002B
:10209600000000000000000000600240586002409E
:1020A6000300000000000000160E00000000000003
:1020B6000000000000000000006002407060024066
:1020C6000400000000000000200F000000000000D7
:1020D600000000000000000000600240886002402E
:1020E60005000000000000002610000000000000AF
:1020F600000000000000000000600240A0600240F6
:102106000600000000000000301100000000000082
:10211600000000000000000000600240B8600240BD
:102126000700000000000000362F0000000000003D
:10213600000000000000000000640240106402403D
:102146000000000000000000003800000000000051
:102156000000000000000000006402402864024005
:102166000100000000000000063900000000000029
:1021760000000000000000000064024040640240CD
:102186000200000000000000103A000000000000FD
:102196000000000000000000006402405864024095
:1021A6000300000000000000163B000000000000D5
:1021B600000000000000000000640240706402405D
:1021C6000400000000000000203C000000000000A9
:1021D6000000000000000000006402408864024025
:1021E600050000000000000026440000000000007A
:1021F600000000000000000000640240A0640240ED
:10220600060000000000000030450000000000004D
:10221600000000000000000000640240B8640240B4
:102226000700000000000000364600000000000025
:10223600000000000000000001000000A00F0000E8
:10224600B80B00000102FFFF0100000040970608DE
:102256000000080205030300000000004897060876
:10226600010008020504030000000000E08E0608D5
:102276000200FE010110030000000000C06F060806
:102286000300140200030000000000005097060837
:1022960004001F020200080000000000589706080C
:1022A60005001F020201080000000000FFFF0000F9
:1022B600FFFFFFFF1A0300000000000000000000FF
:1022C6000000000000000000000000000000000008
:1022D6000403090412010002000000408304205791
:1022E60000020102030100004D3905082D2A0508E8
:1022F600292A0508252A05080D3A0508212A050870
:102306001D2A0508DC550608BD89000889880008CD
:10231600CDE800080000000000000000C9E5000844
:10232600E5E40008000000000000000000000000D6
:1023360095820008C52A0508B92A05082D3F050813
:10234600493F0508712A0508113F0508F53E0508AD
:102356000000000040000000030000000004000030
:102366001F0000001C0000001F0000001E000000EF
:102376001F0000001E0000001F0000001F000000DC
:102386001E0000001F0000001E0000001F000000CD
:102396000068214C010000007C5F06080000000078
:1023A600000000000102030406070809FF00000000
:1023B600BC1A002000000000000000000000000021
:1023C6000000000000000000000000000000000007
:1023D60000000000000000000000000000000000F7
:1023E60000000000000000000000000000000000E7
:1023F60000000000000000000000000000000000D7
:1024060000000000000000000000000000000000C6
:0424160000000000C2
:082800000000000000000000D0
:108000002DE9F04700230F6801264FF0030C02E032
:108010000133102B41D006FA03F232EA0704F7D1FC
:10802000D0F800E05C000CFA04F52EEA050EC0F86A
:1080300000E091F80490D0F800A009FA04FE09F1DC
:10804000FF394EEA0A0EB9F1010FA846C0F800E068
:108050006FEA050515D8D0F808E005EA0E05856039
:108060004D79D0F808E0A54045EA0E0585604568E1
:1080700025EA020242608A7945689A4092B22A4310
:108080004260C26822EA0802C260CA79C568A2409A
:1080900001332A43102BC260BDD1BDE8F08700BF79
:1080A000074AD2E90031994208D0D1180133097A40
:1080B0000170C3F30A03136001207047002070476A
:1080C000201B0020064AD2F80838D2F80C28934228
:1080D00094BF4FF400600020013B9B1A1844704786
:1080E000201B0020012380F85130704707B501A8FC
:1080F000FFF7D6FF0028FAD09DF8040003B05DF822
:1081000004FB044BD3E90003984288BF03F50063E6
:10811000181A7047201B002001207047024BC3F83B
:108120001028C3F814187047201B0020024BC3F816
:108130001828C3F81C187047201B00207047704790
:1081400030B4124DD5E900239A4286BF03F500648E
:10815000A21A9A1A0A44B2F5006F11D899B10144D3
:108160004A1E013810F8014FE918824203F1010359
:108170000C72C3F30A03F5D16B60002030BC70476A
:10818000022030BC70470846F8E700BF201B0020E3
:10819000212838B50C4605D022282ED0202813D00F
:1081A000002038BD0029FBD0072AF9D11A4BD3F89B
:1081B000200893F8241893F8252893F8263820608F
:1081C00021716271A371EBE70029E9D0072AE7D199
:1081D000114DD5F814381BB10968D5F81008984727
:1081E000206821796279A379C5F8200885F82418D8
:1081F00085F8252885F82638D2E70029D0D0022A2C
:10820000CED1054AD2F81C38002BC9D00988D2F843
:1082100018089847C4E700BF201B0020024B00202D
:10822000C3F82808704700BF201B0020044B002023
:108230000522C3F82828C3F81C08C3F8140870479F
:10824000201B0020704700BF704700BF704700BF71
:10825000704700BF704700BF704700BF704700BF46
:10826000042301480B8070478801002010B4074A9E
:10827000074B92F82C08122403F114020C800128F9
:108280000CBF184610465DF8044B7047201B0020B9
:108290008C010020202301480B807047B40100208E
:1082A00010B40C4A92F8303802EBC3010133DBB250
:1082B000042B4FF0050408BF00234FF4045081F84D
:1082C000344882F83038C1F838085DF8044B4FF074
:1082D000FF307047201B0020642301480B8070474B
:1082E000D4010020432301480B807047380200204E
:1082F00010B5084CD4F8F400FF2809D00649D1F88D
:10830000542801F65801FFF743FFFF23C4F8F43067
:10831000002010BD88010020201B0020E8E700BFDE
:1083200008B5D0F8E4355B6A9847002008BD00BF67
:1083300008B5D0F8E4351B6A9847002008BD00BF97
:10834000D0F8E43510B504461B689847D4F8E835F2
:108350009B689847002010BD08B5D0F8E435DB696C
:1083600003B19847002008BD08B5042290F8121107
:10837000D0F8E83580F8131180F81221DB689847AF
:10838000002008BD10B5D0F8E83504461B699847B1
:10839000032384F81231002010BD00BF82B00023F7
:1083A000016801930B6901930E4B03E00A69019286
:1083B000013B13D0019A002AF8DA019A094B42F0E6
:1083C00001020192019A0A610A69019203E00A69B5
:1083D0000192013B02D0019AD207F8D4002002B0EA
:1083E000704700BF400D0300436D064A1A61C27812
:1083F000012A06D100F2CC5058614FF08022196852
:108400001A6070471800086070B44B78012B26D0B2
:108410000B784A6900EB83035C6D25682369D2B150
:108420008A684A6102F07F0223F4002323F07F036D
:1084300042F4002213432361C378012B04BF0B696C
:108440006361C5F3076363F07B0363F31F65256016
:10845000002070BC70478A6802F07F02E4E78269FE
:108460004C691568136944B38E68B4428CBF06F03A
:108470007F0404F07F0423F4002323F07F0344F4FB
:10848000002443EA040388BF4E611361C378012BC3
:108490001DD0C5F3076464F07B0464F31F651560A9
:1084A000002BD5D14B69002BD2D002690878516BD3
:1084B000012383400B435363CAE723F4002323F0D3
:1084C0007F0343F400231361C378012BE1D10B78C0
:1084D0000C6900EB8300C5F30763816963F07B03DC
:1084E00063F31F654C610020156070BC704700BFCE
:1084F0002DE9F0434B78012B30D00B784C6900EB21
:1085000083035E6D356837691CB38B681C44013C7E
:10851000B4FBF3F4C4F3090203FB02F3C3F3120345
:108520004B61144643EAC44363F31C073761C378C5
:10853000012B04BF0B697361CB78012B44D0C5F3C9
:10854000076363F07B0363F31F6535600020BDE8BC
:10855000F0838A680124C2F31203E3E791F80080F4
:108560004E6900EB880EDEF818C0DCF80050DCF82D
:10857000107076B3D1F80890384A06EB0904013C34
:10858000B4FBF9F402EAC444C6F312022243CC78E5
:1085900007F060473A43012C174649D0CCF8102029
:1085A000C278012A55D00269516B03FA08F30B43D4
:1085B0005363C5F3076363F07B0363F31F65CCF874
:1085C00000500020BDE8F0834B7973B345F00055AF
:1085D000B5E707F0604747F40027CC78CCF8107077
:1085E000C378012B2FD0012CE3D102699268D20508
:1085F00054BF45F0005545F08055C5F3076262F061
:108600007B0262F31F65CCF80050002B9ED1B0B204
:1086100003308010DEF8D04098D0CA6852F8041BAE
:10862000216001339842F9D190E745F0805586E703
:1086300064F35E77CCF81070C378012BD5D10A694A
:10864000CCF81420D1E70A69CCF81420012CB0D161
:10865000CBE70B69CCF81430ABE700BF0000F81F84
:1086600082B000230193019A094B42F0100201925B
:10867000C168019A0A610A69019203E00A690192DC
:10868000013B02D0019AD206F8D4002002B0704714
:10869000400D030082B000230193019A0B4B42F07E
:1086A00020020192019A61F38A120192C168019A33
:1086B0000A610A69019203E00A690192013B02D052
:1086C000019A9206F8D4002002B07047400D0300D2
:1086D0000B0617D401EB810300EBC30310B400EBCE
:1086E00081000124002283F8764383F8741383F811
:1086F0007523426D5DF8044B136843F400130020AA
:108700001360704701F07F0101EB810300EBC303AD
:10871000012200EB810083F81C1183F81E2183F8ED
:108720001D2182691368002B01DA43F0804343F472
:10873000001313600020704710B580210446FFF736
:10874000C7FF20460021FFF7C3FF2046BDE81040C9
:108750004AE600BF38B501EB810400EBC4040D46C6
:10876000002184F87453C4F88C1384F87513C4F88A
:108770008833C4F88023C3782821012B01FB05012D
:1087800008BFEDB201F55D7108BFC4F884231DB9BF
:10879000FFF73AFE002038BDFFF7AAFE002038BDE3
:1087A00070B5104BD3F8682893F8805804461AB176
:1087B00093F86C382B430DD081212046FFF788FFBA
:1087C000022D00D070BD2046074ABDE870401F232F
:1087D0000121BFE70121FFF77BFF20468121BDE892
:1087E000704075E7201B00208023002010B501EBAE
:1087F0008101084A00EBC1010446B1F88C13104610
:10880000FFF79EFC034A204640230121FFF7A2FF09
:10881000002010BDA4230020E8E700BF0B0630B401
:108820001CD401EB810200EBC202002300EB8105A6
:1088300082F8741382F8753301241A4604FA01F1A0
:108840006D6D61F31F4201696FF3CF332B60CB690C
:1088500023EA0203002030BCCB61704701F07F01A6
:1088600001EB810400EBC404012200EB810500232D
:1088700084F81C1184F81D2102FA01F11A46AD6931
:1088800061F30F02DFE700BF10B581210446FFF757
:10889000C5FF20460121FFF7C1FF024B002083F8EE
:1088A000C40810BD201B002010B581210446FFF72D
:1088B000B5FF20460121FFF7B1FF82212046FFF7D7
:1088C000ADFFFFF7ABFC002010BD00BF38B50D4673
:1088D00004468321FFF7A2FF29462046FFF7E4FF65
:1088E000002038BDF0B416460A063AD401EB8105E3
:1088F00000EBC5052824002204FB0104022B85F8A7
:108900007413C5F87C6385F8773385F8752304F50F
:108910005D7448D0154600EB8107012202FA01F18F
:108920007F6D61F31F45D7F800C01CF4004F11D1D3
:10893000E488204946F0805242F4004242EA8342F1
:1089400004F00F041C4B42EA845211400CEA03036A
:10895000194339600269D3692B430020F0BCD3610D
:10896000704701F07F0101EB810500EBC50528246C
:10897000012204FB0104022B85F81C11C5F82461B7
:1089800085F81F31A5F8221185F81D2104F58E7494
:108990000CD0002500EB8107012202FA01F1BF692A
:1089A00061F30F05BFE722711546B4E70025257175
:1089B000F0E700BFFF87CC13007833EC70B50446B6
:1089C000144EFFF761FF2046022340228121FFF76A
:1089D00089FF4022012120460223FFF783FFD6F8BA
:1089E000C83800251B6886F8C458284686F8805881
:1089F00098472046FFF734FE20460121FFF74AFE44
:108A0000204606F506621F230121FFF7A3FE284634
:108A100070BD00BF201B002010B502230446402279
:108A20008121FFF75FFF2046022340220121FFF74B
:108A300059FF8221204603230822FFF753FF064BEC
:108A400002229A83FFF7F2FB044A204640230121C9
:108A5000FFF780FE002010BD88010020A423002025
:108A600038B509220D46044603238321FFF73AFF58
:108A700029462046FFF7D0FF002038BD002310B55F
:108A8000194604464022FFF72DFF8021204600238F
:108A90004022FFF727FFD4F8E835A078012284F8B8
:108AA00012215B689847002010BD00BF0E4BDA68AA
:108AB000D20310D4DA68D1060FD4DA68D20510D404
:108AC000DA6812F0E00F0AD1DB6813F0020F14BF6E
:108AD00008200920704701207047062070470720B2
:108AE00070470220704700BF003C024000207047E2
:108AF000134AD2F8CC08C8B1D2F8D038B3B1884202
:108B000012D88B4234BF00230123DBB25BB1D2F811
:108B1000D838C2F8D418994205D00A4BC2F8D818F0
:108B2000142083F8F80070470023EEE7A1F59C536A
:108B3000083BB3F57A7F2CBF00230123E6E700BF93
:108B4000201B002088010020064B93F8DD2883F8C5
:108B5000DC188A4205D0044A83F8DD18142082F814
:108B6000F8007047201B002088010020704730B1BA
:108B7000034B93F8DE08012894BF002001207047C2
:108B8000201B002008B5FFF7F2FF60B1064A92F8FB
:108B9000DF3892F8DC285B0003F00203002A18BFDC
:108BA00043F001030B6008BD201B002008B5FFF750
:108BB000DEFF18B1024BD3F8E0380B8008BD00BFD0
:108BC000201B002070B5FFF7D2FF60B10B4AB2F84E
:108BD000E4583DB1D2F8E8680023B3421C4603DBF9
:108BE000002000E00D7070BD02EB44040133B4F8C6
:108BF000EC48AC42DBB2F0D10B70F4E7201B002054
:108C000008B5FFF7B4FF10B100230B70137008BD57
:108C10000420704728B1034B93F9FA00003818BFBD
:108C2000012070478801002008B5FFF7F3FF50B11D
:108C3000054B93F9FA20012AC3BF93F8FD30C3F323
:108C400040030B60002008BD8801002008B5FFF735
:108C5000E1FF18B1024B93F8FC300B7008BD00BF68
:108C60008801002070B5FFF7D5FF38B10E4C94F89D
:108C7000FD30DB0703D500230B70137070BD0B4D67
:108C800094F9FB3095F8FC6893FBF6F301330B7015
:108C900094F9FB4095F8FC1894FBF1F301FB1343A6
:108CA00001331370EAE700BF88010020201B002079
:108CB0000320704770B50B4A92F8003906255E1CF8
:108CC000B6FBF5F405FB146492F80159AC4207D0E9
:108CD00002EBC30382F80049C3F80409C3F808197A
:108CE00070BD00BF201B0020002230B50446104696
:108CF000914200DC30BDA35C0825584010F0800F85
:108D00004FEA400318BF83F0D503013DD8B2F5D137
:108D10000132EDE710B5E9B10F4BD3F834098142C8
:108D200018DCBAB1D3F8FC389A4213DC0B4C013A88
:108D3000013903FB012184F8081104F58270052133
:108D4000FFF7D2FF062184F8090104F58270BDE81F
:108D50001040AFE710BD00BF201B0020880100209D
:108D60000023038083708380C3800372704700BF39
:108D7000074A084992F8383909780133DBB2994239
:108D800082F8383904BF002382F83839704700BFB1
:108D9000201B002010000010F8B57A4CD4F83C39A4
:108DA0008BB1794BD3F84C3193F82E305BB1774BC4
:108DB00094F84029A3FB0013012A4FEA931330D003
:108DC000022A08D002B1F8BD714B9842FBD90123A9
:108DD00084F84039F8BDD4F8442964329A423ED828
:108DE00094F8383904EB031393F8C42DFF2A06D006
:108DF00068490132012083F8C42D81F80A01FFF788
:108E0000B7FF94F8B83D0122092B84F84029DAD144
:108E1000B4F86A3E13449BB2A4F86A3EA4F8BE3D7F
:108E2000F8BD94F83819C4F844398C2303FB014386
:108E300094F8B80D83F85A29002604F64C150A2236
:108E40000223092884F85669C4F8485984F8572938
:108E500084F84039B7D10131A4F8BC1DF8BD94F8AD
:108E6000562994F857399A42ADD104F64B1004F6BE
:108E70005415002310F8012F082153405A0013F015
:108E8000800F08BF5B0082F0070214BFD3B2DBB2D1
:108E90000139F3D18542EDD194F855299A4239D15F
:108EA00094F83869B4F84F5994F85379B4F85109E3
:108EB00094F8543994F84DC904EB06126DBA40BACF
:108EC00043EA0723ADB294F84E7982F8C41DC2F884
:108ED000C85D81B22F4D94F94C09C2F8CC1D47EA08
:108EE0000C271BB20121032EA2F8C67DA2F8D03DAB
:108EF00082F8C50D85F80A1109D894F8B82D0C2A06
:108F00002AD00D2A03D104EB4606A6F8BC0DFFF7C4
:108F10002FFF5CE794F8383904EB031393F8C42D62
:108F2000FF2A06D01B490132012083F8C42D81F8A5
:108F30000A01FFF71DFF94F8B83D0122092B84F8C0
:108F400040297FF440AFB4F8683E13449BB2A4F8C4
:108F5000683EA4F8C03DF8BD94F8661E0E4A03EBC7
:108F6000830303EB830349089B0004EB460693FB52
:108F7000F1F382FB0312DB17C3EBA203A6F8BC3D9F
:108F8000C5E700BF201B002010000010D34D621069
:108F90003F4B4C0088010020676666660B4B93F8D8
:108FA000561993F8572991420ED010B493F85629C8
:108FB000D3F84849511CD2B2C0B2C9B283F856198D
:108FC000A0545DF8044B7047704700BF201B002081
:108FD000FD2870B522D0F02804D0EF2822D002243A
:108FE000204670BD114D0320052641282E444FF028
:108FF000000405F1010580F080030DD0042B0BD98E
:10900000FFF7E6FF2044B542C4B2E9D015F8010BE2
:10901000412880F08003F1D10420F3E7044D0B20B8
:109020000426E2E7034D0C200626DEE7ACCF050858
:10903000A8CF0508B4CF0508144B30B4D3F86C4E54
:1090400014B300220F2583F8721E090A83F8710EEB
:1090500083F8731EC3F8742EC3F8782EC3F87C2EE1
:1090600083F8705E03F56760012110F8015F01313C
:109070002A440E29D2B2F8D183F87E2E2046044924
:1090800030BC10223BF036BE30BC7047201B0020A5
:1090900090290020034B002183F8801EC3F8841E12
:1090A000CAE700BF201B0020F8B51A4C94F8883E90
:1090B000002BFBD159B301444E1E451ED4F80C2899
:1090C000D4F8081815F8017F531CC3F30A038B4228
:1090D0002CBF4FF400600020C91A2244014401292A
:1090E000C4F80C3882F88C7E0FD101203BF048F98F
:1090F000D4F80838D4F80C188B4294BF4FF40062AF
:1091000000225B1A1344012BEFD0B542D6D10020C8
:10911000F8BD00BF201B00200A4B0846D3F82818D2
:1091200010B569B1D3F82838052B09D1064C002AAF
:10913000D4F8943504DD1146FFF7B6FFD4F8943522
:1091400010BD00BF201B0020182C002010B590F887
:109150005010002380F8503089B10C4CD4F82828E6
:109160007AB1D4F82828052A0DD1094C3C30D4F81E
:109170009435FFF799FFD4F89435012010BD0120F4
:10918000FCE71046FAE71846F8E700BF201B00206E
:10919000182C0020002280F85120D7E790F85020AA
:1091A000531C0244DBB280F8503082F83C1090F837
:1091B00051200AB1132B00D9C8E770472DE9F04FB1
:1091C000CC4DCD4CDFF874B384460F4616460FCD18
:1091D0002DED068B0FC40FCD0FC495E807008BB0A3
:1091E0009BF8463E029684E80700CDE906C7042BAB
:1091F00000F26781DFE813F0C90165016001050035
:10920000D9019FEDBE8ADFEDBE8ADFF83493BD49F8
:10921000C9F86C11BC49BD4BBD4AC9F86811029927
:10922000002918BF134638EE887AF5EE006A86EEFC
:1092300087AAC9F87431B74BB74F03F5B368B74B7A
:1092400003930026DFEDB67A9FEDB69A28EE278AC3
:10925000F0EE679A079BB34200F02881039A12F858
:10926000013B03920BEB0302013392F84B4EDBB24E
:10927000002C00F09F81002203E00132152A00F04B
:10928000998102EB4201550018F80100A042F4D187
:109290000493A04B194491F89915002900F092818C
:1092A000204639F023FE026805928246104639F0C6
:1092B00009FE9AF8051039F05DFF90F800E0BEF164
:1092C000000F40F07781934B059A58192509032127
:1092D000013D049B80F8D9358D4280F8D81504F003
:1092E0000F0C00F23E81904800EB4500B0F84000C2
:1092F00040FA0CF414F0010400F04581012404FA52
:109300000CF2013A1040049350F092FB864B874ACE
:109310001D44032195F84850049B284402EBC005E6
:109320007D61A971EB7152F830007F499AF80820ED
:1093300000F13F4303F57E0301EB932393F84C3098
:1093400003F01F015B09032B04FA01F400F01681FE
:10935000042B00F00E81022B00F00681AB880893ED
:10936000B3FA83F3C3F11F03C3F3CC0100EB810114
:1093700003F007030C6A9B000F259D4024EA0504B7
:109380000C620C6A02FA03F323430B62022308A95E
:109390000993FEF735FEDAF80020029B002B00F05F
:1093A000D180BBF8443E00EE103AB8EEC00AFCEEA5
:1093B000C07A17EE901A5E4B9A4200F08780A3F5B0
:1093C00080639A4200F0828003F580439A427DD008
:1093D00003F580639A4279D003F580639A4275D091
:1093E0004C4BD3F8742750084FF6FF73B0FBF1F2E3
:1093F0001A44120CB0FBF2F2029800286AD0B2FBB9
:10940000F1F19BF8460E04288BB268D007EE902A43
:10941000F8EE676A66EE887A29EE677A9BF8470E5F
:1094200006990091A8EEA67A019051463846C7EDFC
:10943000027A87ED037A2CF0BBFB002E40F38D807F
:109440007B68D9F88821934200F08980012E00F0D2
:109450008480D9F8A021934200F08180022E7CD034
:10946000D9F8B82193427AD0032E76D0D9F8D021FA
:10947000934274D0042E70D0D9F8E82193426ED074
:10948000052E6AD0D9F80022934268D0062E64D007
:10949000D9F81822D31A18BF012301360122082E49
:1094A0003B747A7407F118077FF4D4AE12480BB0FE
:1094B000BDEC068BBDE8F08F9FED1E8AF0EE488A6A
:1094C000A3E69FED1D8AF0EE488A9EE6114BD3F885
:1094D000740789E79BF8460E0428194696D107EED3
:1094E000901A07EE102AF8EE677AF8EE476A67EEF0
:1094F000A97A91E7BCCF050860010010ACC5A73779
:10950000ACC5A736A9300308A1130408CD2A030867
:1095100095130408182C00209401001076290020CF
:109520006F12833A00007A44A8CF05081C3200204D
:1095300000040140282930386F120339201B002015
:1095400010000010B0EE4A0A049251F093FAFCEEBB
:10955000C07A049A17EE901A2DE701239DE70023A5
:109560009BE7C7F814E018E7174B596C0C435C6491
:10957000F4E6154B196B0C431C63EFE6124B196CA8
:109580000C431C64EAE67C6107E7DFF858909FED26
:109590000F8A0F4B0F4AC9E95A3200230693012361
:1095A0000293F0EE488A0C4B3DE6DFF838909FEDD1
:1095B0000B8AEEE70A4A084BC9F86C21C9F87431E6
:1095C000002074E70B68FFDE003802406F12833A18
:1095D000A1130408A9300308951304080000000033
:1095E000C52D030810000010F8B50546262022F00E
:1095F0001BFC134C0146F0B9D4F8780790F83830CA
:109600001E3B012B01D93BF0A9FB0E4F0026AE42B9
:1096100009DBB4F89C370133A4F89C37D4F89435AF
:10962000C4F8AC37F8BD17F8011BD4F878073BF045
:1096300095FB0136EBE7002384F8AA37EEE700BF7D
:10964000182C00209433002038B5154C94F80139BB
:1096500094F800299A421CD004EBC303114AD3F8B2
:109660000419D3F808090023984213DC8B780E4ABA
:109670005B0882F8AA37C2F8B007FFF7B5FF94F885
:10968000013906210133B3FBF1F201FB123384F8F7
:10969000013938BDCD5C02F8015B0133E4E700BF5E
:1096A000201B002094330020182C002013B5044602
:1096B0002620019122F0B8FB019920B9204602B082
:1096C000BDE81040B8E402B010BD2DE9F84F1B4CC6
:1096D00005461E2094F8B4A794F8B5B794F8B66779
:1096E000B4F8B897B4F8BA8794F8BC7722F09CFB2A
:1096F00030B1B8F1000F03D0C14601264FF0000A87
:1097000094F8BE37DA070AD494F8C3273AB9012F80
:1097100012D0022F03D113F0020F08BF012685F8E3
:1097200000A085F801B0AE70A5F80490A5F80680F9
:109730002F722846BDE8F88F3E46F0E7182C00202F
:1097400007B50DF1060214F063FB78B1094ABDF8C4
:109750000630A2F8E438084AB2F8E817994205D072
:109760000649A2F8E837142081F8F80003B05DF844
:1097700004FB00BF201B0020182C002088010020C3
:1097800013B50446FFF746FA08B300230DF10602AD
:109790002046ADF8063014F03BFBC0B10D4C9DF8EF
:1097A000062094F9FA1084F80F21032908BF62F00B
:1097B0007F024FF00501084808BF84F80F21FFF72A
:1097C00093FA062184F810010348FFF773FA02B0F8
:1097D00010BD00BF88010020930200202DE9F34155
:1097E000BE4CD4F86C3E0E463BB1BD4D4FF0020866
:1097F000D4F86C0E3BF0AEFA60B9002794F8DE386E
:10980000042B00F28D81DFE813F09800F9000F01BE
:109810005E017901D4F86C0E3BF094FAD4F8843EE2
:109820005A1C2B44C4F8842E83F8EA0794F8803E2F
:10983000012B09D0022B10D0002B78D10F2879D121
:10984000012384F8803ED3E7A0F17203012B01D9F4
:1098500076286CD184F8808ECAE7102AC8D1A14935
:109860000023012211F8010F013203440E2ADBB25A
:10987000F8D1002284F8802EC4F8842E95F8F827B9
:109880009A42B5D195F8F937002BB1D195F8EB771D
:10989000732F3FD0762F0FD0722FA9D195F8ED27D7
:1098A00095F8EC3753EA0223A2D0C4F8CC38B5F8C7
:1098B000EE37C4F8D038A1E795F8ED2795F8EC37E6
:1098C00053EA022394D095F8EF1795F8EE2795F810
:1098D000F307C4F8E03842EA012295F8F01784F85B
:1098E000DF1895F8F11785F8FC1795F8F217A5F829
:1098F000FA2741EA0021A5F8FE17D4F8D41809B9CF
:10990000C4F8D438B4F8E438002B7FF477AFA4F867
:10991000E42873E795F8F12795F8F03743EA022336
:109920001AB2002B3FF464AFA5F8002866E70023C5
:1099300084F8803EC4F8843E5AE7722F4FD1012349
:1099400084F8DE38002294F8B83D402B37D194F8E3
:10995000DE38A4F8BC3D624BB4F8E40893F8FC6729
:10996000B3F8FAC794F8DC18A4F8BE7D05023303F7
:1099700005F4706503F440532B434FEA0C1543EA9A
:109980008133EDB22B43D4F8E078D4F8D4581BB22D
:10999000BD4214BF082500251343604514BF0420B1
:1099A00000202B430343B14214BF0221002119437D
:1099B0004D4BA4F8C01D93F8F830A4F8C23DD4F87C
:1099C000343923B1D4F8E838002B40F0AE80474951
:1099D00047481F2202B0BDE8F04153F0D2BA404DD3
:1099E000444AD5F80438F31A934201DC0022AAE76E
:1099F0007220FFF74FFBC5F80468F7E7762F04D114
:109A0000022384F8DE3800229DE7354B394AD3F82B
:109A10000438F31A9342E9DD7620FFF73BFB304B25
:109A20000022C3F804688EE72F4B2D4D93F8F810F1
:109A3000D5F804289846B21AB1B32E4B9A4236DDB7
:109A400094F8DF38DB071FD4D4F8D418D4F8E03802
:109A500099420FD089B24620FFF728FE98F8F830D7
:109A6000C5F80468013B88F8F830042384F8DE3830
:109A7000012268E7B4F8E418B5F8FA378B4203D04E
:109A80005020FFF713FEE9E794F8DC1895F8FC374F
:109A90008B4206D0B1FA81F149094920FFF706FE51
:109AA000DCE7142388F8F830134B9A42B4DC762FA5
:109AB0009CD17320FFF7EEFA032384F8DE38C5F853
:109AC000046800223FE7732F90D0054BD3F80418A9
:109AD000084B761A9E4293DC88E700BF201B0020CB
:109AE000182C00200234002088010020B05F0608F6
:109AF000990200203F0D03003F420F003F4D404AB6
:109B0000D5F80438F31A93427FF770AF7620FFF749
:109B1000C1FA022384F8DE38C5F80468002212E78F
:109B2000002384F8DE381A460DE7344D354CD5F85D
:109B300008682A2384F811310DF1020220230DF167
:109B40000101304684F8123114F0F9F930B19DF872
:109B500001109DF8027051EA070339D1552384F8AA
:109B60001331462384F81431202301A9304684F8A8
:109B7000153114F0DEF90346234813B1BDF8042073
:109B80009ABB224945F0ECFBB5F8FE77204C87B331
:109B90000DF10301304614F0CFF950B39DF80310D6
:109BA0000DF10602304614F033F910B3BDF806206B
:109BB00018493B46BA420CBF20222A22204645F0D3
:109BC000CFFBB5F80038A5F80C3802B0BDE8F0813D
:109BD000304614F099F9394684F81301304614F0F0
:109BE0007FF9037884F81431BEE70B4945F0B8FBE0
:109BF000CAE70A49204645F0B3FBE2E7182C0020EB
:109C00003F0D0300880100209E020020D25F06085D
:109C1000A2020020CA5F060810AF0608D15F06083E
:109C200038B50B680E4D5A1C0A6005221A700B6875
:109C300095F8FA200C46591C21601A70236895F893
:109C4000FD20591C21601A70B5F8001120464BF018
:109C5000C9FE236895F80221591C21601A7038BD8D
:109C6000880100202DE9F84F2DED028BFEF7D2FF81
:109C7000002844D0264B93F9FA0001283FDD93F8E1
:109C80003041DFF894809FED238A0FF27C0BDBE9F3
:109C900000AB15468E1E02EB44094D4504D1BDECC8
:109CA000028B2046BDE8F88F38F8027B26F8027F49
:109CB00007EE907AF8EEE77A67EE887A17EE900A68
:109CC0004FF0C6FA52465B464FF01AFB41EC100BC0
:109CD00052F07AFE51EC100B4FF0EAFD0E2F80B2DD
:109CE0000AD919303223B0FBF3F080B200EB8000C8
:109CF00000EB8000400080B225F8020BCDE7002485
:109D0000CDE700BFAFF300801655B5BBB16B024085
:109D100088010020CDCCCC3D2634002038B50D463E
:109D2000FEF778FF044638B10C4890F8FD30DB07A9
:109D300004D5B0F8FE002880204638BD084A90F9C6
:109D4000FB3092F8FC2893FBF2F102FB1132013256
:109D5000013100F59A7014F06FF8ECE788010020EB
:109D6000201B00202DE9F04FA94D95F81E388BB02F
:109D70008146002B40F0B580D5F80868002E00F031
:109D8000B080A44AD2F8384104F0F021B1F1E02FBC
:109D90006ED1C2F83831D5F82028944268D00493A7
:109DA0000593ADF81830B5F8B83795F8B4E7ADF8C5
:109DB000143095F8B5C795F8BC3795F8B6A78DF867
:109DC00018300DF110088DF810E08DF811C08DF8E5
:109DD00012A098E8070007AB03C38F4F1A80C4F3A3
:109DE00042533B44C4F3034293F85210C5F8204851
:109DF0008E4502F1010201D1944508D030468DF81C
:109E00001C108DF81D2014F017F8ADF82000304616
:109E100014F063FA032804F0070B34D0042836D07A
:109E200000239A4501A9304618BF8DF81E3014F062
:109E30007DF848B1019BC4F3001103F001038B428C
:109E400002D0304614F020F90A2207A9404653F008
:109E500032F868B19DF81E30BDF81C2085F8B63781
:109E6000BDF82030A5F8B427A5F8B83743F098FA24
:109E700095F824A804AF95F82438032B7BD8DFE8A5
:109E800003F00A3376A35F4497F85730C9E75F447D
:109E900097F85F30C5E73946304614F04DF8044670
:109EA00058B107A8FFF711FC9DF81E109DF810305F
:109EB0008B4260D0304614F073F995F824380133A2
:109EC00003F0030385F824380CB99A45D3D195F8EB
:109ED000BE37DB0700D524B1336849461B683046DE
:109EE00098470BB0BDE8F08F01A8FFF7EEFB95F89F
:109EF000BE879DF8044008F00108ECB1B8F1000FEE
:109F000039D13A460DF10301304614F018F80446F1
:109F100088B307A8FFF7D9FB9DF81C109DF8033004
:109F20009DF81D208B4203D19DF81030934222D022
:109F3000304614F03FF9C0E7B8F1000FBDD1394603
:109F4000304613F0F6FF0446A8B107A8FFF7BDFBA3
:109F5000BDF82010BDF810308B420CD085F8258854
:109F600085F82688336830469B699847A5E795F8B9
:109F7000BE37D80701D500249FE707A9304613F064
:109F8000D5FF04460028F6D01E2021F04DFF95F89D
:109F9000273883428046EED085F8270860B1B5F8AF
:109FA000BA37002BE7D1079BD907E4D4012130460B
:109FB00014F06AF8444680E7079BDA07DBD50146D0
:109FC000304614F061F878E73846FFF77EFB97E8F3
:109FD000070007AB03C31A809DF810309BB10DF149
:109FE0001D0207A9304613F0AAFF0DF11E013046ED
:109FF00013F0A2FF0A2207A9384652F05CFF041EA4
:10A0000018BF012459E708A9304613F092FFECE786
:10A01000182C002088010020A8CF05082DE9F04168
:10A02000FD2984B0044600F0DD80F02900F0BC80FA
:10A03000EF2900F031814AB10346861803AD0020B4
:10A0400003F8010B9E4205F8010BF9D19D4B0B2043
:10A0500003F1090501E013F8010F814200F0C78008
:10A06000AB42F8D14B1E832B00F29280DFE813F055
:10A070002201340184003E01AC01B20145015001CE
:10A080005C01900090006201620162017801780138
:10A0900078015C019000900083018B01900090009A
:10A0A0009000900090009000900090009000900030
:10A0B0009000900090009000900090009000900020
:10A0C0009000900090009000900090009000900010
:10A0D0009000900090009000900090009000900000
:10A0E00090009000900090009000900090009000F0
:10A0F000A1019000900090009000900090009000CE
:10A1000090009000900090009000900090009000CF
:10A1100090009000900090009000900090009000BF
:10A1200090009000900090009000900090009000AF
:10A13000900090009000900090009000900090009F
:10A14000900090009000900090009000900090008F
:10A15000900090009000900090009000900090007F
:10A16000900090009000900090009000900090006F
:10A17000900090001D011D01534B93F853180029C6
:10A1800000F0658101922CF075F8019AADF80C0091
:10A190003AB1224403AB13F8011B04F8011BA2429D
:10A1A000F9D104B0BDE8F081484F03214FF0050814
:10A1B000B844002501370CE0FEF70AFF0646601997
:10A1C0003246FFF72BFF70194745C5B2E9D017F8A3
:10A1D000011B412981F08003084601D0042BEBD8F4
:10A1E0000426ECE73A4F0B214FF00408E0E7364B2A
:10A1F000D3F8040980060CD4002AD2D0224403AB41
:10A2000013F8011B04F8011B9442F9D104B0BDE816
:10A21000F08193F8280810F0020F93F8400840D01E
:10A22000052834BF02250325142917D97C39C8B263
:10A230000628E1D80629DFD801A050F821F000BF98
:10A2400021A4000821A4000809A40008F9A100081D
:10A2500033A400082BA400083BA400080929CBD98B
:10A260000A390A29C8D801A656F821F0EBA300083C
:10A2700043A40008F9A10008F9A10008F9A1000809
:10A28000F9A10008F9A10008F9A10008F9A1000846
:10A29000FFA3000821A400080E4F0C214FF0060870
:10A2A00086E70B29A8D10125CCE0074BD3F8F83875
:10A2B00003936DE701920AF00BFA019AADF80C00D6
:10A2C00066E700BF10D00508182C0020ACCF0508A9
:10A2D000A8CF0508B4CF05086D4BD3ED037AFDEE8A
:10A2E000E77A17EE903AADF80C3051E701922BF077
:10A2F000C1FF019AADF80C004AE7664D95F8BE37EC
:10A30000DE0700F1AD80B5F89038ADF80C303FE7CE
:10A31000604B6149B3F9B83881FB0301DB17C3EB2C
:10A32000A103ADF80C3033E75A4BB3F8BA38ADF8A7
:10A330000C302DE7594BDFED5A6AD3ED917A0C3989
:10A34000C9B203EB810393EDA77A67EEA67A67EEB5
:10A35000877AFDEEE77A17EE903AADF80C3017E702
:10A360004C4B03EB4101B1F8963803EB83035B00E0
:10A37000ADF80C300CE7474B93F8BE3703F0010300
:10A38000ADF80C3004E7434BB3F8B018CD055ABF15
:10A39000CB4303F00103032311F0440F18BF042340
:10A3A00011F0020F18BF072311F4806F18BF0923A3
:10A3B000ABE701920AF08CF9364B019AD3F80039D9
:10A3C00043EAC0400390E3E6324BD3F8A038ADF83F
:10A3D0000C30DDE62F4BB3F8901800293AD00192EB
:10A3E0002BF054FF019A80B2D0E6B3F83C3803EB6F
:10A3F000830303EB83039B00ADF80C30FCE6B3F85A
:10A400003A38ADF80C30F7E6B3F83A38254903EBA3
:10A41000C3039B00A1FB03135B09ADF80C30EBE613
:10A42000B3F84438ADF80C30E6E6D3F8303803938F
:10A43000E2E6D3F82C380393DEE6D3F834380393FE
:10A44000DAE6EDB28DF80C508DF80D00D4E6B3F8D5
:10A450006C089BE6D3F8A80880F3100080B295E65C
:10A46000019223F03BFF05F67403D3ED037A019AC2
:10A47000FCEEE77A17EE903A9BB200287FF445AFE6
:10A48000D5F8AC1811F0100F18BF00233DE700BF3E
:10A490008C340020182C00206766666610000010BF
:10A4A00000007A441F85EB5100F01F024009012390
:10A4B000032803FA02F304D004280CD0022805D0A4
:10A4C0007047074A116C0B4313647047044A516C80
:10A4D0000B4353647047024A116B0B43136370477D
:10A4E00000380240002800F0638103689D4A03F1B0
:10A4F0003F4101F57E0102EB912210B492F84C200D
:10A5000002F01F0452090121032A01FA04F100F0AC
:10A510006281042A00F05681022A00F04A81828872
:10A52000D40700F13381900700F11E81510700F13B
:10A530000781140700F1F280D00600F1DD8091065A
:10A5400000F1C880540600F1B380100600F19E802F
:10A55000D10500F18980940574D4500561D41105AA
:10A560004ED4D4043BD4900428D4510415D41204FE
:10A5700002D45DF8044B70471A685DF8044B22F072
:10A5800040421A601A681A60DA6822F04042DA60C3
:10A59000DA6842F08042DA607047196821F0405171
:10A5A000196019681960D96821F04051D960D968DB
:10A5B000120441F08051D960DBD5DDE7196821F044
:10A5C0004061196019681960D96821F04061D9604B
:10A5D000D96841F08061D9605104C8D5DDE71968B8
:10A5E00021F04071196019681960D96821F0407133
:10A5F000D960D968900441F08071D960B5D5DDE7A4
:10A60000196821F44001196019681960D96821F4AA
:10A610004001D960D968D40441F48001D960A2D541
:10A62000DDE7196821F44011196019681960D968CB
:10A6300021F44011D960D96841F48011D960110525
:10A640008FD5DDE7196821F4402119601968196078
:10A65000D96821F44021D960D968500541F480219E
:10A66000D9607FF57CAFDCE7196821F440311960CF
:10A6700019681960D96821F44031D960D968940506
:10A6800041F48031D9607FF568AFDBE7196821F4C8
:10A690004041196019681960D96821F44041D960B6
:10A6A000D96841F48041D960D1057FF554AFDBE72B
:10A6B000196821F44051196019681960D96821F4AA
:10A6C0004051D960D968100641F48051D9607FF5B6
:10A6D0003FAFDBE7196821F4406119601968196020
:10A6E000D96821F44061D960D968540641F4806189
:10A6F000D9607FF52AAFDBE7196821F44071196052
:10A7000019681960D96821F44071D960D96841F499
:10A710008071D96091067FF515AFDBE7196821F0EC
:10A72000C001196019681960D96821F0C001D960A9
:10A73000D968D00641F04001D9607FF500AFDBE772
:10A74000196821F03001196019681960D96821F081
:10A750003001D960D968140741F01001D9607FF544
:10A76000EBAEDBE7A8CF0508196821F00C011960F2
:10A7700019681960D96821F00C01D960D96841F0D5
:10A780000401D96051077FF5D4AED9E7196821F0EB
:10A790000301196019681960D96821F00301D960B3
:10A7A000D968900741F00101D9607FF5BFAEDBE7C2
:10A7B00070470D4A546C214351648288D4077FF559
:10A7C000B2AEE3E7084A146B214311638288D407D1
:10A7D0007FF5A9AEDAE7044A146C2143116482883C
:10A7E000D4077FF5A0AED1E700380240004870479B
:10A7F0007C32002000285FD00368374A2DE9F04101
:10A8000003F13F4404F57E0402EB9422012492F804
:10A810004C2002F01F055209032A04FA05F456D011
:10A82000042A4FD0022A48D08588B5FA85F0C0F1B5
:10A830001F00C0F3CC0603EB860600F00700820081
:10A840000F24306A944020EA04003062306A01FA32
:10A8500002F20243002132624FF0010E0A464FF02D
:10A86000030C02270EFA02F838EA050002F1010291
:10A870001CD118680CFA01F420EA0400186018686A
:10A8800007FA01F606431E609E6826EA04069E60EB
:10A8900098689860586820EA0800586058685860BE
:10A8A000D86820EA0400D860D868D860102A01F17E
:10A8B0000201D7D1BDE8F0817047084A556C2C439E
:10A8C0005464B1E7054A156B2C431463ACE7034AA3
:10A8D000156C2C431464A7E7A8CF05080038024084
:10A8E0002DE9F047C94C94F808190546C1F3400119
:10A8F000D4F810093DF02EFD94F80819D4F80C098D
:10A90000C94301F001013DF025FD002D00F0E58077
:10A9100005F1FF38BE4EBF4D5FFA88F81027D4F816
:10A92000103933B11A689B8851690B4214BF5383A5
:10A930001383D4F80C3933B11A689B8851690B42E0
:10A9400014BF53831383B4F81839002B40F055819A
:10A9500094F81A19D4F81C093DF0FCFC4FF0FA0CDD
:10A960004FF47A704FF0010E7368C3F30803002BA5
:10A9700040F01781EFF31183002B40F01281D4F8DF
:10A980009425A968D4F894359A42F8D1D4F840397E
:10A990009942F4D8D4F83C9900FB09F35B1AB3FB55
:10A9A000F9F300FB02327368C3F30803002B40F095
:10A9B000B780EFF31183002B40F0B280D4F89435C8
:10A9C000D5F808A0D4F894158B42F7D1D4F84019E3
:10A9D0008A45F3D8D4F83C9900FB09F1A1EB0A01B0
:10A9E000B1FBF9F100FB03139B1AB3F57A7FDAD3BD
:10A9F000BCF1010CB8D1D4F8103933B11A689B8876
:10AA000051690B4214BF53831383D4F80C3933B10B
:10AA10001A689B8851690B4214BF53831383B4F89F
:10AA20001839002B40F0DD8094F81A19D4F81C096D
:10AA300081F001013DF08EFC4FF0FA0C4FF47A707A
:10AA40004FF0010E7368C3F30803002B40F08980B8
:10AA5000EFF31183002B40F08480D4F89425A9688B
:10AA6000D4F894359A42F8D1D4F840399942F4D8C0
:10AA7000D4F83C9900FB09F35B1AB3FBF9F300FB34
:10AA800002327368C3F308034BBBEFF3118333BB8C
:10AA9000D4F89435D5F808A0D4F894158B42F7D1A2
:10AAA000D4F840198A45F3D8D4F83C9900FB09F151
:10AAB000A1EB0A01B1FBF9F100FB03139B1AB3F5FB
:10AAC0007A7FDED3BCF1010CBCD108F1FF385FFA0C
:10AAD00088F8B8F1FF0F7FF422AFBDE8F087EFF3FD
:10AAE000118987F31288D5F808A02B68DB0344BFCF
:10AAF000C4F838E9D5F808A0D4F89435D4F8381952
:10AB00005FFA89F989F31188D4F83C990B4400FB6A
:10AB100009F1A1EB0A01B1FBF9F100FB0313CDE749
:10AB2000EFF3118987F31288D5F808A02B68D903B1
:10AB300044BFC4F838E9D5F808A0D4F89435D4F85F
:10AB400038195FFA89F989F31188D4F83C990B44D4
:10AB500000FB09F1A1EB0A01B1FBF9F100FB0313C2
:10AB600042E7EFF3118187F31288D5F808902B683C
:10AB7000DA0344BFC4F838E9D5F80890D4F894351E
:10AB8000D4F83829C9B281F31188D4F83C191A4491
:10AB900000FB01F3A3EB0903B3FBF1F300FB02326B
:10ABA0006FE7EFF3118187F31288D5F808902B68CF
:10ABB000DB0344BFC4F838E9D5F80890D4F89435DD
:10ABC000D4F83829C9B281F31188D4F83C191A4451
:10ABD00000FB01F3A3EB0903B3FBF1F300FB02322B
:10ABE000E1E6D4F83439002B3FF426AFD4F820291D
:10ABF0000023136084F831391EE7D4F83439002B70
:10AC00003FF4ACAE39F080FCA8E600BF182C002061
:10AC100000ED00E010E000E02DE9F84FC44CC54F16
:10AC200094F80819D4F81009C34DC1F340013DF060
:10AC300091FB94F80819D4F80C09C94301F00101FB
:10AC40003DF088FB4FF0050B4FF01008D4F8103999
:10AC500033B11A689B8851690B4214BF5383138325
:10AC6000D4F80C3933B11A689B8851690B4214BF70
:10AC700053831383B4F81839002B40F0518194F8B2
:10AC80001A19D4F81C093DF065FB4FF0320C4FF453
:10AC90007A7001267B68C3F30803002B40F014810F
:10ACA000EFF31183002B40F00F81D4F89425A968AD
:10ACB000D4F894359A42F8D1D4F840399942F4D86E
:10ACC000D4F83C9900FB09F35B1AB3FBF9F300FBE2
:10ACD00002327B68C3F30803002B40F0B480EFF32B
:10ACE0001183002B40F0AF80D4F89435D5F808A03C
:10ACF000D4F894158B42F7D1D4F840198A45F3D88B
:10AD0000D4F83C9900FB09F1A1EB0A01B1FBF9F180
:10AD100000FB03139B1AB3F57A7FDAD3BCF1010C65
:10AD2000B8D1D4F8103933B11A689B8851690B42F5
:10AD300014BF53831383D4F80C3933B11A689B883A
:10AD400051690B4214BF53831383B4F81839002B95
:10AD500040F0DA8094F81A19D4F81C0981F0010146
:10AD60003DF0F8FA4FF0320C4FF47A7001267B6810
:10AD7000C3F30803002B40F08780EFF31183002B0F
:10AD800040F08280D4F89425A968D4F894359A428A
:10AD9000F8D1D4F840399942F4D8D4F83C9900FB62
:10ADA00009F35B1AB3FBF9F300FB02327B68C3F3D0
:10ADB00008033BBBEFF3118323BBD4F89435D5F8DC
:10ADC00008A0D4F894158B42F7D1D4F840198A45DD
:10ADD000F3D8D4F83C9900FB09F1A1EB0A01B1FBCF
:10ADE000F9F100FB03139B1AB3F57A7FDED3BCF1B4
:10ADF000010CBCD10BF1FF3616F0FF0B7FF426AF30
:10AE0000BDE8F88FEFF3118988F31288D5F808A010
:10AE10002B68DB0344BFC4F83869D5F808A0D4F820
:10AE20009435D4F838195FFA89F989F31188D4F880
:10AE30003C990B4400FB09F1A1EB0A01B1FBF9F1CC
:10AE400000FB0313CFE7EFF3118988F31288D5F8DD
:10AE500008A02B68D90344BFC4F83869D5F808A006
:10AE6000D4F89435D4F838195FFA89F989F3118840
:10AE7000D4F83C990B4400FB09F1A1EB0A01B1FBAA
:10AE8000F9F100FB031345E7EFF3118188F3128812
:10AE9000D5F808902B68DA0344BFC4F83869D5F8B0
:10AEA0000890D4F89435D4F83829C9B281F31188C0
:10AEB000D4F83C191A4400FB01F3A3EB0903B3FBDC
:10AEC000F1F300FB023271E7EFF3118188F312888E
:10AED000D5F808902B68DB0344BFC4F83869D5F86F
:10AEE0000890D4F89435D4F83829C9B281F3118880
:10AEF000D4F83C191A4400FB01F3A3EB0903B3FB9C
:10AF0000F1F300FB0232E4E6D4F83439002B3FF4CD
:10AF100029AFD4F820290023136084F8313921E7C0
:10AF2000D4F83439002B3FF4B0AE39F0EDFAACE68A
:10AF3000182C002000ED00E010E000E0B0B10C495A
:10AF4000D1F84439102B03D10521002038F0B2BFCD
:10AF500003EB43020A4482F84809202082F8490999
:10AF60000120034482F84A09C1F84439704700BF00
:10AF7000182C0020F8B5274E00EBC00406EB840423
:10AF8000D4F87C59002D38D094F88DC90CF0FF0707
:10AF9000BCF1000F31D149004FF0010CC9B284F867
:10AFA0008E1984F88F2984F891C984F8927984F8ED
:10AFB00090C984F88DC984F88C79AA88C4F894392A
:10AFC000C4F89839940502D501273846F8BD2B8876
:10AFD000D9050CD44FF4805301E0013B10D02A88EE
:10AFE0009205FAD42B889BB243F480732B80AB88F4
:10AFF0009BB243F44073AB80E6E700273846F8BDC8
:10B00000B6F8E43901339BB2A6F8E4394DF08EF975
:10B01000DBE700BF182C0020F8B5744C04EB0016D9
:10B02000D6F8E839002B00F08F800546070196F826
:10B03000F009FFF739FA96F8F03903F01F015B09C0
:10B040000122032B02FA01F200F09480042B00F09D
:10B050008180022B79D0E319013593F8EC093CF09B
:10B060009BFEEDB2064610B11223C5718371E31940
:10B0700093F8ED093CF090FE10B11323C571837174
:10B08000E31993F8EE093CF087FE10B11423C57163
:10B0900083713C440A2194F8EF2930463CF066FF66
:10B0A00094F8ED093CF078FE94F8EF290A213CF081
:10B0B0005DFF94F8EE093CF06FFE94F8EF290A2149
:10B0C0003CF054FFD4F8E829494B9A4257D0494BF9
:10B0D0009A4244D0484B9A425CD0484B9A4264D042
:10B0E000474B9A426CD0474B9A4274D046491088DD
:10B0F000B1F83E41B1F83C31B1F84051234300F47E
:10B1000041500343B1F84601B1F848412B43034392
:10B11000B1F84A01234303439BB243F003030224E3
:10B120000120A1F84241A1F844011380938BB1F8AA
:10B130004C1123F400631B041B0C938311821388AE
:10B140009BB243F040031380F8BD304B596A0A4369
:10B150005A6280E72D4B19690A431A617BE703F5B0
:10B160000033196A41F480411962196A21F480415F
:10B170001962BBE7254B196A0A431A626BE703F5AC
:10B180008433596A41F480515962596A21F48051DB
:10B190005962ABE703F5FE33196A41F400411962C5
:10B1A000196A21F400411962A0E703F58233596A54
:10B1B00041F400515962596A21F40051596295E7EE
:10B1C00003F56843596A41F480115962596A21F4C0
:10B1D000801159628AE703F56443596A41F400110A
:10B1E0005962596A21F4001159627FE7182C002036
:10B1F0000030014000380040003C00400034014075
:10B2000000500140005401408801002000380240F5
:10B2100070B5464E96F8184A04EB440306EBC30398
:10B22000650093F81C3A032B6ED8DFE803F0592928
:10B230001E02254406EBC505D5F8200A002870D16A
:10B2400096F87C3A9C425FD0013404F003029342AA
:10B2500086F8182A58D002EB420406EBC4040223F5
:10B26000C4F8200A84F81C3A70BD2B1906EBC303FE
:10B27000D3F8202A72B1013AC3F8202A002070BD09
:10B280002B1906EBC303D3F8202A002AF3D102229C
:10B2900083F81C2A254406EBC50595F8283A013B9E
:10B2A000DBB285F8283A8BBB214B96F87C6AD3F841
:10B2B0005011D5F8240A621C02F003024B1E03242D
:10B2C000B242034485F81C4AB3FBF1F0C5F8200AEA
:10B2D0001AD0994218D80138C5F8200A012070BD4B
:10B2E0003EF0ACFD80B1124B2C44D3F8502106EB5C
:10B2F000C404012102F51C5384F81C1A0F33B3FB5C
:10B30000F2F3C4F8203A70BD012070BD084BD3F8A9
:10B310005021012002F2E733B3FBF2F3C5F8203AE3
:10B3200070BD0138C5F8200A002070BD182C00201F
:10B33000880100202DE9F04F2DED108B034697B0CA
:10B3400004331593DFEDCACA149002238A46139280
:10B350008B461293149C4FEADB0604EB461202EB79
:10B3600006103101A6EB86034FEAC60806EB460538
:10B37000CDE9000100EBC303043108F1040011968C
:10B38000204421442C01C6EBC60C0394EC00119D13
:10B3900004944FEACC0405946C0106EB860E0294EB
:10B3A000159D009C03EB46174FEACE0E02EBC60636
:10B3B0004FEACB094FF0000C51ED01AAD3ED001A72
:10B3C00092ED007A94ED005A96ED004AD7ED007A9E
:10B3D00015ED012A50ED016A32EE07BA76EE840AC5
:10B3E0007AEE855A31EEA70A3BEE256A70EE804A66
:10B3F00076EEC46A36EE244A36EE646A05ED014AFA
:10B4000082ED006AD0ED00BAD6ED012AD3ED019AA3
:10B4100095ED00AA92ED016A97ED013A91ED00CA0F
:10B42000D4ED014A7BEEE23A36EEE19A32EE472A5B
:10B4300073EEE98A3AEE464A39EE279A78EE838A25
:10B44000B0EE428AA9EE6C8ADC44E24573EEC33A60
:10B45000B0EE441AA8EEEC1A76EEE77A33EEA97A4B
:10B460007CEE643A77EEA17A3AEE066A7AEEC51A75
:10B470003CEE24AA74EECC4A39EE833A35EE6A5A91
:10B48000F0EE639AF0EE48AAE7EE2C9AA8EEAC4AEA
:10B49000E7EE2C4AE7EE6CAAF0EE418AB0EE427A73
:10B4A000B0EE612A7BEE656A7BEEA22A76EE4A5AFE
:10B4B000A9EE2C7AA7EEAC2AA7EEAC5AE7EEEC8AFE
:10B4C00032EE83BA76EEC3BA35EEE09A75EEC07A04
:10B4D00036EE0A6A76EEE26A36EE0BAA76EE836AFA
:10B4E00077EEA07A34EE423A77EE290A36EE4B6ACE
:10B4F0007BEEA22A39EE000A73EEAA3A78EE244ACD
:10B5000037EE697A31EE055A71EEA85A32EE044AE6
:10B5100085ED00AA82ED016A4D4441ED012A4A44BD
:10B52000C4ED006A81ED000AC4ED017A494440EDA2
:10B53000010A4C4487ED007AC6ED003AC3ED004A9B
:10B5400080ED003A87ED014A484486ED015A4F44A8
:10B55000C3ED015A4E444B443FF62EAF119B072BCF
:10B5600040F2C781029D149E019B03980499059A9D
:10B57000083575190C330E95354608F108080EF19B
:10B580000804EB1808300831083246442C192818F2
:10B590006918AA18079305F10C030D960C940B90EB
:10B5A0000A91099208934FF001084FF0000E129B88
:10B5B0009E44139B03EBCE0303EBCE02109302EBEE
:10B5C000CE0303EBCE01029101EBCE0101EBCE05E0
:10B5D00005EBCE06D6ED007A0F93AEEB8E0301910C
:10B5E00006EB031303EBCE07D3ED01AACDED067AEC
:10B5F000019BD5ED007A97ED01BACDED057AD3ED3B
:10B60000007A029BCDED047AD3ED007A0F9BCDED4D
:10B61000037A07EBCE0CD3ED007ADCED01BACDED69
:10B62000027A0CEBCE01D2ED007A109A009101EB78
:10B63000CE00014691ED01DACDED017A0099D2ED0F
:10B64000007A91ED01CA00EBCE0000EBCE0494ED40
:10B6500001EAD0ED01DACDED007ADDE90776DDE92A
:10B660000954DDE90B01DDE90D23C44602E000BF0A
:10B67000F304353F94ED009A90ED00FA91ED006AE5
:10B68000D5ED007AD3ED006A57ED014A92ED005AEC
:10B6900056ED013A96ED00AA35EE060A73EEA65A6B
:10B6A00039EE278A34EE8F7A70EE082A75EE87EA33
