:020000040800F2
:10000000F0FF0120ADE70308C9DC0008A9240308BC
:1000100025E8030825E8030825E803080000000098
:10002000000000000000000000000000C5DC000827
:10003000C1DC000800000000BDDC00081912030844
:1000400025E8030825E8030825E8030825E8030850
:1000500025E8030825E803086D3B0308AD3C0308C9
:100060006D3C03082D3C0308ED3B0308EDD7030866
:10007000DDD70308CDD70308BDD70308A9D70308E8
:1000800095D7030881D7030825E80308000000007E
:10009000000000000000000000000000AD3B03086D
:1000A000D904030829050308C904030851050308F6
:1000B0001905030809050308F904030825E80308DE
:1000C00025E8030825E8030825E8030825E80308D0
:1000D00025E80308391303087D1203080000000017
:1000E0002D3B030825E8030809070108000000006C
:1000F0000000000000000000000000006DD70308B1
:100100000000000025E80308E904030825E80308C7
:1001100000000000000000000000000000000000DF
:1001200059D7030845D7030831D703081DD703085B
:1001300009D70308000000000000000000000000D4
:1001400000000000000000000000000009F60008A8
:10015000F5D60308E1D60308CDD6030825E8030841
:1001600025E8030825E8030800000000000000005F
:10017000000000000000000000000000000000007F
:100180000000000025E80308000000000000000057
:0801900025E8030825E8030837
:080198004CE30300010000002C
:1001A0000E02010002000000602300209C3F00209E
:1001B000000000008807000816100100060000007B
:1001C00058230020A03F0020000000008A070008FC
:1001D0002F10010022000000783C0020A83F0020E2
:1001E000000000009007000823220100100000001A
:1001F000881F0020CC3F002000000000B40700084A
:10020000052001000C0000007C200020DC3F0020C5
:1002100000000000C4070008FD0701007A0000008C
:10022000F2150020E83F002000000000A98B000824
:100230000B3001001A000000D81500206440002097
:1002400000000000D0070008F59101006C000000DC
:10025000E81600208040002000000000D78B000836
:10026000130201000400000038150020EC400020BB
:1002700000000000EA070008122001001100000041
:10028000701F0020F040002000000000EE07000872
:100290000D10010028000000243900200441002036
:1002A000000000009D910208FD0101001E000000F9
:1002B000F03800202C4100200000000007CC02088C
:1002C0001820010038000000B43800204C41002004
:1002D00000000000F9760308061001002400000069
:1002E0009038002084410020000000007D76030843
:1002F000FB0101000100000098370020A841002008
:100300000000000051760308FC0101000900000014
:1003100064360020AC410020000000006176030834
:10032000F70101000600000058360020B841002007
:100330000000000000080008F901010004000000AE
:1003400054360020C04100200000000095CC020877
:100350000A8001002C000000302E0020C441002043
:1003600000000000BD17010834000100100000006B
:100370005C2D0020F0410020000000007DA7010856
:100380001102010008000000342D0020004200206E
:10039000000000000608000812120100040000001E
:1003A0002C2D002008420020000000000E0800084C
:1003B000FA01010003000000082600200C42002082
:1003C00000000000CD6F0308FE01010014000000D2
:1003D000843B002010420020000000000D70030844
:1003E0002C00040010000000846E0020746E0020B9
:1003F000000000008D2C01082B00120024000000DA
:10040000B86E0020946E002000000000612C0108EE
:100410002920140078000000A86D0020DC6E002068
:100420000000000000000000F62101000C000000A8
:10043000D86B0020546F0020000000001408000852
:100440001C0202001C000000886C0020A46F002029
:100450000000000089740308232001001000000040
:10046000786C0020C06F0020000000001518010803
:100470001400010005000000946B0020D06F0020E4
:1004800000000000200800081B020100100000000E
:1004900044670020D86F002000000000A96F030807
:1004A0001B1001000C000000B8530020E86F002072
:1004B000000000009533010821020100F000000057
:1004C0002C520020F46F0020000000003D33010892
:1004D00003000100010000002C760020347A002087
:1004E00000000000000000001300010004000000F4
:1004F00094760020387A00200000000028080008C8
:100500000C40010026000000607600203C7A0020AC
:100510000000000015530208000101000400000063
:100520005C760020647A0020000000002C0800089F
:10053000020101000300000058760020687A0020C4
:10054000000000004553020825201E002C01000079
:10055000987700206C7A0020000000000000000066
:10056000101001000200000090760020987B00200F
:100570000000000030080008F8210100060000001B
:10058000F47500209C7B0020000000003208000869
:10059000190001000500000088760020A47B0020DF
:1005A0000000000038080008012001000C000000D5
:1005B000F8700020AC7B0020000000003E0800081E
:1005C0001A0001000E000000E8700020B87B002037
:1005D000000000004A0800080E20010094000000FE
:1005E000F4760020C87B002000000000F1A1010883
:1005F0001500100070000000E87300205C7C0020F3
:1006000000000000000000002A0008006000000058
:1006100074750020CC7C002000000000C9A10108F6
:10062000020001000C00000010800020BC800020AF
:10063000000000000000000029020100400000004E
:10064000687F0020C88000200000000058080008D3
:100650000400080080000000148300209483002020
:100660000000000000000000280204000400000058
:100670002C8200201885002000000000C96F0308AC
:100680002702040004000000288200201C850020AE
:1006900000000000BD6F03081F02080010000000EA
:1006A000188200202085002000000000896F0308C8
:1006B000160215003F000000288100203085002030
:1006C00000000000A96E03081A0201003C000000AF
:1006D000C4810020708500200000000069770308B5
:1006E0003810010001000000D88C0020D48C0020BC
:1006F000000000009808000810020100010000003E
:10070000E08C0020DC8C0020000000009A0800082B
:100710000202010003000000D08C0020E48C0020C5
:1007200000000000000000001D02020006000000A2
:10073000848C0020E88C00200000000000000000F5
:10074000081203000F000000C08C0020F09700206A
:1007500000000000E16F0308000201000B00000030
:10076000D08600200098002000000000D96F030808
:100770002700010004000000DC8600200C98002007
:08078000000000009C080008C5
:100788000000C4090000190000000000000000007B
:100798000000000000000000000000000000000051
:1007A8000000000000000000000000000000000041
:1007B8000000000000000000FF000000020100002F
:1007C8000000000000000000AE014A015E012C019B
:1007D80064000000000001000A019A01001E0A00DE
:1007E80000020000010000000001000105464C4223
:1007F800580000080002000022010000000000006C
:10080800000001010101FFFFFFFF000000000000E0
:1008180001000000020200000300002300000000A5
:10082800080040309001000000050201F4011400A6
:10083800000028010000E8036400040A0001140015
:100848001E007E05EA05B4053200E803D007000063
:100858000000000000000000000000000000000090
:100868000000000000000000000000000000000080
:100878000000000000000000000000000000000070
:100888000000000000000000000000000000000060
:08089800000000002003000035
:1008A0000403090412010002EF02014083045632DE
:1008B00000020102030100001201000202020040D6
:1008C00083044057000201020301000009022000D6
:1008D000010104C0320904000002080650050705A2
:1008E0008102400000070501024000000902640087
:1008F000030100C0320904000001030000000921C7
:10090000110100012236000705830309000A080BC4
:1009100001020202010009040100010202010005B6
:10092000240010010524010002042402020524060B
:100930000102070582030800FF09040200020A0001
:100940000000070501024000000705810240000089
:1009500009024300020100C0320904000001020242
:1009600001000524001001052401000104240202F5
:100970000524060001070582030800FF09040100A1
:10098000020A00000007050102400000070581027D
:1009900040000000FF00000001007EFFFFFFFFFF9E
:1009A0000000040100000000000000021000000030
:1009B000070000000D820008098200080582000877
:1009C000F9810008F581000801820008FD81000816
:1009D0000101000005010905A101A100050109307F
:1009E00009310932093309350934093609371581C6
:1009F000257F750895088102050919012908150048
:100A00002501950875018102C0C00000090222007D
:100A1000010100E032090400000103010200092184
:100A2000110100012236000705830309000A0000B6
:100A30000060024010600240000000000000000062
:100A4000000B00000000000000000000000000009B
:100A50000060024028600240010000000000000029
:100A6000060C000000000000000000000000000074
:100A700000600240406002400200000000000000F0
:100A8000100D000000000000000000000000000049
:100A900000600240586002400300000000000000B7
:100AA000160E000000000000000000000000000022
:100AB000006002407060024004000000000000007E
:100AC000200F0000000000000000000000000000F7
:100AD0000060024088600240050000000000000045
:100AE00026100000000000000000000000000000D0
:100AF00000600240A060024006000000000000000C
:100B000030110000000000000000000000000000A4
:100B100000600240B86002400700000000000000D2
:100B2000362F000000000000000000000000000060
:100B30000064024010640240000000000000000059
:100B4000003800000000000000000000000000006D
:100B50000064024028640240010000000000000020
:100B60000639000000000000000000000000000046
:100B700000640240406402400200000000000000E7
:100B8000103A00000000000000000000000000001B
:100B900000640240586402400300000000000000AE
:100BA000163B0000000000000000000000000000F4
:100BB0000064024070640240040000000000000075
:100BC000203C0000000000000000000000000000C9
:100BD000006402408864024005000000000000003C
:100BE000264400000000000000000000000000009B
:100BF00000640240A0640240060000000000000003
:100C0000304500000000000000000000000000006F
:100C100000640240B86402400700000000000000C9
:100C20003646000000000000000000000000000048
:100C30000000000001020304010203040607080982
:100C4000DDE60008B5EE00082DEA0008098300087B
:100C5000558500081983000835830008E1820008E3
:100C6000D182000800000000000000000100000028
:100C700000000101F86200204C63002001D601FF52
:100C8000010100000001010100FF00000000FA4323
:100C90000000FA430000803F0000803F0000000099
:100CA0000000000000000000000000000000000044
:100CB0000000000000000000000000000000000034
:100CC0000000803F00000000000000000000000065
:100CD0000000803F00000000000000000000000055
:100CE0000000803F00000000000000000000000045
:100CF00001000000FFFFFFFFFFFFFFFF90810408DE
:100D0000A077040800000000D9550208A086010061
:100D100004000000000000000000000000000000CF
:100D200000000000000000000000000000000000C3
:100D30000000000000000000000000009081040896
:100D400098810408000000000DC90208E8030000B3
:100D5000040000000000000000000000000000008F
:100D60000000000000000000000000000000000083
:100D7000000000000000000000000000A081040846
:100D80000000000000000000355702087D00000050
:100D9000FF00000000000000000000000000000054
:100DA0000000000000000000000000000000000043
:100DB000000000000000000000000000C8C304089C
:100DC00000000000000000004D5C02087D000000F3
:100DD000FF00000000000000000000000000000014
:100DE0000000000000000000000000000000000003
:100DF000000000000000000000000000609E0408E9
:100E0000000000000000000085E701087D000000F0
:100E1000FF000000000000000000000000000000D3
:100E200000000000000000000000000000000000C2
:100E3000000000000000000000000000A88104087D
:100E40000000000000000000E5CF0208E8030000F9
:100E5000030000000000000000000000000000008F
:100E60000000000000000000000000000000000082
:100E7000000000000000000000000000AC81040839
:100E8000000000000000000085D7010810270000C6
:100E9000030000000000000000000000000000004F
:100EA0000000000000000000000000000000000042
:100EB000000000000000000000000000C8BF04089F
:100EC00000000000712801080D2503085F7600006E
:100ED000050000000000000000000000000000000D
:100EE0000000000000000000000000000000000002
:100EF0000000000000000000000000006CC30408B7
:100F00000000000000000000C96403081027000072
:100F100001000000000000000000000000000000D0
:100F200000000000000000000000000000000000C1
:100F3000000000000000000000000000B88104086C
:100F4000000000000000000011C90208E8030000D2
:100F5000050000000000000000000000000000008C
:100F60000000000000000000000000000000000081
:100F7000000000000000000000000000C481040820
:100F80000000000000000000B5540208204E0000E0
:100F9000030000000000000000000000000000004E
:100FA0000000000000000000000000000000000041
:100FB000000000000000000000000000D4810408D0
:100FC0000000000000000000CD530208204E000089
:100FD000030000000000000000000000000000000E
:100FE0000000000000000000000000000000000001
:100FF000000000000000000000000000E481040880
:10100000000000000000000031D50208400D030080
:1010100003000000000000000000000000000000CD
:1010200000000000000000000000000000000000C0
:10103000000000000000000000000000F48104082F
:101040000000000000000000959B0208102700002F
:10105000010000000000000000000000000000008F
:101060000000000000000000000000000000000080
:10107000000000000000000000000000FC810408E7
:10108000000000000000000091800108102700000F
:10109000010000000000000000000000000000004F
:1010A0000000000000000000000000000000000040
:1010B000000000000000000000000000088204089A
:1010C0000000000000000000110101081A410000AA
:1010D000010000000000000000000000000000000F
:1010E0000000000000000000000000000000000000
:1010F0000000000000000000000000000C82040856
:1011000000000000000000004559010850C3000025
:1011100003000000000000000000000000000000CC
:1011200000000000000000000000000000000000BF
:101130000000000000000000000000001882040809
:1011400000000000000000007179020840420F001A
:10115000000000000000000000000000000000008F
:10116000000000000000000000000000000000007F
:1011700000000000000000000000000024820408BD
:1011800000000000000000004D5B020850C300009A
:10119000000000000000000000000000000000004F
:1011A000000000000000000000000000000000003F
:1011B000000000000000000000000000000000002F
:1011C00018810020080000000000000008810020B5
:1011D00008000000200000007589000865840008F0
:1011E0000DEA000800000000CD820008A9E6000812
:1011F000298900081DE6000800000000000000002A
:10120000898200081D820008118200086DDD000837
:1012100089DD000851DD000835DD000819DD000812
:101220002D8900084184000859E9000800000000E9
:10123000A182000821E60008FD88000879E5000881
:10124000000000000000000095820008BD95020823
:10125000000000000000000000000000FFFF000090
:10126000FFFFFFFFBCBF04080000080205030300E6
:1012700000000000C4BF04080100080205040300C8
:1012800000000000788104080200FE010110030044
:1012900000000000E09C04080300140200030000AA
:1012A00000000000CCBF040804001F020200080078
:1012B00000000000D4BF040805001F02020108005E
:1012C000000000001A030000000000000000000001
:1012D000000000000000000000000000000000000E
:1012E0000403090412010002000000408304205797
:1012F0000002010203010000F57703086170030892
:101300005D70030859700308B57803085570030829
:10131000517003086C480408018A00082184000801
:1013200075E70008000000000000000051E500081B
:101330006DE4000800000000000000000000000054
:101340007D820008F9700308ED700308D57D03085D
:10135000F17D0308A5700308B97D03089D7D03088E
:101360001F0000001C0000001F0000001E00000005
:101370001F0000001E0000001F0000001F000000F2
:101380001E0000001F0000001E0000001F000000E3
:101390000068214C01000000000000000000000077
:1013A0000102030406070809FF000000A80C002042
:1013B000000000000000000000000000000000002D
:1013C000000000000000000000000000000000001D
:1013D000000000000000000000000000000000000D
:1013E00000000000000000000000000000000000FD
:1013F00000000000000000000000000000000000ED
:1014000000000000000000000000000000000000DC
:082800000000000000000000D0
:108000002DE9F743114E0124A02318255FFA84F8C7
:10801000FF2B13DC3068E9B2C1F11C0282725F1CD5
:10802000026880F80B80DBB20093C1F11B01D2F82B
:10803000189000234246C9B2C8473B46013DE7D1EC
:108040000134052CE1D103B0BDE8F083080D002018
:10805000074AD2E90131994208D0D1180133097B8E
:108060000170C3F30A03536001207047002070477A
:10807000080D0020064AD2F80C38D2F81028934296
:1080800094BF4FF400600020013B9B1A18447047D6
:10809000080D0020012380F85130704707B501A872
:1080A000FFF7D6FF0028FAD09DF8040003B05DF872
:1080B00004FB044BD3E90103984288BF03F5006336
:1080C000181A7047080D002001207047024BC3F8B2
:1080D0001428C3F818187047080D0020024BC3F885
:1080E0001C28C3F820187047080D002070477047FF
:1080F00030B4124DD5E901239A4286BF03F50064DE
:10810000A21A9A1A0A44B2F5006F11D899B1014423
:108110004A1E013810F8014FE918824203F10103A9
:108120000C73C3F30A03F5D1AB60002030BC704779
:10813000022030BC70470846F8E700BF080D002059
:10814000212838B50C4605D022282ED0202813D05F
:10815000002038BD0029FBD0072AF9D11A4BD3F8EB
:10816000240893F8281893F8292893F82A382060CF
:1081700021716271A371EBE70029E9D0072AE7D1E9
:10818000114DD5F818381BB10968D5F8140898476F
:10819000206821796279A379C5F8240885F8281820
:1081A00085F8292885F82A38D2E70029D0D0022A74
:1081B000CED1054AD2F82038002BC9D00988D2F890
:1081C0001C089847C4E700BF080D0020024B0020A0
:1081D000C3F82C08704700BF080D0020044B002096
:1081E0000522C3F82C28C3F82008C3F818087047E4
:1081F000080D0020704700BF704700BF704700BFE8
:10820000704700BF704700BF704700BF704700BF96
:10821000042301480B8070479801002010B4074ADE
:10822000074B92F83008122403F114020C80012845
:108230000CBF184610465DF8044B7047080D00202F
:108240009C01002010B40C4A92F8343802EBC301B0
:108250000133DBB2042B4FF0050408BF00234FF4B9
:10826000045081F8384882F83438C1F83C085DF889
:10827000044B4FF0FF307047080D002020230148C9
:108280000B807047C4010020642301480B807047B5
:10829000E4010020432301480B807047480200207E
:1082A00010B5084CD4F8F400FF2809D00649D1F8DD
:1082B000582801F65C01FFF743FFFF23C4F8F430B0
:1082C000002010BD98010020080D0020E8E700BF45
:1082D00008B5D0F8E4355B6A9847002008BD00BFB8
:1082E00008B5D0F8E4351B6A9847002008BD00BFE8
:1082F000D0F8E43510B504461B689847D4F8E83543
:108300009B689847002010BD08B5D0F8E435DB69BC
:1083100003B19847002008BD08B5042290F8121157
:10832000D0F8E83580F8131180F81221DB689847FF
:10833000002008BD10B5D0F8E83504461B69984701
:10834000032384F81231002010BD00BF0B0617D4A0
:1083500001EB810300EBC30310B400EB81000124A7
:10836000002283F8764383F8741383F87523426DF3
:108370005DF8044B136843F400130020136070474A
:1083800001F07F0101EB810300EBC303012200EB4D
:10839000810083F81C1183F81E2183F81D21826956
:1083A0001368002B01DA43F0804343F40013136099
:1083B000002070470B0630B41CD401EB810200EBA7
:1083C000C202002300EB810582F8741382F8753332
:1083D00001241A4604FA01F16D6D61F31F4201692F
:1083E0006FF3CF332B60CB6923EA0203002030BC4C
:1083F000CB61704701F07F0101EB810400EBC40405
:10840000012200EB8105002384F81C1184F81D2152
:1084100002FA01F11A46AD6961F30F02DFE700BF0E
:1084200010B581210446FFF7C5FF20460121FFF763
:10843000C1FF024B002083F8640810BD080D002026
:1084400010B581210446FFF7B5FF20460121FFF753
:10845000B1FF82212046FFF7ADFFFFF7B7FE0020F6
:1084600010BD00BF38B50D4604468321FFF7A2FFBB
:1084700029462046FFF7E4FF002038BDF0B4164639
:108480000A063AD401EB810500EBC5052824002239
:1084900004FB0104022B85F87413C5F87C6385F88E
:1084A000773385F8752304F55D7448D0154600EBE5
:1084B0008107012202FA01F17F6D61F31F45D7F8B0
:1084C00000C01CF4004F11D1E488204946F08052CE
:1084D00042F4004242EA834204F00F041C4B42EA99
:1084E000845211400CEA0303194339600269D369CD
:1084F0002B430020F0BCD361704701F07F0101EBFA
:10850000810500EBC5052824012204FB0104022B90
:1085100085F81C11C5F8246185F81F31A5F82211D2
:1085200085F81D2104F58E740CD0002500EB810721
:10853000012202FA01F1BF6961F30F05BFE7227161
:108540001546B4E700252571F0E700BFFF87CC137F
:10855000007833EC002310B5194604464022FFF79B
:108560008DFF8021204600234022FFF787FFD4F8AB
:10857000E835A078012284F812215B689847002032
:1085800010BD00BF82B00023016801930B69019305
:108590000E4B03E00A690192013B13D0019A002AB5
:1085A000F8DA019A094B42F001020192019A0A613C
:1085B0000A69019203E00A690192013B02D0019A23
:1085C000D207F8D4002002B0704700BF400D03006E
:1085D000436D064A1A61C278012A06D100F2CC50D6
:1085E00058614FF0802219681A60704718000860BF
:1085F00010B580210446FFF7A9FE20460021FFF7B1
:10860000A5FE2046BDE81040E2E700BF70B44B78FD
:10861000012B26D00B784A6900EB83035C6D25683B
:108620002369D2B18A684A6102F07F0223F40023F1
:1086300023F07F0342F4002213432361C378012B0C
:1086400004BF0B696361C5F3076363F07B0363F3E6
:108650001F652560002070BC70478A6802F07F02A9
:10866000E4E782694C691568136944B38E68B442C3
:108670008CBF06F07F0404F07F0423F4002323F072
:108680007F0344F4002443EA040388BF4E6113616E
:10869000C378012B1DD0C5F3076464F07B0464F339
:1086A0001F651560002BD5D14B69002BD2D0026914
:1086B0000878516B012383400B435363CAE723F4CB
:1086C000002323F07F0343F400231361C378012BBD
:1086D000E1D10B780C6900EB8300C5F30763816976
:1086E00063F07B0363F31F654C610020156070BC71
:1086F000704700BF2DE9F0434B78012B30D00B7849
:108700004C6900EB83035E6D356837691CB38B6879
:108710001C44013CB4FBF3F4C4F3090203FB02F371
:10872000C3F312034B61144643EAC44363F31C07CB
:108730003761C378012B04BF0B697361CB78012BC0
:1087400044D0C5F3076363F07B0363F31F653560B3
:108750000020BDE8F0838A680124C2F31203E3E736
:1087600091F800804E6900EB880EDEF818C0DCF846
:108770000050DCF8107076B3D1F80890384A06EB58
:108780000904013CB4FBF9F402EAC444C6F3120242
:108790002243CC7807F060473A43012C174649D072
:1087A000CCF81020C278012A55D00269516B03FA27
:1087B00008F30B435363C5F3076363F07B0363F371
:1087C0001F65CCF800500020BDE8F0834B7973B3EF
:1087D00045F00055B5E707F0604747F40027CC782F
:1087E000CCF81070C378012B2FD0012CE3D1026993
:1087F0009268D20554BF45F0005545F08055C5F349
:10880000076262F07B0262F31F65CCF80050002B18
:108810009ED1B0B203308010DEF8D04098D0CA6844
:1088200052F8041B216001339842F9D190E745F0DA
:10883000805586E764F35E77CCF81070C378012B1F
:10884000D5D10A69CCF81420D1E70A69CCF81420F4
:10885000012CB0D1CBE70B69CCF81430ABE700BFEB
:108860000000F81F38B501EB810400EBC4040D468D
:10887000002184F87453C4F88C1384F87513C4F879
:108880008833C4F88023C3782821012B01FB05011C
:1088900008BFEDB201F55D7108BFC4F884231DB9AE
:1088A000FFF7B4FE002038BDFFF724FF002038BDDD
:1088B00070B5104BD3F8702893F8885804461AB155
:1088C00093F874382B430DD081212046FFF73EFDED
:1088D000022D00D070BD2046074ABDE870401F231E
:1088E0000121BFE70121FFF731FD20468121BDE8CD
:1088F00070402BE5080D00207015002010B501EB2D
:108900008101084A00EBC1010446B1F88C131046FE
:10891000FFF7EEFB034A204640230121FFF7A2FFA9
:10892000002010BD94150020E8E700BF10B5022319
:10893000044640228121FFF7A1FD20460223402268
:108940000121FFF79BFD8221204603230822FFF728
:1089500095FD064B02229A83FFF740FC044A20460D
:1089600040230121FFF77EFF002010BD9801002069
:108970009415002038B509220D46044603238321AF
:10898000FFF77CFD29462046FFF7D0FF002038BDC9
:1089900082B000230193019A094B42F01002019228
:1089A000C168019A0A610A69019203E00A690192A9
:1089B000013B02D0019AD206F8D4002002B07047E1
:1089C000400D030082B000230193019A0B4B42F04B
:1089D00020020192019A61F38A120192C168019A00
:1089E0000A610A69019203E00A690192013B02D01F
:1089F000019A9206F8D4002002B07047400D03009F
:108A000070B50446144EFFF70BFD204602234022AA
:108A10008121FFF733FD4022012120460223FFF789
:108A20002DFDD6F8CC3800251B6886F864582846FA
:108A300086F8885898472046FFF7AAFF204601216C
:108A4000FFF7C0FF204606F668021F230121FFF74B
:108A500009FF284670BD00BF080D00200E4BDA68E4
:108A6000D20310D4DA68D1060FD4DA68D20510D454
:108A7000DA6812F0E00F0AD1DB6813F0020F14BFBE
:108A80000820092070470120704706207047072002
:108A900070470220704700BF003C0240094BB3F80A
:108AA000D228B3F8D038801A9B1AC00090FBF3F09C
:108AB0000628A8BF062020EAE070C0F19600C0B2E8
:108AC000704700BF080D00200A4B03EB4002B2F8CC
:108AD000EA18094A92F8F82002EAD122520707D090
:108AE000D3F86429511CC3F86419134483F8680946
:108AF000704700BF080D00209801002043687222D3
:108B00001A70436873225A70436874229A704368DB
:108B10000022DA7070470F4B4268B3F9AC390A2172
:108B200093FBF1F31B0110B503F5B9530A4C4FF455
:108B3000B4711433B3FBF1F303F00F03E118E358FE
:108B400013604B6853600B7A1372436800225A72A9
:108B500010BD00BF080D0020F8F5030843687F2210
:108B60001A7043682D225A70436800229A70704729
:108B7000032815D8DFE800F00F02060A094BD3F8E6
:108B8000B0097047074BD3F8B4097047054B93F809
:108B9000DC29D20701D428F0D9B9D3F8B00970473D
:108BA00000207047080D0020831E00F17802EA21A2
:108BB00023F8021F9342FBD14E2243F64913C28091
:108BC000CE2243850281CD2323228380A0F8722008
:108BD000A0F878307047254A00234361D2F8F41991
:108BE00041F45C5130B541F02C010124C2F8F41974
:108BF0004471D2F8EC1904FA03F50133112B41EA60
:108C00000501F8D121F4F0314FF42063C2F8EC19DA
:108C1000C38040F601230381154B036014230371C5
:108C20008023037642F614035022124903824FF642
:108C3000FF734383A0F8562003F58C036FF07E4248
:108C4000C0E91612C3610C4A40F2012303844FF0BD
:108C5000A0640023C0E9184280F8223080F8333045
:108C600080F84430A0F8683030BD00BF080D002007
:108C700098086400C4FF00FF180B3C0000285ED079
:108C80000368374A2DE9F04103F13F4404F57E04BF
:108C900002EB94220124127E02F01F055209032ADE
:108CA00004FA05F456D0042A4FD0022A48D0858809
:108CB000B5FA85F0C0F11F00C0F3CC0603EB8606C1
:108CC00000F0070082000F24306A944020EA04007C
:108CD0003062306A01FA02F20243002132624FF040
:108CE000010E0A464FF0030C02270EFA02F838EA8A
:108CF000050002F101021CD118680CFA01F420EA07
:108D000004001860186807FA01F606431E609E68A2
:108D100026EA04069E6098689860586820EA080071
:108D2000586058685860D86820EA0400D860D8684D
:108D3000D860102A01F10201D7D1BDE8F081704757
:108D4000084A556C2C435464B1E7064A156B2C4312
:108D50001463ACE7034A156C2C431464A7E700BF07
:108D6000F8F5030800380240F8B51A4C94F84C3A6C
:108D7000002BFBD159B301444E1E451ED4F81028D8
:108D8000D4F80C1815F8017F531CC3F30A038B4267
:108D90002CBF4FF400600020C91A2244014401296D
:108DA000C4F8103882F8507A0FD1012028F05CF90D
:108DB000D4F80C38D4F810188B4294BF4FF40062EA
:108DC00000225B1A1344012BEFD0B542D6D100200C
:108DD000F8BD00BF080D00200A4B0846D3F82C1838
:108DE00010B569B1D3F82C38052B09D1064C002AEF
:108DF000D4F8583104DD1146FFF7B6FFD4F85831E6
:108E000010BD00BF080D0020001E002010B590F816
:108E10005010002380F8503089B10C4CD4F82C2825
:108E20007AB1D4F82C28052A0DD1094C3C30D4F85D
:108E30005831FFF799FFD4F85831012010BD0120B7
:108E4000FCE71046FAE71846F8E700BF080D0020D7
:108E5000001E0020002280F85120D7E790F8502013
:108E6000531C0244DBB280F8503082F83C1090F87A
:108E700051200AB1132B00D9C8E77047034B0449AE
:108E8000B3F9FA304068012232F002BE98010020A6
:108E90000C72040873B52B4E06EB43030446B3F87B
:108EA000E65905F00F0049B1022804F101011DD86F
:108EB000002814BF9C239B2323700C460AB3C5F3E0
:108EC0000315FFF755FE3C21012D1F4BB0FBF3F3BB
:108ED000B3FBF1F201FB123315D0022D23D01B4955
:108EE000204602B0BDE8704032F0D2BD032806D162
:108EF00096F8DC3903F00103653BDBB2DCE72023A5
:108F0000DAE71546DDE7642542F21071B0FBF1F1B6
:108F1000B1FBF5F005FB101000900D49204632F032
:108F2000B7FD02B070BD0A250A49B0FBF1F1B1FBF3
:108F3000F5F005FB101000900749204632F0A8FD1F
:108F4000EFE700BF080D002040420F001272040836
:108F50001C720408A08601002B7204080378406884
:108F60000122053B114695E71E4B1F49D3F86421AA
:108F7000B1F8E0399FED1D7A406807EE902AF8EECF
:108F8000E76A07EE903AF8EEE77A67EE877AF4EE52
:108F9000E76AF1EE10FA02D8154932F079BD934232
:108FA00002DA144932F074BD9B1A07EE903A01F5CB
:108FB0001B63B8EEE77AD3ED007A0F4AF8EE677AD2
:108FC0003C2167EE277A87EEA67AFDEEC77A17EE88
:108FD000903AB3FBF2F3B3FBF1F201FB1233074912
:108FE00032F056BD001E0020080D0020CDCCCC3D37
:108FF0003A7204084072040840420F0012720408DA
:1090000006494068B1F86821D1F85C3104495343FE
:1090100042F2107293FBF2F232F03ABD001E0020D1
:1090200046720408054A064992F8713192F8702197
:1090300040680133013232F02BBD00BF001E00201A
:109040004B7204080B4B4068B3F9AC390A2293FB0E
:10905000F2F31A0102F5B9524FF4B4711432B2FBB3
:10906000F1F2C2F1080202F00F020349603232F05D
:109070000FBD00BF080D00205172040813B5384B16
:10908000C178D3F86421374B0229B3F8DC380446A1
:1090900041D0032945D0012905D19A1A9A42A8BF87
:1090A0001A4622EAE272D3B19A1A9A42A8BF1A4625
:1090B00022EAE27207EE902A0B20B3FBF0F307EEF0
:1090C000103AF8EEE77AB8EEC70A87EE800A36F073
:1090D0004BF8FCEEC07ACDED017A9DF80430626861
:1090E0008A211170012261689342ACBF8B208D20D0
:1090F000885401320C2AF6D162688F2111735A1EEE
:10910000092A03D8626813448E225A7063680022C9
:109110005A7302B010BD9A1A9A42A8BF1A4622EAA0
:10912000E272ABB107EE902AB8EEE70ADFED0E7AF5
:1091300020EE270A07EE903AF8EEE77A80EE270A4B
:1091400036F058F864280346A8BF642323EAE37383
:1091500006496068072202B0BDE8104032F098BCB2
:10916000001E0020080D00200000C84258720408AC
:10917000034A0449D2F864214068072332F088BCCE
:10918000001E00205F72040807B5144A406892F878
:109190008111B2F88231012909D1009392F884310A
:1091A0000F497B2232F074FC03B05DF804FB022906
:1091B00006D10C497B2203B05DF804EB32F068BCA9
:1091C0000A22534340F2FF32B3FBF2F39BB2092B66
:1091D000054928BF09237B22EDE700BF001E0020C0
:1091E000657204086F72040875720408034B044921
:1091F000D3F88821406832F04BBC00BF001E00202D
:109200007B720408044B93F8DC39DB0703D4034971
:10921000406832F03DBC7047080D00207F720408A2
:1092200007B5094A0949B2F99E310193B2F99C3157
:109230000093B2F99A314068B2F9982132F028FCD3
:1092400003B05DF804FB00BF001E00208872040814
:1092500013B5104B4468B3F9A0010F4B93F8E539EF
:109260004BB10E2300930D4903467A22204632F07B
:109270000FFC02B010BD07EE900A9FED097A9FED3A
:10928000090AF8EEE77AA7EE870A35F0B3FF0D2357
:10929000E8E700BF001E0020080D00209C720408B3
:1092A0006766E63F00000042084BD3F8A421002A7D
:1092B0000BDD074B03EB8203DA6932B1054B06493C
:1092C000D3F8FC30406832F0E3BB7047001E00204A
:1092D000F8F5030898010020A57204081FB59388CB
:1092E0000293937801935378009313780A460349C5
:1092F00032F0CEFB05B05DF804FB00BFAD72040890
:10930000034B0449D3F8A82140681432E6E700BFB4
:10931000001E0020C0720408034B0449D3F8A821A2
:1093200040680832DAE700BF001E0020C47204085B
:10933000034B0449D3F8A82140680E32CEE700BFA2
:10934000001E0020C87204082DE9F0471F462DEDCD
:10935000028B022F14BF4FF00A094FF0640982B04C
:1093600007EE909A9DF830309DF83480F8EEE77A59
:10937000064627EE808A0C469246002B42D0B0EE7D
:10938000480A35F037FF07EE900AF8EEE77AF0EE7C
:10939000E77AFDEEE77A17EE905AB5FBF9F209FB92
:1093A00012550CB134700124B5EEC08AF1EE10FAFA
:1093B00005D552EA050302D02D2333550134134B52
:1093C0009AF800103019002914BF5146194632F09E
:1093D0005FFB0F4904443A46684632F059FB2A467F
:1093E0006946301932F054FB2044B8F1000F02D026
:1093F00006F8008001300023335402B0BDEC028B2C
:10940000BDE8F087F0EE487AC1E700BFCC720408EF
:10941000D172040807B501234722CDE9003205497E
:10942000054A91ED6B0A40680021FFF78DFF03B0FC
:109430005DF804FB001E00205B90040807B50B4B91
:10944000DFED0B7A93ED570A0A4A00219A23B8EE12
:10945000C00ACDE9001320EE270A0223B0EEC00AAD
:109460004068FFF771FF03B05DF804FB001E0020A9
:109470000AD7233CD972040813B50378134ADFEDE9
:10948000147A144C1A2B0CBFB2F9AA29B2F9A829E4
:1094900000EE102AB8EEC00A1A2B20EE270A4FF071
:1094A00001034FF00002CDE90032B5EEC00A0CBF57
:1094B00015211421F1EE10FA074A406848BF2246F0
:1094C000B0EEC00AFFF740FF02B010BD080D00204B
:1094D000CDCCCC3DDD720408E37204081FB5184AF8
:1094E0009FED187AB2F8683192F8B0219FED160A14
:1094F000446807EE903AF8EEE77AF4EEC77AF1EEB8
:1095000010FAACBF01230223022A27EE800A14D0EE
:109510008DED030A02931EF08FF8FFF7BFFA029B4E
:109520009DED030A014601220620CDE90020074AED
:109530002046FFF709FF04B010BD9721F3E700BFF5
:10954000001E002000007A440AD7233C5B900408E8
:1095500013B504461EF070F80E4B646893F8B031F2
:10956000022B00EE100A13D0FFF798FA0146DFED48
:109570000A7AB8EEC00A00230622CDE9003220EEB6
:10958000270A064A02232046FFF7DEFE02B010BD7E
:109590009721ECE7001E00200AD7233C5B900408CB
:1095A000044B93F8493A0BB11EF046B8024BB3F89E
:1095B00068017047080D0020001E002010B5044609
:1095C0001CF0D8FA0349034604226068BDE8104045
:1095D00032F05EBA0C72040810B504460EF0FCFFBF
:1095E000642202FB00F3C3F38F23632B60680449FA
:1095F000BDE8104028BF6323012232F049BA00BF02
:109600006F720408F8B51A4D0646002413F09CFD4D
:10961000882705F5177C95F8B4317168A342214479
:1096200002DC00230B70F8BDF8B1D5ED8F7AFDEEAA
:10963000E77A0CEB840317EE90EAD3ED007AFDEEA7
:10964000E77A17EE902AD5ED907AFDEEE77AA2EB55
:109650000E0217EE903AD200A3EB0E0392FBF3F347
:10966000C3F188030B700134D5E70F70FBE700BF2F
:10967000001E002010B50446132014F0D1FEF8B1EE
:109680000CF0B4FF30B960680E49BDE810401022FC
:1096900032F0FEB90C4B606893F87D22012A09D1A3
:1096A000D3E9A2239A4205D3BDE81040074910220E
:1096B00032F0EEB9BDE810400549102232F0E8B9A9
:1096C00010BD00BFE9720408001E0020ED720408FE
:1096D000208D040838B5224D4468B5F890325A05FB
:1096E00005D520461F49BDE8384035F058BF18055C
:1096F00005D520461C49BDE8384035F050BF590615
:1097000005D520461949BDE8384035F048BFDA078D
:1097100005D520461649BDE8384035F040BF9B07C7
:1097200005D520461349BDE8384035F038BF25201F
:1097300014F076FE28B120460F49BDE8384035F0D8
:109740002EBF95F892322BB120460C49BDE8384027
:1097500035F025BF20460A49BDE8384035F01FBF27
:10976000001E0020F1720408F6720408FB7204085F
:1097700000730408057304080A7304080F730408CF
:1097800014730408074B93ED007A53ED047AB4EE9A
:10979000E77AF1EE10FA03DD0349406835F0FFBEC9
:1097A000704700BF2C22002019730408F8B52D4D16
:1097B0000A24B5F9A82992FBF4F484EAE473A3EB34
:1097C000E4739BB25A2B064605D90A32CCBFB423A8
:1097D0006FF0B3031C1B244F97F8542532B995F84A
:1097E000DC39DB0729D413F00FFD30BB97F85C356B
:1097F000B32B02D813F008FDF8B9B5F9AA190A235A
:1098000091FBF3F304B9C3B1002BB8BF5B4284EA08
:10981000E4709BB2A0EBE470B3EB400F726813DA14
:10982000B0EB430F10DA092908DD002CCCBF6E2302
:1098300062231370736800225A70F8BD002CCCBFED
:109840006A2366231370F5E7834205DD0929CCBF3F
:10985000602368231370EDE7002CCCBF6C236423D6
:109860001370E7E7080D0020001E002030B585B01A
:10987000054601A831F08AFD044618B92870204633
:1098800005B030BD044A0123B2F9602501A928467C
:1098900032F014F9F3E700BF001E00204068E5E74E
:1098A000F0B404780A4E049F650906EB850604F0BF
:1098B0001F04012505FA04F4D6F8645504972C42D8
:1098C0008068F0BC18BF43F080032AF079BA00BF6B
:1098D000001E00201FB503AC8DF80C30009400234F
:1098E0008DF80D30FFF7DCFF04B010BDF8B504466D
:1098F000294B4178827893F8010A23780138302B7C
:10990000264B4FEA8000034425480BBF93F8A45030
:1099100093F8A65093F8A56093F8A76000EB45056F
:1099200000EB4600B5F96C35B0F96C0540F2CF7527
:10993000AB42A8BF2B46B3F57A7FB8BF4FF47A731A
:10994000A8424FF47A77A8BF2846A3F57A73B842A5
:10995000C3EB0313B3FBF7F3C3F10E03B8BF3846F1
:10996000DBB24FF0030CB3FBFCFC0CEB4C0EA3EB97
:109970000E03A0F57A706244C0EBC0000833B0FB60
:10998000F7F73944DBB2D2B2C9B22046FFF7A2FFE3
:1099900000232373F8BD00BF080D0020F8F503086D
:1099A000001E00202DE9F04790F8029090F8018009
:1099B00009F1020704460026FFB2002508EB060A5B
:1099C000032E1BD108F10301022DC9B20ED10B23C6
:1099D0003A462046FFF77EFF0135052DF0D10136CE
:1099E000072EEAD100232373BDE8F08709EB0502B7
:1099F0001623D2B22046FFF76DFFEDE7022DEBD123
:109A000017233A465FFA8AF12046FFF763FFE3E740
:109A100070B504466FF00205A278617852FA85F2BB
:109A200007391323D2B2C9B22046FFF753FFA278F9
:109A30006178EEB2324407311323D2B2C9B2204664
:109A40000135FFF747FF042DE6D16178A27806398A
:109A50000323C9B22046FFF73DFF6178A2780631A3
:109A60000223C9B22046FFF735FF0023237370BDE0
:109A70002DE9F8432B4A054692F8F11992F8FF09AF
:109A8000B2F9A84992F8F039002801EB810114BF1E
:109A90004FF0FF30012049004443C1F1000803EBBF
:109AA000830344454FEA430303DB8C42A8BF0C46C3
:109AB000A046B2F9AA295C424243A24203DB9A4281
:109AC000A8BF1A4614461BB11922544394FBF3F461
:109AD000293C4FEA88066FF003074FF00909002E72
:109AE0003346B8BF06F13F03C4EBA313512B0FD885
:109AF00093FBF9F101EBC1029B1AAA780A44697839
:109B0000803B3944DBB2D2B2C9B22846FFF7E2FE4D
:109B10000137052FA6EB0806E1D100232B73BDE822
:109B2000F88300BF080D00201D4B2DE9F04303EB27
:109B300081038FB0D3F8B48006460D46B8F1000F0C
:109B40002BD0184B03EB41031C22B3F8EA48002347
:109B5000194604F01F07C4F344190DEB0200A413C7
:109B6000069335F0F8FC01228DF80B4006AC8DF819
:109B70001420CDE903468DF808508DF809708DF852
:109B80000A9002A8C0479DF8142000232AB100942F
:109B90004A46394602A8FFF783FE0FB0BDE8F083BE
:109BA000F8F50308080D00202DE9F04F1A4E90F843
:109BB00001808578DFF86490DFF864B085B00446F2
:109BC000371D4FF4FA6A16F9013B002B1ADB09EB3B
:109BD00043035946B3F96C25A2F57A724FF47A73B0
:109BE0000AFB02F292FBF3F202ABA2F57A7218467C
:109BF00031F04EFF02AB00932A4600234146204637
:109C0000FFF74EFE0135BE42EDB2DCD100232373D7
:109C100005B0BDE8F08F00BF43170020001E0020F4
:109C2000987204082DE9FF47314B477893F8442A8E
:109C300093F8458A436885781E2AA8BF1E22022A07
:109C4000B8BF0222B8F1100FA8BF4FF01008B8F14A
:109C5000020F4FF00B01B8BF4FF002080446197015
:109C6000D6B25FFA88F90121501E4FF0170C8842D6
:109C7000636826DC13440B2103F8011C6168002390
:109C80008B546268009239462A4620463E44FFF7CC
:109C900007FE013E4FF0010AF6B208F1FF335345CB
:109CA00013DC05EB090263680093013A0023D2B28A
:109CB00039462046FFF7F4FD0023237304B0BDE8C6
:109CC000F08703F801C00131D1E705EB0A02D2B2F7
:109CD0001623394620460392FFF7FCFD039A16230C
:109CE00031462046FFF7F6FD0AF1010AD5E700BF2D
:109CF000080D00202DE9F0433A4B9FED3B7A2DED06
:109D0000028B93ED088AF0EEC87AF4EEC77AF1EE92
:109D100010FA85B004465DD5D3ED077AF0EEE76A18
:109D2000F4EEC76AF1EE10FA54D5304B0293304B83
:109D30000393304BDFED308AB3F9AA39DFED2F6A98
:109D4000002BD8BFF1EE677A77EEA87ABAEE0C7ADC
:109D5000A7EEA67AD6BF00250125B1EE488A17EEF8
:109D6000100A33F0BBFF41EC100B35F0AFF938EEC1
:109D7000288A9FED237AFAEE007AE8EE077A59EC0A
:109D8000108B17EE900A33F0A9FF41EC100B35F061
:109D90009DF957EC106BA07833F08EFF32463B46AE
:109DA00033F03EFE34F0A2FAC6B2607833F084FF9E
:109DB00042464B4633F034FE34F098FA04AB03EBE2
:109DC0008505C1B255F8083C009332460023204671
:109DD000FFF766FD0023237305B0BDEC028BBDE8E1
:109DE000F08300BF902300206C61D83E1C730408F0
:109DF000FE720408080D0020DB0F493F539A8E4184
:109E000083F9224173B50D4D009104461646002397
:109E100002460221286829F0D3FF094B009322460D
:109E200028680023142129F0CBFF2868009600231E
:109E30002246162129F0C4FF02B070BD080D002093
:109E40006892040800F01F0240090123032803FA66
:109E500002F304D004280CD0022805D07047074A2A
:109E6000116C0B4313647047044A516C0B435364E9
:109E70007047024A116B0B4313637047003802406E
:109E8000002800F0638103689D4A03F13F4101F51A
:109E90007E0102EB912210B4127E02F01F045209DF
:109EA0000121032A01FA04F100F06381042A00F081
:109EB0005781022A00F04B818288D40700F1348157
:109EC000900700F11F81510700F10781140700F18D
:109ED000F280D00600F1DD80910600F1C8805406C2
:109EE00000F1B380100600F19E80D10500F1898059
:109EF000940574D4500561D411054ED4D4043BD4D8
:109F0000900428D4510415D4120402D45DF8044BF3
:109F100070471A685DF8044B22F040421A601A68D4
:109F20001A60DA6822F04042DA60DA6842F0804271
:109F3000DA607047196821F040511960196819609A
:109F4000D96821F04051D960D968120441F080519C
:109F5000D960DBD5DDE7196821F040611960196827
:109F60001960D96821F04061D960D96841F08061F9
:109F7000D9605104C8D5DDE7196821F04071196036
:109F800019681960D96821F04071D960D9689004C6
:109F900041F08071D960B5D5DDE7196821F4400141
:109FA000196019681960D96821F44001D960D9682D
:109FB000D40441F48001D960A2D5DDE7196821F409
:109FC0004011196019681960D96821F44011D960ED
:109FD000D96841F48011D96011058FD5DDE7196882
:109FE00021F44021196019681960D96821F44021D1
:109FF000D960D968500541F48021D9607FF57CAFE4
:10A00000DCE7196821F44031196019681960D968D2
:10A0100021F44031D960D968940541F48031D96088
:10A020007FF568AFDBE7196821F4404119601968D2
:10A030001960D96821F44041D960D96841F4804160
:10A04000D960D1057FF554AFDBE7196821F44051A1
:10A05000196019681960D96821F44051D960D9682C
:10A06000100641F48051D9607FF53FAFDBE71968F6
:10A0700021F44061196019681960D96821F44061C0
:10A08000D960D968540641F48061D9607FF52AAF60
:10A09000DBE7196821F44071196019681960D96803
:10A0A00021F44071D960D96841F48071D96091067A
:10A0B0007FF515AFDBE7196821F0C0011960196859
:10A0C0001960D96821F0C001D960D968D00641F083
:10A0D0004001D9607FF500AFDBE7196821F030015E
:10A0E000196019681960D96821F03001D960D96800
:10A0F000140741F01001D9607FF5EBAEDBE700BF3C
:10A10000F8F50308196821F00C0119601968196045
:10A11000D96821F00C01D960D96841F00401D960F7
:10A1200051077FF5D3AED8E7196821F00301196014
:10A1300019681960D96821F00301D960D9689007BE
:10A1400041F00101D9607FF5BEAEDBE770470D4AF3
:10A15000546C214351648288D4077FF5B1AEE3E7A4
:10A16000084A146B214311638288D4077FF5A8AE97
:10A17000DAE7044A146C214311648288D4077FF51E
:10A180009FAED1E7003802402DE9F04700230F6869
:10A1900001264FF0030C02E00133102B41D006FAE8
:10A1A00003F232EA0704F7D1D0F800E05C000CFAC1
:10A1B00004F52EEA050EC0F800E091F80490D0F8FE
:10A1C00000A009FA04FE09F1FF394EEA0A0EB9F1BE
:10A1D000010FA846C0F800E06FEA050515D8D0F8D1
:10A1E00008E005EA0E0585604D79D0F808E0A54045
:10A1F00045EA0E058560456825EA020242608A79D3
:10A2000045689A4092B22A434260C26822EA080234
:10A21000C260CA79C568A24001332A43102BC260CC
:10A22000BDD1BDE8F08700BF00487047142400206E
:10A230002DE9F84FC44CC54F94F83C17D4F84407A7
:10A24000C34DC1F3400128F00DF994F83C17D4F840
:10A250004007C94301F0010128F004F94FF0050B54
:10A260004FF01008D4F8443733B11A689B8851690D
:10A270000B4214BF53831383D4F8403733B11A68A9
:10A280009B8851690B4214BF53831383B4F84C3736
:10A29000002B40F0518194F84E17D4F8500728F065
:10A2A000E1F84FF0320C4FF47A7001267B68C3F36B
:10A2B0000803002B40F01481EFF31183002B40F0D2
:10A2C0000F81D4F85821A968D4F858319A42F8D1AE
:10A2D000D4F874379942F4D8D4F8709700FB09F396
:10A2E0005B1AB3FBF9F300FB02327B68C3F308038C
:10A2F000002B40F0B480EFF31183002B40F0AF80CF
:10A30000D4F85831D5F808A0D4F858118B42F7D1B9
:10A31000D4F874178A45F3D8D4F8709700FB09F184
:10A32000A1EB0A01B1FBF9F100FB03139B1AB3F592
:10A330007A7FDAD3BCF1010CB8D1D4F8443733B109
:10A340001A689B8851690B4214BF53831383D4F856
:10A35000403733B11A689B8851690B4214BF53834D
:10A360001383B4F84C37002B40F0DA8094F84E1782
:10A37000D4F8500781F0010128F074F84FF0320C46
:10A380004FF47A7001267B68C3F30803002B40F07A
:10A390008780EFF31183002B40F08280D4F858219E
:10A3A000A968D4F858319A42F8D1D4F87437994250
:10A3B000F4D8D4F8709700FB09F35B1AB3FBF9F3F8
:10A3C00000FB02327B68C3F308033BBBEFF311834E
:10A3D00023BBD4F85831D5F808A0D4F858118B42D3
:10A3E000F7D1D4F874178A45F3D8D4F8709700FBE6
:10A3F00009F1A1EB0A01B1FBF9F100FB03139B1A70
:10A40000B3F57A7FDED3BCF1010CBCD10BF1FF3682
:10A4100016F0FF0B7FF426AFBDE8F88FEFF311893C
:10A4200088F31288D5F808A02B68DB0344BFC4F872
:10A430006C67D5F808A0D4F85831D4F86C175FFAD7
:10A4400089F989F31188D4F870970B4400FB09F15E
:10A45000A1EB0A01B1FBF9F100FB0313CFE7EFF326
:10A46000118988F31288D5F808A02B68D90344BF56
:10A47000C4F86C67D5F808A0D4F85831D4F86C1734
:10A480005FFA89F989F31188D4F870970B4400FBBF
:10A4900009F1A1EB0A01B1FBF9F100FB031345E758
:10A4A000EFF3118188F31288D5F808902B68DA034E
:10A4B00044BFC4F86C67D5F80890D4F85831D4F884
:10A4C0006C27C9B281F31188D4F870171A4400FBC5
:10A4D00001F3A3EB0903B3FBF1F300FB023271E7D5
:10A4E000EFF3118188F31288D5F808902B68DB030D
:10A4F00044BFC4F86C67D5F80890D4F85831D4F844
:10A500006C27C9B281F31188D4F870171A4400FB84
:10A5100001F3A3EB0903B3FBF1F300FB0232E4E622
:10A52000D4F86837002B3FF429AFD4F85427002320
:10A53000136084F8653721E7D4F86837002B3FF4BF
:10A54000B0AE26F089FEACE6001E002000ED00E073
:10A5500010E000E02DE9F04F83B00A23B94CBA4F68
:10A56000BA4D0193FFF764FE01264FF4FA7C4FF0D9
:10A57000100E4FF47A707B68C3F30803002B40F091
:10A580005282EFF31183002B40F04D82D4F8582112
:10A59000A968D4F858319A42F8D1D4F8743799425E
:10A5A000F4D8D4F8709700FB09F35B1AB3FBF9F306
:10A5B00000FB02327B68C3F30803002B40F01282D9
:10A5C000EFF31183002B40F00D82D4F85831D5F809
:10A5D00008A0D4F858118B42F7D1D4F874178A45E3
:10A5E000F3D8D4F8709700FB09F1A1EB0A01B1FB95
:10A5F000F9F100FB03139B1AB3F57A7FDAD3BCF1B0
:10A60000010CB8D194F83C17D4F84407C1F34001C9
:10A6100027F028FF94F83C17D4F84007C94301F00D
:10A62000010127F01FFF4FF006084FF01009D4F882
:10A63000443733B11A689B8851690B4214BF538366
:10A640001383D4F8403733B11A689B8851690B42A1
:10A6500014BF53831383B4F84C37002B40F023828C
:10A6600094F84E17D4F8500727F0FCFEFA204FF468
:10A670007A7101267B68C3F30803002B40F09181B7
:10A68000EFF31183002B40F08C81D4F85821D5F8DA
:10A6900008A0D4F858319A42F7D1D4F874379A45C3
:10A6A000F3D8D4F870E701FB0EF3A3EB0A03B3FB76
:10A6B000FEF301FB02327B68C3F30803002B40F07A
:10A6C0004F81EFF31183002B40F04A81D4F85831C9
:10A6D000D5F808B0D4F858E17345F7D1D4F874E749
:10A6E000F345F3D8D4F870A701FB0AFEAEEB0B0ECE
:10A6F000BEFBFAFE01FB03E39B1AB3F57A7FDAD3C4
:10A700000138B7D1D4F8443733B11A689B885169FE
:10A710000B4214BF53831383D4F8403733B11A6804
:10A720009B8851690B4214BF53831383B4F84C3791
:10A73000002B40F0C08194F84E17D4F8500781F0F8
:10A74000010127F08FFEFA204FF47A7101267B6811
:10A75000C3F30803002B40F0E280EFF31183002BDA
:10A7600040F0DD80D4F85821D5F808A0D4F858314D
:10A770009A42F7D1D4F874379A45F3D8D4F870E7F1
:10A7800001FB0EF3A3EB0A03B3FBFEF301FB023262
:10A790007B68C3F30803002B40F0A080EFF3118324
:10A7A000002B40F09B80D4F85831D5F808B0D4F88D
:10A7B00058E17345F7D1D4F874E7F345F3D8D4F8EA
:10A7C00070A701FB0AFEAEEB0B0EBEFBFAFE01FB0F
:10A7D00003E39B1AB3F57A7FDAD30138B7D108F1D6
:10A7E000FF3818F0FF087FF422AF4FF47A7C604600
:10A7F0004FF0100E01267B68C3F30803002B40F0D6
:10A800003281EFF31183002B40F02D81D4F85821D1
:10A81000A968D4F858319A42F8D1D4F874379942DB
:10A82000F4D8D4F8709700FB09F35B1AB3FBF9F383
:10A8300000FB02327B68C3F3080373BBEFF31183A1
:10A840005BBB05E0001E002000ED00E010E000E032
:10A85000D4F85831D5F808A0D4F858118B42F7D164
:10A86000D4F874178A45F3D8D4F8709700FB09F12F
:10A87000A1EB0A01B1FBF9F100FB03139B1AB3F53D
:10A880007A7FD7D3BCF1010CB5D1019B013B019379
:10A890007FF468AE03B0BDE8F08FEFF311898EF35B
:10A8A0001288D5F808A02B68DB0344BFC4F86C6796
:10A8B000D5F808A0D4F85831D4F86C175FFA89F9A4
:10A8C00089F31188D4F870970B4400FB09F1A1EBD0
:10A8D0000A01B1FBF9F100FB0313CFE7EFF3118A93
:10A8E00089F31288D5F808B02B68DB0344BFC4F89D
:10A8F0006C67D5F808B0D4F85831D4F86CE75FFA33
:10A900008AFA8AF31188D4F870A7734401FB0AFE0F
:10A91000AEEB0B0EBEFBFAFE01FB03E359E7EFF3D0
:10A92000118E89F31288D5F808A02B68DA0344BF8A
:10A93000C4F86C67D5F808A0D4F85831D4F86C275F
:10A940005FFA8EFE8EF31188D4F870E71A4401FB8B
:10A950000EF3A3EB0A03B3FBFEF301FB023217E78E
:10A96000EFF3118A89F31288D5F808B02B68DB035E
:10A9700044BFC4F86C67D5F808B0D4F85831D4F89F
:10A980006CE75FFA8AFA8AF31188D4F870A77344E7
:10A9900001FB0AFEAEEB0B0EBEFBFAFE01FB03E36E
:10A9A000AAE6EFF3118E89F31288D5F808A02B6878
:10A9B000DA0344BFC4F86C67D5F808A0D4F858315E
:10A9C000D4F86C275FFA8EFE8EF31188D4F870E706
:10A9D0001A4401FB0EF3A3EB0A03B3FBFEF301FBE6
:10A9E000023268E6EFF311898EF31288D5F808A0D9
:10A9F0002B68D90344BFC4F86C67D5F808A0D4F815
:10AA00005831D4F86C175FFA89F989F31188D4F8B2
:10AA100070970B4400FB09F1A1EB0A01B1FBF9F1BE
:10AA200000FB0313E7E5EFF311818EF31288D5F8ED
:10AA300008902B68DB0344BFC4F86C67D5F8089016
:10AA4000D4F85831D4F86C27C9B281F31188D4F8FE
:10AA500070171A4400FB01F3A3EB0903B3FBF1F3F6
:10AA600000FB0232A6E5EFF311818EF31288D5F8D0
:10AA700008902B68DA0344BFC4F86C67D5F80890D7
:10AA8000D4F85831D4F86C27C9B281F31188D4F8BE
:10AA900070171A4400FB01F3A3EB0903B3FBF1F3B6
:10AAA00000FB0232C6E6D4F86837002B3FF4DEAD77
:10AAB00026F0D2FBDAE5D4F86837002B3FF443AE3A
:10AAC000D4F854270023136084F865373BE6B0B10F
:10AAD0000B49D1F87837102B03D10521002028F03D
:10AAE0002DBD03EB43020A4482F87C07202082F844
:10AAF0007D070120034482F87E07C1F8783770474C
:10AB0000001E0020F8B5744C04EB0016D6F8AC37E4
:10AB1000002B00F08F800546070196F8B407FFF779
:10AB200091F996F8B43703F01F015B090122032B5A
:10AB300002FA01F200F09480042B00F08180022BD5
:10AB400079D0E319013593F8B00727F0C9F9EDB2D0
:10AB5000064610B11223C5718371E31993F8B1074A
:10AB600027F0BEF910B11323C5718371E31993F86F
:10AB7000B20727F0B5F910B11423C57183713C44B5
:10AB80000A2194F8B327304627F094FA94F8B107D5
:10AB900027F0A6F994F8B3270A2127F08BFA94F846
:10ABA000B20727F09DF994F8B3270A2127F082FA1B
:10ABB000D4F8AC27494B9A4257D0494B9A4244D0DB
:10ABC000484B9A425CD0484B9A4264D0474B9A42D9
:10ABD0006CD0474B9A4274D046491088B1F8024174
:10ABE000B1F80031B1F80451234300F4415003435C
:10ABF000B1F80A01B1F80C412B430343B1F80E013F
:10AC0000234303439BB243F0030302240120A1F832
:10AC10000641A1F808011380938BB1F8101123F4B9
:10AC200000631B041B0C9383118213889BB243F0B7
:10AC300040031380F8BD304B596A0A435A6280E7DB
:10AC40002D4B19690A431A617BE703F50033196A32
:10AC500041F480411962196A21F480411962BBE70D
:10AC6000254B196A0A431A626BE703F58433596A64
:10AC700041F480515962596A21F480515962ABE71D
:10AC800003F5FE33196A41F400411962196A21F48F
:10AC900000411962A0E703F58233596A41F400517B
:10ACA0005962596A21F40051596295E703F56843E6
:10ACB000596A41F480115962596A21F4801159622C
:10ACC0008AE703F56443596A41F400115962596AED
:10ACD00021F4001159627FE7001E0020003001407E
:10ACE00000380040003C004000340140005001406A
:10ACF0000054014098010020003802400E4B30B44F
:10AD0000DB68427801780D4CDB43C3F30223C3F1C7
:10AD10000403DBB202FA03F360181B0101F01F0504
:10AD20000122490903F0F003AA4080F8003344F8F7
:10AD3000212030BC704700BF00ED00E000E100E0E2
:10AD40005C4B5D4AD3F8DC3710B5A2FB03320368D5
:10AD50005A4C910C1A880139A34282B089B292B23E
:10AD600011D0574883420ED0B3F1804F0BD0A0F5DD
:10AD70008030834207D000F58060834203D000F525
:10AD80008060834202D122F0700292B24D48834229
:10AD900068D000F58060834243D022F4407200F511
:10ADA0006C4092B24FF6FF7483421A80DC621985C0
:10ADB00064D100221A8601229A821A883F4992B2EF
:10ADC00042F001028B421A8063D0B3F1804F62D00F
:10ADD0003D4A934261D002F5806293425FD002F512
:10ADE000806293425DD002F5806293425BD002F5AF
:10ADF0008062934259D002F59632934257D002F5C1
:10AE00008062934213D002F58062934208BF092208
:10AE10000ED04FF0012301A80193FFF76FFF02B09E
:10AE200010BD4FF6FF701A80D8621985C3E708225B
:10AE3000264B03EBC20301A893F8AD418DF8044003
:10AE400001224FF480738DF80520ADF80630FFF72E
:10AE500055FF1B2CE3D11E4B019301A8FFF74EFFBA
:10AE600002B010BD01204FF6FF741A80DC62198514
:10AE700098821A8892B202431A80A9E7104A934234
:10AE800097D001229A821A8892B242F001021A8067
:10AE90009BE70022CCE70122CAE70222C8E703228F
:10AEA000C6E70422C4E70522C2E70622C0E707225C
:10AEB000BEE700BF001E002083DE1B4300000140F0
:10AEC000000401400010004000040040F8F50308B1
:10AED000190100012DE9F04F2DED108B034697B0BD
:10AEE00004331593DFEDCACA149002238A461392E5
:10AEF0008B461293149C4FEADB0604EB461202EBDE
:10AF000006103101A6EB86034FEAC60806EB46059C
:10AF1000CDE9000100EBC303043108F104001196F0
:10AF2000204421442C01C6EBC60C0394EC00119D77
:10AF300004944FEACC0405946C0106EB860E02944F
:10AF4000159D009C03EB46174FEACE0E02EBC6069A
:10AF50004FEACB094FF0000C51ED01AAD3ED001AD6
:10AF600092ED007A94ED005A96ED004AD7ED007A02
:10AF700015ED012A50ED016A32EE07BA76EE840A29
:10AF80007AEE855A31EEA70A3BEE256A70EE804ACA
:10AF900076EEC46A36EE244A36EE646A05ED014A5E
:10AFA00082ED006AD0ED00BAD6ED012AD3ED019A08
:10AFB00095ED00AA92ED016A97ED013A91ED00CA74
:10AFC000D4ED014A7BEEE23A36EEE19A32EE472AC0
:10AFD00073EEE98A3AEE464A39EE279A78EE838A8A
:10AFE000B0EE428AA9EE6C8ADC44E24573EEC33AC5
:10AFF000B0EE441AA8EEEC1A76EEE77A33EEA97AB0
:10B000007CEE643A77EEA17A3AEE066A7AEEC51AD9
:10B010003CEE24AA74EECC4A39EE833A35EE6A5AF5
:10B02000F0EE639AF0EE48AAE7EE2C9AA8EEAC4A4E
:10B03000E7EE2C4AE7EE6CAAF0EE418AB0EE427AD7
:10B04000B0EE612A7BEE656A7BEEA22A76EE4A5A62
:10B05000A9EE2C7AA7EEAC2AA7EEAC5AE7EEEC8A62
:10B0600032EE83BA76EEC3BA35EEE09A75EEC07A68
:10B0700036EE0A6A76EEE26A36EE0BAA76EE836A5E
:10B0800077EEA07A34EE423A77EE290A36EE4B6A32
:10B090007BEEA22A39EE000A73EEAA3A78EE244A31
:10B0A00037EE697A31EE055A71EEA85A32EE044A4B
:10B0B00085ED00AA82ED016A4D4441ED012A4A4422
:10B0C000C4ED006A81ED000AC4ED017A494440ED07
:10B0D000010A4C4487ED007AC6ED003AC3ED004A00
:10B0E00080ED003A87ED014A484486ED015A4F440D
:10B0F000C3ED015A4E444B443FF62EAF119B072B34
:10B1000040F2C781029D149E019B03980499059A01
:10B11000083575190C330E95354608F108080EF1FF
:10B120000804EB1808300831083246442C19281856
:10B130006918AA18079305F10C030D960C940B904F
:10B140000A91099208934FF001084FF0000E129BEC
:10B150009E44139B03EBCE0303EBCE02109302EB52
:10B16000CE0303EBCE01029101EBCE0101EBCE0544
:10B1700005EBCE06D6ED007A0F93AEEB8E03019170
:10B1800006EB031303EBCE07D3ED01AACDED067A50
:10B19000019BD5ED007A97ED01BACDED057AD3ED9F
:10B1A000007A029BCDED047AD3ED007A0F9BCDEDB2
:10B1B000037A07EBCE0CD3ED007ADCED01BACDEDCE
:10B1C000027A0CEBCE01D2ED007A109A009101EBDD
:10B1D000CE00014691ED01DACDED017A0099D2ED74
:10B1E000007A91ED01CA00EBCE0000EBCE0494EDA5
:10B1F00001EAD0ED01DACDED007ADDE90776DDE98F
:10B200000954DDE90B01DDE90D23C44602E000BF6E
:10B21000F304353F94ED009A90ED00FA91ED006A49
:10B22000D5ED007AD3ED006A57ED014A92ED005A50
:10B2300056ED013A96ED00AA35EE060A73EEA65ACF
:10B2400039EE278A34EE8F7A70EE082A75EE87EA97
:10B2500035EE465A3EEEA26A73EEE63A06ED016A14
:10B26000D1ED019AD2ED01FAD4ED016AD3ED011AC4
:10B2700095ED013AD0ED018A97ED004A3FEEE96A7B
:10B2800035EE491A76EE660A31EE271A3AEE612A51
:10B2900075EE677A70EE830A3FEEA95A74EECF9A84
:10B2A00077EE897A7AEE211AB0EE42AA74EE68FA45
:10B2B000A0EEECAADC44E24535EEC77AB0EE639A24
:10B2C00074EE285A38EEC44AF0EE698AA1EE6C9A00
:10B2D000E7EEAC8A36EE436A7FEE644A36EE266AC3
:10B2E000A0EEAC2AF0EE4A0AE7EEEC0AE7EEAC4A32
:10B2F000F0EE687AF0EE498A36EE833AE6EE6C8A32
:10B30000E1EE2C3AB0EE6F1AA6EE2C1A71EEE56A59
:10B31000A6EE2C4A71EEA55A75EE031A7EEEE22ACD
:10B3200037EE43FA75EEE1EAB0EE686A76EEC08A6F
:10B3300039EE044A7FEE86FA76EEC86A33EE816A09
:10B3400038EE888A73EEC13A37EE457A2CEE2E1A23
:10B350003FEE055A22EECC9A9DED03FA70EE266A76
:10B3600033EE077AAFEE221AAFEE2E9A7AEE244A27
:10B370009DED01FA79EEA09A25EE4BAA72EE670ACE
:10B3800037EE822A6BEE087AAFEE08AAEFEE057A66
:10B390002DEEA63A9DED05FA67EE6D8AAFEE073AFF
:10B3A000EFEE268A66EE6A2A9DED00FA2AEEA00AE2
:10B3B000EFEE202A6EEE02EADDED060A23EECE5A0B
:10B3C000E0EEA3EA2BEEA98ADDED023AAFEE060A23
:10B3D000A3EE848A24EE6B7A6DEE246A9DED044A16
:10B3E0002FEECD6AA0EE825AA3EEA97AE4EE2F6A80
:10B3F000A4EE246A75EEA15AC6ED005A83ED001A38
:10B4000083ED019A4E4447ED017A87ED00AA4B4443
:10B4100080ED003AC0ED018A4F4482ED000A4844B5
:10B42000C2ED012AC5ED00EA85ED015A4A44C1ED9D
:10B43000006A81ED016A4D4484ED008A84ED017A51
:10B4400049444C443FF6E6AE0E9B08330E930D9BE9
:10B4500008330D930C9B08330C930B9B08330B9311
:10B460000A9B08330A93099B08330993089B083306
:10B470000893079B08330793119B08F10108434584
:10B480007FF465AE129BDDF844B0DB009BB21293F3
:10B4900030E517B0BDEC108BBDE8F08F38B583896F
:10B4A00004463BB18268D089984203D0606803802B
:10B4B000D38100BF236913B11A68988850836068EC
:10B4C0000978828940F2E9320589013A15F0020FC4
:10B4D00092B216D089B2818140F2E9320189013AF3
:10B4E00011F0010F92B206D0828913B11A689B88BD
:10B4F0001383012038BD002AF0D128F007FD23690D
:10B50000F3E7002AE0D128F001FD2369EDE700BF51
:10B510000848002302461178022902F1060204D0ED
:10B520000133062BF7D10020704703EB430300EBF8
:10B5300043007047E0250020F0B5B54C87B02422C9
:10B5400004F5FC60002134F006F894F80968002343
:10B55000C4F80438002E3BD1D4F824386BB39B6A6E
:10B560005BB3AC48984783683BB30388DFF8C8C235
:10B57000013B9BB26046654600212F78032F05F101
:10B5800006051DD001310629F7D1002201780229D4
:10B5900000F1060000F0EE800132062AF6D1D4F860
:10B5A0000418052909D0481C02FB01C2C4F804088C
:10B5B00002200021938010705180304607B0F0BD0A
:10B5C000062303FB0141B1F8E237013B9BB2DCE704
:10B5D00094F8080804F50163C4F80C3808B900268B
:10B5E000BAE726F07DFCC4F8200818B183790BB1C6
:10B5F000412BF4D1751E02236DB29D4284F81038A0
:10B60000EDDC04EB0515D5F8AC37002BE7D0C4F81A
:10B61000143808B12023C380092125F057FAD4F843
:10B620000C38186926F018FFD4F80C587A4828F01E
:10B6300043FC7A496A68B1F802C11688B1F8003152
:10B64000B1F8047106F4415643EA0C033343B1F8F0
:10B650000A61B1F80CC13B433343B1F80E71B1F844
:10B66000106143EA0C033B439BB243F003034FF0EA
:10B67000020C0127A1F806C1A1F808711380938B71
:10B68000674923F400631B041B0C93831682138801
:10B6900023F038031B048A424FEA13436ED001F5AE
:10B6A00080618A426AD0B0F5807FA8BF4FF4807075
:10B6B0000228B8BF0220002890FAA0F0B0FA80F06B
:10B6C00008BF4FF0FF30013843EAC00080B2554B4D
:10B6D00010801188A9819A4200F08B80A3F57443F1
:10B6E0009A4214BF4FF0FF3202224F4E4F4B96E862
:10B6F000030003EB0212AA600123029032208DF8AE
:10B700000C10C4F8445884F84838002525F0ACFCE7
:10B71000052304AA02A9D4F80C088DF812508DF85C
:10B72000115028F0ADFB9DF812109DF811209DF8E6
:10B730001330090241EA0241A6F5FC762A46194374
:10B740000C2001E0A9421CD0D3B200FB03630132FC
:10B75000D3F80052002DF5D194F80808A4F8285821
:10B76000A4F83458C4F82C58C4F830582E4628F0A1
:10B7700065FBF1E6062101FB02C219E7C0F34F00A9
:10B7800091E7B3F80A22B3F80852B3F80602B3F807
:10B7900004622749A4F83428130203FB05F201FBD5
:10B7A00000F0C4F82C3801FB06F14FF48073C4F8A4
:10B7B00030280022C4F84C1884F83628A4F82A3817
:10B7C000A4F82858C4F8500828F076FBD4F8443878
:10B7D0000146586831F04AFCD4F83038B3F1807F24
:10B7E00009D80125134B84F83D582E46C4F8243857
:10B7F000B2E6002279E70122B723D4F8440884F89E
:10B800003C280DF107018DF80730FFF747FEE8E708
:10B81000001E002024260020404B4C0098010020F0
:10B820000038004000300140F0F70308AC2500204C
:10B8300040420F00ACF80308E02500202DE9F0415C
:10B84000C54BC64EC64DC74C0822C3F88820336B83
:10B8500082B043F00103336307464FF4C0522846D9
:10B8600040F2023388466946CDE90023FEF78CFC9E
:10B870006B6AC4F8388E23F470436B626B6AC4F849
:10B88000407E43F420436B626B6AB749C4F83C1EA8
:10B8900023F470236B626B6AB448C4F8540843F411
:10B8A00020236B62736CB249C4F8581843F4804388
:10B8B0007364736BAF48B049C4F8640843F0800305
:10B8C00002257363AD4F84F85C58AD4EAD4DC4F89E
:10B8D000A8184FF0A043C4F86038AB4AC4F8707899
:10B8E00003F53463A1F5D071C4F8AC58C4F874689A
:10B8F000C4F8B038C4F878180123DFF8BCC2C4F823
:10B900006CC807F51077A5F5E465A6F5A066A1F566
:10B910008C61C4F8B478C4F86858C4F8206984F815
:10B920005F3805F5A075536106F5B076C4F8E418E4
:10B9300084F866391946954B954AC4F8EC58A7F532
:10B94000BC67A035C4F8F868924EC4F8F478C4F81F
:10B95000FC3807F5D45703F56953C4F800594FF084
:10B9600050250020DFF854E2C4F82429ACF5687CA7
:10B9700002F5A042C4F82879C4F82C6907F5A0475D
:10B9800006F5A046C4F83039C4F83459A3F5485335
:10B9900004F65405C4F83829C4F84069C4F860397D
:10B9A000C4F8E8E8C4F8F0C80246C4F83C792B466D
:10B9B00084F86809402683F81C21A3F8222101326B
:10B9C000042AC3E9496083F81D1183F81F01C3F8F5
:10B9D000300103F12803EED1002211462B4640200E
:10B9E00083F87423A3F87A230132042AC3E9DF0120
:10B9F00083F8751383F87713C3F8881303F12803CA
:10BA0000EED14FF0A04364489A6822F001029A6098
:10BA1000DA6842F04002DA60FCF7B4FD94F85D3871
:10BA20000022212161F317420BB142F4801294F8F5
:10BA30005718D4F8603801299A6300F0E480DA6876
:10BA4000D4F86069D4F86408C2F3076121F060019A
:10BA500041F0400161F31F620021DA603160026849
:10BA600061F3CC22026094F85F28012A00F0B880CC
:10BA700010214A48FCF7A6FF4848FCF789FFD4F894
:10BA8000640894F8553800224FF0FF31026142619A
:10BA90008161C26153B305F11407414E114607EBB2
:10BAA00083074FEA830C4FF0FF0E56F8042F1368FC
:10BAB000002BACBF00234FF09043B74213601161DD
:10BAC000C2F808E0F1D105F150033649634400277C
:10BAD000FF2651F8042F1568002DACBF00254FF04C
:10BAE00090459942156017619660F2D1036994F808
:10BAF000571843F480730129036161D0D4F860289A
:10BB000029480023936100294FF0FF336FF08041F3
:10BB100051615360516114BF00231023906143F4BD
:10BB200070139069D4F83C1E43F4605343F008034B
:10BB3000034393619368096843F001039360884766
:10BB40001A4B1B4ADA6068461A4B0093FFF7D6F887
:10BB500002B0BDE8F08100BF00E100E00038024023
:10BB600000000240001E0020AC020020080401007A
:10BB70004000400100080050000B00502009005018
:10BB800040090050200B0050003C0140C00500500F
:10BB90000010005000300050602600205426002085
:10BBA00068260020A42600200008008000ED00E0A8
:10BBB0000005FA054302000100090050200500506D
:10BBC000D4F86028144B03636FF08041134D0023B9
:10BBD0004FF0FF30936151615060516195619EE774
:10BBE00001680F4A0F4E41F0030101608021596244
:10BBF0009E62C3F80421E022C3F80821C0F240028B
:10BC0000C3F80C2134E79A6822F03E0141F02A0182
:10BC100061F307029A6012E70301810000080080C7
:10BC2000A00040008000200099B10A6B824216D922
:10BC3000154BD3F8742E914221D34C3991421ED327
:10BC40000B6B9842F9D38B6B9842F6D80B4618468B
:10BC500070470D4BD3F8741E0A6B904212D30B68D9
:10BC60000BB9F4E70A6B90420B4602D38A6B904201
:10BC7000EDD951F84C3F002BF4D118467047002302
:10BC8000184670470A46D8E7001E00202DE9F04705
:10BC9000CC0143D10346224A43F8082B4FF0FF3230
:10BCA0004260022418467E26DFF87880D8F8789E15
:10BCB0002644013E051D49466FF070474FF0010ACA
:10BCC00008E0A3421CD0631C45F8043C321B1C4610
:10BCD0000435CAB10B6BA34202D88B6BA34204D2CA
:10BCE0002046FFF7A1FF014690B10A794B6B002A6D
:10BCF000E7D1A34204D0E6D245F8042C631CE5E763
:10BD000045F8047C631CE1E7C8F8781EBDE8F087BD
:10BD100045F804AC321B631C4946D8E78026C3E7CC
:10BD2000F8FFFF0F001E0020F0B40D6800240CE0A7
:10BD3000BCF1050F18D8A0F137030A2B14D104EB7E
:10BD4000840415F8010B03EB4404A0F13003DEB2C8
:10BD5000092EA0F16107A0F1410CF0D9052FE7D819
:10BD6000A0F157030A2BEAD00D601460F0BC7047B5
:10BD7000036870B55E6A26B133460522BDE870409F
:10BD8000184704460D464E1D00E023689B68204678
:10BD900098470028F9D0236815F8011B1B68204636
:10BDA0009847B542F1D170BD2DE9F0479AB0DDE971
:10BDB000226ADDF8909004460D461746984602E048
:10BDC000206825F037FE206825F03CFE0028F7D1DA
:10BDD0000146642201A833F0BEFB254B8DF80450C8
:10BDE000CDF85CA00293002D3ED0AB1E012B3DD9B7
:10BDF000042D14BF00230323DFF878A08DF805304D
:10BE0000DAF8583103961E440123CDE905940496CF
:10BE10008DF85B3037B14246394607A833F03AFB1C
:10BE20008DF85A809AF8C26E00231893CEB99AF80A
:10BE3000C10E642202FB00A001A900F6C46033F029
:10BE400029FB01238AF8C16E8AF8C23E236843B1F8
:10BE500043463A46294620461AB0BDE8F04709F065
:10BE600039BD1AB0BDE8F0870523C5E70223C3E753
:10BE7000802C0020001E002070B5084C251D2E4689
:10BE800014F8010B1BF07AFF28B1037805F8013B89
:10BE9000B442F5D170BDFF23F8E700BF2C2D002080
:10BEA0002DE9F0471D4F012607F10805B2464FF076
:10BEB0003C094FF0000817F8010B26F011F8044672
:10BEC00090B180F80690C671FB7803F07F02012ADA
:10BED00018D013F0800F20460DD185F8048026F08D
:10BEE000B5FA85F805802C600136052E05F10805A8
:10BEF000E1D1BDE8F08785F804A026F0ADFA85F819
:10BF000005A0F0E71B0605D40121204624F0DEFD44
:10BF1000FB78DEE726F0A0FAF6E700BF342D00201C
:10BF20009FED737A07EE901A20EE070AF8EE677A13
:10BF300027EE800AFDEEC07A17EE903A2033402BB0
:10BF400000F2C780DFED6B7AB4EEE70AF1EE10FA8B
:10BF5000F0EE407A0CDD9FED686ADFED686AB0EEC6
:10BF6000677AB4EEE67AF1EE10FA77EEC67AF6DC8E
:10BF70009FED637AF4EEC77AF1EE10FA0CD59FEDDF
:10BF80005E6ADFED606AB0EE677AB4EEE67AF1EEF3
:10BF900010FA77EE867AF6D49FED5B7AF4EEC77AE4
:10BFA000F1EE10FA00F38D809FED587AF4EEC77A27
:10BFB000F1EE10FA44BF9FED527A77EE677A27EEE2
:10BFC000A76ADFED535A9FED537ADFED536AA6EE71
:10BFD000257A67EE865AE6EE076AB6EE007AE5EE57
:10BFE000A67A27EE877ADFED486A70EE267ABDEEF4
:10BFF000E76A16EE103A2033402B67D8B4EEE60A13
:10C00000F1EE10FA0CDDDFED3C5A9FED3C6AF0EEEC
:10C01000676AF4EEC66AF1EE10FA77EEE57AF6DCBE
:10C02000DFED376AF4EEE67AF1EE10FA0CD5DFEDCB
:10C03000325A9FED346AF0EE676AF4EEC66AF1EEAA
:10C0400010FA77EEA57AF6D4DFED2F6AF4EEE67AF1
:10C05000F1EE10FA40DDDFED276A76EEE77A67EE63
:10C06000A75A9FED2B5A9FED2B6ADFED2B6AA5EEA9
:10C07000856A27EEA55AE5EE866AB8EE006AE5EE17
:10C08000267A67EE867AC7EE206A002383614361D1
:10C090000362C361B7EE006A76EE865A76EE666A90
:10C0A00086EE257A67EE277A66EE876AC0ED017A1A
:10C0B000C0ED037A80ED007A80ED027AC0ED046A6B
:10C0C00070479FED0C7A77EE677A78E7DFED137AA9
:10C0D000D9E79FED127A86E7DFED0C6AF4EEE67A97
:10C0E000F1EE10FA44BFDFED066A76EEE77AB6E7C6
:10C0F00027D4D236DB0F4940DB0FC940E4CB1641D1
:10C10000DB0F49C0E4CB16C1DB0FC93FDB0FC9BF52
:10C1100092E741B99730083C15A82ABE00000000FC
:10C120002DE9F04FDFF89C91DFF89CA183B009F175
:10C130000C05012419F8017B002F00F0A4803E09B2
:10C14000013E032E07F00F0100F2A0800AEB460328
:10C15000B3F8E00240FA01F212F0010200F0A88008
:10C1600001238B40013B1840564432F0A7F996F862
:10C17000E83218444F4B03EBC00004226861C471DD
:10C18000827138462246042124F0F6FA00287AD03B
:10C19000D5F814C0BCF1000F5CD0DCF80030067A92
:10C1A00003F13F4202F57E020AEB92220127117E43
:10C1B00001F01F024909032907FA02F76ED004298A
:10C1C00067D002296FD0BCF804E0BEFA8EF2C2F14B
:10C1D0001F02C2F3CC0103EB810102F007020F6AD8
:10C1E00092004FF00F0C0CFA02FC27EA0C070F62CA
:10C1F0000F6A96403E4300220E624FF0010B11463B
:10C200000BFA01FC3CEA0E0601F101011ED11E6889
:10C210000327974026EA07061E60D3F8008002260F
:10C22000964046EA08061E609E6826EA07069E605B
:10C230009E689E605E6826EA0C065E605E685E60D0
:10C24000DE6826EA0706DE60DE68DE60102902F19D
:10C250000202D5D1184B194AB3F85C1FB3F85E3F00
:10C260000091002601340146B2FBF3F328469BB24D
:10C270000196E4B21AF0FCFF0123092C6B7405F15E
:10C2800018057FF457AF03B0BDE8F08F00236B6152
:10C2900077E70B490A6B17430F6394E708490A6C69
:10C2A00017430F648FE706494A6C17434F648AE7C8
:10C2B0006A6166E7B4230020001E002040420F00A0
:10C2C00000380240602D0020F8F503082DE9F04108
:10C2D0008C4C82B014F8CC3C0190002B40F00C81C7
:10C2E00014F8A83C34F8A62CDFED876A34F8A48C47
:10C2F00024F8908C07EE103A07EE902AB8EEC76A41
:10C30000B7EE007A34F8AA2CF0EE475A4FEA480507
:10C31000E6EE665A9542B8BF1546A6EE267AAEB24C
:10C320000122F8EEE77A24F88E6C67EEA67A44EDE7
:10C33000275A04ED267A44ED257A04F8CC2C002BFC
:10C3400000F0D680DDED017A9FED700AF8EE677A95
:10C35000ADB280EE270A32F04DFF6D00B0FBF5F56F
:10C36000012DB8BF0125EDB2B0FBF5F39BB2074636
:10C3700004F88C5C00EE103ABBEEED0A04ED220AE4
:10C3800032F038FF624BDFED636AB8FBF0F0A3FBDD
:10C390000737FF0807EE907AF8EEE77A022886EE74
:10C3A000A77AB8BF02205C4904F8840C00239FEDF3
:10C3B0005B1A9FED5B6ADFED5B1ADFED5B5A9FED69
:10C3C0005B2ADFED5B2A9FED5B3ADFED5B3A9FED89
:10C3D0005B4A04ED207A07EE903AB8EEE77AF0EE89
:10C3E000467AE7EE017AFDEEE76A16EE902A2032F1
:10C3F000402A7AD8B4EEE17AF1EE10FA0CDDDFEDE6
:10C40000506A9FED507AB0EE675AB4EEC75AF1EE1B
:10C4100010FA77EEE67AF6DCF4EEE57AF1EE10FA51
:10C420000CD5DFED476A9FED487AB0EE675AB4EE5F
:10C43000C75AF1EE10FA77EEA67AF6D4F4EEC67A81
:10C44000F1EE10FA49DD74EE677A67EEA76AF0EE56
:10C45000624AE6EE824AF0EE430AE6EEA40AB7EE3E
:10C46000007A27EEE65A77EE677AB6EE007AE5EEC6
:10C47000207A67EE877A0133202BE1EC017AAAD18A
:10C4800007EE905AF8EEE77AF7EE006A86EEA77AA2
:10C490002E4B2F4AC4F8303603F12801A833C4F8D4
:10C4A0002C161020C4F83C362021142384F88D5417
:10C4B000A4F82806A4F8381607EE906AF8EE677A12
:10C4C000A4F8343682ED007AC2EDAC7AC2EDAD7AD2
:10C4D000C2EDAE7A02B0BDE8F081F4EEE37AF1EE9F
:10C4E00010FA48BF75EEE77AAFE7F6EE007AC2E7DA
:10C4F000184A82F8303125E714F88C5C34F88E6CD9
:10C50000BEE700BFF82E00200AD7233C0024744960
:10C51000ABAAAAAADB0FC9417C2E00203C8C4F3E5F
:10C52000DB0FC93F0100F840DB0F49C092E741B97A
:10C530009730083C15A82ABEDB0FC9BFDB0F494066
:10C54000DB0FC940E4CB1641E4CB16C1E4F8030885
:10C5500088330020980100202DE9F041214E224F20
:10C5600096F85F3787F83C3706F25C7607F5E865A2
:10C5700000244FF0050816F8010B20BB2860013499
:10C58000032C05F10405F6D197F83C17D7F84007BE
:10C59000C94301F0010125F065FF97F83C17D7F872
:10C5A000440781F00201C1F3400125F05BFF97F8D9
:10C5B0003C17D7F8480781F00401BDE8F041C1F30A
:10C5C000800125F04FBF25F08BFC0134012128604C
:10C5D000E3B210B180F80680C371286824F076FABF
:10C5E000CEE700BFF82E0020001E00202DE9F0410C
:10C5F0002C4C2D4DB4F86467A5F84C6782B0EEB9A9
:10C6000094F8600725F06CFC94F86127C5F8500792
:10C61000003A18BF012285F84E2748B194F86217F6
:10C620002B22002914BF11210121C28024F04EFACF
:10C63000002002B0BDE8F04126F05EBF94F86087AC
:10C64000B8F1000F2AD000222B21404624F094F8A4
:10C650000746404625F044FC00B3FFB12B22C5F845
:10C660006807C2803A7A022125F074FA4FF0000878
:10C670000E4AB2FBF6F3C3F34F0000909BB239466B
:10C68000CDF8048005F25470A4F866671AF0F0FD46
:10C69000D5F85437C3F8008085F8658702B0BDE847
:10C6A000F08100BFF82E0020001E002040420F0045
:10C6B0002DE9F84F244C94F8743784F8683704F265
